{
  "contractName": "EterlandWorld",
  "abi": [
    {
      "inputs": [
        {
          "internalType": "address",
          "name": "ceo",
          "type": "address"
        },
        {
          "internalType": "address",
          "name": "coo",
          "type": "address"
        }
      ],
      "stateMutability": "nonpayable",
      "type": "constructor"
    },
    {
      "anonymous": false,
      "inputs": [
        {
          "indexed": true,
          "internalType": "address",
          "name": "owner",
          "type": "address"
        },
        {
          "indexed": true,
          "internalType": "address",
          "name": "approved",
          "type": "address"
        },
        {
          "indexed": true,
          "internalType": "uint256",
          "name": "tokenId",
          "type": "uint256"
        }
      ],
      "name": "Approval",
      "type": "event"
    },
    {
      "anonymous": false,
      "inputs": [
        {
          "indexed": true,
          "internalType": "address",
          "name": "owner",
          "type": "address"
        },
        {
          "indexed": true,
          "internalType": "address",
          "name": "operator",
          "type": "address"
        },
        {
          "indexed": false,
          "internalType": "bool",
          "name": "approved",
          "type": "bool"
        }
      ],
      "name": "ApprovalForAll",
      "type": "event"
    },
    {
      "anonymous": false,
      "inputs": [
        {
          "indexed": false,
          "internalType": "address",
          "name": "owner",
          "type": "address"
        },
        {
          "indexed": false,
          "internalType": "uint256",
          "name": "id",
          "type": "uint256"
        }
      ],
      "name": "New",
      "type": "event"
    },
    {
      "anonymous": false,
      "inputs": [
        {
          "indexed": true,
          "internalType": "bytes32",
          "name": "role",
          "type": "bytes32"
        },
        {
          "indexed": true,
          "internalType": "bytes32",
          "name": "previousAdminRole",
          "type": "bytes32"
        },
        {
          "indexed": true,
          "internalType": "bytes32",
          "name": "newAdminRole",
          "type": "bytes32"
        }
      ],
      "name": "RoleAdminChanged",
      "type": "event"
    },
    {
      "anonymous": false,
      "inputs": [
        {
          "indexed": true,
          "internalType": "bytes32",
          "name": "role",
          "type": "bytes32"
        },
        {
          "indexed": true,
          "internalType": "address",
          "name": "account",
          "type": "address"
        },
        {
          "indexed": true,
          "internalType": "address",
          "name": "sender",
          "type": "address"
        }
      ],
      "name": "RoleGranted",
      "type": "event"
    },
    {
      "anonymous": false,
      "inputs": [
        {
          "indexed": true,
          "internalType": "bytes32",
          "name": "role",
          "type": "bytes32"
        },
        {
          "indexed": true,
          "internalType": "address",
          "name": "account",
          "type": "address"
        },
        {
          "indexed": true,
          "internalType": "address",
          "name": "sender",
          "type": "address"
        }
      ],
      "name": "RoleRevoked",
      "type": "event"
    },
    {
      "anonymous": false,
      "inputs": [
        {
          "indexed": false,
          "internalType": "address",
          "name": "owner",
          "type": "address"
        },
        {
          "indexed": false,
          "internalType": "uint256",
          "name": "id",
          "type": "uint256"
        },
        {
          "indexed": false,
          "internalType": "bool",
          "name": "status",
          "type": "bool"
        }
      ],
      "name": "StatusChanged",
      "type": "event"
    },
    {
      "anonymous": false,
      "inputs": [
        {
          "indexed": true,
          "internalType": "address",
          "name": "from",
          "type": "address"
        },
        {
          "indexed": true,
          "internalType": "address",
          "name": "to",
          "type": "address"
        },
        {
          "indexed": true,
          "internalType": "uint256",
          "name": "tokenId",
          "type": "uint256"
        }
      ],
      "name": "Transfer",
      "type": "event"
    },
    {
      "inputs": [],
      "name": "DEFAULT_ADMIN_ROLE",
      "outputs": [
        {
          "internalType": "bytes32",
          "name": "",
          "type": "bytes32"
        }
      ],
      "stateMutability": "view",
      "type": "function"
    },
    {
      "inputs": [],
      "name": "MINTER_ROLE",
      "outputs": [
        {
          "internalType": "bytes32",
          "name": "",
          "type": "bytes32"
        }
      ],
      "stateMutability": "view",
      "type": "function"
    },
    {
      "inputs": [],
      "name": "NFT_ADMINISTRATOR_ROLE",
      "outputs": [
        {
          "internalType": "bytes32",
          "name": "",
          "type": "bytes32"
        }
      ],
      "stateMutability": "view",
      "type": "function"
    },
    {
      "inputs": [
        {
          "internalType": "address",
          "name": "to",
          "type": "address"
        },
        {
          "internalType": "uint256",
          "name": "tokenId",
          "type": "uint256"
        }
      ],
      "name": "approve",
      "outputs": [],
      "stateMutability": "nonpayable",
      "type": "function"
    },
    {
      "inputs": [
        {
          "internalType": "address",
          "name": "_address",
          "type": "address"
        },
        {
          "internalType": "bytes32",
          "name": "_role",
          "type": "bytes32"
        }
      ],
      "name": "_approveRoleVote",
      "outputs": [
        {
          "internalType": "bool",
          "name": "",
          "type": "bool"
        }
      ],
      "stateMutability": "nonpayable",
      "type": "function"
    },
    {
      "inputs": [
        {
          "internalType": "address",
          "name": "owner",
          "type": "address"
        }
      ],
      "name": "balanceOf",
      "outputs": [
        {
          "internalType": "uint256",
          "name": "",
          "type": "uint256"
        }
      ],
      "stateMutability": "view",
      "type": "function"
    },
    {
      "inputs": [
        {
          "internalType": "uint256",
          "name": "tokenId",
          "type": "uint256"
        }
      ],
      "name": "getApproved",
      "outputs": [
        {
          "internalType": "address",
          "name": "",
          "type": "address"
        }
      ],
      "stateMutability": "view",
      "type": "function"
    },
    {
      "inputs": [
        {
          "internalType": "bytes32",
          "name": "role",
          "type": "bytes32"
        }
      ],
      "name": "getRoleAdmin",
      "outputs": [
        {
          "internalType": "bytes32",
          "name": "",
          "type": "bytes32"
        }
      ],
      "stateMutability": "view",
      "type": "function"
    },
    {
      "inputs": [
        {
          "internalType": "bytes32",
          "name": "role",
          "type": "bytes32"
        },
        {
          "internalType": "address",
          "name": "account",
          "type": "address"
        }
      ],
      "name": "grantRole",
      "outputs": [],
      "stateMutability": "nonpayable",
      "type": "function"
    },
    {
      "inputs": [
        {
          "internalType": "bytes32",
          "name": "role",
          "type": "bytes32"
        },
        {
          "internalType": "address",
          "name": "account",
          "type": "address"
        }
      ],
      "name": "hasRole",
      "outputs": [
        {
          "internalType": "bool",
          "name": "",
          "type": "bool"
        }
      ],
      "stateMutability": "view",
      "type": "function"
    },
    {
      "inputs": [
        {
          "internalType": "address",
          "name": "owner",
          "type": "address"
        },
        {
          "internalType": "address",
          "name": "operator",
          "type": "address"
        }
      ],
      "name": "isApprovedForAll",
      "outputs": [
        {
          "internalType": "bool",
          "name": "",
          "type": "bool"
        }
      ],
      "stateMutability": "view",
      "type": "function"
    },
    {
      "inputs": [],
      "name": "name",
      "outputs": [
        {
          "internalType": "string",
          "name": "",
          "type": "string"
        }
      ],
      "stateMutability": "view",
      "type": "function"
    },
    {
      "inputs": [
        {
          "internalType": "uint256",
          "name": "tokenId",
          "type": "uint256"
        }
      ],
      "name": "ownerOf",
      "outputs": [
        {
          "internalType": "address",
          "name": "",
          "type": "address"
        }
      ],
      "stateMutability": "view",
      "type": "function"
    },
    {
      "inputs": [
        {
          "internalType": "bytes32",
          "name": "role",
          "type": "bytes32"
        },
        {
          "internalType": "address",
          "name": "account",
          "type": "address"
        }
      ],
      "name": "renounceRole",
      "outputs": [],
      "stateMutability": "nonpayable",
      "type": "function"
    },
    {
      "inputs": [
        {
          "internalType": "bytes32",
          "name": "role",
          "type": "bytes32"
        },
        {
          "internalType": "address",
          "name": "account",
          "type": "address"
        }
      ],
      "name": "revokeRole",
      "outputs": [],
      "stateMutability": "nonpayable",
      "type": "function"
    },
    {
      "inputs": [
        {
          "internalType": "address",
          "name": "_address",
          "type": "address"
        },
        {
          "internalType": "bytes32",
          "name": "_role",
          "type": "bytes32"
        }
      ],
      "name": "_revokeRoleVote",
      "outputs": [
        {
          "internalType": "bool",
          "name": "",
          "type": "bool"
        }
      ],
      "stateMutability": "nonpayable",
      "type": "function"
    },
    {
      "inputs": [
        {
          "internalType": "address",
          "name": "from",
          "type": "address"
        },
        {
          "internalType": "address",
          "name": "to",
          "type": "address"
        },
        {
          "internalType": "uint256",
          "name": "tokenId",
          "type": "uint256"
        }
      ],
      "name": "safeTransferFrom",
      "outputs": [],
      "stateMutability": "nonpayable",
      "type": "function"
    },
    {
      "inputs": [
        {
          "internalType": "address",
          "name": "from",
          "type": "address"
        },
        {
          "internalType": "address",
          "name": "to",
          "type": "address"
        },
        {
          "internalType": "uint256",
          "name": "tokenId",
          "type": "uint256"
        },
        {
          "internalType": "bytes",
          "name": "_data",
          "type": "bytes"
        }
      ],
      "name": "safeTransferFrom",
      "outputs": [],
      "stateMutability": "nonpayable",
      "type": "function"
    },
    {
      "inputs": [
        {
          "internalType": "address",
          "name": "operator",
          "type": "address"
        },
        {
          "internalType": "bool",
          "name": "approved",
          "type": "bool"
        }
      ],
      "name": "setApprovalForAll",
      "outputs": [],
      "stateMutability": "nonpayable",
      "type": "function"
    },
    {
      "inputs": [],
      "name": "symbol",
      "outputs": [
        {
          "internalType": "string",
          "name": "",
          "type": "string"
        }
      ],
      "stateMutability": "view",
      "type": "function"
    },
    {
      "inputs": [
        {
          "internalType": "uint256",
          "name": "tokenId",
          "type": "uint256"
        }
      ],
      "name": "tokenURI",
      "outputs": [
        {
          "internalType": "string",
          "name": "",
          "type": "string"
        }
      ],
      "stateMutability": "view",
      "type": "function"
    },
    {
      "inputs": [
        {
          "internalType": "address",
          "name": "from",
          "type": "address"
        },
        {
          "internalType": "address",
          "name": "to",
          "type": "address"
        },
        {
          "internalType": "uint256",
          "name": "tokenId",
          "type": "uint256"
        }
      ],
      "name": "transferFrom",
      "outputs": [],
      "stateMutability": "nonpayable",
      "type": "function"
    },
    {
      "inputs": [
        {
          "internalType": "address",
          "name": "player",
          "type": "address"
        }
      ],
      "name": "mint",
      "outputs": [
        {
          "internalType": "uint256",
          "name": "",
          "type": "uint256"
        }
      ],
      "stateMutability": "nonpayable",
      "type": "function"
    },
    {
      "inputs": [
        {
          "internalType": "uint256",
          "name": "id",
          "type": "uint256"
        }
      ],
      "name": "burn",
      "outputs": [],
      "stateMutability": "nonpayable",
      "type": "function"
    },
    {
      "inputs": [
        {
          "internalType": "uint256",
          "name": "id",
          "type": "uint256"
        },
        {
          "internalType": "bool",
          "name": "status",
          "type": "bool"
        }
      ],
      "name": "changeStatus",
      "outputs": [],
      "stateMutability": "nonpayable",
      "type": "function"
    },
    {
      "inputs": [
        {
          "internalType": "uint256",
          "name": "id",
          "type": "uint256"
        }
      ],
      "name": "isDisabled",
      "outputs": [
        {
          "internalType": "bool",
          "name": "",
          "type": "bool"
        }
      ],
      "stateMutability": "view",
      "type": "function"
    },
    {
      "inputs": [
        {
          "internalType": "bytes4",
          "name": "interfaceId",
          "type": "bytes4"
        }
      ],
      "name": "supportsInterface",
      "outputs": [
        {
          "internalType": "bool",
          "name": "",
          "type": "bool"
        }
      ],
      "stateMutability": "view",
      "type": "function"
    }
  ],
  "bytecode": "0x60806040523480156200001157600080fd5b5060405162004c3a38038062004c3a8339818101604052810190620000379190620003c2565b6040518060400160405280600881526020017f457465726c616e640000000000000000000000000000000000000000000000008152506040518060400160405280600381526020017f49544d00000000000000000000000000000000000000000000000000000000008152508160009080519060200190620000bb929190620002a8565b508060019080519060200190620000d4929190620002a8565b505050620000fb6000801b620000ef6200012d60201b60201c565b6200013560201b60201c565b620001106000801b836200013560201b60201c565b620001256000801b826200013560201b60201c565b50506200046e565b600033905090565b6200014782826200014b60201b60201c565b5050565b6200015d82826200023d60201b60201c565b620002395760016006600084815260200190815260200160002060000160008373ffffffffffffffffffffffffffffffffffffffff1673ffffffffffffffffffffffffffffffffffffffff16815260200190815260200160002060006101000a81548160ff021916908315150217905550620001de6200012d60201b60201c565b73ffffffffffffffffffffffffffffffffffffffff168173ffffffffffffffffffffffffffffffffffffffff16837f2f8788117e7eff1d82e926ec794901d17c78024a50270940304540a733656f0d60405160405180910390a45b5050565b60006006600084815260200190815260200160002060000160008373ffffffffffffffffffffffffffffffffffffffff1673ffffffffffffffffffffffffffffffffffffffff16815260200190815260200160002060009054906101000a900460ff16905092915050565b828054620002b69062000438565b90600052602060002090601f016020900481019282620002da576000855562000326565b82601f10620002f557805160ff191683800117855562000326565b8280016001018555821562000326579182015b828111156200032557825182559160200191906001019062000308565b5b50905062000335919062000339565b5090565b5b80821115620003545760008160009055506001016200033a565b5090565b600080fd5b600073ffffffffffffffffffffffffffffffffffffffff82169050919050565b60006200038a826200035d565b9050919050565b6200039c816200037d565b8114620003a857600080fd5b50565b600081519050620003bc8162000391565b92915050565b60008060408385031215620003dc57620003db62000358565b5b6000620003ec85828601620003ab565b9250506020620003ff85828601620003ab565b9150509250929050565b7f4e487b7100000000000000000000000000000000000000000000000000000000600052602260045260246000fd5b600060028204905060018216806200045157607f821691505b6020821081141562000468576200046762000409565b5b50919050565b6147bc806200047e6000396000f3fe608060405234801561001057600080fd5b50600436106101a95760003560e01c80636d2f22a3116100f9578063ad25ca2911610097578063d539139311610071578063d539139314610516578063d547741f14610534578063e985e9c514610550578063fa2693b314610580576101a9565b8063ad25ca291461049a578063b88d4fde146104ca578063c87b56dd146104e6576101a9565b806391d14854116100d357806391d148541461041257806395d89b4114610442578063a217fddf14610460578063a22cb4651461047e576101a9565b80636d2f22a31461038257806370a08231146103b25780638ea50426146103e2576101a9565b80632f2ff15d1161016657806342842e0e1161014057806342842e0e146102ea57806342966c68146103065780636352211e146103225780636a62784214610352576101a9565b80632f2ff15d1461029457806336568abe146102b057806340097729146102cc576101a9565b806301ffc9a7146101ae57806306fdde03146101de578063081812fc146101fc578063095ea7b31461022c57806323b872dd14610248578063248a9ca314610264575b600080fd5b6101c860048036038101906101c39190613122565b61059c565b6040516101d5919061316a565b60405180910390f35b6101e66105ae565b6040516101f3919061321e565b60405180910390f35b61021660048036038101906102119190613276565b610640565b60405161022391906132e4565b60405180910390f35b6102466004803603810190610241919061332b565b6106c5565b005b610262600480360381019061025d919061336b565b6107dd565b005b61027e600480360381019061027991906133f4565b61083d565b60405161028b9190613430565b60405180910390f35b6102ae60048036038101906102a9919061344b565b61085d565b005b6102ca60048036038101906102c5919061344b565b610af2565b005b6102d4610b75565b6040516102e19190613430565b60405180910390f35b61030460048036038101906102ff919061336b565b610b99565b005b610320600480360381019061031b9190613276565b610bb9565b005b61033c60048036038101906103379190613276565b610c15565b60405161034991906132e4565b60405180910390f35b61036c6004803603810190610367919061348b565b610cc7565b60405161037991906134c7565b60405180910390f35b61039c600480360381019061039791906134e2565b610d9d565b6040516103a9919061316a565b60405180910390f35b6103cc60048036038101906103c7919061348b565b611141565b6040516103d991906134c7565b60405180910390f35b6103fc60048036038101906103f791906134e2565b6111f9565b604051610409919061316a565b60405180910390f35b61042c6004803603810190610427919061344b565b61159d565b604051610439919061316a565b60405180910390f35b61044a611608565b604051610457919061321e565b60405180910390f35b61046861169a565b6040516104759190613430565b60405180910390f35b6104986004803603810190610493919061354e565b6116a1565b005b6104b460048036038101906104af9190613276565b611822565b6040516104c1919061316a565b60405180910390f35b6104e460048036038101906104df91906136c3565b611894565b005b61050060048036038101906104fb9190613276565b6118f6565b60405161050d919061321e565b60405180910390f35b61051e61199d565b60405161052b9190613430565b60405180910390f35b61054e6004803603810190610549919061344b565b6119c1565b005b61056a60048036038101906105659190613746565b611c71565b604051610577919061316a565b60405180910390f35b61059a60048036038101906105959190613786565b611d05565b005b60006105a782611e35565b9050919050565b6060600080546105bd906137f5565b80601f01602080910402602001604051908101604052809291908181526020018280546105e9906137f5565b80156106365780601f1061060b57610100808354040283529160200191610636565b820191906000526020600020905b81548152906001019060200180831161061957829003601f168201915b5050505050905090565b600061064b82611eaf565b61068a576040517f08c379a000000000000000000000000000000000000000000000000000000000815260040161068190613899565b60405180910390fd5b6004600083815260200190815260200160002060009054906101000a900473ffffffffffffffffffffffffffffffffffffffff169050919050565b60006106d082610c15565b90508073ffffffffffffffffffffffffffffffffffffffff168373ffffffffffffffffffffffffffffffffffffffff161415610741576040517f08c379a00000000000000000000000000000000000000000000000000000000081526004016107389061392b565b60405180910390fd5b8073ffffffffffffffffffffffffffffffffffffffff16610760611f1b565b73ffffffffffffffffffffffffffffffffffffffff16148061078f575061078e81610789611f1b565b611c71565b5b6107ce576040517f08c379a00000000000000000000000000000000000000000000000000000000081526004016107c5906139bd565b60405180910390fd5b6107d88383611f23565b505050565b6107ee6107e8611f1b565b82611fdc565b61082d576040517f08c379a000000000000000000000000000000000000000000000000000000000815260040161082490613a4f565b60405180910390fd5b6108388383836120ba565b505050565b600060066000838152602001908152602001600020600101549050919050565b6108678183610d9d565b50600073ffffffffffffffffffffffffffffffffffffffff16600760008373ffffffffffffffffffffffffffffffffffffffff1673ffffffffffffffffffffffffffffffffffffffff168152602001908152602001600020600084815260200190815260200160002060000160009054906101000a900473ffffffffffffffffffffffffffffffffffffffff1673ffffffffffffffffffffffffffffffffffffffff16141580156109b85750600073ffffffffffffffffffffffffffffffffffffffff16600760008373ffffffffffffffffffffffffffffffffffffffff1673ffffffffffffffffffffffffffffffffffffffff168152602001908152602001600020600084815260200190815260200160002060010160009054906101000a900473ffffffffffffffffffffffffffffffffffffffff1673ffffffffffffffffffffffffffffffffffffffff1614155b15610aee576109c78282612316565b6000600760008373ffffffffffffffffffffffffffffffffffffffff1673ffffffffffffffffffffffffffffffffffffffff168152602001908152602001600020600084815260200190815260200160002060000160006101000a81548173ffffffffffffffffffffffffffffffffffffffff021916908373ffffffffffffffffffffffffffffffffffffffff1602179055506000600760008373ffffffffffffffffffffffffffffffffffffffff1673ffffffffffffffffffffffffffffffffffffffff168152602001908152602001600020600084815260200190815260200160002060010160006101000a81548173ffffffffffffffffffffffffffffffffffffffff021916908373ffffffffffffffffffffffffffffffffffffffff1602179055505b5050565b610afa611f1b565b73ffffffffffffffffffffffffffffffffffffffff168173ffffffffffffffffffffffffffffffffffffffff1614610b67576040517f08c379a0000000000000000000000000000000000000000000000000000000008152600401610b5e90613ae1565b60405180910390fd5b610b71828261233f565b5050565b7f5258f6827f4005e20713eae0fc82f5358349cc7fdb43330955314f15ccc2941c81565b610bb483838360405180602001604052806000815250611894565b505050565b610bca610bc4611f1b565b82611fdc565b610c09576040517f08c379a0000000000000000000000000000000000000000000000000000000008152600401610c0090613a4f565b60405180910390fd5b610c1281612421565b50565b6000806002600084815260200190815260200160002060009054906101000a900473ffffffffffffffffffffffffffffffffffffffff169050600073ffffffffffffffffffffffffffffffffffffffff168173ffffffffffffffffffffffffffffffffffffffff161415610cbe576040517f08c379a0000000000000000000000000000000000000000000000000000000008152600401610cb590613b73565b60405180910390fd5b80915050919050565b6000610cfa7f9f2df0fed2c77648de5860a4cc508cd0818c85b8b8a1ab4ceeef8d981c8956a6610cf5611f1b565b61159d565b610d39576040517f08c379a0000000000000000000000000000000000000000000000000000000008152600401610d3090613bdf565b60405180910390fd5b610d436009612532565b6000610d4f6009612548565b9050610d5b8382612556565b7f5ffa79b7144a1de65a6ea060c5a1147ba5dd9ef9597e960ce5f7648b604e9e1d8382604051610d8c929190613bff565b60405180910390a180915050919050565b60008073ffffffffffffffffffffffffffffffffffffffff168373ffffffffffffffffffffffffffffffffffffffff161415610dd857600080fd5b3373ffffffffffffffffffffffffffffffffffffffff16600760008573ffffffffffffffffffffffffffffffffffffffff1673ffffffffffffffffffffffffffffffffffffffff168152602001908152602001600020600084815260200190815260200160002060000160009054906101000a900473ffffffffffffffffffffffffffffffffffffffff1673ffffffffffffffffffffffffffffffffffffffff1614158015610f2657503373ffffffffffffffffffffffffffffffffffffffff16600760008573ffffffffffffffffffffffffffffffffffffffff1673ffffffffffffffffffffffffffffffffffffffff168152602001908152602001600020600084815260200190815260200160002060010160009054906101000a900473ffffffffffffffffffffffffffffffffffffffff1673ffffffffffffffffffffffffffffffffffffffff1614155b610f65576040517f08c379a0000000000000000000000000000000000000000000000000000000008152600401610f5c90613c74565b60405180910390fd5b600073ffffffffffffffffffffffffffffffffffffffff16600760008573ffffffffffffffffffffffffffffffffffffffff1673ffffffffffffffffffffffffffffffffffffffff168152602001908152602001600020600084815260200190815260200160002060000160009054906101000a900473ffffffffffffffffffffffffffffffffffffffff1673ffffffffffffffffffffffffffffffffffffffff1614156110a45733600760008573ffffffffffffffffffffffffffffffffffffffff1673ffffffffffffffffffffffffffffffffffffffff168152602001908152602001600020600084815260200190815260200160002060000160006101000a81548173ffffffffffffffffffffffffffffffffffffffff021916908373ffffffffffffffffffffffffffffffffffffffff160217905550611137565b33600760008573ffffffffffffffffffffffffffffffffffffffff1673ffffffffffffffffffffffffffffffffffffffff168152602001908152602001600020600084815260200190815260200160002060010160006101000a81548173ffffffffffffffffffffffffffffffffffffffff021916908373ffffffffffffffffffffffffffffffffffffffff1602179055505b6001905092915050565b60008073ffffffffffffffffffffffffffffffffffffffff168273ffffffffffffffffffffffffffffffffffffffff1614156111b2576040517f08c379a00000000000000000000000000000000000000000000000000000000081526004016111a990613d06565b60405180910390fd5b600360008373ffffffffffffffffffffffffffffffffffffffff1673ffffffffffffffffffffffffffffffffffffffff168152602001908152602001600020549050919050565b60008073ffffffffffffffffffffffffffffffffffffffff168373ffffffffffffffffffffffffffffffffffffffff16141561123457600080fd5b3373ffffffffffffffffffffffffffffffffffffffff16600860008573ffffffffffffffffffffffffffffffffffffffff1673ffffffffffffffffffffffffffffffffffffffff168152602001908152602001600020600084815260200190815260200160002060000160009054906101000a900473ffffffffffffffffffffffffffffffffffffffff1673ffffffffffffffffffffffffffffffffffffffff161415801561138257503373ffffffffffffffffffffffffffffffffffffffff16600860008573ffffffffffffffffffffffffffffffffffffffff1673ffffffffffffffffffffffffffffffffffffffff168152602001908152602001600020600084815260200190815260200160002060010160009054906101000a900473ffffffffffffffffffffffffffffffffffffffff1673ffffffffffffffffffffffffffffffffffffffff1614155b6113c1576040517f08c379a00000000000000000000000000000000000000000000000000000000081526004016113b890613c74565b60405180910390fd5b600073ffffffffffffffffffffffffffffffffffffffff16600860008573ffffffffffffffffffffffffffffffffffffffff1673ffffffffffffffffffffffffffffffffffffffff168152602001908152602001600020600084815260200190815260200160002060000160009054906101000a900473ffffffffffffffffffffffffffffffffffffffff1673ffffffffffffffffffffffffffffffffffffffff1614156115005733600860008573ffffffffffffffffffffffffffffffffffffffff1673ffffffffffffffffffffffffffffffffffffffff168152602001908152602001600020600084815260200190815260200160002060000160006101000a81548173ffffffffffffffffffffffffffffffffffffffff021916908373ffffffffffffffffffffffffffffffffffffffff160217905550611593565b33600860008573ffffffffffffffffffffffffffffffffffffffff1673ffffffffffffffffffffffffffffffffffffffff168152602001908152602001600020600084815260200190815260200160002060010160006101000a81548173ffffffffffffffffffffffffffffffffffffffff021916908373ffffffffffffffffffffffffffffffffffffffff1602179055505b6001905092915050565b60006006600084815260200190815260200160002060000160008373ffffffffffffffffffffffffffffffffffffffff1673ffffffffffffffffffffffffffffffffffffffff16815260200190815260200160002060009054906101000a900460ff16905092915050565b606060018054611617906137f5565b80601f0160208091040260200160405190810160405280929190818152602001828054611643906137f5565b80156116905780601f1061166557610100808354040283529160200191611690565b820191906000526020600020905b81548152906001019060200180831161167357829003601f168201915b5050505050905090565b6000801b81565b6116a9611f1b565b73ffffffffffffffffffffffffffffffffffffffff168273ffffffffffffffffffffffffffffffffffffffff161415611717576040517f08c379a000000000000000000000000000000000000000000000000000000000815260040161170e90613d72565b60405180910390fd5b8060056000611724611f1b565b73ffffffffffffffffffffffffffffffffffffffff1673ffffffffffffffffffffffffffffffffffffffff16815260200190815260200160002060008473ffffffffffffffffffffffffffffffffffffffff1673ffffffffffffffffffffffffffffffffffffffff16815260200190815260200160002060006101000a81548160ff0219169083151502179055508173ffffffffffffffffffffffffffffffffffffffff166117d1611f1b565b73ffffffffffffffffffffffffffffffffffffffff167f17307eab39ab6107e8899845ad3d59bd9653f200f220920489ca2b5937696c3183604051611816919061316a565b60405180910390a35050565b600061182d82611eaf565b61186c576040517f08c379a000000000000000000000000000000000000000000000000000000000815260040161186390613dde565b60405180910390fd5b600a600083815260200190815260200160002060009054906101000a900460ff169050919050565b6118a561189f611f1b565b83611fdc565b6118e4576040517f08c379a00000000000000000000000000000000000000000000000000000000081526004016118db90613a4f565b60405180910390fd5b6118f084848484612574565b50505050565b606061190182611eaf565b611940576040517f08c379a000000000000000000000000000000000000000000000000000000000815260040161193790613e70565b60405180910390fd5b600061194a6125d0565b9050600081511161196a5760405180602001604052806000815250611995565b80611974846125e7565b604051602001611985929190613ecc565b6040516020818303038152906040525b915050919050565b7f9f2df0fed2c77648de5860a4cc508cd0818c85b8b8a1ab4ceeef8d981c8956a681565b6119ca8261083d565b6119db816119d6611f1b565b612748565b6119e582846111f9565b50600073ffffffffffffffffffffffffffffffffffffffff16600860008473ffffffffffffffffffffffffffffffffffffffff1673ffffffffffffffffffffffffffffffffffffffff168152602001908152602001600020600085815260200190815260200160002060000160009054906101000a900473ffffffffffffffffffffffffffffffffffffffff1673ffffffffffffffffffffffffffffffffffffffff1614158015611b365750600073ffffffffffffffffffffffffffffffffffffffff16600860008473ffffffffffffffffffffffffffffffffffffffff1673ffffffffffffffffffffffffffffffffffffffff168152602001908152602001600020600085815260200190815260200160002060010160009054906101000a900473ffffffffffffffffffffffffffffffffffffffff1673ffffffffffffffffffffffffffffffffffffffff1614155b15611c6c57611b4583836127e5565b6000600860008473ffffffffffffffffffffffffffffffffffffffff1673ffffffffffffffffffffffffffffffffffffffff168152602001908152602001600020600085815260200190815260200160002060000160006101000a81548173ffffffffffffffffffffffffffffffffffffffff021916908373ffffffffffffffffffffffffffffffffffffffff1602179055506000600860008473ffffffffffffffffffffffffffffffffffffffff1673ffffffffffffffffffffffffffffffffffffffff168152602001908152602001600020600085815260200190815260200160002060010160006101000a81548173ffffffffffffffffffffffffffffffffffffffff021916908373ffffffffffffffffffffffffffffffffffffffff1602179055505b505050565b6000600560008473ffffffffffffffffffffffffffffffffffffffff1673ffffffffffffffffffffffffffffffffffffffff16815260200190815260200160002060008373ffffffffffffffffffffffffffffffffffffffff1673ffffffffffffffffffffffffffffffffffffffff16815260200190815260200160002060009054906101000a900460ff16905092915050565b611d367f5258f6827f4005e20713eae0fc82f5358349cc7fdb43330955314f15ccc2941c611d31611f1b565b61159d565b611d75576040517f08c379a0000000000000000000000000000000000000000000000000000000008152600401611d6c90613f3c565b60405180910390fd5b611d7e82611eaf565b611dbd576040517f08c379a0000000000000000000000000000000000000000000000000000000008152600401611db490613dde565b60405180910390fd5b80600a600084815260200190815260200160002060006101000a81548160ff0219169083151502179055506000611df383610c15565b90507fd7ac5793e9486896bf586141bae3cef5b4dc93bf0b5d2ffd29f3d93bab9b99ea818484604051611e2893929190613f5c565b60405180910390a1505050565b60007f7965db0b000000000000000000000000000000000000000000000000000000007bffffffffffffffffffffffffffffffffffffffffffffffffffffffff1916827bffffffffffffffffffffffffffffffffffffffffffffffffffffffff19161480611ea85750611ea78261280e565b5b9050919050565b60008073ffffffffffffffffffffffffffffffffffffffff166002600084815260200190815260200160002060009054906101000a900473ffffffffffffffffffffffffffffffffffffffff1673ffffffffffffffffffffffffffffffffffffffff1614159050919050565b600033905090565b816004600083815260200190815260200160002060006101000a81548173ffffffffffffffffffffffffffffffffffffffff021916908373ffffffffffffffffffffffffffffffffffffffff160217905550808273ffffffffffffffffffffffffffffffffffffffff16611f9683610c15565b73ffffffffffffffffffffffffffffffffffffffff167f8c5be1e5ebec7d5bd14f71427d1e84f3dd0314c0f7b2291e5b200ac8c7c3b92560405160405180910390a45050565b6000611fe782611eaf565b612026576040517f08c379a000000000000000000000000000000000000000000000000000000000815260040161201d90614005565b60405180910390fd5b600061203183610c15565b90508073ffffffffffffffffffffffffffffffffffffffff168473ffffffffffffffffffffffffffffffffffffffff1614806120a057508373ffffffffffffffffffffffffffffffffffffffff1661208884610640565b73ffffffffffffffffffffffffffffffffffffffff16145b806120b157506120b08185611c71565b5b91505092915050565b8273ffffffffffffffffffffffffffffffffffffffff166120da82610c15565b73ffffffffffffffffffffffffffffffffffffffff1614612130576040517f08c379a000000000000000000000000000000000000000000000000000000000815260040161212790614097565b60405180910390fd5b600073ffffffffffffffffffffffffffffffffffffffff168273ffffffffffffffffffffffffffffffffffffffff1614156121a0576040517f08c379a000000000000000000000000000000000000000000000000000000000815260040161219790614129565b60405180910390fd5b6121ab8383836128f0565b6121b6600082611f23565b6001600360008573ffffffffffffffffffffffffffffffffffffffff1673ffffffffffffffffffffffffffffffffffffffff16815260200190815260200160002060008282546122069190614178565b925050819055506001600360008473ffffffffffffffffffffffffffffffffffffffff1673ffffffffffffffffffffffffffffffffffffffff168152602001908152602001600020600082825461225d91906141ac565b92505081905550816002600083815260200190815260200160002060006101000a81548173ffffffffffffffffffffffffffffffffffffffff021916908373ffffffffffffffffffffffffffffffffffffffff160217905550808273ffffffffffffffffffffffffffffffffffffffff168473ffffffffffffffffffffffffffffffffffffffff167fddf252ad1be2c89b69c2b068fc378daa952ba7f163c4a11628f55a4df523b3ef60405160405180910390a4505050565b61231f8261083d565b6123308161232b611f1b565b612748565b61233a838361295c565b505050565b612349828261159d565b1561241d5760006006600084815260200190815260200160002060000160008373ffffffffffffffffffffffffffffffffffffffff1673ffffffffffffffffffffffffffffffffffffffff16815260200190815260200160002060006101000a81548160ff0219169083151502179055506123c2611f1b565b73ffffffffffffffffffffffffffffffffffffffff168173ffffffffffffffffffffffffffffffffffffffff16837ff6391f5c32d9c69d2a47ea670b442974b53935d1edc7fd64eb21e047a839171b60405160405180910390a45b5050565b600061242c82610c15565b905061243a816000846128f0565b612445600083611f23565b6001600360008373ffffffffffffffffffffffffffffffffffffffff1673ffffffffffffffffffffffffffffffffffffffff16815260200190815260200160002060008282546124959190614178565b925050819055506002600083815260200190815260200160002060006101000a81549073ffffffffffffffffffffffffffffffffffffffff021916905581600073ffffffffffffffffffffffffffffffffffffffff168273ffffffffffffffffffffffffffffffffffffffff167fddf252ad1be2c89b69c2b068fc378daa952ba7f163c4a11628f55a4df523b3ef60405160405180910390a45050565b6001816000016000828254019250508190555050565b600081600001549050919050565b612570828260405180602001604052806000815250612a3d565b5050565b61257f8484846120ba565b61258b84848484612a98565b6125ca576040517f08c379a00000000000000000000000000000000000000000000000000000000081526004016125c190614274565b60405180910390fd5b50505050565b606060405180602001604052806000815250905090565b6060600082141561262f576040518060400160405280600181526020017f30000000000000000000000000000000000000000000000000000000000000008152509050612743565b600082905060005b6000821461266157808061264a90614294565b915050600a8261265a919061430c565b9150612637565b60008167ffffffffffffffff81111561267d5761267c613598565b5b6040519080825280601f01601f1916602001820160405280156126af5781602001600182028036833780820191505090505b5090505b6000851461273c576001826126c89190614178565b9150600a856126d7919061433d565b60306126e391906141ac565b60f81b8183815181106126f9576126f861436e565b5b60200101907effffffffffffffffffffffffffffffffffffffffffffffffffffffffffffff1916908160001a905350600a85612735919061430c565b94506126b3565b8093505050505b919050565b612752828261159d565b6127e1576127778173ffffffffffffffffffffffffffffffffffffffff166014612c2f565b6127858360001c6020612c2f565b604051602001612796929190614435565b6040516020818303038152906040526040517f08c379a00000000000000000000000000000000000000000000000000000000081526004016127d8919061321e565b60405180910390fd5b5050565b6127ee8261083d565b6127ff816127fa611f1b565b612748565b612809838361233f565b505050565b60007f80ac58cd000000000000000000000000000000000000000000000000000000007bffffffffffffffffffffffffffffffffffffffffffffffffffffffff1916827bffffffffffffffffffffffffffffffffffffffffffffffffffffffff191614806128d957507f5b5e139f000000000000000000000000000000000000000000000000000000007bffffffffffffffffffffffffffffffffffffffffffffffffffffffff1916827bffffffffffffffffffffffffffffffffffffffffffffffffffffffff1916145b806128e957506128e882612e6b565b5b9050919050565b60001515600a600083815260200190815260200160002060009054906101000a900460ff16151514612957576040517f08c379a000000000000000000000000000000000000000000000000000000000815260040161294e906144bb565b60405180910390fd5b505050565b612966828261159d565b612a395760016006600084815260200190815260200160002060000160008373ffffffffffffffffffffffffffffffffffffffff1673ffffffffffffffffffffffffffffffffffffffff16815260200190815260200160002060006101000a81548160ff0219169083151502179055506129de611f1b565b73ffffffffffffffffffffffffffffffffffffffff168173ffffffffffffffffffffffffffffffffffffffff16837f2f8788117e7eff1d82e926ec794901d17c78024a50270940304540a733656f0d60405160405180910390a45b5050565b612a478383612ed5565b612a546000848484612a98565b612a93576040517f08c379a0000000000000000000000000000000000000000000000000000000008152600401612a8a90614274565b60405180910390fd5b505050565b6000612ab98473ffffffffffffffffffffffffffffffffffffffff166130a3565b15612c22578373ffffffffffffffffffffffffffffffffffffffff1663150b7a02612ae2611f1b565b8786866040518563ffffffff1660e01b8152600401612b049493929190614530565b602060405180830381600087803b158015612b1e57600080fd5b505af1925050508015612b4f57506040513d601f19601f82011682018060405250810190612b4c9190614591565b60015b612bd2573d8060008114612b7f576040519150601f19603f3d011682016040523d82523d6000602084013e612b84565b606091505b50600081511415612bca576040517f08c379a0000000000000000000000000000000000000000000000000000000008152600401612bc190614274565b60405180910390fd5b805181602001fd5b63150b7a0260e01b7bffffffffffffffffffffffffffffffffffffffffffffffffffffffff1916817bffffffffffffffffffffffffffffffffffffffffffffffffffffffff191614915050612c27565b600190505b949350505050565b606060006002836002612c4291906145be565b612c4c91906141ac565b67ffffffffffffffff811115612c6557612c64613598565b5b6040519080825280601f01601f191660200182016040528015612c975781602001600182028036833780820191505090505b5090507f300000000000000000000000000000000000000000000000000000000000000081600081518110612ccf57612cce61436e565b5b60200101907effffffffffffffffffffffffffffffffffffffffffffffffffffffffffffff1916908160001a9053507f780000000000000000000000000000000000000000000000000000000000000081600181518110612d3357612d3261436e565b5b60200101907effffffffffffffffffffffffffffffffffffffffffffffffffffffffffffff1916908160001a90535060006001846002612d7391906145be565b612d7d91906141ac565b90505b6001811115612e1d577f3031323334353637383961626364656600000000000000000000000000000000600f861660108110612dbf57612dbe61436e565b5b1a60f81b828281518110612dd657612dd561436e565b5b60200101907effffffffffffffffffffffffffffffffffffffffffffffffffffffffffffff1916908160001a905350600485901c945080612e1690614618565b9050612d80565b5060008414612e61576040517f08c379a0000000000000000000000000000000000000000000000000000000008152600401612e589061468e565b60405180910390fd5b8091505092915050565b60007f01ffc9a7000000000000000000000000000000000000000000000000000000007bffffffffffffffffffffffffffffffffffffffffffffffffffffffff1916827bffffffffffffffffffffffffffffffffffffffffffffffffffffffff1916149050919050565b600073ffffffffffffffffffffffffffffffffffffffff168273ffffffffffffffffffffffffffffffffffffffff161415612f45576040517f08c379a0000000000000000000000000000000000000000000000000000000008152600401612f3c906146fa565b60405180910390fd5b612f4e81611eaf565b15612f8e576040517f08c379a0000000000000000000000000000000000000000000000000000000008152600401612f8590614766565b60405180910390fd5b612f9a600083836128f0565b6001600360008473ffffffffffffffffffffffffffffffffffffffff1673ffffffffffffffffffffffffffffffffffffffff1681526020019081526020016000206000828254612fea91906141ac565b92505081905550816002600083815260200190815260200160002060006101000a81548173ffffffffffffffffffffffffffffffffffffffff021916908373ffffffffffffffffffffffffffffffffffffffff160217905550808273ffffffffffffffffffffffffffffffffffffffff16600073ffffffffffffffffffffffffffffffffffffffff167fddf252ad1be2c89b69c2b068fc378daa952ba7f163c4a11628f55a4df523b3ef60405160405180910390a45050565b600080823b905060008111915050919050565b6000604051905090565b600080fd5b600080fd5b60007fffffffff0000000000000000000000000000000000000000000000000000000082169050919050565b6130ff816130ca565b811461310a57600080fd5b50565b60008135905061311c816130f6565b92915050565b600060208284031215613138576131376130c0565b5b60006131468482850161310d565b91505092915050565b60008115159050919050565b6131648161314f565b82525050565b600060208201905061317f600083018461315b565b92915050565b600081519050919050565b600082825260208201905092915050565b60005b838110156131bf5780820151818401526020810190506131a4565b838111156131ce576000848401525b50505050565b6000601f19601f8301169050919050565b60006131f082613185565b6131fa8185613190565b935061320a8185602086016131a1565b613213816131d4565b840191505092915050565b6000602082019050818103600083015261323881846131e5565b905092915050565b6000819050919050565b61325381613240565b811461325e57600080fd5b50565b6000813590506132708161324a565b92915050565b60006020828403121561328c5761328b6130c0565b5b600061329a84828501613261565b91505092915050565b600073ffffffffffffffffffffffffffffffffffffffff82169050919050565b60006132ce826132a3565b9050919050565b6132de816132c3565b82525050565b60006020820190506132f960008301846132d5565b92915050565b613308816132c3565b811461331357600080fd5b50565b600081359050613325816132ff565b92915050565b60008060408385031215613342576133416130c0565b5b600061335085828601613316565b925050602061336185828601613261565b9150509250929050565b600080600060608486031215613384576133836130c0565b5b600061339286828701613316565b93505060206133a386828701613316565b92505060406133b486828701613261565b9150509250925092565b6000819050919050565b6133d1816133be565b81146133dc57600080fd5b50565b6000813590506133ee816133c8565b92915050565b60006020828403121561340a576134096130c0565b5b6000613418848285016133df565b91505092915050565b61342a816133be565b82525050565b60006020820190506134456000830184613421565b92915050565b60008060408385031215613462576134616130c0565b5b6000613470858286016133df565b925050602061348185828601613316565b9150509250929050565b6000602082840312156134a1576134a06130c0565b5b60006134af84828501613316565b91505092915050565b6134c181613240565b82525050565b60006020820190506134dc60008301846134b8565b92915050565b600080604083850312156134f9576134f86130c0565b5b600061350785828601613316565b9250506020613518858286016133df565b9150509250929050565b61352b8161314f565b811461353657600080fd5b50565b60008135905061354881613522565b92915050565b60008060408385031215613565576135646130c0565b5b600061357385828601613316565b925050602061358485828601613539565b9150509250929050565b600080fd5b600080fd5b7f4e487b7100000000000000000000000000000000000000000000000000000000600052604160045260246000fd5b6135d0826131d4565b810181811067ffffffffffffffff821117156135ef576135ee613598565b5b80604052505050565b60006136026130b6565b905061360e82826135c7565b919050565b600067ffffffffffffffff82111561362e5761362d613598565b5b613637826131d4565b9050602081019050919050565b82818337600083830152505050565b600061366661366184613613565b6135f8565b90508281526020810184848401111561368257613681613593565b5b61368d848285613644565b509392505050565b600082601f8301126136aa576136a961358e565b5b81356136ba848260208601613653565b91505092915050565b600080600080608085870312156136dd576136dc6130c0565b5b60006136eb87828801613316565b94505060206136fc87828801613316565b935050604061370d87828801613261565b925050606085013567ffffffffffffffff81111561372e5761372d6130c5565b5b61373a87828801613695565b91505092959194509250565b6000806040838503121561375d5761375c6130c0565b5b600061376b85828601613316565b925050602061377c85828601613316565b9150509250929050565b6000806040838503121561379d5761379c6130c0565b5b60006137ab85828601613261565b92505060206137bc85828601613539565b9150509250929050565b7f4e487b7100000000000000000000000000000000000000000000000000000000600052602260045260246000fd5b6000600282049050600182168061380d57607f821691505b60208210811415613821576138206137c6565b5b50919050565b7f4552433732313a20617070726f76656420717565727920666f72206e6f6e657860008201527f697374656e7420746f6b656e0000000000000000000000000000000000000000602082015250565b6000613883602c83613190565b915061388e82613827565b604082019050919050565b600060208201905081810360008301526138b281613876565b9050919050565b7f4552433732313a20617070726f76616c20746f2063757272656e74206f776e6560008201527f7200000000000000000000000000000000000000000000000000000000000000602082015250565b6000613915602183613190565b9150613920826138b9565b604082019050919050565b6000602082019050818103600083015261394481613908565b9050919050565b7f4552433732313a20617070726f76652063616c6c6572206973206e6f74206f7760008201527f6e6572206e6f7220617070726f76656420666f7220616c6c0000000000000000602082015250565b60006139a7603883613190565b91506139b28261394b565b604082019050919050565b600060208201905081810360008301526139d68161399a565b9050919050565b7f4552433732313a207472616e736665722063616c6c6572206973206e6f74206f60008201527f776e6572206e6f7220617070726f766564000000000000000000000000000000602082015250565b6000613a39603183613190565b9150613a44826139dd565b604082019050919050565b60006020820190508181036000830152613a6881613a2c565b9050919050565b7f416363657373436f6e74726f6c3a2063616e206f6e6c792072656e6f756e636560008201527f20726f6c657320666f722073656c660000000000000000000000000000000000602082015250565b6000613acb602f83613190565b9150613ad682613a6f565b604082019050919050565b60006020820190508181036000830152613afa81613abe565b9050919050565b7f4552433732313a206f776e657220717565727920666f72206e6f6e657869737460008201527f656e7420746f6b656e0000000000000000000000000000000000000000000000602082015250565b6000613b5d602983613190565b9150613b6882613b01565b604082019050919050565b60006020820190508181036000830152613b8c81613b50565b9050919050565b7f4d696e74657220726f6c65206973207265717569726564000000000000000000600082015250565b6000613bc9601783613190565b9150613bd482613b93565b602082019050919050565b60006020820190508181036000830152613bf881613bbc565b9050919050565b6000604082019050613c1460008301856132d5565b613c2160208301846134b8565b9392505050565b7f596f752063616e20766f7465206f6e6c79206f6e652074696d65000000000000600082015250565b6000613c5e601a83613190565b9150613c6982613c28565b602082019050919050565b60006020820190508181036000830152613c8d81613c51565b9050919050565b7f4552433732313a2062616c616e636520717565727920666f7220746865207a6560008201527f726f206164647265737300000000000000000000000000000000000000000000602082015250565b6000613cf0602a83613190565b9150613cfb82613c94565b604082019050919050565b60006020820190508181036000830152613d1f81613ce3565b9050919050565b7f4552433732313a20617070726f766520746f2063616c6c657200000000000000600082015250565b6000613d5c601983613190565b9150613d6782613d26565b602082019050919050565b60006020820190508181036000830152613d8b81613d4f565b9050919050565b7f6469646e27742065786973740000000000000000000000000000000000000000600082015250565b6000613dc8600c83613190565b9150613dd382613d92565b602082019050919050565b60006020820190508181036000830152613df781613dbb565b9050919050565b7f4552433732314d657461646174613a2055524920717565727920666f72206e6f60008201527f6e6578697374656e7420746f6b656e0000000000000000000000000000000000602082015250565b6000613e5a602f83613190565b9150613e6582613dfe565b604082019050919050565b60006020820190508181036000830152613e8981613e4d565b9050919050565b600081905092915050565b6000613ea682613185565b613eb08185613e90565b9350613ec08185602086016131a1565b80840191505092915050565b6000613ed88285613e9b565b9150613ee48284613e9b565b91508190509392505050565b7f4275726e657220726f6c65206973207265717569726564000000000000000000600082015250565b6000613f26601783613190565b9150613f3182613ef0565b602082019050919050565b60006020820190508181036000830152613f5581613f19565b9050919050565b6000606082019050613f7160008301866132d5565b613f7e60208301856134b8565b613f8b604083018461315b565b949350505050565b7f4552433732313a206f70657261746f7220717565727920666f72206e6f6e657860008201527f697374656e7420746f6b656e0000000000000000000000000000000000000000602082015250565b6000613fef602c83613190565b9150613ffa82613f93565b604082019050919050565b6000602082019050818103600083015261401e81613fe2565b9050919050565b7f4552433732313a207472616e73666572206f6620746f6b656e2074686174206960008201527f73206e6f74206f776e0000000000000000000000000000000000000000000000602082015250565b6000614081602983613190565b915061408c82614025565b604082019050919050565b600060208201905081810360008301526140b081614074565b9050919050565b7f4552433732313a207472616e7366657220746f20746865207a65726f2061646460008201527f7265737300000000000000000000000000000000000000000000000000000000602082015250565b6000614113602483613190565b915061411e826140b7565b604082019050919050565b6000602082019050818103600083015261414281614106565b9050919050565b7f4e487b7100000000000000000000000000000000000000000000000000000000600052601160045260246000fd5b600061418382613240565b915061418e83613240565b9250828210156141a1576141a0614149565b5b828203905092915050565b60006141b782613240565b91506141c283613240565b9250827fffffffffffffffffffffffffffffffffffffffffffffffffffffffffffffffff038211156141f7576141f6614149565b5b828201905092915050565b7f4552433732313a207472616e7366657220746f206e6f6e20455243373231526560008201527f63656976657220696d706c656d656e7465720000000000000000000000000000602082015250565b600061425e603283613190565b915061426982614202565b604082019050919050565b6000602082019050818103600083015261428d81614251565b9050919050565b600061429f82613240565b91507fffffffffffffffffffffffffffffffffffffffffffffffffffffffffffffffff8214156142d2576142d1614149565b5b600182019050919050565b7f4e487b7100000000000000000000000000000000000000000000000000000000600052601260045260246000fd5b600061431782613240565b915061432283613240565b925082614332576143316142dd565b5b828204905092915050565b600061434882613240565b915061435383613240565b925082614363576143626142dd565b5b828206905092915050565b7f4e487b7100000000000000000000000000000000000000000000000000000000600052603260045260246000fd5b7f416363657373436f6e74726f6c3a206163636f756e7420000000000000000000600082015250565b60006143d3601783613e90565b91506143de8261439d565b601782019050919050565b7f206973206d697373696e6720726f6c6520000000000000000000000000000000600082015250565b600061441f601183613e90565b915061442a826143e9565b601182019050919050565b6000614440826143c6565b915061444c8285613e9b565b915061445782614412565b91506144638284613e9b565b91508190509392505050565b7f54686973206e66742069732064697361626c6564000000000000000000000000600082015250565b60006144a5601483613190565b91506144b08261446f565b602082019050919050565b600060208201905081810360008301526144d481614498565b9050919050565b600081519050919050565b600082825260208201905092915050565b6000614502826144db565b61450c81856144e6565b935061451c8185602086016131a1565b614525816131d4565b840191505092915050565b600060808201905061454560008301876132d5565b61455260208301866132d5565b61455f60408301856134b8565b818103606083015261457181846144f7565b905095945050505050565b60008151905061458b816130f6565b92915050565b6000602082840312156145a7576145a66130c0565b5b60006145b58482850161457c565b91505092915050565b60006145c982613240565b91506145d483613240565b9250817fffffffffffffffffffffffffffffffffffffffffffffffffffffffffffffffff048311821515161561460d5761460c614149565b5b828202905092915050565b600061462382613240565b9150600082141561463757614636614149565b5b600182039050919050565b7f537472696e67733a20686578206c656e67746820696e73756666696369656e74600082015250565b6000614678602083613190565b915061468382614642565b602082019050919050565b600060208201905081810360008301526146a78161466b565b9050919050565b7f4552433732313a206d696e7420746f20746865207a65726f2061646472657373600082015250565b60006146e4602083613190565b91506146ef826146ae565b602082019050919050565b60006020820190508181036000830152614713816146d7565b9050919050565b7f4552433732313a20746f6b656e20616c7265616479206d696e74656400000000600082015250565b6000614750601c83613190565b915061475b8261471a565b602082019050919050565b6000602082019050818103600083015261477f81614743565b905091905056fea26469706673582212200f8540c3885df7b70555448f830db83a8bfaec860a7447a18440b731c1a77e1164736f6c63430008090033",
  "immutableReferences": {},
  "source": "// SPDX-License-Identifier: MIT\r\npragma solidity ^0.8.0;\r\n\r\n/// @title A title that should describe the contract/interface\r\n/// @author Cristian Gerani (@cgerabit) and Geferman Pernia (@gefermanpernia)\r\n/// @notice Explain to an end user what this does\r\n/// @dev Explain to a developer any extra details\r\n/// @param _param1 Explain to a developer what this is\r\n/// @param _param2 Explain to a developer what this is\r\n\r\nimport \"@openzeppelin/contracts/token/ERC721/ERC721.sol\";\r\nimport \"@openzeppelin/contracts/utils/Counters.sol\";\r\nimport \"./abstract/ExtendedAccessControl.sol\";\r\n\r\ncontract EterlandWorld is ERC721, ExtendedAccessControl {\r\n    using Counters for Counters.Counter;\r\n    Counters.Counter private _tokenIds;\r\n    mapping(uint256 => bool) private _isDisabled;\r\n\r\n    event New(address owner, uint256 id);\r\n\tevent StatusChanged(address owner, uint256 id, bool status);\r\n\r\n    bytes32 public constant MINTER_ROLE = keccak256(\"MINTER_ROLE\");\r\n    bytes32 public constant NFT_ADMINISTRATOR_ROLE = keccak256(\"NFT_ADMINISTRATOR_ROLE\");\r\n\r\n    modifier hasMinterRole() {\r\n        require(hasRole(MINTER_ROLE, _msgSender()), \"Minter role is required\");\r\n        _;\r\n    }\r\n    modifier hasNftAdministratorRole() {\r\n        require(hasRole(NFT_ADMINISTRATOR_ROLE, _msgSender()), \"Burner role is required\");\r\n        _;\r\n    }\r\n\r\n    constructor(address ceo, address coo) ERC721(\"Eterland\", \"ITM\") {\r\n        _setupRole(DEFAULT_ADMIN_ROLE, _msgSender());\r\n        _setupRole(DEFAULT_ADMIN_ROLE, ceo);\r\n        _setupRole(DEFAULT_ADMIN_ROLE, coo);\r\n\r\n    }\r\n\r\n    function mint(address player) public \r\n\thasMinterRole\r\n\treturns (uint256) {\r\n        _tokenIds.increment();\r\n\r\n        uint256 newItemId = _tokenIds.current();\r\n\r\n        _safeMint(player, newItemId);\r\n\t\t\r\n\t\temit New(player,newItemId);\r\n        \r\n\t\treturn newItemId;\r\n    }\r\n\r\n   \r\n   function burn(uint256 id) public{\r\n\t    require(_isApprovedOrOwner(_msgSender(), id), \r\n\t\t\"ERC721: transfer caller is not owner nor approved\");\r\n\t   _burn(id);\r\n   }\r\n\r\n   function changeStatus(uint256 id,bool status) \r\n   hasNftAdministratorRole \r\n   public {\r\n\r\n\t   \trequire(_exists(id),\"didn't exist\");   \r\n\t\t_isDisabled[id] = status;\r\n\t   \taddress owner = ownerOf(id);\r\n\r\n\t\temit StatusChanged(owner, id, status);\r\n   }\r\n\r\n   function isDisabled(uint256 id) external view returns(bool){\r\n\t   \trequire(_exists(id),\"didn't exist\");   \r\n\r\n\t\treturn _isDisabled[id];\r\n   }\r\n\r\n    function supportsInterface(bytes4 interfaceId)\r\n        public\r\n        view\r\n        virtual\r\n        override(ERC721, AccessControl)\r\n        returns (bool)\r\n    {\r\n        return super.supportsInterface(interfaceId);\r\n    }\r\n\r\n\r\n\t  function _beforeTokenTransfer(\r\n        address from,\r\n        address to,\r\n        uint256 tokenId\r\n    ) internal virtual override(ERC721) {\r\n        require(\r\n          \t_isDisabled[tokenId]==false,\r\n            \"This nft is disabled\"\r\n        );\r\n    }\r\n}\r\n\r\n// contract DragonsERC721 is AccessControl, ERC721  {\r\n//     using Counters for Counters.Counter;\r\n//     Counters.Counter private _tokenIdTracker;\r\n//     mapping(uint256 => bool) private _burnedDragon;\r\n\r\n//     // Events\r\n//     event NewDragon(address player, uint256 dragonId);\r\n\r\n//     event Burn(address indexed _called, uint256 _dragonId);\r\n\r\n//     event Restore(address indexed _called, uint256 _dragonId, bool burnStatus);\r\n\r\n//     // Access Control Roles\r\n//     bytes32 public constant MINTER_ROLE = keccak256(\"MINTER_ROLE\");\r\n//     bytes32 public constant BURNER_ROLE = keccak256(\"BURNER_ROLE\");\r\n\r\n//     constructor() ERC721(\"Dragonary Dragons\", \"DRAGON\") {\r\n//         _setupRole(DEFAULT_ADMIN_ROLE, _msgSender());\r\n\r\n//         _setupRole(MINTER_ROLE, _msgSender());\r\n\r\n//         _setupRole(BURNER_ROLE, _msgSender());\r\n//     }\r\n\r\n//     function mintDragon(address player) public returns (uint256) {\r\n//         require(\r\n//             hasRole(MINTER_ROLE, _msgSender()),\r\n//             \"DragonsERC721: must have minter role to mint\"\r\n//         );\r\n\r\n//         _tokenIdTracker.increment();\r\n\r\n//         uint256 newDragon = _tokenIdTracker.current();\r\n\r\n//         _mint(player, newDragon);\r\n\r\n//         emit NewDragon(player, newDragon);\r\n\r\n//         return newDragon;\r\n//     }\r\n\r\n//     // Soft burn to avoid delete completely the dragon\r\n//     function softBurnDragon(uint256 dragonId) public returns (bool) {\r\n//         require(\r\n//             hasRole(BURNER_ROLE, _msgSender()),\r\n//             \"DragonsERC721: must have burner role\"\r\n//         );\r\n//         require(_exists(dragonId), \"DragonsERC721: Dragon didn't exist\");\r\n\r\n//         _burnedDragon[dragonId] = true;\r\n\r\n//         emit Burn(_msgSender(), dragonId);\r\n\r\n//         return true;\r\n//     }\r\n\r\n//     function isBurned(uint256 dragonId) public view virtual returns (bool) {\r\n//         return _burnedDragon[dragonId];\r\n//     }\r\n\r\n//     /*\r\n//      *  Use only if some issues with the server game happens\r\n//      *  ONLY ADMIN CAN CALL THIS FUNCTION\r\n//      */\r\n//     function restoreDragon(uint256 dragonId, bool burnStatus)\r\n//         public\r\n//         returns (bool)\r\n//     {\r\n//         require(\r\n//             hasRole(DEFAULT_ADMIN_ROLE, _msgSender()),\r\n//             \"DragonsERC721: must have admin role\"\r\n//         );\r\n//         require(_exists(dragonId), \"DragonsERC721: Dragon didn't exist\");\r\n\r\n//         _burnedDragon[dragonId] = burnStatus;\r\n\r\n//         emit Restore(_msgSender(), dragonId, burnStatus);\r\n\r\n//         return true;\r\n//     }\r\n\r\n//     function _beforeTokenTransfer(\r\n//         address from,\r\n//         address to,\r\n//         uint256 tokenId\r\n//     ) internal virtual override(ERC721) {\r\n//         require(\r\n//             _burnedDragon[tokenId] == false,\r\n//             \"DragonsERC721: Dragon is burned\"\r\n//         );\r\n//     }\r\n// }\r\n",
  "sourcePath": "C:\\Users\\Crisla\\Documents\\Repos\\repos\\smart-contracts\\contracts\\EterlandWorld.sol",
  "compiler": {
    "name": "solc",
    "version": "0.8.9+commit.e5eed63a.Emscripten.clang"
  },
  "schemaVersion": "3.4.3",
  "updatedAt": "2021-11-01T21:56:33.246Z",
  "devdoc": {
    "kind": "dev",
    "methods": {
      "approve(address,uint256)": {
        "details": "See {IERC721-approve}."
      },
      "balanceOf(address)": {
        "details": "See {IERC721-balanceOf}."
      },
      "getApproved(uint256)": {
        "details": "See {IERC721-getApproved}."
      },
      "getRoleAdmin(bytes32)": {
        "details": "Returns the admin role that controls `role`. See {grantRole} and {revokeRole}. To change a role's admin, use {_setRoleAdmin}."
      },
      "grantRole(bytes32,address)": {
        "details": "Grants `role` to `account`. If `account` had not been already granted `role`, emits a {RoleGranted} event. Requirements: - the caller must have ``role``'s admin role."
      },
      "hasRole(bytes32,address)": {
        "details": "Returns `true` if `account` has been granted `role`."
      },
      "isApprovedForAll(address,address)": {
        "details": "See {IERC721-isApprovedForAll}."
      },
      "name()": {
        "details": "See {IERC721Metadata-name}."
      },
      "ownerOf(uint256)": {
        "details": "See {IERC721-ownerOf}."
      },
      "renounceRole(bytes32,address)": {
        "details": "Revokes `role` from the calling account. Roles are often managed via {grantRole} and {revokeRole}: this function's purpose is to provide a mechanism for accounts to lose their privileges if they are compromised (such as when a trusted device is misplaced). If the calling account had been granted `role`, emits a {RoleRevoked} event. Requirements: - the caller must be `account`."
      },
      "revokeRole(bytes32,address)": {
        "details": "Revokes `role` from `account`. If `account` had been granted `role`, emits a {RoleRevoked} event. Requirements: - the caller must have ``role``'s admin role."
      },
      "safeTransferFrom(address,address,uint256)": {
        "details": "See {IERC721-safeTransferFrom}."
      },
      "safeTransferFrom(address,address,uint256,bytes)": {
        "details": "See {IERC721-safeTransferFrom}."
      },
      "setApprovalForAll(address,bool)": {
        "details": "See {IERC721-setApprovalForAll}."
      },
      "symbol()": {
        "details": "See {IERC721Metadata-symbol}."
      },
      "tokenURI(uint256)": {
        "details": "See {IERC721Metadata-tokenURI}."
      },
      "transferFrom(address,address,uint256)": {
        "details": "See {IERC721-transferFrom}."
      }
    },
    "version": 1
  },
  "userdoc": {
    "kind": "user",
    "methods": {},
    "version": 1
  }
}