{
  "contractName": "ETER",
  "abi": [
    {
      "inputs": [
        {
          "internalType": "address",
          "name": "COO",
          "type": "address"
        },
        {
          "internalType": "address",
          "name": "CEO",
          "type": "address"
        },
        {
          "internalType": "address",
          "name": "CFO",
          "type": "address"
        },
        {
          "internalType": "address",
          "name": "INV1",
          "type": "address"
        },
        {
          "internalType": "address",
          "name": "INV2",
          "type": "address"
        }
      ],
      "stateMutability": "nonpayable",
      "type": "constructor"
    },
    {
      "anonymous": false,
      "inputs": [
        {
          "indexed": true,
          "internalType": "address",
          "name": "owner",
          "type": "address"
        },
        {
          "indexed": true,
          "internalType": "address",
          "name": "spender",
          "type": "address"
        },
        {
          "indexed": false,
          "internalType": "uint256",
          "name": "value",
          "type": "uint256"
        }
      ],
      "name": "Approval",
      "type": "event"
    },
    {
      "anonymous": false,
      "inputs": [
        {
          "indexed": true,
          "internalType": "bytes32",
          "name": "role",
          "type": "bytes32"
        },
        {
          "indexed": true,
          "internalType": "bytes32",
          "name": "previousAdminRole",
          "type": "bytes32"
        },
        {
          "indexed": true,
          "internalType": "bytes32",
          "name": "newAdminRole",
          "type": "bytes32"
        }
      ],
      "name": "RoleAdminChanged",
      "type": "event"
    },
    {
      "anonymous": false,
      "inputs": [
        {
          "indexed": true,
          "internalType": "bytes32",
          "name": "role",
          "type": "bytes32"
        },
        {
          "indexed": true,
          "internalType": "address",
          "name": "account",
          "type": "address"
        },
        {
          "indexed": true,
          "internalType": "address",
          "name": "sender",
          "type": "address"
        }
      ],
      "name": "RoleGranted",
      "type": "event"
    },
    {
      "anonymous": false,
      "inputs": [
        {
          "indexed": true,
          "internalType": "bytes32",
          "name": "role",
          "type": "bytes32"
        },
        {
          "indexed": true,
          "internalType": "address",
          "name": "account",
          "type": "address"
        },
        {
          "indexed": true,
          "internalType": "address",
          "name": "sender",
          "type": "address"
        }
      ],
      "name": "RoleRevoked",
      "type": "event"
    },
    {
      "anonymous": false,
      "inputs": [
        {
          "indexed": true,
          "internalType": "address",
          "name": "from",
          "type": "address"
        },
        {
          "indexed": true,
          "internalType": "address",
          "name": "to",
          "type": "address"
        },
        {
          "indexed": false,
          "internalType": "uint256",
          "name": "value",
          "type": "uint256"
        }
      ],
      "name": "Transfer",
      "type": "event"
    },
    {
      "inputs": [],
      "name": "DEFAULT_ADMIN_ROLE",
      "outputs": [
        {
          "internalType": "bytes32",
          "name": "",
          "type": "bytes32"
        }
      ],
      "stateMutability": "view",
      "type": "function"
    },
    {
      "inputs": [],
      "name": "MAX_SUPPLY",
      "outputs": [
        {
          "internalType": "uint256",
          "name": "",
          "type": "uint256"
        }
      ],
      "stateMutability": "view",
      "type": "function"
    },
    {
      "inputs": [
        {
          "internalType": "address",
          "name": "owner",
          "type": "address"
        },
        {
          "internalType": "address",
          "name": "spender",
          "type": "address"
        }
      ],
      "name": "allowance",
      "outputs": [
        {
          "internalType": "uint256",
          "name": "",
          "type": "uint256"
        }
      ],
      "stateMutability": "view",
      "type": "function"
    },
    {
      "inputs": [
        {
          "internalType": "address",
          "name": "spender",
          "type": "address"
        },
        {
          "internalType": "uint256",
          "name": "amount",
          "type": "uint256"
        }
      ],
      "name": "approve",
      "outputs": [
        {
          "internalType": "bool",
          "name": "",
          "type": "bool"
        }
      ],
      "stateMutability": "nonpayable",
      "type": "function"
    },
    {
      "inputs": [
        {
          "internalType": "address",
          "name": "account",
          "type": "address"
        }
      ],
      "name": "balanceOf",
      "outputs": [
        {
          "internalType": "uint256",
          "name": "",
          "type": "uint256"
        }
      ],
      "stateMutability": "view",
      "type": "function"
    },
    {
      "inputs": [],
      "name": "decimals",
      "outputs": [
        {
          "internalType": "uint8",
          "name": "",
          "type": "uint8"
        }
      ],
      "stateMutability": "view",
      "type": "function"
    },
    {
      "inputs": [
        {
          "internalType": "address",
          "name": "spender",
          "type": "address"
        },
        {
          "internalType": "uint256",
          "name": "subtractedValue",
          "type": "uint256"
        }
      ],
      "name": "decreaseAllowance",
      "outputs": [
        {
          "internalType": "bool",
          "name": "",
          "type": "bool"
        }
      ],
      "stateMutability": "nonpayable",
      "type": "function"
    },
    {
      "inputs": [],
      "name": "getAvailableEcosystemMint",
      "outputs": [
        {
          "internalType": "uint256",
          "name": "",
          "type": "uint256"
        }
      ],
      "stateMutability": "view",
      "type": "function"
    },
    {
      "inputs": [],
      "name": "getEcosystemSupply",
      "outputs": [
        {
          "internalType": "uint256",
          "name": "",
          "type": "uint256"
        }
      ],
      "stateMutability": "view",
      "type": "function"
    },
    {
      "inputs": [
        {
          "internalType": "bytes32",
          "name": "role",
          "type": "bytes32"
        }
      ],
      "name": "getRoleAdmin",
      "outputs": [
        {
          "internalType": "bytes32",
          "name": "",
          "type": "bytes32"
        }
      ],
      "stateMutability": "view",
      "type": "function"
    },
    {
      "inputs": [],
      "name": "getRoles",
      "outputs": [
        {
          "internalType": "bytes32",
          "name": "EcosystemMinter",
          "type": "bytes32"
        },
        {
          "internalType": "bytes32",
          "name": "LiquidityMinter",
          "type": "bytes32"
        },
        {
          "internalType": "bytes32",
          "name": "ModMinter",
          "type": "bytes32"
        },
        {
          "internalType": "bytes32",
          "name": "StakingMinter",
          "type": "bytes32"
        },
        {
          "internalType": "bytes32",
          "name": "EventsMinter",
          "type": "bytes32"
        },
        {
          "internalType": "bytes32",
          "name": "ContentCreatorsMinter",
          "type": "bytes32"
        },
        {
          "internalType": "bytes32",
          "name": "BurnRole",
          "type": "bytes32"
        }
      ],
      "stateMutability": "pure",
      "type": "function"
    },
    {
      "inputs": [],
      "name": "getSecondsSinceFirstEcosystemMint",
      "outputs": [
        {
          "internalType": "uint256",
          "name": "",
          "type": "uint256"
        }
      ],
      "stateMutability": "view",
      "type": "function"
    },
    {
      "inputs": [],
      "name": "getTotalContentCreatorMinted",
      "outputs": [
        {
          "internalType": "uint256",
          "name": "",
          "type": "uint256"
        }
      ],
      "stateMutability": "view",
      "type": "function"
    },
    {
      "inputs": [],
      "name": "getTotalEcosystemMint",
      "outputs": [
        {
          "internalType": "uint256",
          "name": "",
          "type": "uint256"
        }
      ],
      "stateMutability": "view",
      "type": "function"
    },
    {
      "inputs": [],
      "name": "getTotalEventMinted",
      "outputs": [
        {
          "internalType": "uint256",
          "name": "",
          "type": "uint256"
        }
      ],
      "stateMutability": "view",
      "type": "function"
    },
    {
      "inputs": [],
      "name": "getTotalModeratorMinted",
      "outputs": [
        {
          "internalType": "uint256",
          "name": "",
          "type": "uint256"
        }
      ],
      "stateMutability": "view",
      "type": "function"
    },
    {
      "inputs": [],
      "name": "getTotalStakingMinted",
      "outputs": [
        {
          "internalType": "uint256",
          "name": "",
          "type": "uint256"
        }
      ],
      "stateMutability": "view",
      "type": "function"
    },
    {
      "inputs": [
        {
          "internalType": "bytes32",
          "name": "role",
          "type": "bytes32"
        },
        {
          "internalType": "address",
          "name": "account",
          "type": "address"
        }
      ],
      "name": "grantRole",
      "outputs": [],
      "stateMutability": "nonpayable",
      "type": "function"
    },
    {
      "inputs": [
        {
          "internalType": "bytes32",
          "name": "role",
          "type": "bytes32"
        },
        {
          "internalType": "address",
          "name": "account",
          "type": "address"
        }
      ],
      "name": "hasRole",
      "outputs": [
        {
          "internalType": "bool",
          "name": "",
          "type": "bool"
        }
      ],
      "stateMutability": "view",
      "type": "function"
    },
    {
      "inputs": [
        {
          "internalType": "address",
          "name": "spender",
          "type": "address"
        },
        {
          "internalType": "uint256",
          "name": "addedValue",
          "type": "uint256"
        }
      ],
      "name": "increaseAllowance",
      "outputs": [
        {
          "internalType": "bool",
          "name": "",
          "type": "bool"
        }
      ],
      "stateMutability": "nonpayable",
      "type": "function"
    },
    {
      "inputs": [],
      "name": "name",
      "outputs": [
        {
          "internalType": "string",
          "name": "",
          "type": "string"
        }
      ],
      "stateMutability": "view",
      "type": "function"
    },
    {
      "inputs": [
        {
          "internalType": "bytes32",
          "name": "role",
          "type": "bytes32"
        },
        {
          "internalType": "address",
          "name": "account",
          "type": "address"
        }
      ],
      "name": "renounceRole",
      "outputs": [],
      "stateMutability": "nonpayable",
      "type": "function"
    },
    {
      "inputs": [
        {
          "internalType": "bytes32",
          "name": "role",
          "type": "bytes32"
        },
        {
          "internalType": "address",
          "name": "account",
          "type": "address"
        }
      ],
      "name": "revokeRole",
      "outputs": [],
      "stateMutability": "nonpayable",
      "type": "function"
    },
    {
      "inputs": [
        {
          "internalType": "bytes4",
          "name": "interfaceId",
          "type": "bytes4"
        }
      ],
      "name": "supportsInterface",
      "outputs": [
        {
          "internalType": "bool",
          "name": "",
          "type": "bool"
        }
      ],
      "stateMutability": "view",
      "type": "function"
    },
    {
      "inputs": [],
      "name": "symbol",
      "outputs": [
        {
          "internalType": "string",
          "name": "",
          "type": "string"
        }
      ],
      "stateMutability": "view",
      "type": "function"
    },
    {
      "inputs": [],
      "name": "totalBurn",
      "outputs": [
        {
          "internalType": "uint256",
          "name": "",
          "type": "uint256"
        }
      ],
      "stateMutability": "view",
      "type": "function"
    },
    {
      "inputs": [],
      "name": "totalLiquidityMinted",
      "outputs": [
        {
          "internalType": "uint256",
          "name": "",
          "type": "uint256"
        }
      ],
      "stateMutability": "view",
      "type": "function"
    },
    {
      "inputs": [],
      "name": "totalMinted",
      "outputs": [
        {
          "internalType": "uint256",
          "name": "",
          "type": "uint256"
        }
      ],
      "stateMutability": "view",
      "type": "function"
    },
    {
      "inputs": [],
      "name": "totalSupply",
      "outputs": [
        {
          "internalType": "uint256",
          "name": "",
          "type": "uint256"
        }
      ],
      "stateMutability": "view",
      "type": "function"
    },
    {
      "inputs": [
        {
          "internalType": "address",
          "name": "recipient",
          "type": "address"
        },
        {
          "internalType": "uint256",
          "name": "amount",
          "type": "uint256"
        }
      ],
      "name": "transfer",
      "outputs": [
        {
          "internalType": "bool",
          "name": "",
          "type": "bool"
        }
      ],
      "stateMutability": "nonpayable",
      "type": "function"
    },
    {
      "inputs": [
        {
          "internalType": "address",
          "name": "sender",
          "type": "address"
        },
        {
          "internalType": "address",
          "name": "recipient",
          "type": "address"
        },
        {
          "internalType": "uint256",
          "name": "amount",
          "type": "uint256"
        }
      ],
      "name": "transferFrom",
      "outputs": [
        {
          "internalType": "bool",
          "name": "",
          "type": "bool"
        }
      ],
      "stateMutability": "nonpayable",
      "type": "function"
    },
    {
      "inputs": [
        {
          "internalType": "uint256",
          "name": "_amount",
          "type": "uint256"
        }
      ],
      "name": "mintEcosystem",
      "outputs": [],
      "stateMutability": "nonpayable",
      "type": "function"
    },
    {
      "inputs": [
        {
          "internalType": "uint256",
          "name": "_amount",
          "type": "uint256"
        }
      ],
      "name": "mintLiquidity",
      "outputs": [],
      "stateMutability": "nonpayable",
      "type": "function"
    },
    {
      "inputs": [
        {
          "internalType": "uint256",
          "name": "_amount",
          "type": "uint256"
        }
      ],
      "name": "mintModerator",
      "outputs": [],
      "stateMutability": "nonpayable",
      "type": "function"
    },
    {
      "inputs": [
        {
          "internalType": "uint256",
          "name": "_amount",
          "type": "uint256"
        }
      ],
      "name": "mintStaking",
      "outputs": [],
      "stateMutability": "nonpayable",
      "type": "function"
    },
    {
      "inputs": [
        {
          "internalType": "uint256",
          "name": "_amount",
          "type": "uint256"
        }
      ],
      "name": "mintEvent",
      "outputs": [],
      "stateMutability": "nonpayable",
      "type": "function"
    },
    {
      "inputs": [
        {
          "internalType": "uint256",
          "name": "_amount",
          "type": "uint256"
        }
      ],
      "name": "mintContentCreator",
      "outputs": [],
      "stateMutability": "nonpayable",
      "type": "function"
    },
    {
      "inputs": [
        {
          "internalType": "uint256",
          "name": "_amount",
          "type": "uint256"
        }
      ],
      "name": "burn",
      "outputs": [],
      "stateMutability": "nonpayable",
      "type": "function"
    }
  ],
  "bytecode": "0x60806040526000600b556000600c556000600d556000600e556000600f55600060105560006011556000601255600060135560006014556000601555600060165560006017553480156200005257600080fd5b5060405162005b8938038062005b898339818101604052810190620000789190620006eb565b6004806040518060400160405280600481526020017f45544552000000000000000000000000000000000000000000000000000000008152506040518060400160405280600481526020017f45544552000000000000000000000000000000000000000000000000000000008152508160039080519060200190620000ff929190620005d1565b50806004908051906020019062000118929190620005d1565b50505080600660006101000a81548160ff021916908360ff16021790555050506200016a336012600a6200014d91906200090d565b63019768e06200015e91906200095e565b6200029960201b60201c565b6012600a6200017a91906200090d565b63019768e06200018b91906200095e565b601660008282546200019e9190620009bf565b92505081905550620001d6336012600a620001ba91906200090d565b62b71b00620001ca91906200095e565b6200029960201b60201c565b6012600a620001e691906200090d565b62b71b00620001f691906200095e565b60166000828254620002099190620009bf565b92505081905550620002256000801b336200041260201b60201c565b6200023a6000801b856200041260201b60201c565b6200024f6000801b866200041260201b60201c565b620002646000801b846200041260201b60201c565b620002796000801b836200041260201b60201c565b6200028e6000801b826200041260201b60201c565b505050505062000b32565b600073ffffffffffffffffffffffffffffffffffffffff168273ffffffffffffffffffffffffffffffffffffffff1614156200030c576040517f08c379a0000000000000000000000000000000000000000000000000000000008152600401620003039062000a7d565b60405180910390fd5b62000320600083836200042860201b60201c565b8060026000828254620003349190620009bf565b92505081905550806000808473ffffffffffffffffffffffffffffffffffffffff1673ffffffffffffffffffffffffffffffffffffffff16815260200190815260200160002060008282546200038b9190620009bf565b925050819055508173ffffffffffffffffffffffffffffffffffffffff16600073ffffffffffffffffffffffffffffffffffffffff167fddf252ad1be2c89b69c2b068fc378daa952ba7f163c4a11628f55a4df523b3ef83604051620003f2919062000ab0565b60405180910390a36200040e600083836200046760201b60201c565b5050565b6200042482826200046c60201b60201c565b5050565b3073ffffffffffffffffffffffffffffffffffffffff168273ffffffffffffffffffffffffffffffffffffffff1614156200046257600080fd5b505050565b505050565b6200047e82826200055e60201b60201c565b6200055a5760016005600084815260200190815260200160002060000160008373ffffffffffffffffffffffffffffffffffffffff1673ffffffffffffffffffffffffffffffffffffffff16815260200190815260200160002060006101000a81548160ff021916908315150217905550620004ff620005c960201b60201c565b73ffffffffffffffffffffffffffffffffffffffff168173ffffffffffffffffffffffffffffffffffffffff16837f2f8788117e7eff1d82e926ec794901d17c78024a50270940304540a733656f0d60405160405180910390a45b5050565b60006005600084815260200190815260200160002060000160008373ffffffffffffffffffffffffffffffffffffffff1673ffffffffffffffffffffffffffffffffffffffff16815260200190815260200160002060009054906101000a900460ff16905092915050565b600033905090565b828054620005df9062000afc565b90600052602060002090601f0160209004810192826200060357600085556200064f565b82601f106200061e57805160ff19168380011785556200064f565b828001600101855582156200064f579182015b828111156200064e57825182559160200191906001019062000631565b5b5090506200065e919062000662565b5090565b5b808211156200067d57600081600090555060010162000663565b5090565b600080fd5b600073ffffffffffffffffffffffffffffffffffffffff82169050919050565b6000620006b38262000686565b9050919050565b620006c581620006a6565b8114620006d157600080fd5b50565b600081519050620006e581620006ba565b92915050565b600080600080600060a086880312156200070a576200070962000681565b5b60006200071a88828901620006d4565b95505060206200072d88828901620006d4565b94505060406200074088828901620006d4565b93505060606200075388828901620006d4565b92505060806200076688828901620006d4565b9150509295509295909350565b7f4e487b7100000000000000000000000000000000000000000000000000000000600052601160045260246000fd5b60008160011c9050919050565b6000808291508390505b60018511156200080157808604811115620007d957620007d862000773565b5b6001851615620007e95780820291505b8081029050620007f985620007a2565b9450620007b9565b94509492505050565b6000826200081c5760019050620008ef565b816200082c5760009050620008ef565b8160018114620008455760028114620008505762000886565b6001915050620008ef565b60ff84111562000865576200086462000773565b5b8360020a9150848211156200087f576200087e62000773565b5b50620008ef565b5060208310610133831016604e8410600b8410161715620008c05782820a905083811115620008ba57620008b962000773565b5b620008ef565b620008cf8484846001620007af565b92509050818404811115620008e957620008e862000773565b5b81810290505b9392505050565b6000819050919050565b600060ff82169050919050565b60006200091a82620008f6565b9150620009278362000900565b9250620009567fffffffffffffffffffffffffffffffffffffffffffffffffffffffffffffffff84846200080a565b905092915050565b60006200096b82620008f6565b91506200097883620008f6565b9250817fffffffffffffffffffffffffffffffffffffffffffffffffffffffffffffffff0483118215151615620009b457620009b362000773565b5b828202905092915050565b6000620009cc82620008f6565b9150620009d983620008f6565b9250827fffffffffffffffffffffffffffffffffffffffffffffffffffffffffffffffff0382111562000a115762000a1062000773565b5b828201905092915050565b600082825260208201905092915050565b7f45524332303a206d696e7420746f20746865207a65726f206164647265737300600082015250565b600062000a65601f8362000a1c565b915062000a728262000a2d565b602082019050919050565b6000602082019050818103600083015262000a988162000a56565b9050919050565b62000aaa81620008f6565b82525050565b600060208201905062000ac7600083018462000a9f565b92915050565b7f4e487b7100000000000000000000000000000000000000000000000000000000600052602260045260246000fd5b6000600282049050600182168062000b1557607f821691505b6020821081141562000b2c5762000b2b62000acd565b5b50919050565b6150478062000b426000396000f3fe608060405234801561001057600080fd5b50600436106102325760003560e01c80635d16acc111610130578063a457c2d7116100b8578063dd62ed3e1161007c578063dd62ed3e146106ab578063de4c0415146106db578063e0f05b98146106f9578063e4f7949b14610717578063fb4a43a61461073357610232565b8063a457c2d7146105f5578063a9059cbb14610625578063ab2d27c014610655578063c3fefbd814610673578063d547741f1461068f57610232565b806391d14854116100ff57806391d148541461054f57806395d89b411461057f5780639948ce2d1461059d578063a217fddf146105b9578063a2309ff8146105d757610232565b80635d16acc1146104bf57806370a08231146104dd578063710613981461050d5780638a11a77e1461053157610232565b80632f2ff15d116101be5780633c9f861d116101825780633c9f861d1461042d57806342966c681461044b57806342dc26ec14610467578063494cbbde146104835780635530f435146104a157610232565b80632f2ff15d14610389578063313ce567146103a557806332cb6b0c146103c357806336568abe146103e157806339509351146103fd57610232565b806318160ddd1161020557806318160ddd146102d1578063234dcaa2146102ef57806323b872dd1461030b578063248a9ca31461033b5780632653a7c41461036b57610232565b806301ffc9a71461023757806306fdde0314610267578063095ea7b31461028557806311929223146102b5575b600080fd5b610251600480360381019061024c91906138e0565b610751565b60405161025e9190613928565b60405180910390f35b61026f6107cb565b60405161027c91906139dc565b60405180910390f35b61029f600480360381019061029a9190613a92565b61085d565b6040516102ac9190613928565b60405180910390f35b6102cf60048036038101906102ca9190613ad2565b61087b565b005b6102d96109f6565b6040516102e69190613b0e565b60405180910390f35b61030960048036038101906103049190613ad2565b610a00565b005b61032560048036038101906103209190613b29565b610bc9565b6040516103329190613928565b60405180910390f35b61035560048036038101906103509190613bb2565b610cc1565b6040516103629190613bee565b60405180910390f35b610373610ce1565b6040516103809190613b0e565b60405180910390f35b6103a3600480360381019061039e9190613c09565b610ceb565b005b6103ad610d96565b6040516103ba9190613c65565b60405180910390f35b6103cb610d9f565b6040516103d89190613b0e565b60405180910390f35b6103fb60048036038101906103f69190613c09565b610dbf565b005b61041760048036038101906104129190613a92565b610e42565b6040516104249190613928565b60405180910390f35b610435610eee565b6040516104429190613b0e565b60405180910390f35b61046560048036038101906104609190613ad2565b610ef4565b005b610481600480360381019061047c9190613ad2565b610f83565b005b61048b6110fe565b6040516104989190613b0e565b60405180910390f35b6104a9611255565b6040516104b69190613b0e565b60405180910390f35b6104c761125f565b6040516104d49190613b0e565b60405180910390f35b6104f760048036038101906104f29190613c80565b611269565b6040516105049190613b0e565b60405180910390f35b6105156112b1565b6040516105289796959493929190613cad565b60405180910390f35b6105396113ba565b6040516105469190613b0e565b60405180910390f35b61056960048036038101906105649190613c09565b6113c4565b6040516105769190613928565b60405180910390f35b61058761142f565b60405161059491906139dc565b60405180910390f35b6105b760048036038101906105b29190613ad2565b6114c1565b005b6105c161163c565b6040516105ce9190613bee565b60405180910390f35b6105df611643565b6040516105ec9190613b0e565b60405180910390f35b61060f600480360381019061060a9190613a92565b611649565b60405161061c9190613928565b60405180910390f35b61063f600480360381019061063a9190613a92565b611734565b60405161064c9190613928565b60405180910390f35b61065d611752565b60405161066a9190613b0e565b60405180910390f35b61068d60048036038101906106889190613ad2565b61175c565b005b6106a960048036038101906106a49190613c09565b6118d7565b005b6106c560048036038101906106c09190613d1c565b611982565b6040516106d29190613b0e565b60405180910390f35b6106e3611a09565b6040516106f09190613b0e565b60405180910390f35b610701611a32565b60405161070e9190613b0e565b60405180910390f35b610731600480360381019061072c9190613ad2565b611a4e565b005b61073b611bc9565b6040516107489190613b0e565b60405180910390f35b60007f7965db0b000000000000000000000000000000000000000000000000000000007bffffffffffffffffffffffffffffffffffffffffffffffffffffffff1916827bffffffffffffffffffffffffffffffffffffffffffffffffffffffff191614806107c457506107c382611bcf565b5b9050919050565b6060600380546107da90613d8b565b80601f016020809104026020016040519081016040528092919081815260200182805461080690613d8b565b80156108535780601f1061082857610100808354040283529160200191610853565b820191906000526020600020905b81548152906001019060200180831161083657829003601f168201915b5050505050905090565b600061087161086a611c39565b8484611c41565b6001905092915050565b6108a57f21c81fa7e62d2fa54f0ca99aa835e55cc5a5f3275ebc06de7a105acc7a0ed1f6336113c4565b6108e4576040517f08c379a00000000000000000000000000000000000000000000000000000000081526004016108db90613e09565b60405180910390fd5b806000816016546108f59190613e58565b90506012600a6109059190613fe1565b6311e1a300610914919061402c565b8110610955576040517f08c379a000000000000000000000000000000000000000000000000000000000815260040161094c906140f8565b60405180910390fd5b600073ffffffffffffffffffffffffffffffffffffffff163373ffffffffffffffffffffffffffffffffffffffff1614156109c5576040517f08c379a00000000000000000000000000000000000000000000000000000000081526004016109bc90614164565b60405180910390fd5b6109ce83611e0c565b6109d83384611f38565b82601660008282546109ea9190613e58565b92505081905550505050565b6000600254905090565b610a2a7f97a4503262bcf6ffa9ce078d240211e2c142f557051b1175b4e1b813b4f74f89336113c4565b610a69576040517f08c379a0000000000000000000000000000000000000000000000000000000008152600401610a60906141d0565b60405180910390fd5b80600081601154610a7a9190613e58565b90506012600a610a8a9190613fe1565b6301c9c380610a99919061402c565b811115610aa557600080fd5b82600081601654610ab69190613e58565b90506012600a610ac69190613fe1565b6311e1a300610ad5919061402c565b8110610b16576040517f08c379a0000000000000000000000000000000000000000000000000000000008152600401610b0d906140f8565b60405180910390fd5b600073ffffffffffffffffffffffffffffffffffffffff163373ffffffffffffffffffffffffffffffffffffffff161415610b86576040517f08c379a0000000000000000000000000000000000000000000000000000000008152600401610b7d90614164565b60405180910390fd5b610b903386611f38565b8460166000828254610ba29190613e58565b925050819055508460116000828254610bbb9190613e58565b925050819055505050505050565b6000610bd6848484612098565b6000600160008673ffffffffffffffffffffffffffffffffffffffff1673ffffffffffffffffffffffffffffffffffffffff1681526020019081526020016000206000610c21611c39565b73ffffffffffffffffffffffffffffffffffffffff1673ffffffffffffffffffffffffffffffffffffffff16815260200190815260200160002054905082811015610ca1576040517f08c379a0000000000000000000000000000000000000000000000000000000008152600401610c9890614262565b60405180910390fd5b610cb585610cad611c39565b858403611c41565b60019150509392505050565b600060056000838152602001908152602001600020600101549050919050565b6000601454905090565b610cf482610cc1565b610d0581610d00611c39565b612319565b610d0f82846123b6565b50600660009054906101000a900460ff1660ff16600860008473ffffffffffffffffffffffffffffffffffffffff1673ffffffffffffffffffffffffffffffffffffffff16815260200190815260200160002060008581526020019081526020016000208054905010610d9157610d868383612642565b610d90828461266b565b5b505050565b60006012905090565b6012600a610dad9190613fe1565b6311e1a300610dbc919061402c565b81565b610dc7611c39565b73ffffffffffffffffffffffffffffffffffffffff168173ffffffffffffffffffffffffffffffffffffffff1614610e34576040517f08c379a0000000000000000000000000000000000000000000000000000000008152600401610e2b906142f4565b60405180910390fd5b610e3e8282612a5d565b5050565b6000610ee4610e4f611c39565b848460016000610e5d611c39565b73ffffffffffffffffffffffffffffffffffffffff1673ffffffffffffffffffffffffffffffffffffffff16815260200190815260200160002060008873ffffffffffffffffffffffffffffffffffffffff1673ffffffffffffffffffffffffffffffffffffffff16815260200190815260200160002054610edf9190613e58565b611c41565b6001905092915050565b60175481565b610f1e7fe97b137254058bd94f28d2f3eb79e2d34074ffb488d042e3bc958e0a57d2fa22336113c4565b610f5d576040517f08c379a0000000000000000000000000000000000000000000000000000000008152600401610f5490614386565b60405180910390fd5b610f673382612b3f565b8060176000828254610f799190613e58565b9250508190555050565b610fad7fcae1f8764258e7acef84e81ba8696005bda5ff3a332583dbd46f1dc2ceb4bd3f336113c4565b610fec576040517f08c379a0000000000000000000000000000000000000000000000000000000008152600401610fe3906143f2565b60405180910390fd5b80600081601654610ffd9190613e58565b90506012600a61100d9190613fe1565b6311e1a30061101c919061402c565b811061105d576040517f08c379a0000000000000000000000000000000000000000000000000000000008152600401611054906140f8565b60405180910390fd5b600073ffffffffffffffffffffffffffffffffffffffff163373ffffffffffffffffffffffffffffffffffffffff1614156110cd576040517f08c379a00000000000000000000000000000000000000000000000000000000081526004016110c49061445e565b60405180910390fd5b6110d683612d16565b6110e03384611f38565b82601660008282546110f29190613e58565b92505081905550505050565b600080606460026012600a6111139190613fe1565b630c845880611122919061402c565b61112c919061402c565b61113691906144ad565b9050600061114382612e39565b905061114d612e4f565b1561115c578092505050611252565b6000611166611a09565b9050600062278d008261117991906144ad565b905060005b818110156111b25784846111929190613e58565b935061119d85612e5b565b945080806111aa906144de565b91505061117e565b5060006111be85612e39565b905060006201518062278d00856111d59190614527565b6111df91906144ad565b905081816111ed919061402c565b856111f89190613e58565b94506012600a6112089190613fe1565b630c845880611217919061402c565b851115611248576012600a61122c9190613fe1565b630c84588061123b919061402c565b9650505050505050611252565b8496505050505050505b90565b6000600b54905090565b6000600f54905090565b60008060008373ffffffffffffffffffffffffffffffffffffffff1673ffffffffffffffffffffffffffffffffffffffff168152602001908152602001600020549050919050565b60008060008060008060007f21c81fa7e62d2fa54f0ca99aa835e55cc5a5f3275ebc06de7a105acc7a0ed1f696507f97a4503262bcf6ffa9ce078d240211e2c142f557051b1175b4e1b813b4f74f8995507fd9eda32a4d574af7eb0628dcbbe04707a7482d78288f85167fea6716dd6d2b3394507faf660f8ca8c2623c89049deecaf0db2a52537ffabae483bbfd54d021cb7cc1d193507f64e57414e979c4c44021961613df257237fc6c18d32c223edd8a33044c0bc9d092507fcae1f8764258e7acef84e81ba8696005bda5ff3a332583dbd46f1dc2ceb4bd3f91507fe97b137254058bd94f28d2f3eb79e2d34074ffb488d042e3bc958e0a57d2fa22905090919293949596565b6000600d54905090565b60006005600084815260200190815260200160002060000160008373ffffffffffffffffffffffffffffffffffffffff1673ffffffffffffffffffffffffffffffffffffffff16815260200190815260200160002060009054906101000a900460ff16905092915050565b60606004805461143e90613d8b565b80601f016020809104026020016040519081016040528092919081815260200182805461146a90613d8b565b80156114b75780601f1061148c576101008083540402835291602001916114b7565b820191906000526020600020905b81548152906001019060200180831161149a57829003601f168201915b5050505050905090565b6114eb7fd9eda32a4d574af7eb0628dcbbe04707a7482d78288f85167fea6716dd6d2b33336113c4565b61152a576040517f08c379a0000000000000000000000000000000000000000000000000000000008152600401611521906145a4565b60405180910390fd5b8060008160165461153b9190613e58565b90506012600a61154b9190613fe1565b6311e1a30061155a919061402c565b811061159b576040517f08c379a0000000000000000000000000000000000000000000000000000000008152600401611592906140f8565b60405180910390fd5b600073ffffffffffffffffffffffffffffffffffffffff163373ffffffffffffffffffffffffffffffffffffffff16141561160b576040517f08c379a00000000000000000000000000000000000000000000000000000000081526004016116029061445e565b60405180910390fd5b61161483612ec6565b61161e3384611f38565b82601660008282546116309190613e58565b92505081905550505050565b6000801b81565b60165481565b60008060016000611658611c39565b73ffffffffffffffffffffffffffffffffffffffff1673ffffffffffffffffffffffffffffffffffffffff16815260200190815260200160002060008573ffffffffffffffffffffffffffffffffffffffff1673ffffffffffffffffffffffffffffffffffffffff16815260200190815260200160002054905082811015611715576040517f08c379a000000000000000000000000000000000000000000000000000000000815260040161170c90614636565b60405180910390fd5b611729611720611c39565b85858403611c41565b600191505092915050565b6000611748611741611c39565b8484612098565b6001905092915050565b6000601254905090565b6117867faf660f8ca8c2623c89049deecaf0db2a52537ffabae483bbfd54d021cb7cc1d1336113c4565b6117c5576040517f08c379a00000000000000000000000000000000000000000000000000000000081526004016117bc906146a2565b60405180910390fd5b806000816016546117d69190613e58565b90506012600a6117e69190613fe1565b6311e1a3006117f5919061402c565b8110611836576040517f08c379a000000000000000000000000000000000000000000000000000000000815260040161182d906140f8565b60405180910390fd5b600073ffffffffffffffffffffffffffffffffffffffff163373ffffffffffffffffffffffffffffffffffffffff1614156118a6576040517f08c379a000000000000000000000000000000000000000000000000000000000815260040161189d9061445e565b60405180910390fd5b6118af83612fe9565b6118b93384611f38565b82601660008282546118cb9190613e58565b92505081905550505050565b6118e082610cc1565b6118f1816118ec611c39565b612319565b6118fb828461310d565b50600660009054906101000a900460ff1660ff16600a60008473ffffffffffffffffffffffffffffffffffffffff1673ffffffffffffffffffffffffffffffffffffffff1681526020019081526020016000206000858152602001908152602001600020805490501061197d576119728383613399565b61197c828461266b565b5b505050565b6000600160008473ffffffffffffffffffffffffffffffffffffffff1673ffffffffffffffffffffffffffffffffffffffff16815260200190815260200160002060008373ffffffffffffffffffffffffffffffffffffffff1673ffffffffffffffffffffffffffffffffffffffff16815260200190815260200160002054905092915050565b600080600e541415611a1e5760009050611a2f565b600e5442611a2c91906146c2565b90505b90565b6000600d54611a3f6110fe565b611a4991906146c2565b905090565b611a787f64e57414e979c4c44021961613df257237fc6c18d32c223edd8a33044c0bc9d0336113c4565b611ab7576040517f08c379a0000000000000000000000000000000000000000000000000000000008152600401611aae90614742565b60405180910390fd5b80600081601654611ac89190613e58565b90506012600a611ad89190613fe1565b6311e1a300611ae7919061402c565b8110611b28576040517f08c379a0000000000000000000000000000000000000000000000000000000008152600401611b1f906140f8565b60405180910390fd5b600073ffffffffffffffffffffffffffffffffffffffff163373ffffffffffffffffffffffffffffffffffffffff161415611b98576040517f08c379a0000000000000000000000000000000000000000000000000000000008152600401611b8f9061445e565b60405180910390fd5b611ba1836133c2565b611bab3384611f38565b8260166000828254611bbd9190613e58565b92505081905550505050565b60115481565b60007f01ffc9a7000000000000000000000000000000000000000000000000000000007bffffffffffffffffffffffffffffffffffffffffffffffffffffffff1916827bffffffffffffffffffffffffffffffffffffffffffffffffffffffff1916149050919050565b600033905090565b600073ffffffffffffffffffffffffffffffffffffffff168373ffffffffffffffffffffffffffffffffffffffff161415611cb1576040517f08c379a0000000000000000000000000000000000000000000000000000000008152600401611ca8906147d4565b60405180910390fd5b600073ffffffffffffffffffffffffffffffffffffffff168273ffffffffffffffffffffffffffffffffffffffff161415611d21576040517f08c379a0000000000000000000000000000000000000000000000000000000008152600401611d1890614866565b60405180910390fd5b80600160008573ffffffffffffffffffffffffffffffffffffffff1673ffffffffffffffffffffffffffffffffffffffff16815260200190815260200160002060008473ffffffffffffffffffffffffffffffffffffffff1673ffffffffffffffffffffffffffffffffffffffff168152602001908152602001600020819055508173ffffffffffffffffffffffffffffffffffffffff168373ffffffffffffffffffffffffffffffffffffffff167f8c5be1e5ebec7d5bd14f71427d1e84f3dd0314c0f7b2291e5b200ac8c7c3b92583604051611dff9190613b0e565b60405180910390a3505050565b80600081600d54611e1d9190613e58565b90506012600a611e2d9190613fe1565b630c845880611e3c919061402c565b8111156012600a611e4d9190613fe1565b630c845880611e5c919061402c565b604051602001611e6c91906148fe565b60405160208183030381529060405290611ebc576040517f08c379a0000000000000000000000000000000000000000000000000000000008152600401611eb391906139dc565b60405180910390fd5b50611ec56110fe565b811115611f07576040517f08c379a0000000000000000000000000000000000000000000000000000000008152600401611efe90614970565b60405180910390fd5b6000600e541415611f1a5742600e819055505b82600d6000828254611f2c9190613e58565b92505081905550505050565b600073ffffffffffffffffffffffffffffffffffffffff168273ffffffffffffffffffffffffffffffffffffffff161415611fa8576040517f08c379a0000000000000000000000000000000000000000000000000000000008152600401611f9f906149dc565b60405180910390fd5b611fb4600083836134e5565b8060026000828254611fc69190613e58565b92505081905550806000808473ffffffffffffffffffffffffffffffffffffffff1673ffffffffffffffffffffffffffffffffffffffff168152602001908152602001600020600082825461201b9190613e58565b925050819055508173ffffffffffffffffffffffffffffffffffffffff16600073ffffffffffffffffffffffffffffffffffffffff167fddf252ad1be2c89b69c2b068fc378daa952ba7f163c4a11628f55a4df523b3ef836040516120809190613b0e565b60405180910390a361209460008383613523565b5050565b600073ffffffffffffffffffffffffffffffffffffffff168373ffffffffffffffffffffffffffffffffffffffff161415612108576040517f08c379a00000000000000000000000000000000000000000000000000000000081526004016120ff90614a6e565b60405180910390fd5b600073ffffffffffffffffffffffffffffffffffffffff168273ffffffffffffffffffffffffffffffffffffffff161415612178576040517f08c379a000000000000000000000000000000000000000000000000000000000815260040161216f90614b00565b60405180910390fd5b6121838383836134e5565b60008060008573ffffffffffffffffffffffffffffffffffffffff1673ffffffffffffffffffffffffffffffffffffffff16815260200190815260200160002054905081811015612209576040517f08c379a000000000000000000000000000000000000000000000000000000000815260040161220090614b92565b60405180910390fd5b8181036000808673ffffffffffffffffffffffffffffffffffffffff1673ffffffffffffffffffffffffffffffffffffffff16815260200190815260200160002081905550816000808573ffffffffffffffffffffffffffffffffffffffff1673ffffffffffffffffffffffffffffffffffffffff168152602001908152602001600020600082825461229c9190613e58565b925050819055508273ffffffffffffffffffffffffffffffffffffffff168473ffffffffffffffffffffffffffffffffffffffff167fddf252ad1be2c89b69c2b068fc378daa952ba7f163c4a11628f55a4df523b3ef846040516123009190613b0e565b60405180910390a3612313848484613523565b50505050565b61232382826113c4565b6123b2576123488173ffffffffffffffffffffffffffffffffffffffff166014613528565b6123568360001c6020613528565b604051602001612367929190614c7b565b6040516020818303038152906040526040517f08c379a00000000000000000000000000000000000000000000000000000000081526004016123a991906139dc565b60405180910390fd5b5050565b60008073ffffffffffffffffffffffffffffffffffffffff168373ffffffffffffffffffffffffffffffffffffffff1614156123f157600080fd5b600760008473ffffffffffffffffffffffffffffffffffffffff1673ffffffffffffffffffffffffffffffffffffffff1681526020019081526020016000206000838152602001908152602001600020600061244b611c39565b73ffffffffffffffffffffffffffffffffffffffff1673ffffffffffffffffffffffffffffffffffffffff16815260200190815260200160002060009054906101000a900460ff16156124d3576040517f08c379a00000000000000000000000000000000000000000000000000000000081526004016124ca90614d01565b60405180910390fd5b6001600760008573ffffffffffffffffffffffffffffffffffffffff1673ffffffffffffffffffffffffffffffffffffffff1681526020019081526020016000206000848152602001908152602001600020600061252f611c39565b73ffffffffffffffffffffffffffffffffffffffff1673ffffffffffffffffffffffffffffffffffffffff16815260200190815260200160002060006101000a81548160ff021916908315150217905550600860008473ffffffffffffffffffffffffffffffffffffffff1673ffffffffffffffffffffffffffffffffffffffff16815260200190815260200160002060008381526020019081526020016000206125d8611c39565b9080600181540180825580915050600190039060005260206000200160009091909190916101000a81548173ffffffffffffffffffffffffffffffffffffffff021916908373ffffffffffffffffffffffffffffffffffffffff1602179055506001905092915050565b61264b82610cc1565b61265c81612657611c39565b612319565b6126668383613764565b505050565b60005b600a60008473ffffffffffffffffffffffffffffffffffffffff1673ffffffffffffffffffffffffffffffffffffffff16815260200190815260200160002060008381526020019081526020016000208054905081101561280557600960008473ffffffffffffffffffffffffffffffffffffffff1673ffffffffffffffffffffffffffffffffffffffff16815260200190815260200160002060008381526020019081526020016000206000600a60008673ffffffffffffffffffffffffffffffffffffffff1673ffffffffffffffffffffffffffffffffffffffff1681526020019081526020016000206000858152602001908152602001600020838154811061277d5761277c614d21565b5b9060005260206000200160009054906101000a900473ffffffffffffffffffffffffffffffffffffffff1673ffffffffffffffffffffffffffffffffffffffff1673ffffffffffffffffffffffffffffffffffffffff16815260200190815260200160002060006101000a81549060ff021916905580806127fd906144de565b91505061266e565b50600a60008373ffffffffffffffffffffffffffffffffffffffff1673ffffffffffffffffffffffffffffffffffffffff168152602001908152602001600020600082815260200190815260200160002060006128629190613845565b60005b600860008473ffffffffffffffffffffffffffffffffffffffff1673ffffffffffffffffffffffffffffffffffffffff1681526020019081526020016000206000838152602001908152602001600020805490508110156129fc57600760008473ffffffffffffffffffffffffffffffffffffffff1673ffffffffffffffffffffffffffffffffffffffff16815260200190815260200160002060008381526020019081526020016000206000600860008673ffffffffffffffffffffffffffffffffffffffff1673ffffffffffffffffffffffffffffffffffffffff1681526020019081526020016000206000858152602001908152602001600020838154811061297457612973614d21565b5b9060005260206000200160009054906101000a900473ffffffffffffffffffffffffffffffffffffffff1673ffffffffffffffffffffffffffffffffffffffff1673ffffffffffffffffffffffffffffffffffffffff16815260200190815260200160002060006101000a81549060ff021916905580806129f4906144de565b915050612865565b50600860008373ffffffffffffffffffffffffffffffffffffffff1673ffffffffffffffffffffffffffffffffffffffff16815260200190815260200160002060008281526020019081526020016000206000612a599190613845565b5050565b612a6782826113c4565b15612b3b5760006005600084815260200190815260200160002060000160008373ffffffffffffffffffffffffffffffffffffffff1673ffffffffffffffffffffffffffffffffffffffff16815260200190815260200160002060006101000a81548160ff021916908315150217905550612ae0611c39565b73ffffffffffffffffffffffffffffffffffffffff168173ffffffffffffffffffffffffffffffffffffffff16837ff6391f5c32d9c69d2a47ea670b442974b53935d1edc7fd64eb21e047a839171b60405160405180910390a45b5050565b600073ffffffffffffffffffffffffffffffffffffffff168273ffffffffffffffffffffffffffffffffffffffff161415612baf576040517f08c379a0000000000000000000000000000000000000000000000000000000008152600401612ba690614dc2565b60405180910390fd5b612bbb826000836134e5565b60008060008473ffffffffffffffffffffffffffffffffffffffff1673ffffffffffffffffffffffffffffffffffffffff16815260200190815260200160002054905081811015612c41576040517f08c379a0000000000000000000000000000000000000000000000000000000008152600401612c3890614e54565b60405180910390fd5b8181036000808573ffffffffffffffffffffffffffffffffffffffff1673ffffffffffffffffffffffffffffffffffffffff168152602001908152602001600020819055508160026000828254612c9891906146c2565b92505081905550600073ffffffffffffffffffffffffffffffffffffffff168373ffffffffffffffffffffffffffffffffffffffff167fddf252ad1be2c89b69c2b068fc378daa952ba7f163c4a11628f55a4df523b3ef84604051612cfd9190613b0e565b60405180910390a3612d1183600084613523565b505050565b80600081600b54612d279190613e58565b90506012600a612d379190613fe1565b622dc6c0612d45919061402c565b811115612d5157600080fd5b82600080600c541480612d73575062015180600c54612d709190613e58565b42115b905080612db5576040517f08c379a0000000000000000000000000000000000000000000000000000000008152600401612dac90614ec0565b60405180910390fd5b6012600a612dc39190613fe1565b617530612dd0919061402c565b821115612e12576040517f08c379a0000000000000000000000000000000000000000000000000000000008152600401612e0990614f2c565b60405180910390fd5b84600b6000828254612e249190613e58565b9250508190555042600c819055505050505050565b6000601e82612e4891906144ad565b9050919050565b600080600e5414905090565b60006103e86103d783612e6e919061402c565b612e7891906144ad565b91506012600a612e889190613fe1565b62225510612e96919061402c565b8210612ea25781612ebf565b6012600a612eb09190613fe1565b62225510612ebe919061402c565b5b9050919050565b806000806010541480612ee8575062015180601054612ee59190613e58565b42115b905080612f2a576040517f08c379a0000000000000000000000000000000000000000000000000000000008152600401612f2190614ec0565b60405180910390fd5b6012600a612f389190613fe1565b610bb8612f45919061402c565b821115612f87576040517f08c379a0000000000000000000000000000000000000000000000000000000008152600401612f7e90614f2c565b60405180910390fd5b82600081600f54612f989190613e58565b90506012600a612fa89190613fe1565b620493e0612fb6919061402c565b811115612fc257600080fd5b84600f6000828254612fd49190613e58565b92505081905550426010819055505050505050565b80600081601254612ffa9190613e58565b90506012600a61300a9190613fe1565b62e4e1c0613018919061402c565b81111561302457600080fd5b8260008060135414806130465750620151806013546130439190613e58565b42115b905080613088576040517f08c379a000000000000000000000000000000000000000000000000000000000815260040161307f90614ec0565b60405180910390fd5b6012600a6130969190613fe1565b620249f06130a4919061402c565b8211156130e6576040517f08c379a00000000000000000000000000000000000000000000000000000000081526004016130dd90614f2c565b60405180910390fd5b84601260008282546130f89190613e58565b92505081905550426013819055505050505050565b60008073ffffffffffffffffffffffffffffffffffffffff168373ffffffffffffffffffffffffffffffffffffffff16141561314857600080fd5b600960008473ffffffffffffffffffffffffffffffffffffffff1673ffffffffffffffffffffffffffffffffffffffff168152602001908152602001600020600083815260200190815260200160002060006131a2611c39565b73ffffffffffffffffffffffffffffffffffffffff1673ffffffffffffffffffffffffffffffffffffffff16815260200190815260200160002060009054906101000a900460ff161561322a576040517f08c379a000000000000000000000000000000000000000000000000000000000815260040161322190614d01565b60405180910390fd5b6001600960008573ffffffffffffffffffffffffffffffffffffffff1673ffffffffffffffffffffffffffffffffffffffff16815260200190815260200160002060008481526020019081526020016000206000613286611c39565b73ffffffffffffffffffffffffffffffffffffffff1673ffffffffffffffffffffffffffffffffffffffff16815260200190815260200160002060006101000a81548160ff021916908315150217905550600a60008473ffffffffffffffffffffffffffffffffffffffff1673ffffffffffffffffffffffffffffffffffffffff168152602001908152602001600020600083815260200190815260200160002061332f611c39565b9080600181540180825580915050600190039060005260206000200160009091909190916101000a81548173ffffffffffffffffffffffffffffffffffffffff021916908373ffffffffffffffffffffffffffffffffffffffff1602179055506001905092915050565b6133a282610cc1565b6133b3816133ae611c39565b612319565b6133bd8383612a5d565b505050565b8060008060155414806133e45750620151806015546133e19190613e58565b42115b905080613426576040517f08c379a000000000000000000000000000000000000000000000000000000000815260040161341d90614ec0565b60405180910390fd5b6012600a6134349190613fe1565b617530613441919061402c565b821115613483576040517f08c379a000000000000000000000000000000000000000000000000000000000815260040161347a90614f2c565b60405180910390fd5b826000816014546134949190613e58565b90506012600a6134a49190613fe1565b622dc6c06134b2919061402c565b8111156134be57600080fd5b84601460008282546134d09190613e58565b92505081905550426015819055505050505050565b3073ffffffffffffffffffffffffffffffffffffffff168273ffffffffffffffffffffffffffffffffffffffff16141561351e57600080fd5b505050565b505050565b60606000600283600261353b919061402c565b6135459190613e58565b67ffffffffffffffff81111561355e5761355d614f4c565b5b6040519080825280601f01601f1916602001820160405280156135905781602001600182028036833780820191505090505b5090507f3000000000000000000000000000000000000000000000000000000000000000816000815181106135c8576135c7614d21565b5b60200101907effffffffffffffffffffffffffffffffffffffffffffffffffffffffffffff1916908160001a9053507f78000000000000000000000000000000000000000000000000000000000000008160018151811061362c5761362b614d21565b5b60200101907effffffffffffffffffffffffffffffffffffffffffffffffffffffffffffff1916908160001a9053506000600184600261366c919061402c565b6136769190613e58565b90505b6001811115613716577f3031323334353637383961626364656600000000000000000000000000000000600f8616601081106136b8576136b7614d21565b5b1a60f81b8282815181106136cf576136ce614d21565b5b60200101907effffffffffffffffffffffffffffffffffffffffffffffffffffffffffffff1916908160001a905350600485901c94508061370f90614f7b565b9050613679565b506000841461375a576040517f08c379a000000000000000000000000000000000000000000000000000000000815260040161375190614ff1565b60405180910390fd5b8091505092915050565b61376e82826113c4565b6138415760016005600084815260200190815260200160002060000160008373ffffffffffffffffffffffffffffffffffffffff1673ffffffffffffffffffffffffffffffffffffffff16815260200190815260200160002060006101000a81548160ff0219169083151502179055506137e6611c39565b73ffffffffffffffffffffffffffffffffffffffff168173ffffffffffffffffffffffffffffffffffffffff16837f2f8788117e7eff1d82e926ec794901d17c78024a50270940304540a733656f0d60405160405180910390a45b5050565b50805460008255906000526020600020908101906138639190613866565b50565b5b8082111561387f576000816000905550600101613867565b5090565b600080fd5b60007fffffffff0000000000000000000000000000000000000000000000000000000082169050919050565b6138bd81613888565b81146138c857600080fd5b50565b6000813590506138da816138b4565b92915050565b6000602082840312156138f6576138f5613883565b5b6000613904848285016138cb565b91505092915050565b60008115159050919050565b6139228161390d565b82525050565b600060208201905061393d6000830184613919565b92915050565b600081519050919050565b600082825260208201905092915050565b60005b8381101561397d578082015181840152602081019050613962565b8381111561398c576000848401525b50505050565b6000601f19601f8301169050919050565b60006139ae82613943565b6139b8818561394e565b93506139c881856020860161395f565b6139d181613992565b840191505092915050565b600060208201905081810360008301526139f681846139a3565b905092915050565b600073ffffffffffffffffffffffffffffffffffffffff82169050919050565b6000613a29826139fe565b9050919050565b613a3981613a1e565b8114613a4457600080fd5b50565b600081359050613a5681613a30565b92915050565b6000819050919050565b613a6f81613a5c565b8114613a7a57600080fd5b50565b600081359050613a8c81613a66565b92915050565b60008060408385031215613aa957613aa8613883565b5b6000613ab785828601613a47565b9250506020613ac885828601613a7d565b9150509250929050565b600060208284031215613ae857613ae7613883565b5b6000613af684828501613a7d565b91505092915050565b613b0881613a5c565b82525050565b6000602082019050613b236000830184613aff565b92915050565b600080600060608486031215613b4257613b41613883565b5b6000613b5086828701613a47565b9350506020613b6186828701613a47565b9250506040613b7286828701613a7d565b9150509250925092565b6000819050919050565b613b8f81613b7c565b8114613b9a57600080fd5b50565b600081359050613bac81613b86565b92915050565b600060208284031215613bc857613bc7613883565b5b6000613bd684828501613b9d565b91505092915050565b613be881613b7c565b82525050565b6000602082019050613c036000830184613bdf565b92915050565b60008060408385031215613c2057613c1f613883565b5b6000613c2e85828601613b9d565b9250506020613c3f85828601613a47565b9150509250929050565b600060ff82169050919050565b613c5f81613c49565b82525050565b6000602082019050613c7a6000830184613c56565b92915050565b600060208284031215613c9657613c95613883565b5b6000613ca484828501613a47565b91505092915050565b600060e082019050613cc2600083018a613bdf565b613ccf6020830189613bdf565b613cdc6040830188613bdf565b613ce96060830187613bdf565b613cf66080830186613bdf565b613d0360a0830185613bdf565b613d1060c0830184613bdf565b98975050505050505050565b60008060408385031215613d3357613d32613883565b5b6000613d4185828601613a47565b9250506020613d5285828601613a47565b9150509250929050565b7f4e487b7100000000000000000000000000000000000000000000000000000000600052602260045260246000fd5b60006002820490506001821680613da357607f821691505b60208210811415613db757613db6613d5c565b5b50919050565b7f43616c6c6572206973206e6f742065636f73797374656d206d696e7465720000600082015250565b6000613df3601e8361394e565b9150613dfe82613dbd565b602082019050919050565b60006020820190508181036000830152613e2281613de6565b9050919050565b7f4e487b7100000000000000000000000000000000000000000000000000000000600052601160045260246000fd5b6000613e6382613a5c565b9150613e6e83613a5c565b9250827fffffffffffffffffffffffffffffffffffffffffffffffffffffffffffffffff03821115613ea357613ea2613e29565b5b828201905092915050565b60008160011c9050919050565b6000808291508390505b6001851115613f0557808604811115613ee157613ee0613e29565b5b6001851615613ef05780820291505b8081029050613efe85613eae565b9450613ec5565b94509492505050565b600082613f1e5760019050613fda565b81613f2c5760009050613fda565b8160018114613f425760028114613f4c57613f7b565b6001915050613fda565b60ff841115613f5e57613f5d613e29565b5b8360020a915084821115613f7557613f74613e29565b5b50613fda565b5060208310610133831016604e8410600b8410161715613fb05782820a905083811115613fab57613faa613e29565b5b613fda565b613fbd8484846001613ebb565b92509050818404811115613fd457613fd3613e29565b5b81810290505b9392505050565b6000613fec82613a5c565b9150613ff783613c49565b92506140247fffffffffffffffffffffffffffffffffffffffffffffffffffffffffffffffff8484613f0e565b905092915050565b600061403782613a5c565b915061404283613a5c565b9250817fffffffffffffffffffffffffffffffffffffffffffffffffffffffffffffffff048311821515161561407b5761407a613e29565b5b828202905092915050565b7f546865207472616e73616374696f6e20657863656564206d6178696d756d207360008201527f7570706c79000000000000000000000000000000000000000000000000000000602082015250565b60006140e260258361394e565b91506140ed82614086565b604082019050919050565b60006020820190508181036000830152614111816140d5565b9050919050565b7f63616e6e6f74206d696e7420746f207a65726f20616464726573730000000000600082015250565b600061414e601b8361394e565b915061415982614118565b602082019050919050565b6000602082019050818103600083015261417d81614141565b9050919050565b7f43616c6c6572206973206e6f74206c6971756964697479206d696e7465720000600082015250565b60006141ba601e8361394e565b91506141c582614184565b602082019050919050565b600060208201905081810360008301526141e9816141ad565b9050919050565b7f45524332303a207472616e7366657220616d6f756e742065786365656473206160008201527f6c6c6f77616e6365000000000000000000000000000000000000000000000000602082015250565b600061424c60288361394e565b9150614257826141f0565b604082019050919050565b6000602082019050818103600083015261427b8161423f565b9050919050565b7f416363657373436f6e74726f6c3a2063616e206f6e6c792072656e6f756e636560008201527f20726f6c657320666f722073656c660000000000000000000000000000000000602082015250565b60006142de602f8361394e565b91506142e982614282565b604082019050919050565b6000602082019050818103600083015261430d816142d1565b9050919050565b7f4f6e6c7920746865206275726e20726f6c652063616e20706572666f726d207460008201527f68697320616374696f6e00000000000000000000000000000000000000000000602082015250565b6000614370602a8361394e565b915061437b82614314565b604082019050919050565b6000602082019050818103600083015261439f81614363565b9050919050565b7f43616c6c6572206973206e6f7420636f6e74656e742063726561746f72000000600082015250565b60006143dc601d8361394e565b91506143e7826143a6565b602082019050919050565b6000602082019050818103600083015261440b816143cf565b9050919050565b7f63616e6e6f74206d696e7420746f20746865207a65726f206164647265737300600082015250565b6000614448601f8361394e565b915061445382614412565b602082019050919050565b600060208201905081810360008301526144778161443b565b9050919050565b7f4e487b7100000000000000000000000000000000000000000000000000000000600052601260045260246000fd5b60006144b882613a5c565b91506144c383613a5c565b9250826144d3576144d261447e565b5b828204905092915050565b60006144e982613a5c565b91507fffffffffffffffffffffffffffffffffffffffffffffffffffffffffffffffff82141561451c5761451b613e29565b5b600182019050919050565b600061453282613a5c565b915061453d83613a5c565b92508261454d5761454c61447e565b5b828206905092915050565b7f43616c6c6572206973206e6f74206d6f64657261746f72000000000000000000600082015250565b600061458e60178361394e565b915061459982614558565b602082019050919050565b600060208201905081810360008301526145bd81614581565b9050919050565b7f45524332303a2064656372656173656420616c6c6f77616e63652062656c6f7760008201527f207a65726f000000000000000000000000000000000000000000000000000000602082015250565b600061462060258361394e565b915061462b826145c4565b604082019050919050565b6000602082019050818103600083015261464f81614613565b9050919050565b7f43616c6c6572206973206e6f74207374616b696e670000000000000000000000600082015250565b600061468c60158361394e565b915061469782614656565b602082019050919050565b600060208201905081810360008301526146bb8161467f565b9050919050565b60006146cd82613a5c565b91506146d883613a5c565b9250828210156146eb576146ea613e29565b5b828203905092915050565b7f43616c6c6572206973206e6f74206576656e7400000000000000000000000000600082015250565b600061472c60138361394e565b9150614737826146f6565b602082019050919050565b6000602082019050818103600083015261475b8161471f565b9050919050565b7f45524332303a20617070726f76652066726f6d20746865207a65726f2061646460008201527f7265737300000000000000000000000000000000000000000000000000000000602082015250565b60006147be60248361394e565b91506147c982614762565b604082019050919050565b600060208201905081810360008301526147ed816147b1565b9050919050565b7f45524332303a20617070726f766520746f20746865207a65726f20616464726560008201527f7373000000000000000000000000000000000000000000000000000000000000602082015250565b600061485060228361394e565b915061485b826147f4565b604082019050919050565b6000602082019050818103600083015261487f81614843565b9050919050565b600081905092915050565b7f546865206d61782065636f73797374656d20737570706c792069733a20000000600082015250565b60006148c7601d83614886565b91506148d282614891565b601d82019050919050565b6000819050919050565b6148f86148f382613a5c565b6148dd565b82525050565b6000614909826148ba565b915061491582846148e7565b60208201915081905092915050565b7f63616e2774206d696e7420746861742076616c75652079657400000000000000600082015250565b600061495a60198361394e565b915061496582614924565b602082019050919050565b600060208201905081810360008301526149898161494d565b9050919050565b7f45524332303a206d696e7420746f20746865207a65726f206164647265737300600082015250565b60006149c6601f8361394e565b91506149d182614990565b602082019050919050565b600060208201905081810360008301526149f5816149b9565b9050919050565b7f45524332303a207472616e736665722066726f6d20746865207a65726f20616460008201527f6472657373000000000000000000000000000000000000000000000000000000602082015250565b6000614a5860258361394e565b9150614a63826149fc565b604082019050919050565b60006020820190508181036000830152614a8781614a4b565b9050919050565b7f45524332303a207472616e7366657220746f20746865207a65726f206164647260008201527f6573730000000000000000000000000000000000000000000000000000000000602082015250565b6000614aea60238361394e565b9150614af582614a8e565b604082019050919050565b60006020820190508181036000830152614b1981614add565b9050919050565b7f45524332303a207472616e7366657220616d6f756e742065786365656473206260008201527f616c616e63650000000000000000000000000000000000000000000000000000602082015250565b6000614b7c60268361394e565b9150614b8782614b20565b604082019050919050565b60006020820190508181036000830152614bab81614b6f565b9050919050565b7f416363657373436f6e74726f6c3a206163636f756e7420000000000000000000600082015250565b6000614be8601783614886565b9150614bf382614bb2565b601782019050919050565b6000614c0982613943565b614c138185614886565b9350614c2381856020860161395f565b80840191505092915050565b7f206973206d697373696e6720726f6c6520000000000000000000000000000000600082015250565b6000614c65601183614886565b9150614c7082614c2f565b601182019050919050565b6000614c8682614bdb565b9150614c928285614bfe565b9150614c9d82614c58565b9150614ca98284614bfe565b91508190509392505050565b7f596f752063616e20766f7465206f6e6c79206f6e652074696d65000000000000600082015250565b6000614ceb601a8361394e565b9150614cf682614cb5565b602082019050919050565b60006020820190508181036000830152614d1a81614cde565b9050919050565b7f4e487b7100000000000000000000000000000000000000000000000000000000600052603260045260246000fd5b7f45524332303a206275726e2066726f6d20746865207a65726f2061646472657360008201527f7300000000000000000000000000000000000000000000000000000000000000602082015250565b6000614dac60218361394e565b9150614db782614d50565b604082019050919050565b60006020820190508181036000830152614ddb81614d9f565b9050919050565b7f45524332303a206275726e20616d6f756e7420657863656564732062616c616e60008201527f6365000000000000000000000000000000000000000000000000000000000000602082015250565b6000614e3e60228361394e565b9150614e4982614de2565b604082019050919050565b60006020820190508181036000830152614e6d81614e31565b9050919050565b7f596f752063616e206d696e74206f6e6c79206f6e636520657665727920646179600082015250565b6000614eaa60208361394e565b9150614eb582614e74565b602082019050919050565b60006020820190508181036000830152614ed981614e9d565b9050919050565b7f54686520616d6f756e7420657863656564206d6178206461696c79206d696e74600082015250565b6000614f1660208361394e565b9150614f2182614ee0565b602082019050919050565b60006020820190508181036000830152614f4581614f09565b9050919050565b7f4e487b7100000000000000000000000000000000000000000000000000000000600052604160045260246000fd5b6000614f8682613a5c565b91506000821415614f9a57614f99613e29565b5b600182039050919050565b7f537472696e67733a20686578206c656e67746820696e73756666696369656e74600082015250565b6000614fdb60208361394e565b9150614fe682614fa5565b602082019050919050565b6000602082019050818103600083015261500a81614fce565b905091905056fea26469706673582212202447f8f37c0fe7fb03fe7c1a74762436afa34c0b6b21601f456f413f806606ed64736f6c63430008090033",
  "immutableReferences": {},
  "source": "// SPDX-License-Identifier: MIT\r\npragma solidity 0.8.9;\r\n\r\nimport \"./EcoSystem.sol\";\r\nimport \"./EterAccessControl.sol\";\r\nimport \"./Liquidity.sol\";\r\nimport \"./Moderator.sol\";\r\nimport \"./Staking.sol\";\r\nimport \"./Event.sol\";\r\nimport \"./ContentCreator.sol\";\r\nimport \"@openzeppelin/contracts/token/ERC20/ERC20.sol\";\r\n\r\ncontract ETER is\r\n    ERC20,\r\n    EterAccessControl,\r\n    ContentCreator,\r\n    EcoSystem,\r\n    Moderator,\r\n    Liquidity,\r\n    Staking,\r\n    Event\r\n{\r\n    modifier notExceedMaximumSupply(uint256 _amount) {\r\n        uint256 nextSupply = totalMinted + _amount;\r\n        require(\r\n            nextSupply < MAX_SUPPLY,\r\n            \"The transaction exceed maximum supply\"\r\n        );\r\n        _;\r\n    }\r\n\r\n    uint256 public constant MAX_SUPPLY = 300000000 * _baseMultiplier;\r\n\r\n    uint256 public totalMinted = 0;\r\n\r\n    uint256 private constant _baseMultiplier = uint256(10)**18;\r\n\r\n    uint256 private constant MAX_TEAM_SUPPLY = 26700000 * _baseMultiplier;\r\n\r\n    uint256 private constant MAX_PRIVATE_SALE_SELL = 12000000 * _baseMultiplier;\r\n\r\n    uint256 public totalBurn = 0;\r\n\r\n   \t/*\r\n\t\tset all team members as administrators and mint private sell and team supply \r\n\t\tteam supply will have a vesting for 3 years\r\n    */\r\n    constructor(address COO, address CEO, address CFO, address INV1, address INV2) ERC20(\"ETER\",\"ETER\")  EterAccessControl(4){\r\n        //Mint team supply\r\n        _mint(msg.sender, MAX_TEAM_SUPPLY);\r\n        totalMinted += MAX_TEAM_SUPPLY;\r\n\r\n        //Mint private sell\r\n        _mint(msg.sender, MAX_PRIVATE_SALE_SELL);\r\n        totalMinted += MAX_PRIVATE_SALE_SELL;\r\n\r\n        _setupRole(DEFAULT_ADMIN_ROLE, msg.sender);\r\n        _setupRole(DEFAULT_ADMIN_ROLE, CEO);\r\n        _setupRole(DEFAULT_ADMIN_ROLE, COO);\r\n\t\t_setupRole(DEFAULT_ADMIN_ROLE, CFO);\r\n\t\t_setupRole(DEFAULT_ADMIN_ROLE, INV1);\r\n\t\t_setupRole(DEFAULT_ADMIN_ROLE, INV2);\r\n    }\r\n\r\n\t\r\n    /**\r\n     * @dev create amount of new tokens for the message sender from the ecosystem\r\n\r\n\t \tRequirements:\r\n\t\t- the caller must have the `ECOSYSTEM_MINTER_ROLE`.\r\n\t\t- the amount to mint must be less or equal than max mint in the block time \r\n\t\t(for more info see at ecosystem.sol) \r\n\t\t- the amount can't exceed max supply\r\n     */\r\n    function mintEcosystem(uint256 _amount)\r\n        public\r\n        hasEcosystemMinterRole\r\n        notExceedMaximumSupply(_amount)\r\n    {\r\n        require(msg.sender != address(0), \"cannot mint to zero address\");\r\n        incrementEcosystemSupply(_amount);\r\n        _mint(msg.sender, _amount);\r\n        totalMinted += _amount;\r\n    }\r\n\t/**\r\n     * @dev create amount of new tokens for the message sender from the \r\n\t (liquidity - public sell) tokens\r\n\r\n\t \tRequirements:\r\n\t\t- the caller must have the `LIQUIDITY_MINTER_ROLE`.\r\n\t\t- the amount must be less or equal than MAX_LIQUIDITY_SUPPLY\r\n\t\t- the amount must be less or equal than MAX_SUPPLY\r\n     */\r\n\r\n    function mintLiquidity(uint256 _amount)\r\n        public\r\n        hasLiquidityMinterRole\r\n        notExceedLiquiditySupply(_amount)\r\n        notExceedMaximumSupply(_amount)\r\n    {\r\n        require(msg.sender != address(0), \"cannot mint to zero address\");\r\n        _mint(msg.sender, _amount);\r\n        totalMinted += _amount;\r\n        totalLiquidityMinted += _amount;\r\n    }\r\n\t/**\r\n     * @dev create amount of new tokens for the message sender from the \r\n\t moderator tokens\r\n\r\n\t \tRequirements:\r\n\t\t- the caller must have the `MOD_MINTER_ROLE`.\r\n\t\t- the amount must be less or equal than the MAX_DAILY_MINT for moderators \r\n\t\t- the amount must be less or equal than MAX_SUPPLY\r\n     */\r\n    function mintModerator(uint256 _amount)\r\n        public\r\n        hasModeratorRole\r\n        notExceedMaximumSupply(_amount)\r\n    {\r\n        require(msg.sender != address(0), \"cannot mint to the zero address\");\r\n        _incrementModeratorSupply(_amount);\r\n        _mint(msg.sender, _amount);\r\n        totalMinted += _amount;\r\n    }\r\n\r\n\t/**\r\n     * @dev create amount of new tokens for the message sender from the \r\n\t staking tokens\r\n\r\n\t \tRequirements:\r\n\t\t- the caller must have the `STAKING_MINTER_ROLE`.\r\n\t\t- the amount must be less or equal than the MAX_DAILY_MINT for staking \r\n\t\t- the amount must be less or equal than MAX_SUPPLY\r\n     */\r\n    function mintStaking(uint256 _amount)\r\n        public\r\n        hasStakingRole\r\n        notExceedMaximumSupply(_amount)\r\n    {\r\n        require(msg.sender != address(0), \"cannot mint to the zero address\");\r\n        _increaseTotalStakingMinted(_amount);\r\n        _mint(msg.sender, _amount);\r\n        totalMinted += _amount;\r\n    }\r\n\r\n\t/**\r\n     * @dev create amount of new tokens for the message sender from the \r\n\t event tokens\r\n\r\n\t \tRequirements:\r\n\t\t- the caller must have the `EVENTS_MINTER_ROLE`.\r\n\t\t- the amount must be less or equal than the MAX_DAILY_MINT for events \r\n\t\t- the amount must be less or equal than MAX_SUPPLY\r\n     */\r\n    function mintEvent(uint256 _amount)\r\n        public\r\n        hasEventMinterRole\r\n        notExceedMaximumSupply(_amount)\r\n    {\r\n        require(msg.sender != address(0), \"cannot mint to the zero address\");\r\n        _incrementEventSupply(_amount);\r\n        _mint(msg.sender, _amount);\r\n\t\ttotalMinted += _amount;\r\n    }\r\n\r\n\t/**\r\n     * @dev create amount of new tokens for the message sender from the \r\n\t content creator tokens\r\n\r\n\t \tRequirements:\r\n\t\t- the caller must have the `CONTENT_CREATORS_MINTER_ROLE`.\r\n\t\t- the amount must be less or equal than the MAX_DAILY_MINT for content creators \r\n\t\t- the amount must be less or equal than MAX_SUPPLY\r\n     */\r\n    function mintContentCreator(uint256 _amount)\r\n        public\r\n        hasContentCreatorRole\r\n        notExceedMaximumSupply(_amount)\r\n    {\r\n        require(msg.sender != address(0), \"cannot mint to the zero address\");\r\n        increaseTotalContentCreatorMinted(_amount);\r\n        _mint(msg.sender, _amount);\r\n        totalMinted += _amount;\r\n    }\r\n\r\n\t/**\r\n     * @dev\tburn amount of tokens from the message sender\r\n\r\n\t \tRequirements:\r\n\t\t- the caller must have the `BURN_ROLE`.\r\n     */\r\n    function burn(uint256 _amount) public hasBurnRole {\r\n\t\t\r\n        _burn(msg.sender, _amount);\r\n        totalBurn += _amount;\r\n        \r\n    }\r\n\r\n\tfunction _beforeTokenTransfer(address from,address  to,uint256 amount) \r\n\tinternal view override {\r\n\t   // if some user transfer his tokens to this contract will loss the funds so we prevent\r\n\t   require( to != address(this) );\r\n\t}\r\n    \r\n}\r\n",
  "sourcePath": "C:\\Users\\Crisla\\Documents\\Repos\\repos\\eterland-public-smart-contracts\\contracts\\Token.sol",
  "compiler": {
    "name": "solc",
    "version": "0.8.9+commit.e5eed63a.Emscripten.clang"
  },
  "schemaVersion": "3.4.3",
  "updatedAt": "2021-11-12T13:15:54.133Z",
  "devdoc": {
    "kind": "dev",
    "methods": {
      "allowance(address,address)": {
        "details": "See {IERC20-allowance}."
      },
      "approve(address,uint256)": {
        "details": "See {IERC20-approve}. Requirements: - `spender` cannot be the zero address."
      },
      "balanceOf(address)": {
        "details": "See {IERC20-balanceOf}."
      },
      "burn(uint256)": {
        "details": "burn amount of tokens from the message sender Requirements: - the caller must have the `BURN_ROLE`."
      },
      "decimals()": {
        "details": "Returns the number of decimals used to get its user representation. For example, if `decimals` equals `2`, a balance of `505` tokens should be displayed to a user as `5.05` (`505 / 10 ** 2`). Tokens usually opt for a value of 18, imitating the relationship between Ether and Wei. This is the value {ERC20} uses, unless this function is overridden; NOTE: This information is only used for _display_ purposes: it in no way affects any of the arithmetic of the contract, including {IERC20-balanceOf} and {IERC20-transfer}."
      },
      "decreaseAllowance(address,uint256)": {
        "details": "Atomically decreases the allowance granted to `spender` by the caller. This is an alternative to {approve} that can be used as a mitigation for problems described in {IERC20-approve}. Emits an {Approval} event indicating the updated allowance. Requirements: - `spender` cannot be the zero address. - `spender` must have allowance for the caller of at least `subtractedValue`."
      },
      "getAvailableEcosystemMint()": {
        "details": "getter for allowed mint amount at block time"
      },
      "getEcosystemSupply()": {
        "details": "getter for ecosystem supply"
      },
      "getRoleAdmin(bytes32)": {
        "details": "Returns the admin role that controls `role`. See {grantRole} and {revokeRole}. To change a role's admin, use {_setRoleAdmin}."
      },
      "getRoles()": {
        "details": "return all available roles*"
      },
      "getSecondsSinceFirstEcosystemMint()": {
        "details": "get seconds since the first ecosystem mint"
      },
      "getTotalEcosystemMint()": {
        "details": "get total allowed mint at block time(updated daily), will include minted amount and available amount to mint this derease the available monthly mint by 1.7 % from previus period mint the time required to mint all ecosystem tokens is 6 years 5 month and 21 days since the first ecosystem mint for some examples of minted tokens take a look to the unit tests at the repository"
      },
      "grantRole(bytes32,address)": {
        "details": "update votation to assign a role to an address and if the votes are greater than required votes assign role*"
      },
      "hasRole(bytes32,address)": {
        "details": "Returns `true` if `account` has been granted `role`."
      },
      "increaseAllowance(address,uint256)": {
        "details": "Atomically increases the allowance granted to `spender` by the caller. This is an alternative to {approve} that can be used as a mitigation for problems described in {IERC20-approve}. Emits an {Approval} event indicating the updated allowance. Requirements: - `spender` cannot be the zero address."
      },
      "mintContentCreator(uint256)": {
        "details": "create amount of new tokens for the message sender from the  content creator tokens Requirements: - the caller must have the `CONTENT_CREATORS_MINTER_ROLE`. - the amount must be less or equal than the MAX_DAILY_MINT for content creators  - the amount must be less or equal than MAX_SUPPLY"
      },
      "mintEcosystem(uint256)": {
        "details": "create amount of new tokens for the message sender from the ecosystem Requirements: - the caller must have the `ECOSYSTEM_MINTER_ROLE`. - the amount to mint must be less or equal than max mint in the block time  (for more info see at ecosystem.sol)  - the amount can't exceed max supply"
      },
      "mintEvent(uint256)": {
        "details": "create amount of new tokens for the message sender from the  event tokens Requirements: - the caller must have the `EVENTS_MINTER_ROLE`. - the amount must be less or equal than the MAX_DAILY_MINT for events  - the amount must be less or equal than MAX_SUPPLY"
      },
      "mintLiquidity(uint256)": {
        "details": "create amount of new tokens for the message sender from the  (liquidity - public sell) tokens Requirements: - the caller must have the `LIQUIDITY_MINTER_ROLE`. - the amount must be less or equal than MAX_LIQUIDITY_SUPPLY - the amount must be less or equal than MAX_SUPPLY"
      },
      "mintModerator(uint256)": {
        "details": "create amount of new tokens for the message sender from the  moderator tokens Requirements: - the caller must have the `MOD_MINTER_ROLE`. - the amount must be less or equal than the MAX_DAILY_MINT for moderators  - the amount must be less or equal than MAX_SUPPLY"
      },
      "mintStaking(uint256)": {
        "details": "create amount of new tokens for the message sender from the  staking tokens Requirements: - the caller must have the `STAKING_MINTER_ROLE`. - the amount must be less or equal than the MAX_DAILY_MINT for staking  - the amount must be less or equal than MAX_SUPPLY"
      },
      "name()": {
        "details": "Returns the name of the token."
      },
      "renounceRole(bytes32,address)": {
        "details": "Revokes `role` from the calling account. Roles are often managed via {grantRole} and {revokeRole}: this function's purpose is to provide a mechanism for accounts to lose their privileges if they are compromised (such as when a trusted device is misplaced). If the calling account had been granted `role`, emits a {RoleRevoked} event. Requirements: - the caller must be `account`."
      },
      "revokeRole(bytes32,address)": {
        "details": "update votation to revoke role and if the number of votes are greater than the requiredvotes revoke role *"
      },
      "supportsInterface(bytes4)": {
        "details": "See {IERC165-supportsInterface}."
      },
      "symbol()": {
        "details": "Returns the symbol of the token, usually a shorter version of the name."
      },
      "totalSupply()": {
        "details": "See {IERC20-totalSupply}."
      },
      "transfer(address,uint256)": {
        "details": "See {IERC20-transfer}. Requirements: - `recipient` cannot be the zero address. - the caller must have a balance of at least `amount`."
      },
      "transferFrom(address,address,uint256)": {
        "details": "See {IERC20-transferFrom}. Emits an {Approval} event indicating the updated allowance. This is not required by the EIP. See the note at the beginning of {ERC20}. Requirements: - `sender` and `recipient` cannot be the zero address. - `sender` must have a balance of at least `amount`. - the caller must have allowance for ``sender``'s tokens of at least `amount`."
      }
    },
    "version": 1
  },
  "userdoc": {
    "kind": "user",
    "methods": {},
    "version": 1
  }
}