{
  "contractName": "EterlandWorld",
  "abi": [
    {
      "inputs": [
        {
          "internalType": "address",
          "name": "ceo",
          "type": "address"
        },
        {
          "internalType": "address",
          "name": "coo",
          "type": "address"
        },
        {
          "internalType": "address",
          "name": "cfo",
          "type": "address"
        },
        {
          "internalType": "address",
          "name": "inv1",
          "type": "address"
        },
        {
          "internalType": "address",
          "name": "inv2",
          "type": "address"
        }
      ],
      "stateMutability": "nonpayable",
      "type": "constructor"
    },
    {
      "anonymous": false,
      "inputs": [
        {
          "indexed": true,
          "internalType": "address",
          "name": "owner",
          "type": "address"
        },
        {
          "indexed": true,
          "internalType": "address",
          "name": "approved",
          "type": "address"
        },
        {
          "indexed": true,
          "internalType": "uint256",
          "name": "tokenId",
          "type": "uint256"
        }
      ],
      "name": "Approval",
      "type": "event"
    },
    {
      "anonymous": false,
      "inputs": [
        {
          "indexed": true,
          "internalType": "address",
          "name": "owner",
          "type": "address"
        },
        {
          "indexed": true,
          "internalType": "address",
          "name": "operator",
          "type": "address"
        },
        {
          "indexed": false,
          "internalType": "bool",
          "name": "approved",
          "type": "bool"
        }
      ],
      "name": "ApprovalForAll",
      "type": "event"
    },
    {
      "anonymous": false,
      "inputs": [
        {
          "indexed": false,
          "internalType": "address",
          "name": "owner",
          "type": "address"
        },
        {
          "indexed": false,
          "internalType": "uint256",
          "name": "id",
          "type": "uint256"
        }
      ],
      "name": "New",
      "type": "event"
    },
    {
      "anonymous": false,
      "inputs": [
        {
          "indexed": true,
          "internalType": "bytes32",
          "name": "role",
          "type": "bytes32"
        },
        {
          "indexed": true,
          "internalType": "bytes32",
          "name": "previousAdminRole",
          "type": "bytes32"
        },
        {
          "indexed": true,
          "internalType": "bytes32",
          "name": "newAdminRole",
          "type": "bytes32"
        }
      ],
      "name": "RoleAdminChanged",
      "type": "event"
    },
    {
      "anonymous": false,
      "inputs": [
        {
          "indexed": true,
          "internalType": "bytes32",
          "name": "role",
          "type": "bytes32"
        },
        {
          "indexed": true,
          "internalType": "address",
          "name": "account",
          "type": "address"
        },
        {
          "indexed": true,
          "internalType": "address",
          "name": "sender",
          "type": "address"
        }
      ],
      "name": "RoleGranted",
      "type": "event"
    },
    {
      "anonymous": false,
      "inputs": [
        {
          "indexed": true,
          "internalType": "bytes32",
          "name": "role",
          "type": "bytes32"
        },
        {
          "indexed": true,
          "internalType": "address",
          "name": "account",
          "type": "address"
        },
        {
          "indexed": true,
          "internalType": "address",
          "name": "sender",
          "type": "address"
        }
      ],
      "name": "RoleRevoked",
      "type": "event"
    },
    {
      "anonymous": false,
      "inputs": [
        {
          "indexed": false,
          "internalType": "address",
          "name": "owner",
          "type": "address"
        },
        {
          "indexed": false,
          "internalType": "uint256",
          "name": "id",
          "type": "uint256"
        },
        {
          "indexed": false,
          "internalType": "bool",
          "name": "status",
          "type": "bool"
        }
      ],
      "name": "StatusChanged",
      "type": "event"
    },
    {
      "anonymous": false,
      "inputs": [
        {
          "indexed": true,
          "internalType": "address",
          "name": "from",
          "type": "address"
        },
        {
          "indexed": true,
          "internalType": "address",
          "name": "to",
          "type": "address"
        },
        {
          "indexed": true,
          "internalType": "uint256",
          "name": "tokenId",
          "type": "uint256"
        }
      ],
      "name": "Transfer",
      "type": "event"
    },
    {
      "inputs": [],
      "name": "DEFAULT_ADMIN_ROLE",
      "outputs": [
        {
          "internalType": "bytes32",
          "name": "",
          "type": "bytes32"
        }
      ],
      "stateMutability": "view",
      "type": "function"
    },
    {
      "inputs": [],
      "name": "MINTER_ROLE",
      "outputs": [
        {
          "internalType": "bytes32",
          "name": "",
          "type": "bytes32"
        }
      ],
      "stateMutability": "view",
      "type": "function"
    },
    {
      "inputs": [],
      "name": "NFT_ADMINISTRATOR_ROLE",
      "outputs": [
        {
          "internalType": "bytes32",
          "name": "",
          "type": "bytes32"
        }
      ],
      "stateMutability": "view",
      "type": "function"
    },
    {
      "inputs": [
        {
          "internalType": "address",
          "name": "to",
          "type": "address"
        },
        {
          "internalType": "uint256",
          "name": "tokenId",
          "type": "uint256"
        }
      ],
      "name": "approve",
      "outputs": [],
      "stateMutability": "nonpayable",
      "type": "function"
    },
    {
      "inputs": [
        {
          "internalType": "address",
          "name": "owner",
          "type": "address"
        }
      ],
      "name": "balanceOf",
      "outputs": [
        {
          "internalType": "uint256",
          "name": "",
          "type": "uint256"
        }
      ],
      "stateMutability": "view",
      "type": "function"
    },
    {
      "inputs": [
        {
          "internalType": "uint256",
          "name": "tokenId",
          "type": "uint256"
        }
      ],
      "name": "getApproved",
      "outputs": [
        {
          "internalType": "address",
          "name": "",
          "type": "address"
        }
      ],
      "stateMutability": "view",
      "type": "function"
    },
    {
      "inputs": [
        {
          "internalType": "bytes32",
          "name": "role",
          "type": "bytes32"
        }
      ],
      "name": "getRoleAdmin",
      "outputs": [
        {
          "internalType": "bytes32",
          "name": "",
          "type": "bytes32"
        }
      ],
      "stateMutability": "view",
      "type": "function"
    },
    {
      "inputs": [
        {
          "internalType": "bytes32",
          "name": "role",
          "type": "bytes32"
        },
        {
          "internalType": "address",
          "name": "account",
          "type": "address"
        }
      ],
      "name": "grantRole",
      "outputs": [],
      "stateMutability": "nonpayable",
      "type": "function"
    },
    {
      "inputs": [
        {
          "internalType": "bytes32",
          "name": "role",
          "type": "bytes32"
        },
        {
          "internalType": "address",
          "name": "account",
          "type": "address"
        }
      ],
      "name": "hasRole",
      "outputs": [
        {
          "internalType": "bool",
          "name": "",
          "type": "bool"
        }
      ],
      "stateMutability": "view",
      "type": "function"
    },
    {
      "inputs": [
        {
          "internalType": "address",
          "name": "owner",
          "type": "address"
        },
        {
          "internalType": "address",
          "name": "operator",
          "type": "address"
        }
      ],
      "name": "isApprovedForAll",
      "outputs": [
        {
          "internalType": "bool",
          "name": "",
          "type": "bool"
        }
      ],
      "stateMutability": "view",
      "type": "function"
    },
    {
      "inputs": [],
      "name": "name",
      "outputs": [
        {
          "internalType": "string",
          "name": "",
          "type": "string"
        }
      ],
      "stateMutability": "view",
      "type": "function"
    },
    {
      "inputs": [
        {
          "internalType": "uint256",
          "name": "tokenId",
          "type": "uint256"
        }
      ],
      "name": "ownerOf",
      "outputs": [
        {
          "internalType": "address",
          "name": "",
          "type": "address"
        }
      ],
      "stateMutability": "view",
      "type": "function"
    },
    {
      "inputs": [
        {
          "internalType": "bytes32",
          "name": "role",
          "type": "bytes32"
        },
        {
          "internalType": "address",
          "name": "account",
          "type": "address"
        }
      ],
      "name": "renounceRole",
      "outputs": [],
      "stateMutability": "nonpayable",
      "type": "function"
    },
    {
      "inputs": [
        {
          "internalType": "bytes32",
          "name": "role",
          "type": "bytes32"
        },
        {
          "internalType": "address",
          "name": "account",
          "type": "address"
        }
      ],
      "name": "revokeRole",
      "outputs": [],
      "stateMutability": "nonpayable",
      "type": "function"
    },
    {
      "inputs": [
        {
          "internalType": "address",
          "name": "from",
          "type": "address"
        },
        {
          "internalType": "address",
          "name": "to",
          "type": "address"
        },
        {
          "internalType": "uint256",
          "name": "tokenId",
          "type": "uint256"
        }
      ],
      "name": "safeTransferFrom",
      "outputs": [],
      "stateMutability": "nonpayable",
      "type": "function"
    },
    {
      "inputs": [
        {
          "internalType": "address",
          "name": "from",
          "type": "address"
        },
        {
          "internalType": "address",
          "name": "to",
          "type": "address"
        },
        {
          "internalType": "uint256",
          "name": "tokenId",
          "type": "uint256"
        },
        {
          "internalType": "bytes",
          "name": "_data",
          "type": "bytes"
        }
      ],
      "name": "safeTransferFrom",
      "outputs": [],
      "stateMutability": "nonpayable",
      "type": "function"
    },
    {
      "inputs": [
        {
          "internalType": "address",
          "name": "operator",
          "type": "address"
        },
        {
          "internalType": "bool",
          "name": "approved",
          "type": "bool"
        }
      ],
      "name": "setApprovalForAll",
      "outputs": [],
      "stateMutability": "nonpayable",
      "type": "function"
    },
    {
      "inputs": [],
      "name": "symbol",
      "outputs": [
        {
          "internalType": "string",
          "name": "",
          "type": "string"
        }
      ],
      "stateMutability": "view",
      "type": "function"
    },
    {
      "inputs": [
        {
          "internalType": "uint256",
          "name": "tokenId",
          "type": "uint256"
        }
      ],
      "name": "tokenURI",
      "outputs": [
        {
          "internalType": "string",
          "name": "",
          "type": "string"
        }
      ],
      "stateMutability": "view",
      "type": "function"
    },
    {
      "inputs": [
        {
          "internalType": "address",
          "name": "from",
          "type": "address"
        },
        {
          "internalType": "address",
          "name": "to",
          "type": "address"
        },
        {
          "internalType": "uint256",
          "name": "tokenId",
          "type": "uint256"
        }
      ],
      "name": "transferFrom",
      "outputs": [],
      "stateMutability": "nonpayable",
      "type": "function"
    },
    {
      "inputs": [
        {
          "internalType": "address",
          "name": "player",
          "type": "address"
        }
      ],
      "name": "mint",
      "outputs": [
        {
          "internalType": "uint256",
          "name": "",
          "type": "uint256"
        }
      ],
      "stateMutability": "nonpayable",
      "type": "function"
    },
    {
      "inputs": [
        {
          "internalType": "uint256",
          "name": "id",
          "type": "uint256"
        }
      ],
      "name": "burn",
      "outputs": [],
      "stateMutability": "nonpayable",
      "type": "function"
    },
    {
      "inputs": [
        {
          "internalType": "uint256",
          "name": "id",
          "type": "uint256"
        },
        {
          "internalType": "bool",
          "name": "status",
          "type": "bool"
        }
      ],
      "name": "changeStatus",
      "outputs": [],
      "stateMutability": "nonpayable",
      "type": "function"
    },
    {
      "inputs": [
        {
          "internalType": "uint256",
          "name": "id",
          "type": "uint256"
        }
      ],
      "name": "isDisabled",
      "outputs": [
        {
          "internalType": "bool",
          "name": "",
          "type": "bool"
        }
      ],
      "stateMutability": "view",
      "type": "function"
    },
    {
      "inputs": [
        {
          "internalType": "bytes4",
          "name": "interfaceId",
          "type": "bytes4"
        }
      ],
      "name": "supportsInterface",
      "outputs": [
        {
          "internalType": "bool",
          "name": "",
          "type": "bool"
        }
      ],
      "stateMutability": "view",
      "type": "function"
    }
  ],
  "bytecode": "0x60806040523480156200001157600080fd5b5060405162004a1638038062004a16833981810160405281019062000037919062000422565b60046040518060400160405280600881526020017f457465726c616e640000000000000000000000000000000000000000000000008152506040518060400160405280600381526020017f45544c00000000000000000000000000000000000000000000000000000000008152508160009080519060200190620000bd92919062000308565b508060019080519060200190620000d692919062000308565b50505080600760006101000a81548160ff021916908360ff16021790555050620001196000801b6200010d6200018d60201b60201c565b6200019560201b60201c565b6200012e6000801b866200019560201b60201c565b620001436000801b856200019560201b60201c565b620001586000801b846200019560201b60201c565b6200016d6000801b836200019560201b60201c565b620001826000801b826200019560201b60201c565b50505050506200050f565b600033905090565b620001a78282620001ab60201b60201c565b5050565b620001bd82826200029d60201b60201c565b620002995760016006600084815260200190815260200160002060000160008373ffffffffffffffffffffffffffffffffffffffff1673ffffffffffffffffffffffffffffffffffffffff16815260200190815260200160002060006101000a81548160ff0219169083151502179055506200023e6200018d60201b60201c565b73ffffffffffffffffffffffffffffffffffffffff168173ffffffffffffffffffffffffffffffffffffffff16837f2f8788117e7eff1d82e926ec794901d17c78024a50270940304540a733656f0d60405160405180910390a45b5050565b60006006600084815260200190815260200160002060000160008373ffffffffffffffffffffffffffffffffffffffff1673ffffffffffffffffffffffffffffffffffffffff16815260200190815260200160002060009054906101000a900460ff16905092915050565b8280546200031690620004d9565b90600052602060002090601f0160209004810192826200033a576000855562000386565b82601f106200035557805160ff191683800117855562000386565b8280016001018555821562000386579182015b828111156200038557825182559160200191906001019062000368565b5b50905062000395919062000399565b5090565b5b80821115620003b45760008160009055506001016200039a565b5090565b600080fd5b600073ffffffffffffffffffffffffffffffffffffffff82169050919050565b6000620003ea82620003bd565b9050919050565b620003fc81620003dd565b81146200040857600080fd5b50565b6000815190506200041c81620003f1565b92915050565b600080600080600060a08688031215620004415762000440620003b8565b5b600062000451888289016200040b565b955050602062000464888289016200040b565b945050604062000477888289016200040b565b93505060606200048a888289016200040b565b92505060806200049d888289016200040b565b9150509295509295909350565b7f4e487b7100000000000000000000000000000000000000000000000000000000600052602260045260246000fd5b60006002820490506001821680620004f257607f821691505b60208210811415620005095762000508620004aa565b5b50919050565b6144f7806200051f6000396000f3fe608060405234801561001057600080fd5b50600436106101735760003560e01c80636a627842116100de578063ad25ca2911610097578063d539139311610071578063d539139314610480578063d547741f1461049e578063e985e9c5146104ba578063fa2693b3146104ea57610173565b8063ad25ca2914610404578063b88d4fde14610434578063c87b56dd1461045057610173565b80636a6278421461031c57806370a082311461034c57806391d148541461037c57806395d89b41146103ac578063a217fddf146103ca578063a22cb465146103e857610173565b80632f2ff15d116101305780632f2ff15d1461025e57806336568abe1461027a578063400977291461029657806342842e0e146102b457806342966c68146102d05780636352211e146102ec57610173565b806301ffc9a71461017857806306fdde03146101a8578063081812fc146101c6578063095ea7b3146101f657806323b872dd14610212578063248a9ca31461022e575b600080fd5b610192600480360381019061018d9190612e9d565b610506565b60405161019f9190612ee5565b60405180910390f35b6101b0610518565b6040516101bd9190612f99565b60405180910390f35b6101e060048036038101906101db9190612ff1565b6105aa565b6040516101ed919061305f565b60405180910390f35b610210600480360381019061020b91906130a6565b61062f565b005b61022c600480360381019061022791906130e6565b610747565b005b6102486004803603810190610243919061316f565b6107a7565b60405161025591906131ab565b60405180910390f35b610278600480360381019061027391906131c6565b6107c7565b005b610294600480360381019061028f91906131c6565b610872565b005b61029e6108f5565b6040516102ab91906131ab565b60405180910390f35b6102ce60048036038101906102c991906130e6565b610919565b005b6102ea60048036038101906102e59190612ff1565b610939565b005b61030660048036038101906103019190612ff1565b610995565b604051610313919061305f565b60405180910390f35b61033660048036038101906103319190613206565b610a47565b6040516103439190613242565b60405180910390f35b61036660048036038101906103619190613206565b610b1d565b6040516103739190613242565b60405180910390f35b610396600480360381019061039191906131c6565b610bd5565b6040516103a39190612ee5565b60405180910390f35b6103b4610c40565b6040516103c19190612f99565b60405180910390f35b6103d2610cd2565b6040516103df91906131ab565b60405180910390f35b61040260048036038101906103fd9190613289565b610cd9565b005b61041e60048036038101906104199190612ff1565b610e5a565b60405161042b9190612ee5565b60405180910390f35b61044e600480360381019061044991906133fe565b610ecc565b005b61046a60048036038101906104659190612ff1565b610f2e565b6040516104779190612f99565b60405180910390f35b610488610fd5565b60405161049591906131ab565b60405180910390f35b6104b860048036038101906104b391906131c6565b610ff9565b005b6104d460048036038101906104cf9190613481565b6110a4565b6040516104e19190612ee5565b60405180910390f35b61050460048036038101906104ff91906134c1565b611138565b005b600061051182611268565b9050919050565b60606000805461052790613530565b80601f016020809104026020016040519081016040528092919081815260200182805461055390613530565b80156105a05780601f10610575576101008083540402835291602001916105a0565b820191906000526020600020905b81548152906001019060200180831161058357829003601f168201915b5050505050905090565b60006105b5826112e2565b6105f4576040517f08c379a00000000000000000000000000000000000000000000000000000000081526004016105eb906135d4565b60405180910390fd5b6004600083815260200190815260200160002060009054906101000a900473ffffffffffffffffffffffffffffffffffffffff169050919050565b600061063a82610995565b90508073ffffffffffffffffffffffffffffffffffffffff168373ffffffffffffffffffffffffffffffffffffffff1614156106ab576040517f08c379a00000000000000000000000000000000000000000000000000000000081526004016106a290613666565b60405180910390fd5b8073ffffffffffffffffffffffffffffffffffffffff166106ca61134e565b73ffffffffffffffffffffffffffffffffffffffff1614806106f957506106f8816106f361134e565b6110a4565b5b610738576040517f08c379a000000000000000000000000000000000000000000000000000000000815260040161072f906136f8565b60405180910390fd5b6107428383611356565b505050565b61075861075261134e565b8261140f565b610797576040517f08c379a000000000000000000000000000000000000000000000000000000000815260040161078e9061378a565b60405180910390fd5b6107a28383836114ed565b505050565b600060066000838152602001908152602001600020600101549050919050565b6107d0826107a7565b6107e1816107dc61134e565b611749565b6107eb82846117e6565b50600760009054906101000a900460ff1660ff16600960008473ffffffffffffffffffffffffffffffffffffffff1673ffffffffffffffffffffffffffffffffffffffff1681526020019081526020016000206000858152602001908152602001600020805490501061086d576108628383611a72565b61086c8284611a9b565b5b505050565b61087a61134e565b73ffffffffffffffffffffffffffffffffffffffff168173ffffffffffffffffffffffffffffffffffffffff16146108e7576040517f08c379a00000000000000000000000000000000000000000000000000000000081526004016108de9061381c565b60405180910390fd5b6108f18282611e8d565b5050565b7f5258f6827f4005e20713eae0fc82f5358349cc7fdb43330955314f15ccc2941c81565b61093483838360405180602001604052806000815250610ecc565b505050565b61094a61094461134e565b8261140f565b610989576040517f08c379a00000000000000000000000000000000000000000000000000000000081526004016109809061378a565b60405180910390fd5b61099281611f6f565b50565b6000806002600084815260200190815260200160002060009054906101000a900473ffffffffffffffffffffffffffffffffffffffff169050600073ffffffffffffffffffffffffffffffffffffffff168173ffffffffffffffffffffffffffffffffffffffff161415610a3e576040517f08c379a0000000000000000000000000000000000000000000000000000000008152600401610a35906138ae565b60405180910390fd5b80915050919050565b6000610a7a7f9f2df0fed2c77648de5860a4cc508cd0818c85b8b8a1ab4ceeef8d981c8956a6610a7561134e565b610bd5565b610ab9576040517f08c379a0000000000000000000000000000000000000000000000000000000008152600401610ab09061391a565b60405180910390fd5b610ac3600c612080565b6000610acf600c612096565b9050610adb83826120a4565b7f5ffa79b7144a1de65a6ea060c5a1147ba5dd9ef9597e960ce5f7648b604e9e1d8382604051610b0c92919061393a565b60405180910390a180915050919050565b60008073ffffffffffffffffffffffffffffffffffffffff168273ffffffffffffffffffffffffffffffffffffffff161415610b8e576040517f08c379a0000000000000000000000000000000000000000000000000000000008152600401610b85906139d5565b60405180910390fd5b600360008373ffffffffffffffffffffffffffffffffffffffff1673ffffffffffffffffffffffffffffffffffffffff168152602001908152602001600020549050919050565b60006006600084815260200190815260200160002060000160008373ffffffffffffffffffffffffffffffffffffffff1673ffffffffffffffffffffffffffffffffffffffff16815260200190815260200160002060009054906101000a900460ff16905092915050565b606060018054610c4f90613530565b80601f0160208091040260200160405190810160405280929190818152602001828054610c7b90613530565b8015610cc85780601f10610c9d57610100808354040283529160200191610cc8565b820191906000526020600020905b815481529060010190602001808311610cab57829003601f168201915b5050505050905090565b6000801b81565b610ce161134e565b73ffffffffffffffffffffffffffffffffffffffff168273ffffffffffffffffffffffffffffffffffffffff161415610d4f576040517f08c379a0000000000000000000000000000000000000000000000000000000008152600401610d4690613a41565b60405180910390fd5b8060056000610d5c61134e565b73ffffffffffffffffffffffffffffffffffffffff1673ffffffffffffffffffffffffffffffffffffffff16815260200190815260200160002060008473ffffffffffffffffffffffffffffffffffffffff1673ffffffffffffffffffffffffffffffffffffffff16815260200190815260200160002060006101000a81548160ff0219169083151502179055508173ffffffffffffffffffffffffffffffffffffffff16610e0961134e565b73ffffffffffffffffffffffffffffffffffffffff167f17307eab39ab6107e8899845ad3d59bd9653f200f220920489ca2b5937696c3183604051610e4e9190612ee5565b60405180910390a35050565b6000610e65826112e2565b610ea4576040517f08c379a0000000000000000000000000000000000000000000000000000000008152600401610e9b90613aad565b60405180910390fd5b600d600083815260200190815260200160002060009054906101000a900460ff169050919050565b610edd610ed761134e565b8361140f565b610f1c576040517f08c379a0000000000000000000000000000000000000000000000000000000008152600401610f139061378a565b60405180910390fd5b610f28848484846120c2565b50505050565b6060610f39826112e2565b610f78576040517f08c379a0000000000000000000000000000000000000000000000000000000008152600401610f6f90613b3f565b60405180910390fd5b6000610f8261211e565b90506000815111610fa25760405180602001604052806000815250610fcd565b80610fac84612135565b604051602001610fbd929190613b9b565b6040516020818303038152906040525b915050919050565b7f9f2df0fed2c77648de5860a4cc508cd0818c85b8b8a1ab4ceeef8d981c8956a681565b611002826107a7565b6110138161100e61134e565b611749565b61101d8284612296565b50600760009054906101000a900460ff1660ff16600b60008473ffffffffffffffffffffffffffffffffffffffff1673ffffffffffffffffffffffffffffffffffffffff1681526020019081526020016000206000858152602001908152602001600020805490501061109f576110948383612522565b61109e8284611a9b565b5b505050565b6000600560008473ffffffffffffffffffffffffffffffffffffffff1673ffffffffffffffffffffffffffffffffffffffff16815260200190815260200160002060008373ffffffffffffffffffffffffffffffffffffffff1673ffffffffffffffffffffffffffffffffffffffff16815260200190815260200160002060009054906101000a900460ff16905092915050565b6111697f5258f6827f4005e20713eae0fc82f5358349cc7fdb43330955314f15ccc2941c61116461134e565b610bd5565b6111a8576040517f08c379a000000000000000000000000000000000000000000000000000000000815260040161119f90613c0b565b60405180910390fd5b6111b1826112e2565b6111f0576040517f08c379a00000000000000000000000000000000000000000000000000000000081526004016111e790613aad565b60405180910390fd5b80600d600084815260200190815260200160002060006101000a81548160ff021916908315150217905550600061122683610995565b90507fd7ac5793e9486896bf586141bae3cef5b4dc93bf0b5d2ffd29f3d93bab9b99ea81848460405161125b93929190613c2b565b60405180910390a1505050565b60007f7965db0b000000000000000000000000000000000000000000000000000000007bffffffffffffffffffffffffffffffffffffffffffffffffffffffff1916827bffffffffffffffffffffffffffffffffffffffffffffffffffffffff191614806112db57506112da8261254b565b5b9050919050565b60008073ffffffffffffffffffffffffffffffffffffffff166002600084815260200190815260200160002060009054906101000a900473ffffffffffffffffffffffffffffffffffffffff1673ffffffffffffffffffffffffffffffffffffffff1614159050919050565b600033905090565b816004600083815260200190815260200160002060006101000a81548173ffffffffffffffffffffffffffffffffffffffff021916908373ffffffffffffffffffffffffffffffffffffffff160217905550808273ffffffffffffffffffffffffffffffffffffffff166113c983610995565b73ffffffffffffffffffffffffffffffffffffffff167f8c5be1e5ebec7d5bd14f71427d1e84f3dd0314c0f7b2291e5b200ac8c7c3b92560405160405180910390a45050565b600061141a826112e2565b611459576040517f08c379a000000000000000000000000000000000000000000000000000000000815260040161145090613cd4565b60405180910390fd5b600061146483610995565b90508073ffffffffffffffffffffffffffffffffffffffff168473ffffffffffffffffffffffffffffffffffffffff1614806114d357508373ffffffffffffffffffffffffffffffffffffffff166114bb846105aa565b73ffffffffffffffffffffffffffffffffffffffff16145b806114e457506114e381856110a4565b5b91505092915050565b8273ffffffffffffffffffffffffffffffffffffffff1661150d82610995565b73ffffffffffffffffffffffffffffffffffffffff1614611563576040517f08c379a000000000000000000000000000000000000000000000000000000000815260040161155a90613d66565b60405180910390fd5b600073ffffffffffffffffffffffffffffffffffffffff168273ffffffffffffffffffffffffffffffffffffffff1614156115d3576040517f08c379a00000000000000000000000000000000000000000000000000000000081526004016115ca90613df8565b60405180910390fd5b6115de83838361262d565b6115e9600082611356565b6001600360008573ffffffffffffffffffffffffffffffffffffffff1673ffffffffffffffffffffffffffffffffffffffff16815260200190815260200160002060008282546116399190613e47565b925050819055506001600360008473ffffffffffffffffffffffffffffffffffffffff1673ffffffffffffffffffffffffffffffffffffffff16815260200190815260200160002060008282546116909190613e7b565b92505081905550816002600083815260200190815260200160002060006101000a81548173ffffffffffffffffffffffffffffffffffffffff021916908373ffffffffffffffffffffffffffffffffffffffff160217905550808273ffffffffffffffffffffffffffffffffffffffff168473ffffffffffffffffffffffffffffffffffffffff167fddf252ad1be2c89b69c2b068fc378daa952ba7f163c4a11628f55a4df523b3ef60405160405180910390a4505050565b6117538282610bd5565b6117e2576117788173ffffffffffffffffffffffffffffffffffffffff166014612699565b6117868360001c6020612699565b604051602001611797929190613f69565b6040516020818303038152906040526040517f08c379a00000000000000000000000000000000000000000000000000000000081526004016117d99190612f99565b60405180910390fd5b5050565b60008073ffffffffffffffffffffffffffffffffffffffff168373ffffffffffffffffffffffffffffffffffffffff16141561182157600080fd5b600860008473ffffffffffffffffffffffffffffffffffffffff1673ffffffffffffffffffffffffffffffffffffffff1681526020019081526020016000206000838152602001908152602001600020600061187b61134e565b73ffffffffffffffffffffffffffffffffffffffff1673ffffffffffffffffffffffffffffffffffffffff16815260200190815260200160002060009054906101000a900460ff1615611903576040517f08c379a00000000000000000000000000000000000000000000000000000000081526004016118fa90613fef565b60405180910390fd5b6001600860008573ffffffffffffffffffffffffffffffffffffffff1673ffffffffffffffffffffffffffffffffffffffff1681526020019081526020016000206000848152602001908152602001600020600061195f61134e565b73ffffffffffffffffffffffffffffffffffffffff1673ffffffffffffffffffffffffffffffffffffffff16815260200190815260200160002060006101000a81548160ff021916908315150217905550600960008473ffffffffffffffffffffffffffffffffffffffff1673ffffffffffffffffffffffffffffffffffffffff1681526020019081526020016000206000838152602001908152602001600020611a0861134e565b9080600181540180825580915050600190039060005260206000200160009091909190916101000a81548173ffffffffffffffffffffffffffffffffffffffff021916908373ffffffffffffffffffffffffffffffffffffffff1602179055506001905092915050565b611a7b826107a7565b611a8c81611a8761134e565b611749565b611a9683836128d5565b505050565b60005b600b60008473ffffffffffffffffffffffffffffffffffffffff1673ffffffffffffffffffffffffffffffffffffffff168152602001908152602001600020600083815260200190815260200160002080549050811015611c3557600a60008473ffffffffffffffffffffffffffffffffffffffff1673ffffffffffffffffffffffffffffffffffffffff16815260200190815260200160002060008381526020019081526020016000206000600b60008673ffffffffffffffffffffffffffffffffffffffff1673ffffffffffffffffffffffffffffffffffffffff16815260200190815260200160002060008581526020019081526020016000208381548110611bad57611bac61400f565b5b9060005260206000200160009054906101000a900473ffffffffffffffffffffffffffffffffffffffff1673ffffffffffffffffffffffffffffffffffffffff1673ffffffffffffffffffffffffffffffffffffffff16815260200190815260200160002060006101000a81549060ff02191690558080611c2d9061403e565b915050611a9e565b50600b60008373ffffffffffffffffffffffffffffffffffffffff1673ffffffffffffffffffffffffffffffffffffffff16815260200190815260200160002060008281526020019081526020016000206000611c929190612df3565b60005b600960008473ffffffffffffffffffffffffffffffffffffffff1673ffffffffffffffffffffffffffffffffffffffff168152602001908152602001600020600083815260200190815260200160002080549050811015611e2c57600860008473ffffffffffffffffffffffffffffffffffffffff1673ffffffffffffffffffffffffffffffffffffffff16815260200190815260200160002060008381526020019081526020016000206000600960008673ffffffffffffffffffffffffffffffffffffffff1673ffffffffffffffffffffffffffffffffffffffff16815260200190815260200160002060008581526020019081526020016000208381548110611da457611da361400f565b5b9060005260206000200160009054906101000a900473ffffffffffffffffffffffffffffffffffffffff1673ffffffffffffffffffffffffffffffffffffffff1673ffffffffffffffffffffffffffffffffffffffff16815260200190815260200160002060006101000a81549060ff02191690558080611e249061403e565b915050611c95565b50600960008373ffffffffffffffffffffffffffffffffffffffff1673ffffffffffffffffffffffffffffffffffffffff16815260200190815260200160002060008281526020019081526020016000206000611e899190612df3565b5050565b611e978282610bd5565b15611f6b5760006006600084815260200190815260200160002060000160008373ffffffffffffffffffffffffffffffffffffffff1673ffffffffffffffffffffffffffffffffffffffff16815260200190815260200160002060006101000a81548160ff021916908315150217905550611f1061134e565b73ffffffffffffffffffffffffffffffffffffffff168173ffffffffffffffffffffffffffffffffffffffff16837ff6391f5c32d9c69d2a47ea670b442974b53935d1edc7fd64eb21e047a839171b60405160405180910390a45b5050565b6000611f7a82610995565b9050611f888160008461262d565b611f93600083611356565b6001600360008373ffffffffffffffffffffffffffffffffffffffff1673ffffffffffffffffffffffffffffffffffffffff1681526020019081526020016000206000828254611fe39190613e47565b925050819055506002600083815260200190815260200160002060006101000a81549073ffffffffffffffffffffffffffffffffffffffff021916905581600073ffffffffffffffffffffffffffffffffffffffff168273ffffffffffffffffffffffffffffffffffffffff167fddf252ad1be2c89b69c2b068fc378daa952ba7f163c4a11628f55a4df523b3ef60405160405180910390a45050565b6001816000016000828254019250508190555050565b600081600001549050919050565b6120be8282604051806020016040528060008152506129b6565b5050565b6120cd8484846114ed565b6120d984848484612a11565b612118576040517f08c379a000000000000000000000000000000000000000000000000000000000815260040161210f906140f9565b60405180910390fd5b50505050565b606060405180602001604052806000815250905090565b6060600082141561217d576040518060400160405280600181526020017f30000000000000000000000000000000000000000000000000000000000000008152509050612291565b600082905060005b600082146121af5780806121989061403e565b915050600a826121a89190614148565b9150612185565b60008167ffffffffffffffff8111156121cb576121ca6132d3565b5b6040519080825280601f01601f1916602001820160405280156121fd5781602001600182028036833780820191505090505b5090505b6000851461228a576001826122169190613e47565b9150600a856122259190614179565b60306122319190613e7b565b60f81b8183815181106122475761224661400f565b5b60200101907effffffffffffffffffffffffffffffffffffffffffffffffffffffffffffff1916908160001a905350600a856122839190614148565b9450612201565b8093505050505b919050565b60008073ffffffffffffffffffffffffffffffffffffffff168373ffffffffffffffffffffffffffffffffffffffff1614156122d157600080fd5b600a60008473ffffffffffffffffffffffffffffffffffffffff1673ffffffffffffffffffffffffffffffffffffffff1681526020019081526020016000206000838152602001908152602001600020600061232b61134e565b73ffffffffffffffffffffffffffffffffffffffff1673ffffffffffffffffffffffffffffffffffffffff16815260200190815260200160002060009054906101000a900460ff16156123b3576040517f08c379a00000000000000000000000000000000000000000000000000000000081526004016123aa90613fef565b60405180910390fd5b6001600a60008573ffffffffffffffffffffffffffffffffffffffff1673ffffffffffffffffffffffffffffffffffffffff1681526020019081526020016000206000848152602001908152602001600020600061240f61134e565b73ffffffffffffffffffffffffffffffffffffffff1673ffffffffffffffffffffffffffffffffffffffff16815260200190815260200160002060006101000a81548160ff021916908315150217905550600b60008473ffffffffffffffffffffffffffffffffffffffff1673ffffffffffffffffffffffffffffffffffffffff16815260200190815260200160002060008381526020019081526020016000206124b861134e565b9080600181540180825580915050600190039060005260206000200160009091909190916101000a81548173ffffffffffffffffffffffffffffffffffffffff021916908373ffffffffffffffffffffffffffffffffffffffff1602179055506001905092915050565b61252b826107a7565b61253c8161253761134e565b611749565b6125468383611e8d565b505050565b60007f80ac58cd000000000000000000000000000000000000000000000000000000007bffffffffffffffffffffffffffffffffffffffffffffffffffffffff1916827bffffffffffffffffffffffffffffffffffffffffffffffffffffffff1916148061261657507f5b5e139f000000000000000000000000000000000000000000000000000000007bffffffffffffffffffffffffffffffffffffffffffffffffffffffff1916827bffffffffffffffffffffffffffffffffffffffffffffffffffffffff1916145b80612626575061262582612ba8565b5b9050919050565b60001515600d600083815260200190815260200160002060009054906101000a900460ff16151514612694576040517f08c379a000000000000000000000000000000000000000000000000000000000815260040161268b906141f6565b60405180910390fd5b505050565b6060600060028360026126ac9190614216565b6126b69190613e7b565b67ffffffffffffffff8111156126cf576126ce6132d3565b5b6040519080825280601f01601f1916602001820160405280156127015781602001600182028036833780820191505090505b5090507f3000000000000000000000000000000000000000000000000000000000000000816000815181106127395761273861400f565b5b60200101907effffffffffffffffffffffffffffffffffffffffffffffffffffffffffffff1916908160001a9053507f78000000000000000000000000000000000000000000000000000000000000008160018151811061279d5761279c61400f565b5b60200101907effffffffffffffffffffffffffffffffffffffffffffffffffffffffffffff1916908160001a905350600060018460026127dd9190614216565b6127e79190613e7b565b90505b6001811115612887577f3031323334353637383961626364656600000000000000000000000000000000600f8616601081106128295761282861400f565b5b1a60f81b8282815181106128405761283f61400f565b5b60200101907effffffffffffffffffffffffffffffffffffffffffffffffffffffffffffff1916908160001a905350600485901c94508061288090614270565b90506127ea565b50600084146128cb576040517f08c379a00000000000000000000000000000000000000000000000000000000081526004016128c2906142e6565b60405180910390fd5b8091505092915050565b6128df8282610bd5565b6129b25760016006600084815260200190815260200160002060000160008373ffffffffffffffffffffffffffffffffffffffff1673ffffffffffffffffffffffffffffffffffffffff16815260200190815260200160002060006101000a81548160ff02191690831515021790555061295761134e565b73ffffffffffffffffffffffffffffffffffffffff168173ffffffffffffffffffffffffffffffffffffffff16837f2f8788117e7eff1d82e926ec794901d17c78024a50270940304540a733656f0d60405160405180910390a45b5050565b6129c08383612c12565b6129cd6000848484612a11565b612a0c576040517f08c379a0000000000000000000000000000000000000000000000000000000008152600401612a03906140f9565b60405180910390fd5b505050565b6000612a328473ffffffffffffffffffffffffffffffffffffffff16612de0565b15612b9b578373ffffffffffffffffffffffffffffffffffffffff1663150b7a02612a5b61134e565b8786866040518563ffffffff1660e01b8152600401612a7d949392919061435b565b602060405180830381600087803b158015612a9757600080fd5b505af1925050508015612ac857506040513d601f19601f82011682018060405250810190612ac591906143bc565b60015b612b4b573d8060008114612af8576040519150601f19603f3d011682016040523d82523d6000602084013e612afd565b606091505b50600081511415612b43576040517f08c379a0000000000000000000000000000000000000000000000000000000008152600401612b3a906140f9565b60405180910390fd5b805181602001fd5b63150b7a0260e01b7bffffffffffffffffffffffffffffffffffffffffffffffffffffffff1916817bffffffffffffffffffffffffffffffffffffffffffffffffffffffff191614915050612ba0565b600190505b949350505050565b60007f01ffc9a7000000000000000000000000000000000000000000000000000000007bffffffffffffffffffffffffffffffffffffffffffffffffffffffff1916827bffffffffffffffffffffffffffffffffffffffffffffffffffffffff1916149050919050565b600073ffffffffffffffffffffffffffffffffffffffff168273ffffffffffffffffffffffffffffffffffffffff161415612c82576040517f08c379a0000000000000000000000000000000000000000000000000000000008152600401612c7990614435565b60405180910390fd5b612c8b816112e2565b15612ccb576040517f08c379a0000000000000000000000000000000000000000000000000000000008152600401612cc2906144a1565b60405180910390fd5b612cd76000838361262d565b6001600360008473ffffffffffffffffffffffffffffffffffffffff1673ffffffffffffffffffffffffffffffffffffffff1681526020019081526020016000206000828254612d279190613e7b565b92505081905550816002600083815260200190815260200160002060006101000a81548173ffffffffffffffffffffffffffffffffffffffff021916908373ffffffffffffffffffffffffffffffffffffffff160217905550808273ffffffffffffffffffffffffffffffffffffffff16600073ffffffffffffffffffffffffffffffffffffffff167fddf252ad1be2c89b69c2b068fc378daa952ba7f163c4a11628f55a4df523b3ef60405160405180910390a45050565b600080823b905060008111915050919050565b5080546000825590600052602060002090810190612e119190612e14565b50565b5b80821115612e2d576000816000905550600101612e15565b5090565b6000604051905090565b600080fd5b600080fd5b60007fffffffff0000000000000000000000000000000000000000000000000000000082169050919050565b612e7a81612e45565b8114612e8557600080fd5b50565b600081359050612e9781612e71565b92915050565b600060208284031215612eb357612eb2612e3b565b5b6000612ec184828501612e88565b91505092915050565b60008115159050919050565b612edf81612eca565b82525050565b6000602082019050612efa6000830184612ed6565b92915050565b600081519050919050565b600082825260208201905092915050565b60005b83811015612f3a578082015181840152602081019050612f1f565b83811115612f49576000848401525b50505050565b6000601f19601f8301169050919050565b6000612f6b82612f00565b612f758185612f0b565b9350612f85818560208601612f1c565b612f8e81612f4f565b840191505092915050565b60006020820190508181036000830152612fb38184612f60565b905092915050565b6000819050919050565b612fce81612fbb565b8114612fd957600080fd5b50565b600081359050612feb81612fc5565b92915050565b60006020828403121561300757613006612e3b565b5b600061301584828501612fdc565b91505092915050565b600073ffffffffffffffffffffffffffffffffffffffff82169050919050565b60006130498261301e565b9050919050565b6130598161303e565b82525050565b60006020820190506130746000830184613050565b92915050565b6130838161303e565b811461308e57600080fd5b50565b6000813590506130a08161307a565b92915050565b600080604083850312156130bd576130bc612e3b565b5b60006130cb85828601613091565b92505060206130dc85828601612fdc565b9150509250929050565b6000806000606084860312156130ff576130fe612e3b565b5b600061310d86828701613091565b935050602061311e86828701613091565b925050604061312f86828701612fdc565b9150509250925092565b6000819050919050565b61314c81613139565b811461315757600080fd5b50565b60008135905061316981613143565b92915050565b60006020828403121561318557613184612e3b565b5b60006131938482850161315a565b91505092915050565b6131a581613139565b82525050565b60006020820190506131c0600083018461319c565b92915050565b600080604083850312156131dd576131dc612e3b565b5b60006131eb8582860161315a565b92505060206131fc85828601613091565b9150509250929050565b60006020828403121561321c5761321b612e3b565b5b600061322a84828501613091565b91505092915050565b61323c81612fbb565b82525050565b60006020820190506132576000830184613233565b92915050565b61326681612eca565b811461327157600080fd5b50565b6000813590506132838161325d565b92915050565b600080604083850312156132a05761329f612e3b565b5b60006132ae85828601613091565b92505060206132bf85828601613274565b9150509250929050565b600080fd5b600080fd5b7f4e487b7100000000000000000000000000000000000000000000000000000000600052604160045260246000fd5b61330b82612f4f565b810181811067ffffffffffffffff8211171561332a576133296132d3565b5b80604052505050565b600061333d612e31565b90506133498282613302565b919050565b600067ffffffffffffffff821115613369576133686132d3565b5b61337282612f4f565b9050602081019050919050565b82818337600083830152505050565b60006133a161339c8461334e565b613333565b9050828152602081018484840111156133bd576133bc6132ce565b5b6133c884828561337f565b509392505050565b600082601f8301126133e5576133e46132c9565b5b81356133f584826020860161338e565b91505092915050565b6000806000806080858703121561341857613417612e3b565b5b600061342687828801613091565b945050602061343787828801613091565b935050604061344887828801612fdc565b925050606085013567ffffffffffffffff81111561346957613468612e40565b5b613475878288016133d0565b91505092959194509250565b6000806040838503121561349857613497612e3b565b5b60006134a685828601613091565b92505060206134b785828601613091565b9150509250929050565b600080604083850312156134d8576134d7612e3b565b5b60006134e685828601612fdc565b92505060206134f785828601613274565b9150509250929050565b7f4e487b7100000000000000000000000000000000000000000000000000000000600052602260045260246000fd5b6000600282049050600182168061354857607f821691505b6020821081141561355c5761355b613501565b5b50919050565b7f4552433732313a20617070726f76656420717565727920666f72206e6f6e657860008201527f697374656e7420746f6b656e0000000000000000000000000000000000000000602082015250565b60006135be602c83612f0b565b91506135c982613562565b604082019050919050565b600060208201905081810360008301526135ed816135b1565b9050919050565b7f4552433732313a20617070726f76616c20746f2063757272656e74206f776e6560008201527f7200000000000000000000000000000000000000000000000000000000000000602082015250565b6000613650602183612f0b565b915061365b826135f4565b604082019050919050565b6000602082019050818103600083015261367f81613643565b9050919050565b7f4552433732313a20617070726f76652063616c6c6572206973206e6f74206f7760008201527f6e6572206e6f7220617070726f76656420666f7220616c6c0000000000000000602082015250565b60006136e2603883612f0b565b91506136ed82613686565b604082019050919050565b60006020820190508181036000830152613711816136d5565b9050919050565b7f4552433732313a207472616e736665722063616c6c6572206973206e6f74206f60008201527f776e6572206e6f7220617070726f766564000000000000000000000000000000602082015250565b6000613774603183612f0b565b915061377f82613718565b604082019050919050565b600060208201905081810360008301526137a381613767565b9050919050565b7f416363657373436f6e74726f6c3a2063616e206f6e6c792072656e6f756e636560008201527f20726f6c657320666f722073656c660000000000000000000000000000000000602082015250565b6000613806602f83612f0b565b9150613811826137aa565b604082019050919050565b60006020820190508181036000830152613835816137f9565b9050919050565b7f4552433732313a206f776e657220717565727920666f72206e6f6e657869737460008201527f656e7420746f6b656e0000000000000000000000000000000000000000000000602082015250565b6000613898602983612f0b565b91506138a38261383c565b604082019050919050565b600060208201905081810360008301526138c78161388b565b9050919050565b7f4d696e74657220726f6c65206973207265717569726564000000000000000000600082015250565b6000613904601783612f0b565b915061390f826138ce565b602082019050919050565b60006020820190508181036000830152613933816138f7565b9050919050565b600060408201905061394f6000830185613050565b61395c6020830184613233565b9392505050565b7f4552433732313a2062616c616e636520717565727920666f7220746865207a6560008201527f726f206164647265737300000000000000000000000000000000000000000000602082015250565b60006139bf602a83612f0b565b91506139ca82613963565b604082019050919050565b600060208201905081810360008301526139ee816139b2565b9050919050565b7f4552433732313a20617070726f766520746f2063616c6c657200000000000000600082015250565b6000613a2b601983612f0b565b9150613a36826139f5565b602082019050919050565b60006020820190508181036000830152613a5a81613a1e565b9050919050565b7f6469646e27742065786973740000000000000000000000000000000000000000600082015250565b6000613a97600c83612f0b565b9150613aa282613a61565b602082019050919050565b60006020820190508181036000830152613ac681613a8a565b9050919050565b7f4552433732314d657461646174613a2055524920717565727920666f72206e6f60008201527f6e6578697374656e7420746f6b656e0000000000000000000000000000000000602082015250565b6000613b29602f83612f0b565b9150613b3482613acd565b604082019050919050565b60006020820190508181036000830152613b5881613b1c565b9050919050565b600081905092915050565b6000613b7582612f00565b613b7f8185613b5f565b9350613b8f818560208601612f1c565b80840191505092915050565b6000613ba78285613b6a565b9150613bb38284613b6a565b91508190509392505050565b7f4275726e657220726f6c65206973207265717569726564000000000000000000600082015250565b6000613bf5601783612f0b565b9150613c0082613bbf565b602082019050919050565b60006020820190508181036000830152613c2481613be8565b9050919050565b6000606082019050613c406000830186613050565b613c4d6020830185613233565b613c5a6040830184612ed6565b949350505050565b7f4552433732313a206f70657261746f7220717565727920666f72206e6f6e657860008201527f697374656e7420746f6b656e0000000000000000000000000000000000000000602082015250565b6000613cbe602c83612f0b565b9150613cc982613c62565b604082019050919050565b60006020820190508181036000830152613ced81613cb1565b9050919050565b7f4552433732313a207472616e73666572206f6620746f6b656e2074686174206960008201527f73206e6f74206f776e0000000000000000000000000000000000000000000000602082015250565b6000613d50602983612f0b565b9150613d5b82613cf4565b604082019050919050565b60006020820190508181036000830152613d7f81613d43565b9050919050565b7f4552433732313a207472616e7366657220746f20746865207a65726f2061646460008201527f7265737300000000000000000000000000000000000000000000000000000000602082015250565b6000613de2602483612f0b565b9150613ded82613d86565b604082019050919050565b60006020820190508181036000830152613e1181613dd5565b9050919050565b7f4e487b7100000000000000000000000000000000000000000000000000000000600052601160045260246000fd5b6000613e5282612fbb565b9150613e5d83612fbb565b925082821015613e7057613e6f613e18565b5b828203905092915050565b6000613e8682612fbb565b9150613e9183612fbb565b9250827fffffffffffffffffffffffffffffffffffffffffffffffffffffffffffffffff03821115613ec657613ec5613e18565b5b828201905092915050565b7f416363657373436f6e74726f6c3a206163636f756e7420000000000000000000600082015250565b6000613f07601783613b5f565b9150613f1282613ed1565b601782019050919050565b7f206973206d697373696e6720726f6c6520000000000000000000000000000000600082015250565b6000613f53601183613b5f565b9150613f5e82613f1d565b601182019050919050565b6000613f7482613efa565b9150613f808285613b6a565b9150613f8b82613f46565b9150613f978284613b6a565b91508190509392505050565b7f596f752063616e20766f7465206f6e6c79206f6e652074696d65000000000000600082015250565b6000613fd9601a83612f0b565b9150613fe482613fa3565b602082019050919050565b6000602082019050818103600083015261400881613fcc565b9050919050565b7f4e487b7100000000000000000000000000000000000000000000000000000000600052603260045260246000fd5b600061404982612fbb565b91507fffffffffffffffffffffffffffffffffffffffffffffffffffffffffffffffff82141561407c5761407b613e18565b5b600182019050919050565b7f4552433732313a207472616e7366657220746f206e6f6e20455243373231526560008201527f63656976657220696d706c656d656e7465720000000000000000000000000000602082015250565b60006140e3603283612f0b565b91506140ee82614087565b604082019050919050565b60006020820190508181036000830152614112816140d6565b9050919050565b7f4e487b7100000000000000000000000000000000000000000000000000000000600052601260045260246000fd5b600061415382612fbb565b915061415e83612fbb565b92508261416e5761416d614119565b5b828204905092915050565b600061418482612fbb565b915061418f83612fbb565b92508261419f5761419e614119565b5b828206905092915050565b7f54686973206e66742069732064697361626c6564000000000000000000000000600082015250565b60006141e0601483612f0b565b91506141eb826141aa565b602082019050919050565b6000602082019050818103600083015261420f816141d3565b9050919050565b600061422182612fbb565b915061422c83612fbb565b9250817fffffffffffffffffffffffffffffffffffffffffffffffffffffffffffffffff048311821515161561426557614264613e18565b5b828202905092915050565b600061427b82612fbb565b9150600082141561428f5761428e613e18565b5b600182039050919050565b7f537472696e67733a20686578206c656e67746820696e73756666696369656e74600082015250565b60006142d0602083612f0b565b91506142db8261429a565b602082019050919050565b600060208201905081810360008301526142ff816142c3565b9050919050565b600081519050919050565b600082825260208201905092915050565b600061432d82614306565b6143378185614311565b9350614347818560208601612f1c565b61435081612f4f565b840191505092915050565b60006080820190506143706000830187613050565b61437d6020830186613050565b61438a6040830185613233565b818103606083015261439c8184614322565b905095945050505050565b6000815190506143b681612e71565b92915050565b6000602082840312156143d2576143d1612e3b565b5b60006143e0848285016143a7565b91505092915050565b7f4552433732313a206d696e7420746f20746865207a65726f2061646472657373600082015250565b600061441f602083612f0b565b915061442a826143e9565b602082019050919050565b6000602082019050818103600083015261444e81614412565b9050919050565b7f4552433732313a20746f6b656e20616c7265616479206d696e74656400000000600082015250565b600061448b601c83612f0b565b915061449682614455565b602082019050919050565b600060208201905081810360008301526144ba8161447e565b905091905056fea2646970667358221220c121c99da00d2b22ce9cff147692f386687a334d5ff07b6df71ae2a2f9a13c3364736f6c63430008090033",
  "immutableReferences": {},
  "source": "// SPDX-License-Identifier: MIT\r\npragma solidity ^0.8.9;\r\n\r\n/**\r\n * @title Eterland Nft World\r\n * @dev Contract that follows ERC721 standard to hold nfts from eterland world\r\n */\r\n\r\nimport \"@openzeppelin/contracts/token/ERC721/ERC721.sol\";\r\nimport \"@openzeppelin/contracts/utils/Counters.sol\";\r\nimport \"./ExtendedAccessControl.sol\";\r\n\r\ncontract EterlandWorld is ERC721, ExtendedAccessControl {\r\n    using Counters for Counters.Counter;\r\n    Counters.Counter private _tokenIds;\r\n\t/*\r\n\t\tStore ids of nfts that are disabled\r\n\t */\r\n    mapping(uint256 => bool) private _isDisabled;\r\n\t\r\n\t/**\r\n \t* @dev Event is emitted when new nft is minted\r\n \t*/\r\n    event New(address owner, uint256 id);\r\n\t/**\r\n \t* @dev Event is emitted when a nft change his status ( disabled or enabled)\r\n \t*/\r\n\tevent StatusChanged(address owner, uint256 id, bool status);\r\n\r\n\t/**\r\n \t* @dev  allow to the owner of this role mint new nfts\r\n \t*/\r\n    bytes32 public constant MINTER_ROLE = keccak256(\"MINTER_ROLE\");\r\n\t/**\r\n \t* @dev allow to the owner of this role to disable nfts and pause it's functionalities \r\n \t*/\r\n    bytes32 public constant NFT_ADMINISTRATOR_ROLE = keccak256(\"NFT_ADMINISTRATOR_ROLE\");\r\n\r\n    modifier hasMinterRole() {\r\n        require(hasRole(MINTER_ROLE, _msgSender()), \"Minter role is required\");\r\n        _;\r\n    }\r\n    modifier hasNftAdministratorRole() {\r\n        require(hasRole(NFT_ADMINISTRATOR_ROLE, _msgSender()), \"Burner role is required\");\r\n        _;\r\n    }\r\n\r\n\t/**\r\n \t* @dev set admin role to all member of team and required votes to update a role to 4\r\n \t*/\r\n    constructor(address ceo, address coo, address cfo, address inv1, address inv2) \r\n\tERC721(\"Eterland\", \"ETL\") \r\n\tExtendedAccessControl(4) {\r\n        _setupRole(DEFAULT_ADMIN_ROLE, _msgSender());\r\n        _setupRole(DEFAULT_ADMIN_ROLE, ceo);\r\n        _setupRole(DEFAULT_ADMIN_ROLE, coo);\r\n\t\t_setupRole(DEFAULT_ADMIN_ROLE, cfo);\r\n\t\t_setupRole(DEFAULT_ADMIN_ROLE, inv1);\r\n\t\t_setupRole(DEFAULT_ADMIN_ROLE, inv2);\r\n    }\r\n\r\n\r\n\t/**\r\n \t* @dev mint new nft\r\n \t*/\r\n    function mint(address player) public \r\n\thasMinterRole\r\n\treturns (uint256) {\r\n        _tokenIds.increment();\r\n\r\n        uint256 newItemId = _tokenIds.current();\r\n\r\n        _safeMint(player, newItemId);\r\n\t\t\r\n\t\temit New(player,newItemId);\r\n        \r\n\t\treturn newItemId;\r\n    }\r\n\r\n   \t\r\n   function burn(uint256 id) public{\r\n\t    require(_isApprovedOrOwner(_msgSender(), id), \r\n\t\t\"ERC721: transfer caller is not owner nor approved\");\r\n\t   _burn(id);\r\n   }\r\n\r\n   function changeStatus(uint256 id,bool status) \r\n   hasNftAdministratorRole \r\n   public {\r\n\r\n\t   \trequire(_exists(id),\"didn't exist\");   \r\n\t\t_isDisabled[id] = status;\r\n\t   \taddress owner = ownerOf(id);\r\n\r\n\t\temit StatusChanged(owner, id, status);\r\n   }\r\n\r\n\t/**\r\n \t* @dev this method allow to nft administrator to disable game functionalities for nft \r\n\t* is here for security purposes \r\n\t* i.e if some user explode a serious bug in the game his nft will be disabled \r\n \t*/\r\n   function isDisabled(uint256 id) external view returns(bool){\r\n\t   \trequire(_exists(id),\"didn't exist\");   \r\n\r\n\t\treturn _isDisabled[id];\r\n   }\r\n\r\n    function supportsInterface(bytes4 interfaceId)\r\n        public\r\n        view\r\n        virtual\r\n        override(ERC721, AccessControl)\r\n        returns (bool)\r\n    {\r\n        return super.supportsInterface(interfaceId);\r\n    }\r\n\r\n\r\n\t  function _beforeTokenTransfer(\r\n        address from,\r\n        address to,\r\n        uint256 tokenId\r\n    ) internal virtual override(ERC721) {\r\n        require(\r\n          \t_isDisabled[tokenId]==false,\r\n            \"This nft is disabled\"\r\n        );\r\n    }\r\n}",
  "sourcePath": "C:\\Users\\Crisla\\Documents\\Repos\\repos\\eterland-public-smart-contracts\\contracts\\EterlandWorld.sol",
  "compiler": {
    "name": "solc",
    "version": "0.8.9+commit.e5eed63a.Emscripten.clang"
  },
  "schemaVersion": "3.4.3",
  "updatedAt": "2021-11-12T13:15:54.090Z",
  "devdoc": {
    "events": {
      "New(address,uint256)": {
        "details": "Event is emitted when new nft is minted"
      },
      "StatusChanged(address,uint256,bool)": {
        "details": "Event is emitted when a nft change his status ( disabled or enabled)"
      }
    },
    "kind": "dev",
    "methods": {
      "approve(address,uint256)": {
        "details": "See {IERC721-approve}."
      },
      "balanceOf(address)": {
        "details": "See {IERC721-balanceOf}."
      },
      "constructor": {
        "details": "set admin role to all member of team and required votes to update a role to 4"
      },
      "getApproved(uint256)": {
        "details": "See {IERC721-getApproved}."
      },
      "getRoleAdmin(bytes32)": {
        "details": "Returns the admin role that controls `role`. See {grantRole} and {revokeRole}. To change a role's admin, use {_setRoleAdmin}."
      },
      "grantRole(bytes32,address)": {
        "details": "update votation to assign a role to an address and if the votes are greater than required votes assign role*"
      },
      "hasRole(bytes32,address)": {
        "details": "Returns `true` if `account` has been granted `role`."
      },
      "isApprovedForAll(address,address)": {
        "details": "See {IERC721-isApprovedForAll}."
      },
      "isDisabled(uint256)": {
        "details": "this method allow to nft administrator to disable game functionalities for nft  is here for security purposes  i.e if some user explode a serious bug in the game his nft will be disabled "
      },
      "mint(address)": {
        "details": "mint new nft"
      },
      "name()": {
        "details": "See {IERC721Metadata-name}."
      },
      "ownerOf(uint256)": {
        "details": "See {IERC721-ownerOf}."
      },
      "renounceRole(bytes32,address)": {
        "details": "Revokes `role` from the calling account. Roles are often managed via {grantRole} and {revokeRole}: this function's purpose is to provide a mechanism for accounts to lose their privileges if they are compromised (such as when a trusted device is misplaced). If the calling account had been granted `role`, emits a {RoleRevoked} event. Requirements: - the caller must be `account`."
      },
      "revokeRole(bytes32,address)": {
        "details": "update votation to revoke role and if the number of votes are greater than the requiredvotes revoke role *"
      },
      "safeTransferFrom(address,address,uint256)": {
        "details": "See {IERC721-safeTransferFrom}."
      },
      "safeTransferFrom(address,address,uint256,bytes)": {
        "details": "See {IERC721-safeTransferFrom}."
      },
      "setApprovalForAll(address,bool)": {
        "details": "See {IERC721-setApprovalForAll}."
      },
      "symbol()": {
        "details": "See {IERC721Metadata-symbol}."
      },
      "tokenURI(uint256)": {
        "details": "See {IERC721Metadata-tokenURI}."
      },
      "transferFrom(address,address,uint256)": {
        "details": "See {IERC721-transferFrom}."
      }
    },
    "stateVariables": {
      "MINTER_ROLE": {
        "details": "allow to the owner of this role mint new nfts"
      },
      "NFT_ADMINISTRATOR_ROLE": {
        "details": "allow to the owner of this role to disable nfts and pause it's functionalities "
      }
    },
    "version": 1
  },
  "userdoc": {
    "kind": "user",
    "methods": {},
    "version": 1
  }
}