{
  "contractName": "ETER",
  "abi": [
    {
      "inputs": [
        {
          "internalType": "address",
          "name": "COO",
          "type": "address"
        },
        {
          "internalType": "address",
          "name": "CEO",
          "type": "address"
        }
      ],
      "stateMutability": "nonpayable",
      "type": "constructor"
    },
    {
      "anonymous": false,
      "inputs": [
        {
          "indexed": true,
          "internalType": "address",
          "name": "owner",
          "type": "address"
        },
        {
          "indexed": true,
          "internalType": "address",
          "name": "spender",
          "type": "address"
        },
        {
          "indexed": false,
          "internalType": "uint256",
          "name": "value",
          "type": "uint256"
        }
      ],
      "name": "Approval",
      "type": "event"
    },
    {
      "anonymous": false,
      "inputs": [
        {
          "indexed": true,
          "internalType": "bytes32",
          "name": "role",
          "type": "bytes32"
        },
        {
          "indexed": true,
          "internalType": "bytes32",
          "name": "previousAdminRole",
          "type": "bytes32"
        },
        {
          "indexed": true,
          "internalType": "bytes32",
          "name": "newAdminRole",
          "type": "bytes32"
        }
      ],
      "name": "RoleAdminChanged",
      "type": "event"
    },
    {
      "anonymous": false,
      "inputs": [
        {
          "indexed": true,
          "internalType": "bytes32",
          "name": "role",
          "type": "bytes32"
        },
        {
          "indexed": true,
          "internalType": "address",
          "name": "account",
          "type": "address"
        },
        {
          "indexed": true,
          "internalType": "address",
          "name": "sender",
          "type": "address"
        }
      ],
      "name": "RoleGranted",
      "type": "event"
    },
    {
      "anonymous": false,
      "inputs": [
        {
          "indexed": true,
          "internalType": "bytes32",
          "name": "role",
          "type": "bytes32"
        },
        {
          "indexed": true,
          "internalType": "address",
          "name": "account",
          "type": "address"
        },
        {
          "indexed": true,
          "internalType": "address",
          "name": "sender",
          "type": "address"
        }
      ],
      "name": "RoleRevoked",
      "type": "event"
    },
    {
      "anonymous": false,
      "inputs": [
        {
          "indexed": true,
          "internalType": "address",
          "name": "from",
          "type": "address"
        },
        {
          "indexed": true,
          "internalType": "address",
          "name": "to",
          "type": "address"
        },
        {
          "indexed": false,
          "internalType": "uint256",
          "name": "value",
          "type": "uint256"
        }
      ],
      "name": "Transfer",
      "type": "event"
    },
    {
      "inputs": [],
      "name": "DEFAULT_ADMIN_ROLE",
      "outputs": [
        {
          "internalType": "bytes32",
          "name": "",
          "type": "bytes32"
        }
      ],
      "stateMutability": "view",
      "type": "function"
    },
    {
      "inputs": [],
      "name": "MAX_SUPPLY",
      "outputs": [
        {
          "internalType": "uint256",
          "name": "",
          "type": "uint256"
        }
      ],
      "stateMutability": "view",
      "type": "function"
    },
    {
      "inputs": [
        {
          "internalType": "address",
          "name": "owner",
          "type": "address"
        },
        {
          "internalType": "address",
          "name": "spender",
          "type": "address"
        }
      ],
      "name": "allowance",
      "outputs": [
        {
          "internalType": "uint256",
          "name": "",
          "type": "uint256"
        }
      ],
      "stateMutability": "view",
      "type": "function"
    },
    {
      "inputs": [
        {
          "internalType": "address",
          "name": "spender",
          "type": "address"
        },
        {
          "internalType": "uint256",
          "name": "amount",
          "type": "uint256"
        }
      ],
      "name": "approve",
      "outputs": [
        {
          "internalType": "bool",
          "name": "",
          "type": "bool"
        }
      ],
      "stateMutability": "nonpayable",
      "type": "function"
    },
    {
      "inputs": [
        {
          "internalType": "address",
          "name": "_address",
          "type": "address"
        },
        {
          "internalType": "bytes32",
          "name": "_role",
          "type": "bytes32"
        }
      ],
      "name": "_approveRoleVote",
      "outputs": [
        {
          "internalType": "bool",
          "name": "",
          "type": "bool"
        }
      ],
      "stateMutability": "nonpayable",
      "type": "function"
    },
    {
      "inputs": [
        {
          "internalType": "address",
          "name": "account",
          "type": "address"
        }
      ],
      "name": "balanceOf",
      "outputs": [
        {
          "internalType": "uint256",
          "name": "",
          "type": "uint256"
        }
      ],
      "stateMutability": "view",
      "type": "function"
    },
    {
      "inputs": [],
      "name": "decimals",
      "outputs": [
        {
          "internalType": "uint8",
          "name": "",
          "type": "uint8"
        }
      ],
      "stateMutability": "view",
      "type": "function"
    },
    {
      "inputs": [
        {
          "internalType": "address",
          "name": "spender",
          "type": "address"
        },
        {
          "internalType": "uint256",
          "name": "subtractedValue",
          "type": "uint256"
        }
      ],
      "name": "decreaseAllowance",
      "outputs": [
        {
          "internalType": "bool",
          "name": "",
          "type": "bool"
        }
      ],
      "stateMutability": "nonpayable",
      "type": "function"
    },
    {
      "inputs": [],
      "name": "getAvailableEcosystemMint",
      "outputs": [
        {
          "internalType": "uint256",
          "name": "",
          "type": "uint256"
        }
      ],
      "stateMutability": "view",
      "type": "function"
    },
    {
      "inputs": [],
      "name": "getEcosystemSupply",
      "outputs": [
        {
          "internalType": "uint256",
          "name": "",
          "type": "uint256"
        }
      ],
      "stateMutability": "view",
      "type": "function"
    },
    {
      "inputs": [
        {
          "internalType": "bytes32",
          "name": "role",
          "type": "bytes32"
        }
      ],
      "name": "getRoleAdmin",
      "outputs": [
        {
          "internalType": "bytes32",
          "name": "",
          "type": "bytes32"
        }
      ],
      "stateMutability": "view",
      "type": "function"
    },
    {
      "inputs": [],
      "name": "getRoles",
      "outputs": [
        {
          "internalType": "bytes32",
          "name": "EcosystemMinter",
          "type": "bytes32"
        },
        {
          "internalType": "bytes32",
          "name": "LiquidityMinter",
          "type": "bytes32"
        },
        {
          "internalType": "bytes32",
          "name": "ModMinter",
          "type": "bytes32"
        },
        {
          "internalType": "bytes32",
          "name": "StakingMinter",
          "type": "bytes32"
        },
        {
          "internalType": "bytes32",
          "name": "EventsMinter",
          "type": "bytes32"
        },
        {
          "internalType": "bytes32",
          "name": "ContentCreatorsMinter",
          "type": "bytes32"
        },
        {
          "internalType": "bytes32",
          "name": "BurnRole",
          "type": "bytes32"
        }
      ],
      "stateMutability": "pure",
      "type": "function"
    },
    {
      "inputs": [],
      "name": "getSecondsSinceFirstEcosystemMint",
      "outputs": [
        {
          "internalType": "uint256",
          "name": "",
          "type": "uint256"
        }
      ],
      "stateMutability": "view",
      "type": "function"
    },
    {
      "inputs": [],
      "name": "getTotalContentCreatorMinted",
      "outputs": [
        {
          "internalType": "uint256",
          "name": "",
          "type": "uint256"
        }
      ],
      "stateMutability": "view",
      "type": "function"
    },
    {
      "inputs": [],
      "name": "getTotalEcosystemMint",
      "outputs": [
        {
          "internalType": "uint256",
          "name": "",
          "type": "uint256"
        }
      ],
      "stateMutability": "view",
      "type": "function"
    },
    {
      "inputs": [],
      "name": "getTotalEventMinted",
      "outputs": [
        {
          "internalType": "uint256",
          "name": "",
          "type": "uint256"
        }
      ],
      "stateMutability": "view",
      "type": "function"
    },
    {
      "inputs": [],
      "name": "getTotalModeratorMinted",
      "outputs": [
        {
          "internalType": "uint256",
          "name": "",
          "type": "uint256"
        }
      ],
      "stateMutability": "view",
      "type": "function"
    },
    {
      "inputs": [],
      "name": "getTotalStakingMinted",
      "outputs": [
        {
          "internalType": "uint256",
          "name": "",
          "type": "uint256"
        }
      ],
      "stateMutability": "view",
      "type": "function"
    },
    {
      "inputs": [
        {
          "internalType": "bytes32",
          "name": "role",
          "type": "bytes32"
        },
        {
          "internalType": "address",
          "name": "account",
          "type": "address"
        }
      ],
      "name": "grantRole",
      "outputs": [],
      "stateMutability": "nonpayable",
      "type": "function"
    },
    {
      "inputs": [
        {
          "internalType": "bytes32",
          "name": "role",
          "type": "bytes32"
        },
        {
          "internalType": "address",
          "name": "account",
          "type": "address"
        }
      ],
      "name": "hasRole",
      "outputs": [
        {
          "internalType": "bool",
          "name": "",
          "type": "bool"
        }
      ],
      "stateMutability": "view",
      "type": "function"
    },
    {
      "inputs": [
        {
          "internalType": "address",
          "name": "spender",
          "type": "address"
        },
        {
          "internalType": "uint256",
          "name": "addedValue",
          "type": "uint256"
        }
      ],
      "name": "increaseAllowance",
      "outputs": [
        {
          "internalType": "bool",
          "name": "",
          "type": "bool"
        }
      ],
      "stateMutability": "nonpayable",
      "type": "function"
    },
    {
      "inputs": [],
      "name": "name",
      "outputs": [
        {
          "internalType": "string",
          "name": "",
          "type": "string"
        }
      ],
      "stateMutability": "view",
      "type": "function"
    },
    {
      "inputs": [
        {
          "internalType": "bytes32",
          "name": "role",
          "type": "bytes32"
        },
        {
          "internalType": "address",
          "name": "account",
          "type": "address"
        }
      ],
      "name": "renounceRole",
      "outputs": [],
      "stateMutability": "nonpayable",
      "type": "function"
    },
    {
      "inputs": [
        {
          "internalType": "bytes32",
          "name": "role",
          "type": "bytes32"
        },
        {
          "internalType": "address",
          "name": "account",
          "type": "address"
        }
      ],
      "name": "revokeRole",
      "outputs": [],
      "stateMutability": "nonpayable",
      "type": "function"
    },
    {
      "inputs": [
        {
          "internalType": "address",
          "name": "_address",
          "type": "address"
        },
        {
          "internalType": "bytes32",
          "name": "_role",
          "type": "bytes32"
        }
      ],
      "name": "_revokeRoleVote",
      "outputs": [
        {
          "internalType": "bool",
          "name": "",
          "type": "bool"
        }
      ],
      "stateMutability": "nonpayable",
      "type": "function"
    },
    {
      "inputs": [
        {
          "internalType": "bytes4",
          "name": "interfaceId",
          "type": "bytes4"
        }
      ],
      "name": "supportsInterface",
      "outputs": [
        {
          "internalType": "bool",
          "name": "",
          "type": "bool"
        }
      ],
      "stateMutability": "view",
      "type": "function"
    },
    {
      "inputs": [],
      "name": "symbol",
      "outputs": [
        {
          "internalType": "string",
          "name": "",
          "type": "string"
        }
      ],
      "stateMutability": "view",
      "type": "function"
    },
    {
      "inputs": [],
      "name": "totalBurn",
      "outputs": [
        {
          "internalType": "uint256",
          "name": "",
          "type": "uint256"
        }
      ],
      "stateMutability": "view",
      "type": "function"
    },
    {
      "inputs": [],
      "name": "totalLiquidityMinted",
      "outputs": [
        {
          "internalType": "uint256",
          "name": "",
          "type": "uint256"
        }
      ],
      "stateMutability": "view",
      "type": "function"
    },
    {
      "inputs": [],
      "name": "totalMinted",
      "outputs": [
        {
          "internalType": "uint256",
          "name": "",
          "type": "uint256"
        }
      ],
      "stateMutability": "view",
      "type": "function"
    },
    {
      "inputs": [],
      "name": "totalSupply",
      "outputs": [
        {
          "internalType": "uint256",
          "name": "",
          "type": "uint256"
        }
      ],
      "stateMutability": "view",
      "type": "function"
    },
    {
      "inputs": [
        {
          "internalType": "address",
          "name": "recipient",
          "type": "address"
        },
        {
          "internalType": "uint256",
          "name": "amount",
          "type": "uint256"
        }
      ],
      "name": "transfer",
      "outputs": [
        {
          "internalType": "bool",
          "name": "",
          "type": "bool"
        }
      ],
      "stateMutability": "nonpayable",
      "type": "function"
    },
    {
      "inputs": [
        {
          "internalType": "address",
          "name": "sender",
          "type": "address"
        },
        {
          "internalType": "address",
          "name": "recipient",
          "type": "address"
        },
        {
          "internalType": "uint256",
          "name": "amount",
          "type": "uint256"
        }
      ],
      "name": "transferFrom",
      "outputs": [
        {
          "internalType": "bool",
          "name": "",
          "type": "bool"
        }
      ],
      "stateMutability": "nonpayable",
      "type": "function"
    },
    {
      "inputs": [
        {
          "internalType": "uint256",
          "name": "_amount",
          "type": "uint256"
        }
      ],
      "name": "mintEcosystem",
      "outputs": [],
      "stateMutability": "nonpayable",
      "type": "function"
    },
    {
      "inputs": [
        {
          "internalType": "uint256",
          "name": "_amount",
          "type": "uint256"
        }
      ],
      "name": "mintLiquidity",
      "outputs": [],
      "stateMutability": "nonpayable",
      "type": "function"
    },
    {
      "inputs": [
        {
          "internalType": "uint256",
          "name": "_amount",
          "type": "uint256"
        }
      ],
      "name": "mintModerator",
      "outputs": [],
      "stateMutability": "nonpayable",
      "type": "function"
    },
    {
      "inputs": [
        {
          "internalType": "uint256",
          "name": "_amount",
          "type": "uint256"
        }
      ],
      "name": "mintStaking",
      "outputs": [],
      "stateMutability": "nonpayable",
      "type": "function"
    },
    {
      "inputs": [
        {
          "internalType": "uint256",
          "name": "_amount",
          "type": "uint256"
        }
      ],
      "name": "mintEvent",
      "outputs": [],
      "stateMutability": "nonpayable",
      "type": "function"
    },
    {
      "inputs": [
        {
          "internalType": "uint256",
          "name": "_amount",
          "type": "uint256"
        }
      ],
      "name": "mintContentCreator",
      "outputs": [],
      "stateMutability": "nonpayable",
      "type": "function"
    },
    {
      "inputs": [
        {
          "internalType": "uint256",
          "name": "_amount",
          "type": "uint256"
        }
      ],
      "name": "burn",
      "outputs": [],
      "stateMutability": "nonpayable",
      "type": "function"
    }
  ],
  "bytecode": "0x6080604052600060085560006009556000600a556000600b5562015180600c60006101000a8154816fffffffffffffffffffffffffffffffff02191690836fffffffffffffffffffffffffffffffff160217905550601e600c60009054906101000a90046fffffffffffffffffffffffffffffffff1662000081919062000728565b6fffffffffffffffffffffffffffffffff16600d55606460026012600a620000aa9190620008e4565b630c845880620000bb919062000935565b620000c7919062000935565b620000d39190620009c5565b600e556000600f55600060105560006011556000601255600060135560006014556000601555600060165560006017553480156200011057600080fd5b5060405162005f1638038062005f16833981810160405281019062000136919062000a67565b6040518060400160405280600481526020017f45544552000000000000000000000000000000000000000000000000000000008152506040518060400160405280600481526020017f45544552000000000000000000000000000000000000000000000000000000008152508160039080519060200190620001ba9291906200062d565b508060049080519060200190620001d39291906200062d565b50505062000208336012600a620001eb9190620008e4565b63019768e0620001fc919062000935565b620002f560201b60201c565b6012600a620002189190620008e4565b63019768e062000229919062000935565b601660008282546200023c919062000aae565b9250508190555062000274336012600a620002589190620008e4565b62b71b0062000268919062000935565b620002f560201b60201c565b6012600a620002849190620008e4565b62b71b0062000294919062000935565b60166000828254620002a7919062000aae565b92505081905550620002c36000801b336200046e60201b60201c565b620002d86000801b826200046e60201b60201c565b620002ed6000801b836200046e60201b60201c565b505062000c21565b600073ffffffffffffffffffffffffffffffffffffffff168273ffffffffffffffffffffffffffffffffffffffff16141562000368576040517f08c379a00000000000000000000000000000000000000000000000000000000081526004016200035f9062000b6c565b60405180910390fd5b6200037c600083836200048460201b60201c565b806002600082825462000390919062000aae565b92505081905550806000808473ffffffffffffffffffffffffffffffffffffffff1673ffffffffffffffffffffffffffffffffffffffff1681526020019081526020016000206000828254620003e7919062000aae565b925050819055508173ffffffffffffffffffffffffffffffffffffffff16600073ffffffffffffffffffffffffffffffffffffffff167fddf252ad1be2c89b69c2b068fc378daa952ba7f163c4a11628f55a4df523b3ef836040516200044e919062000b9f565b60405180910390a36200046a60008383620004c360201b60201c565b5050565b620004808282620004c860201b60201c565b5050565b3073ffffffffffffffffffffffffffffffffffffffff168273ffffffffffffffffffffffffffffffffffffffff161415620004be57600080fd5b505050565b505050565b620004da8282620005ba60201b60201c565b620005b65760016005600084815260200190815260200160002060000160008373ffffffffffffffffffffffffffffffffffffffff1673ffffffffffffffffffffffffffffffffffffffff16815260200190815260200160002060006101000a81548160ff0219169083151502179055506200055b6200062560201b60201c565b73ffffffffffffffffffffffffffffffffffffffff168173ffffffffffffffffffffffffffffffffffffffff16837f2f8788117e7eff1d82e926ec794901d17c78024a50270940304540a733656f0d60405160405180910390a45b5050565b60006005600084815260200190815260200160002060000160008373ffffffffffffffffffffffffffffffffffffffff1673ffffffffffffffffffffffffffffffffffffffff16815260200190815260200160002060009054906101000a900460ff16905092915050565b600033905090565b8280546200063b9062000beb565b90600052602060002090601f0160209004810192826200065f5760008555620006ab565b82601f106200067a57805160ff1916838001178555620006ab565b82800160010185558215620006ab579182015b82811115620006aa5782518255916020019190600101906200068d565b5b509050620006ba9190620006be565b5090565b5b80821115620006d9576000816000905550600101620006bf565b5090565b60006fffffffffffffffffffffffffffffffff82169050919050565b7f4e487b7100000000000000000000000000000000000000000000000000000000600052601160045260246000fd5b60006200073582620006dd565b91506200074283620006dd565b9250816fffffffffffffffffffffffffffffffff04831182151516156200076e576200076d620006f9565b5b828202905092915050565b60008160011c9050919050565b6000808291508390505b6001851115620007d857808604811115620007b057620007af620006f9565b5b6001851615620007c05780820291505b8081029050620007d08562000779565b945062000790565b94509492505050565b600082620007f35760019050620008c6565b81620008035760009050620008c6565b81600181146200081c576002811462000827576200085d565b6001915050620008c6565b60ff8411156200083c576200083b620006f9565b5b8360020a915084821115620008565762000855620006f9565b5b50620008c6565b5060208310610133831016604e8410600b8410161715620008975782820a905083811115620008915762000890620006f9565b5b620008c6565b620008a6848484600162000786565b92509050818404811115620008c057620008bf620006f9565b5b81810290505b9392505050565b6000819050919050565b600060ff82169050919050565b6000620008f182620008cd565b9150620008fe83620008d7565b92506200092d7fffffffffffffffffffffffffffffffffffffffffffffffffffffffffffffffff8484620007e1565b905092915050565b60006200094282620008cd565b91506200094f83620008cd565b9250817fffffffffffffffffffffffffffffffffffffffffffffffffffffffffffffffff04831182151516156200098b576200098a620006f9565b5b828202905092915050565b7f4e487b7100000000000000000000000000000000000000000000000000000000600052601260045260246000fd5b6000620009d282620008cd565b9150620009df83620008cd565b925082620009f257620009f162000996565b5b828204905092915050565b600080fd5b600073ffffffffffffffffffffffffffffffffffffffff82169050919050565b600062000a2f8262000a02565b9050919050565b62000a418162000a22565b811462000a4d57600080fd5b50565b60008151905062000a618162000a36565b92915050565b6000806040838503121562000a815762000a80620009fd565b5b600062000a918582860162000a50565b925050602062000aa48582860162000a50565b9150509250929050565b600062000abb82620008cd565b915062000ac883620008cd565b9250827fffffffffffffffffffffffffffffffffffffffffffffffffffffffffffffffff0382111562000b005762000aff620006f9565b5b828201905092915050565b600082825260208201905092915050565b7f45524332303a206d696e7420746f20746865207a65726f206164647265737300600082015250565b600062000b54601f8362000b0b565b915062000b618262000b1c565b602082019050919050565b6000602082019050818103600083015262000b878162000b45565b9050919050565b62000b9981620008cd565b82525050565b600060208201905062000bb6600083018462000b8e565b92915050565b7f4e487b7100000000000000000000000000000000000000000000000000000000600052602260045260246000fd5b6000600282049050600182168062000c0457607f821691505b6020821081141562000c1b5762000c1a62000bbc565b5b50919050565b6152e58062000c316000396000f3fe608060405234801561001057600080fd5b50600436106102485760003560e01c80636d2f22a31161013b578063a457c2d7116100b8578063dd62ed3e1161007c578063dd62ed3e14610721578063de4c041514610751578063e0f05b981461076f578063e4f7949b1461078d578063fb4a43a6146107a957610248565b8063a457c2d71461066b578063a9059cbb1461069b578063ab2d27c0146106cb578063c3fefbd8146106e9578063d547741f1461070557610248565b806391d14854116100ff57806391d14854146105c557806395d89b41146105f55780639948ce2d14610613578063a217fddf1461062f578063a2309ff81461064d57610248565b80636d2f22a3146104f357806370a082311461052357806371061398146105535780638a11a77e146105775780638ea504261461059557610248565b8063313ce567116101c957806342966c681161018d57806342966c681461046157806342dc26ec1461047d578063494cbbde146104995780635530f435146104b75780635d16acc1146104d557610248565b8063313ce567146103bb57806332cb6b0c146103d957806336568abe146103f757806339509351146104135780633c9f861d1461044357610248565b8063234dcaa211610210578063234dcaa21461030557806323b872dd14610321578063248a9ca3146103515780632653a7c4146103815780632f2ff15d1461039f57610248565b806301ffc9a71461024d57806306fdde031461027d578063095ea7b31461029b57806311929223146102cb57806318160ddd146102e7575b600080fd5b61026760048036038101906102629190613b3e565b6107c7565b6040516102749190613b86565b60405180910390f35b610285610841565b6040516102929190613c3a565b60405180910390f35b6102b560048036038101906102b09190613cf0565b6108d3565b6040516102c29190613b86565b60405180910390f35b6102e560048036038101906102e09190613d30565b6108f1565b005b6102ef610a6c565b6040516102fc9190613d6c565b60405180910390f35b61031f600480360381019061031a9190613d30565b610a76565b005b61033b60048036038101906103369190613d87565b610c3f565b6040516103489190613b86565b60405180910390f35b61036b60048036038101906103669190613e10565b610d37565b6040516103789190613e4c565b60405180910390f35b610389610d57565b6040516103969190613d6c565b60405180910390f35b6103b960048036038101906103b49190613e67565b610d61565b005b6103c3610ff6565b6040516103d09190613ec3565b60405180910390f35b6103e1610fff565b6040516103ee9190613d6c565b60405180910390f35b610411600480360381019061040c9190613e67565b61101f565b005b61042d60048036038101906104289190613cf0565b6110a2565b60405161043a9190613b86565b60405180910390f35b61044b61114e565b6040516104589190613d6c565b60405180910390f35b61047b60048036038101906104769190613d30565b611154565b005b61049760048036038101906104929190613d30565b6111e3565b005b6104a161135e565b6040516104ae9190613d6c565b60405180910390f35b6104bf6114ae565b6040516104cc9190613d6c565b60405180910390f35b6104dd6114b8565b6040516104ea9190613d6c565b60405180910390f35b61050d60048036038101906105089190613ede565b6114c2565b60405161051a9190613b86565b60405180910390f35b61053d60048036038101906105389190613f1e565b611866565b60405161054a9190613d6c565b60405180910390f35b61055b6118ae565b60405161056e9796959493929190613f4b565b60405180910390f35b61057f6119b7565b60405161058c9190613d6c565b60405180910390f35b6105af60048036038101906105aa9190613ede565b6119c1565b6040516105bc9190613b86565b60405180910390f35b6105df60048036038101906105da9190613e67565b611d65565b6040516105ec9190613b86565b60405180910390f35b6105fd611dd0565b60405161060a9190613c3a565b60405180910390f35b61062d60048036038101906106289190613d30565b611e62565b005b610637611fdd565b6040516106449190613e4c565b60405180910390f35b610655611fe4565b6040516106629190613d6c565b60405180910390f35b61068560048036038101906106809190613cf0565b611fea565b6040516106929190613b86565b60405180910390f35b6106b560048036038101906106b09190613cf0565b6120d5565b6040516106c29190613b86565b60405180910390f35b6106d36120f3565b6040516106e09190613d6c565b60405180910390f35b61070360048036038101906106fe9190613d30565b6120fd565b005b61071f600480360381019061071a9190613e67565b612278565b005b61073b60048036038101906107369190613fba565b612528565b6040516107489190613d6c565b60405180910390f35b6107596125af565b6040516107669190613d6c565b60405180910390f35b6107776125d8565b6040516107849190613d6c565b60405180910390f35b6107a760048036038101906107a29190613d30565b6125f4565b005b6107b161276f565b6040516107be9190613d6c565b60405180910390f35b60007f7965db0b000000000000000000000000000000000000000000000000000000007bffffffffffffffffffffffffffffffffffffffffffffffffffffffff1916827bffffffffffffffffffffffffffffffffffffffffffffffffffffffff1916148061083a575061083982612775565b5b9050919050565b60606003805461085090614029565b80601f016020809104026020016040519081016040528092919081815260200182805461087c90614029565b80156108c95780601f1061089e576101008083540402835291602001916108c9565b820191906000526020600020905b8154815290600101906020018083116108ac57829003601f168201915b5050505050905090565b60006108e76108e06127df565b84846127e7565b6001905092915050565b61091b7f21c81fa7e62d2fa54f0ca99aa835e55cc5a5f3275ebc06de7a105acc7a0ed1f633611d65565b61095a576040517f08c379a0000000000000000000000000000000000000000000000000000000008152600401610951906140a7565b60405180910390fd5b8060008160165461096b91906140f6565b90506012600a61097b919061427f565b6311e1a30061098a91906142ca565b81106109cb576040517f08c379a00000000000000000000000000000000000000000000000000000000081526004016109c290614396565b60405180910390fd5b600073ffffffffffffffffffffffffffffffffffffffff163373ffffffffffffffffffffffffffffffffffffffff161415610a3b576040517f08c379a0000000000000000000000000000000000000000000000000000000008152600401610a3290614402565b60405180910390fd5b610a44836129b2565b610a4e3384612ade565b8260166000828254610a6091906140f6565b92505081905550505050565b6000600254905090565b610aa07f97a4503262bcf6ffa9ce078d240211e2c142f557051b1175b4e1b813b4f74f8933611d65565b610adf576040517f08c379a0000000000000000000000000000000000000000000000000000000008152600401610ad69061446e565b60405180910390fd5b80600081601154610af091906140f6565b90506012600a610b00919061427f565b6301c9c380610b0f91906142ca565b811115610b1b57600080fd5b82600081601654610b2c91906140f6565b90506012600a610b3c919061427f565b6311e1a300610b4b91906142ca565b8110610b8c576040517f08c379a0000000000000000000000000000000000000000000000000000000008152600401610b8390614396565b60405180910390fd5b600073ffffffffffffffffffffffffffffffffffffffff163373ffffffffffffffffffffffffffffffffffffffff161415610bfc576040517f08c379a0000000000000000000000000000000000000000000000000000000008152600401610bf390614402565b60405180910390fd5b610c063386612ade565b8460166000828254610c1891906140f6565b925050819055508460116000828254610c3191906140f6565b925050819055505050505050565b6000610c4c848484612c3e565b6000600160008673ffffffffffffffffffffffffffffffffffffffff1673ffffffffffffffffffffffffffffffffffffffff1681526020019081526020016000206000610c976127df565b73ffffffffffffffffffffffffffffffffffffffff1673ffffffffffffffffffffffffffffffffffffffff16815260200190815260200160002054905082811015610d17576040517f08c379a0000000000000000000000000000000000000000000000000000000008152600401610d0e90614500565b60405180910390fd5b610d2b85610d236127df565b8584036127e7565b60019150509392505050565b600060056000838152602001908152602001600020600101549050919050565b6000601454905090565b610d6b81836114c2565b50600073ffffffffffffffffffffffffffffffffffffffff16600660008373ffffffffffffffffffffffffffffffffffffffff1673ffffffffffffffffffffffffffffffffffffffff168152602001908152602001600020600084815260200190815260200160002060000160009054906101000a900473ffffffffffffffffffffffffffffffffffffffff1673ffffffffffffffffffffffffffffffffffffffff1614158015610ebc5750600073ffffffffffffffffffffffffffffffffffffffff16600660008373ffffffffffffffffffffffffffffffffffffffff1673ffffffffffffffffffffffffffffffffffffffff168152602001908152602001600020600084815260200190815260200160002060010160009054906101000a900473ffffffffffffffffffffffffffffffffffffffff1673ffffffffffffffffffffffffffffffffffffffff1614155b15610ff257610ecb8282612ebf565b6000600660008373ffffffffffffffffffffffffffffffffffffffff1673ffffffffffffffffffffffffffffffffffffffff168152602001908152602001600020600084815260200190815260200160002060000160006101000a81548173ffffffffffffffffffffffffffffffffffffffff021916908373ffffffffffffffffffffffffffffffffffffffff1602179055506000600660008373ffffffffffffffffffffffffffffffffffffffff1673ffffffffffffffffffffffffffffffffffffffff168152602001908152602001600020600084815260200190815260200160002060010160006101000a81548173ffffffffffffffffffffffffffffffffffffffff021916908373ffffffffffffffffffffffffffffffffffffffff1602179055505b5050565b60006012905090565b6012600a61100d919061427f565b6311e1a30061101c91906142ca565b81565b6110276127df565b73ffffffffffffffffffffffffffffffffffffffff168173ffffffffffffffffffffffffffffffffffffffff1614611094576040517f08c379a000000000000000000000000000000000000000000000000000000000815260040161108b90614592565b60405180910390fd5b61109e8282612ee8565b5050565b60006111446110af6127df565b8484600160006110bd6127df565b73ffffffffffffffffffffffffffffffffffffffff1673ffffffffffffffffffffffffffffffffffffffff16815260200190815260200160002060008873ffffffffffffffffffffffffffffffffffffffff1673ffffffffffffffffffffffffffffffffffffffff1681526020019081526020016000205461113f91906140f6565b6127e7565b6001905092915050565b60175481565b61117e7fe97b137254058bd94f28d2f3eb79e2d34074ffb488d042e3bc958e0a57d2fa2233611d65565b6111bd576040517f08c379a00000000000000000000000000000000000000000000000000000000081526004016111b490614624565b60405180910390fd5b6111c73382612fca565b80601760008282546111d991906140f6565b9250508190555050565b61120d7fcae1f8764258e7acef84e81ba8696005bda5ff3a332583dbd46f1dc2ceb4bd3f33611d65565b61124c576040517f08c379a000000000000000000000000000000000000000000000000000000000815260040161124390614690565b60405180910390fd5b8060008160165461125d91906140f6565b90506012600a61126d919061427f565b6311e1a30061127c91906142ca565b81106112bd576040517f08c379a00000000000000000000000000000000000000000000000000000000081526004016112b490614396565b60405180910390fd5b600073ffffffffffffffffffffffffffffffffffffffff163373ffffffffffffffffffffffffffffffffffffffff16141561132d576040517f08c379a0000000000000000000000000000000000000000000000000000000008152600401611324906146fc565b60405180910390fd5b611336836131a1565b6113403384612ade565b826016600082825461135291906140f6565b92505081905550505050565b600080600e5490506000611371826132c4565b905061137b6132da565b1561138a5780925050506114ab565b60006113946125af565b90506000600d54826113a6919061474b565b905060005b818110156113df5784846113bf91906140f6565b93506113ca856132e6565b945080806113d79061477c565b9150506113ab565b5060006113eb856132c4565b90506000600c60009054906101000a90046fffffffffffffffffffffffffffffffff166fffffffffffffffffffffffffffffffff16600d548561142e91906147c5565b611438919061474b565b9050818161144691906142ca565b8561145191906140f6565b94506012600a611461919061427f565b630c84588061147091906142ca565b8511156114a1576012600a611485919061427f565b630c84588061149491906142ca565b96505050505050506114ab565b8496505050505050505b90565b6000600854905090565b6000600f54905090565b60008073ffffffffffffffffffffffffffffffffffffffff168373ffffffffffffffffffffffffffffffffffffffff1614156114fd57600080fd5b3373ffffffffffffffffffffffffffffffffffffffff16600660008573ffffffffffffffffffffffffffffffffffffffff1673ffffffffffffffffffffffffffffffffffffffff168152602001908152602001600020600084815260200190815260200160002060000160009054906101000a900473ffffffffffffffffffffffffffffffffffffffff1673ffffffffffffffffffffffffffffffffffffffff161415801561164b57503373ffffffffffffffffffffffffffffffffffffffff16600660008573ffffffffffffffffffffffffffffffffffffffff1673ffffffffffffffffffffffffffffffffffffffff168152602001908152602001600020600084815260200190815260200160002060010160009054906101000a900473ffffffffffffffffffffffffffffffffffffffff1673ffffffffffffffffffffffffffffffffffffffff1614155b61168a576040517f08c379a000000000000000000000000000000000000000000000000000000000815260040161168190614842565b60405180910390fd5b600073ffffffffffffffffffffffffffffffffffffffff16600660008573ffffffffffffffffffffffffffffffffffffffff1673ffffffffffffffffffffffffffffffffffffffff168152602001908152602001600020600084815260200190815260200160002060000160009054906101000a900473ffffffffffffffffffffffffffffffffffffffff1673ffffffffffffffffffffffffffffffffffffffff1614156117c95733600660008573ffffffffffffffffffffffffffffffffffffffff1673ffffffffffffffffffffffffffffffffffffffff168152602001908152602001600020600084815260200190815260200160002060000160006101000a81548173ffffffffffffffffffffffffffffffffffffffff021916908373ffffffffffffffffffffffffffffffffffffffff16021790555061185c565b33600660008573ffffffffffffffffffffffffffffffffffffffff1673ffffffffffffffffffffffffffffffffffffffff168152602001908152602001600020600084815260200190815260200160002060010160006101000a81548173ffffffffffffffffffffffffffffffffffffffff021916908373ffffffffffffffffffffffffffffffffffffffff1602179055505b6001905092915050565b60008060008373ffffffffffffffffffffffffffffffffffffffff1673ffffffffffffffffffffffffffffffffffffffff168152602001908152602001600020549050919050565b60008060008060008060007f21c81fa7e62d2fa54f0ca99aa835e55cc5a5f3275ebc06de7a105acc7a0ed1f696507f97a4503262bcf6ffa9ce078d240211e2c142f557051b1175b4e1b813b4f74f8995507fd9eda32a4d574af7eb0628dcbbe04707a7482d78288f85167fea6716dd6d2b3394507faf660f8ca8c2623c89049deecaf0db2a52537ffabae483bbfd54d021cb7cc1d193507f64e57414e979c4c44021961613df257237fc6c18d32c223edd8a33044c0bc9d092507fcae1f8764258e7acef84e81ba8696005bda5ff3a332583dbd46f1dc2ceb4bd3f91507fe97b137254058bd94f28d2f3eb79e2d34074ffb488d042e3bc958e0a57d2fa22905090919293949596565b6000600a54905090565b60008073ffffffffffffffffffffffffffffffffffffffff168373ffffffffffffffffffffffffffffffffffffffff1614156119fc57600080fd5b3373ffffffffffffffffffffffffffffffffffffffff16600760008573ffffffffffffffffffffffffffffffffffffffff1673ffffffffffffffffffffffffffffffffffffffff168152602001908152602001600020600084815260200190815260200160002060000160009054906101000a900473ffffffffffffffffffffffffffffffffffffffff1673ffffffffffffffffffffffffffffffffffffffff1614158015611b4a57503373ffffffffffffffffffffffffffffffffffffffff16600760008573ffffffffffffffffffffffffffffffffffffffff1673ffffffffffffffffffffffffffffffffffffffff168152602001908152602001600020600084815260200190815260200160002060010160009054906101000a900473ffffffffffffffffffffffffffffffffffffffff1673ffffffffffffffffffffffffffffffffffffffff1614155b611b89576040517f08c379a0000000000000000000000000000000000000000000000000000000008152600401611b8090614842565b60405180910390fd5b600073ffffffffffffffffffffffffffffffffffffffff16600760008573ffffffffffffffffffffffffffffffffffffffff1673ffffffffffffffffffffffffffffffffffffffff168152602001908152602001600020600084815260200190815260200160002060000160009054906101000a900473ffffffffffffffffffffffffffffffffffffffff1673ffffffffffffffffffffffffffffffffffffffff161415611cc85733600760008573ffffffffffffffffffffffffffffffffffffffff1673ffffffffffffffffffffffffffffffffffffffff168152602001908152602001600020600084815260200190815260200160002060000160006101000a81548173ffffffffffffffffffffffffffffffffffffffff021916908373ffffffffffffffffffffffffffffffffffffffff160217905550611d5b565b33600760008573ffffffffffffffffffffffffffffffffffffffff1673ffffffffffffffffffffffffffffffffffffffff168152602001908152602001600020600084815260200190815260200160002060010160006101000a81548173ffffffffffffffffffffffffffffffffffffffff021916908373ffffffffffffffffffffffffffffffffffffffff1602179055505b6001905092915050565b60006005600084815260200190815260200160002060000160008373ffffffffffffffffffffffffffffffffffffffff1673ffffffffffffffffffffffffffffffffffffffff16815260200190815260200160002060009054906101000a900460ff16905092915050565b606060048054611ddf90614029565b80601f0160208091040260200160405190810160405280929190818152602001828054611e0b90614029565b8015611e585780601f10611e2d57610100808354040283529160200191611e58565b820191906000526020600020905b815481529060010190602001808311611e3b57829003601f168201915b5050505050905090565b611e8c7fd9eda32a4d574af7eb0628dcbbe04707a7482d78288f85167fea6716dd6d2b3333611d65565b611ecb576040517f08c379a0000000000000000000000000000000000000000000000000000000008152600401611ec2906148ae565b60405180910390fd5b80600081601654611edc91906140f6565b90506012600a611eec919061427f565b6311e1a300611efb91906142ca565b8110611f3c576040517f08c379a0000000000000000000000000000000000000000000000000000000008152600401611f3390614396565b60405180910390fd5b600073ffffffffffffffffffffffffffffffffffffffff163373ffffffffffffffffffffffffffffffffffffffff161415611fac576040517f08c379a0000000000000000000000000000000000000000000000000000000008152600401611fa3906146fc565b60405180910390fd5b611fb583613351565b611fbf3384612ade565b8260166000828254611fd191906140f6565b92505081905550505050565b6000801b81565b60165481565b60008060016000611ff96127df565b73ffffffffffffffffffffffffffffffffffffffff1673ffffffffffffffffffffffffffffffffffffffff16815260200190815260200160002060008573ffffffffffffffffffffffffffffffffffffffff1673ffffffffffffffffffffffffffffffffffffffff168152602001908152602001600020549050828110156120b6576040517f08c379a00000000000000000000000000000000000000000000000000000000081526004016120ad90614940565b60405180910390fd5b6120ca6120c16127df565b858584036127e7565b600191505092915050565b60006120e96120e26127df565b8484612c3e565b6001905092915050565b6000601254905090565b6121277faf660f8ca8c2623c89049deecaf0db2a52537ffabae483bbfd54d021cb7cc1d133611d65565b612166576040517f08c379a000000000000000000000000000000000000000000000000000000000815260040161215d906149ac565b60405180910390fd5b8060008160165461217791906140f6565b90506012600a612187919061427f565b6311e1a30061219691906142ca565b81106121d7576040517f08c379a00000000000000000000000000000000000000000000000000000000081526004016121ce90614396565b60405180910390fd5b600073ffffffffffffffffffffffffffffffffffffffff163373ffffffffffffffffffffffffffffffffffffffff161415612247576040517f08c379a000000000000000000000000000000000000000000000000000000000815260040161223e906146fc565b60405180910390fd5b61225083613474565b61225a3384612ade565b826016600082825461226c91906140f6565b92505081905550505050565b61228182610d37565b6122928161228d6127df565b613598565b61229c82846119c1565b50600073ffffffffffffffffffffffffffffffffffffffff16600760008473ffffffffffffffffffffffffffffffffffffffff1673ffffffffffffffffffffffffffffffffffffffff168152602001908152602001600020600085815260200190815260200160002060000160009054906101000a900473ffffffffffffffffffffffffffffffffffffffff1673ffffffffffffffffffffffffffffffffffffffff16141580156123ed5750600073ffffffffffffffffffffffffffffffffffffffff16600760008473ffffffffffffffffffffffffffffffffffffffff1673ffffffffffffffffffffffffffffffffffffffff168152602001908152602001600020600085815260200190815260200160002060010160009054906101000a900473ffffffffffffffffffffffffffffffffffffffff1673ffffffffffffffffffffffffffffffffffffffff1614155b15612523576123fc8383613635565b6000600760008473ffffffffffffffffffffffffffffffffffffffff1673ffffffffffffffffffffffffffffffffffffffff168152602001908152602001600020600085815260200190815260200160002060000160006101000a81548173ffffffffffffffffffffffffffffffffffffffff021916908373ffffffffffffffffffffffffffffffffffffffff1602179055506000600760008473ffffffffffffffffffffffffffffffffffffffff1673ffffffffffffffffffffffffffffffffffffffff168152602001908152602001600020600085815260200190815260200160002060010160006101000a81548173ffffffffffffffffffffffffffffffffffffffff021916908373ffffffffffffffffffffffffffffffffffffffff1602179055505b505050565b6000600160008473ffffffffffffffffffffffffffffffffffffffff1673ffffffffffffffffffffffffffffffffffffffff16815260200190815260200160002060008373ffffffffffffffffffffffffffffffffffffffff1673ffffffffffffffffffffffffffffffffffffffff16815260200190815260200160002054905092915050565b600080600b5414156125c457600090506125d5565b600b54426125d291906149cc565b90505b90565b6000600a546125e561135e565b6125ef91906149cc565b905090565b61261e7f64e57414e979c4c44021961613df257237fc6c18d32c223edd8a33044c0bc9d033611d65565b61265d576040517f08c379a000000000000000000000000000000000000000000000000000000000815260040161265490614a4c565b60405180910390fd5b8060008160165461266e91906140f6565b90506012600a61267e919061427f565b6311e1a30061268d91906142ca565b81106126ce576040517f08c379a00000000000000000000000000000000000000000000000000000000081526004016126c590614396565b60405180910390fd5b600073ffffffffffffffffffffffffffffffffffffffff163373ffffffffffffffffffffffffffffffffffffffff16141561273e576040517f08c379a0000000000000000000000000000000000000000000000000000000008152600401612735906146fc565b60405180910390fd5b6127478361365e565b6127513384612ade565b826016600082825461276391906140f6565b92505081905550505050565b60115481565b60007f01ffc9a7000000000000000000000000000000000000000000000000000000007bffffffffffffffffffffffffffffffffffffffffffffffffffffffff1916827bffffffffffffffffffffffffffffffffffffffffffffffffffffffff1916149050919050565b600033905090565b600073ffffffffffffffffffffffffffffffffffffffff168373ffffffffffffffffffffffffffffffffffffffff161415612857576040517f08c379a000000000000000000000000000000000000000000000000000000000815260040161284e90614ade565b60405180910390fd5b600073ffffffffffffffffffffffffffffffffffffffff168273ffffffffffffffffffffffffffffffffffffffff1614156128c7576040517f08c379a00000000000000000000000000000000000000000000000000000000081526004016128be90614b70565b60405180910390fd5b80600160008573ffffffffffffffffffffffffffffffffffffffff1673ffffffffffffffffffffffffffffffffffffffff16815260200190815260200160002060008473ffffffffffffffffffffffffffffffffffffffff1673ffffffffffffffffffffffffffffffffffffffff168152602001908152602001600020819055508173ffffffffffffffffffffffffffffffffffffffff168373ffffffffffffffffffffffffffffffffffffffff167f8c5be1e5ebec7d5bd14f71427d1e84f3dd0314c0f7b2291e5b200ac8c7c3b925836040516129a59190613d6c565b60405180910390a3505050565b80600081600a546129c391906140f6565b90506012600a6129d3919061427f565b630c8458806129e291906142ca565b8111156012600a6129f3919061427f565b630c845880612a0291906142ca565b604051602001612a129190614c08565b60405160208183030381529060405290612a62576040517f08c379a0000000000000000000000000000000000000000000000000000000008152600401612a599190613c3a565b60405180910390fd5b50612a6b61135e565b811115612aad576040517f08c379a0000000000000000000000000000000000000000000000000000000008152600401612aa490614c7a565b60405180910390fd5b6000600e541415612ac05742600b819055505b82600a6000828254612ad291906140f6565b92505081905550505050565b600073ffffffffffffffffffffffffffffffffffffffff168273ffffffffffffffffffffffffffffffffffffffff161415612b4e576040517f08c379a0000000000000000000000000000000000000000000000000000000008152600401612b4590614ce6565b60405180910390fd5b612b5a60008383613781565b8060026000828254612b6c91906140f6565b92505081905550806000808473ffffffffffffffffffffffffffffffffffffffff1673ffffffffffffffffffffffffffffffffffffffff1681526020019081526020016000206000828254612bc191906140f6565b925050819055508173ffffffffffffffffffffffffffffffffffffffff16600073ffffffffffffffffffffffffffffffffffffffff167fddf252ad1be2c89b69c2b068fc378daa952ba7f163c4a11628f55a4df523b3ef83604051612c269190613d6c565b60405180910390a3612c3a600083836137bf565b5050565b600073ffffffffffffffffffffffffffffffffffffffff168373ffffffffffffffffffffffffffffffffffffffff161415612cae576040517f08c379a0000000000000000000000000000000000000000000000000000000008152600401612ca590614d78565b60405180910390fd5b600073ffffffffffffffffffffffffffffffffffffffff168273ffffffffffffffffffffffffffffffffffffffff161415612d1e576040517f08c379a0000000000000000000000000000000000000000000000000000000008152600401612d1590614e0a565b60405180910390fd5b612d29838383613781565b60008060008573ffffffffffffffffffffffffffffffffffffffff1673ffffffffffffffffffffffffffffffffffffffff16815260200190815260200160002054905081811015612daf576040517f08c379a0000000000000000000000000000000000000000000000000000000008152600401612da690614e9c565b60405180910390fd5b8181036000808673ffffffffffffffffffffffffffffffffffffffff1673ffffffffffffffffffffffffffffffffffffffff16815260200190815260200160002081905550816000808573ffffffffffffffffffffffffffffffffffffffff1673ffffffffffffffffffffffffffffffffffffffff1681526020019081526020016000206000828254612e4291906140f6565b925050819055508273ffffffffffffffffffffffffffffffffffffffff168473ffffffffffffffffffffffffffffffffffffffff167fddf252ad1be2c89b69c2b068fc378daa952ba7f163c4a11628f55a4df523b3ef84604051612ea69190613d6c565b60405180910390a3612eb98484846137bf565b50505050565b612ec882610d37565b612ed981612ed46127df565b613598565b612ee383836137c4565b505050565b612ef28282611d65565b15612fc65760006005600084815260200190815260200160002060000160008373ffffffffffffffffffffffffffffffffffffffff1673ffffffffffffffffffffffffffffffffffffffff16815260200190815260200160002060006101000a81548160ff021916908315150217905550612f6b6127df565b73ffffffffffffffffffffffffffffffffffffffff168173ffffffffffffffffffffffffffffffffffffffff16837ff6391f5c32d9c69d2a47ea670b442974b53935d1edc7fd64eb21e047a839171b60405160405180910390a45b5050565b600073ffffffffffffffffffffffffffffffffffffffff168273ffffffffffffffffffffffffffffffffffffffff16141561303a576040517f08c379a000000000000000000000000000000000000000000000000000000000815260040161303190614f2e565b60405180910390fd5b61304682600083613781565b60008060008473ffffffffffffffffffffffffffffffffffffffff1673ffffffffffffffffffffffffffffffffffffffff168152602001908152602001600020549050818110156130cc576040517f08c379a00000000000000000000000000000000000000000000000000000000081526004016130c390614fc0565b60405180910390fd5b8181036000808573ffffffffffffffffffffffffffffffffffffffff1673ffffffffffffffffffffffffffffffffffffffff16815260200190815260200160002081905550816002600082825461312391906149cc565b92505081905550600073ffffffffffffffffffffffffffffffffffffffff168373ffffffffffffffffffffffffffffffffffffffff167fddf252ad1be2c89b69c2b068fc378daa952ba7f163c4a11628f55a4df523b3ef846040516131889190613d6c565b60405180910390a361319c836000846137bf565b505050565b806000816008546131b291906140f6565b90506012600a6131c2919061427f565b622dc6c06131d091906142ca565b8111156131dc57600080fd5b8260008060095414806131fe5750620151806009546131fb91906140f6565b42115b905080613240576040517f08c379a00000000000000000000000000000000000000000000000000000000081526004016132379061502c565b60405180910390fd5b6012600a61324e919061427f565b61753061325b91906142ca565b82111561329d576040517f08c379a000000000000000000000000000000000000000000000000000000000815260040161329490615098565b60405180910390fd5b84600860008282546132af91906140f6565b92505081905550426009819055505050505050565b6000601e826132d3919061474b565b9050919050565b600080600b5414905090565b60006103e86103d7836132f991906142ca565b613303919061474b565b91506012600a613313919061427f565b6222551061332191906142ca565b821061332d578161334a565b6012600a61333b919061427f565b6222551061334991906142ca565b5b9050919050565b80600080601054148061337357506201518060105461337091906140f6565b42115b9050806133b5576040517f08c379a00000000000000000000000000000000000000000000000000000000081526004016133ac9061502c565b60405180910390fd5b6012600a6133c3919061427f565b610bb86133d091906142ca565b821115613412576040517f08c379a000000000000000000000000000000000000000000000000000000000815260040161340990615098565b60405180910390fd5b82600081600f5461342391906140f6565b90506012600a613433919061427f565b620493e061344191906142ca565b81111561344d57600080fd5b84600f600082825461345f91906140f6565b92505081905550426010819055505050505050565b8060008160125461348591906140f6565b90506012600a613495919061427f565b62e4e1c06134a391906142ca565b8111156134af57600080fd5b8260008060135414806134d15750620151806013546134ce91906140f6565b42115b905080613513576040517f08c379a000000000000000000000000000000000000000000000000000000000815260040161350a9061502c565b60405180910390fd5b6012600a613521919061427f565b620249f061352f91906142ca565b821115613571576040517f08c379a000000000000000000000000000000000000000000000000000000000815260040161356890615098565b60405180910390fd5b846012600082825461358391906140f6565b92505081905550426013819055505050505050565b6135a28282611d65565b613631576135c78173ffffffffffffffffffffffffffffffffffffffff1660146138a5565b6135d58360001c60206138a5565b6040516020016135e6929190615181565b6040516020818303038152906040526040517f08c379a00000000000000000000000000000000000000000000000000000000081526004016136289190613c3a565b60405180910390fd5b5050565b61363e82610d37565b61364f8161364a6127df565b613598565b6136598383612ee8565b505050565b80600080601554148061368057506201518060155461367d91906140f6565b42115b9050806136c2576040517f08c379a00000000000000000000000000000000000000000000000000000000081526004016136b99061502c565b60405180910390fd5b6012600a6136d0919061427f565b6175306136dd91906142ca565b82111561371f576040517f08c379a000000000000000000000000000000000000000000000000000000000815260040161371690615098565b60405180910390fd5b8260008160145461373091906140f6565b90506012600a613740919061427f565b622dc6c061374e91906142ca565b81111561375a57600080fd5b846014600082825461376c91906140f6565b92505081905550426015819055505050505050565b3073ffffffffffffffffffffffffffffffffffffffff168273ffffffffffffffffffffffffffffffffffffffff1614156137ba57600080fd5b505050565b505050565b6137ce8282611d65565b6138a15760016005600084815260200190815260200160002060000160008373ffffffffffffffffffffffffffffffffffffffff1673ffffffffffffffffffffffffffffffffffffffff16815260200190815260200160002060006101000a81548160ff0219169083151502179055506138466127df565b73ffffffffffffffffffffffffffffffffffffffff168173ffffffffffffffffffffffffffffffffffffffff16837f2f8788117e7eff1d82e926ec794901d17c78024a50270940304540a733656f0d60405160405180910390a45b5050565b6060600060028360026138b891906142ca565b6138c291906140f6565b67ffffffffffffffff8111156138db576138da6151bb565b5b6040519080825280601f01601f19166020018201604052801561390d5781602001600182028036833780820191505090505b5090507f300000000000000000000000000000000000000000000000000000000000000081600081518110613945576139446151ea565b5b60200101907effffffffffffffffffffffffffffffffffffffffffffffffffffffffffffff1916908160001a9053507f7800000000000000000000000000000000000000000000000000000000000000816001815181106139a9576139a86151ea565b5b60200101907effffffffffffffffffffffffffffffffffffffffffffffffffffffffffffff1916908160001a905350600060018460026139e991906142ca565b6139f391906140f6565b90505b6001811115613a93577f3031323334353637383961626364656600000000000000000000000000000000600f861660108110613a3557613a346151ea565b5b1a60f81b828281518110613a4c57613a4b6151ea565b5b60200101907effffffffffffffffffffffffffffffffffffffffffffffffffffffffffffff1916908160001a905350600485901c945080613a8c90615219565b90506139f6565b5060008414613ad7576040517f08c379a0000000000000000000000000000000000000000000000000000000008152600401613ace9061528f565b60405180910390fd5b8091505092915050565b600080fd5b60007fffffffff0000000000000000000000000000000000000000000000000000000082169050919050565b613b1b81613ae6565b8114613b2657600080fd5b50565b600081359050613b3881613b12565b92915050565b600060208284031215613b5457613b53613ae1565b5b6000613b6284828501613b29565b91505092915050565b60008115159050919050565b613b8081613b6b565b82525050565b6000602082019050613b9b6000830184613b77565b92915050565b600081519050919050565b600082825260208201905092915050565b60005b83811015613bdb578082015181840152602081019050613bc0565b83811115613bea576000848401525b50505050565b6000601f19601f8301169050919050565b6000613c0c82613ba1565b613c168185613bac565b9350613c26818560208601613bbd565b613c2f81613bf0565b840191505092915050565b60006020820190508181036000830152613c548184613c01565b905092915050565b600073ffffffffffffffffffffffffffffffffffffffff82169050919050565b6000613c8782613c5c565b9050919050565b613c9781613c7c565b8114613ca257600080fd5b50565b600081359050613cb481613c8e565b92915050565b6000819050919050565b613ccd81613cba565b8114613cd857600080fd5b50565b600081359050613cea81613cc4565b92915050565b60008060408385031215613d0757613d06613ae1565b5b6000613d1585828601613ca5565b9250506020613d2685828601613cdb565b9150509250929050565b600060208284031215613d4657613d45613ae1565b5b6000613d5484828501613cdb565b91505092915050565b613d6681613cba565b82525050565b6000602082019050613d816000830184613d5d565b92915050565b600080600060608486031215613da057613d9f613ae1565b5b6000613dae86828701613ca5565b9350506020613dbf86828701613ca5565b9250506040613dd086828701613cdb565b9150509250925092565b6000819050919050565b613ded81613dda565b8114613df857600080fd5b50565b600081359050613e0a81613de4565b92915050565b600060208284031215613e2657613e25613ae1565b5b6000613e3484828501613dfb565b91505092915050565b613e4681613dda565b82525050565b6000602082019050613e616000830184613e3d565b92915050565b60008060408385031215613e7e57613e7d613ae1565b5b6000613e8c85828601613dfb565b9250506020613e9d85828601613ca5565b9150509250929050565b600060ff82169050919050565b613ebd81613ea7565b82525050565b6000602082019050613ed86000830184613eb4565b92915050565b60008060408385031215613ef557613ef4613ae1565b5b6000613f0385828601613ca5565b9250506020613f1485828601613dfb565b9150509250929050565b600060208284031215613f3457613f33613ae1565b5b6000613f4284828501613ca5565b91505092915050565b600060e082019050613f60600083018a613e3d565b613f6d6020830189613e3d565b613f7a6040830188613e3d565b613f876060830187613e3d565b613f946080830186613e3d565b613fa160a0830185613e3d565b613fae60c0830184613e3d565b98975050505050505050565b60008060408385031215613fd157613fd0613ae1565b5b6000613fdf85828601613ca5565b9250506020613ff085828601613ca5565b9150509250929050565b7f4e487b7100000000000000000000000000000000000000000000000000000000600052602260045260246000fd5b6000600282049050600182168061404157607f821691505b6020821081141561405557614054613ffa565b5b50919050565b7f43616c6c6572206973206e6f742065636f73797374656d206d696e7465720000600082015250565b6000614091601e83613bac565b915061409c8261405b565b602082019050919050565b600060208201905081810360008301526140c081614084565b9050919050565b7f4e487b7100000000000000000000000000000000000000000000000000000000600052601160045260246000fd5b600061410182613cba565b915061410c83613cba565b9250827fffffffffffffffffffffffffffffffffffffffffffffffffffffffffffffffff03821115614141576141406140c7565b5b828201905092915050565b60008160011c9050919050565b6000808291508390505b60018511156141a35780860481111561417f5761417e6140c7565b5b600185161561418e5780820291505b808102905061419c8561414c565b9450614163565b94509492505050565b6000826141bc5760019050614278565b816141ca5760009050614278565b81600181146141e057600281146141ea57614219565b6001915050614278565b60ff8411156141fc576141fb6140c7565b5b8360020a915084821115614213576142126140c7565b5b50614278565b5060208310610133831016604e8410600b841016171561424e5782820a905083811115614249576142486140c7565b5b614278565b61425b8484846001614159565b92509050818404811115614272576142716140c7565b5b81810290505b9392505050565b600061428a82613cba565b915061429583613ea7565b92506142c27fffffffffffffffffffffffffffffffffffffffffffffffffffffffffffffffff84846141ac565b905092915050565b60006142d582613cba565b91506142e083613cba565b9250817fffffffffffffffffffffffffffffffffffffffffffffffffffffffffffffffff0483118215151615614319576143186140c7565b5b828202905092915050565b7f546865207472616e73616374696f6e20657863656564206d6178696d756d207360008201527f7570706c79000000000000000000000000000000000000000000000000000000602082015250565b6000614380602583613bac565b915061438b82614324565b604082019050919050565b600060208201905081810360008301526143af81614373565b9050919050565b7f63616e6e6f74206d696e7420746f207a65726f20616464726573730000000000600082015250565b60006143ec601b83613bac565b91506143f7826143b6565b602082019050919050565b6000602082019050818103600083015261441b816143df565b9050919050565b7f43616c6c6572206973206e6f74206c6971756964697479206d696e7465720000600082015250565b6000614458601e83613bac565b915061446382614422565b602082019050919050565b600060208201905081810360008301526144878161444b565b9050919050565b7f45524332303a207472616e7366657220616d6f756e742065786365656473206160008201527f6c6c6f77616e6365000000000000000000000000000000000000000000000000602082015250565b60006144ea602883613bac565b91506144f58261448e565b604082019050919050565b60006020820190508181036000830152614519816144dd565b9050919050565b7f416363657373436f6e74726f6c3a2063616e206f6e6c792072656e6f756e636560008201527f20726f6c657320666f722073656c660000000000000000000000000000000000602082015250565b600061457c602f83613bac565b915061458782614520565b604082019050919050565b600060208201905081810360008301526145ab8161456f565b9050919050565b7f4f6e6c7920746865206275726e20726f6c652063616e20706572666f726d207460008201527f68697320616374696f6e00000000000000000000000000000000000000000000602082015250565b600061460e602a83613bac565b9150614619826145b2565b604082019050919050565b6000602082019050818103600083015261463d81614601565b9050919050565b7f43616c6c6572206973206e6f7420636f6e74656e742063726561746f72000000600082015250565b600061467a601d83613bac565b915061468582614644565b602082019050919050565b600060208201905081810360008301526146a98161466d565b9050919050565b7f63616e6e6f74206d696e7420746f20746865207a65726f206164647265737300600082015250565b60006146e6601f83613bac565b91506146f1826146b0565b602082019050919050565b60006020820190508181036000830152614715816146d9565b9050919050565b7f4e487b7100000000000000000000000000000000000000000000000000000000600052601260045260246000fd5b600061475682613cba565b915061476183613cba565b9250826147715761477061471c565b5b828204905092915050565b600061478782613cba565b91507fffffffffffffffffffffffffffffffffffffffffffffffffffffffffffffffff8214156147ba576147b96140c7565b5b600182019050919050565b60006147d082613cba565b91506147db83613cba565b9250826147eb576147ea61471c565b5b828206905092915050565b7f596f752063616e20766f7465206f6e6c79206f6e652074696d65000000000000600082015250565b600061482c601a83613bac565b9150614837826147f6565b602082019050919050565b6000602082019050818103600083015261485b8161481f565b9050919050565b7f43616c6c6572206973206e6f74206d6f64657261746f72000000000000000000600082015250565b6000614898601783613bac565b91506148a382614862565b602082019050919050565b600060208201905081810360008301526148c78161488b565b9050919050565b7f45524332303a2064656372656173656420616c6c6f77616e63652062656c6f7760008201527f207a65726f000000000000000000000000000000000000000000000000000000602082015250565b600061492a602583613bac565b9150614935826148ce565b604082019050919050565b600060208201905081810360008301526149598161491d565b9050919050565b7f43616c6c6572206973206e6f74207374616b696e670000000000000000000000600082015250565b6000614996601583613bac565b91506149a182614960565b602082019050919050565b600060208201905081810360008301526149c581614989565b9050919050565b60006149d782613cba565b91506149e283613cba565b9250828210156149f5576149f46140c7565b5b828203905092915050565b7f43616c6c6572206973206e6f74206576656e7400000000000000000000000000600082015250565b6000614a36601383613bac565b9150614a4182614a00565b602082019050919050565b60006020820190508181036000830152614a6581614a29565b9050919050565b7f45524332303a20617070726f76652066726f6d20746865207a65726f2061646460008201527f7265737300000000000000000000000000000000000000000000000000000000602082015250565b6000614ac8602483613bac565b9150614ad382614a6c565b604082019050919050565b60006020820190508181036000830152614af781614abb565b9050919050565b7f45524332303a20617070726f766520746f20746865207a65726f20616464726560008201527f7373000000000000000000000000000000000000000000000000000000000000602082015250565b6000614b5a602283613bac565b9150614b6582614afe565b604082019050919050565b60006020820190508181036000830152614b8981614b4d565b9050919050565b600081905092915050565b7f546865206d61782065636f73797374656d20737570706c792069733a20000000600082015250565b6000614bd1601d83614b90565b9150614bdc82614b9b565b601d82019050919050565b6000819050919050565b614c02614bfd82613cba565b614be7565b82525050565b6000614c1382614bc4565b9150614c1f8284614bf1565b60208201915081905092915050565b7f63616e2774206d696e7420746861742076616c75652079657400000000000000600082015250565b6000614c64601983613bac565b9150614c6f82614c2e565b602082019050919050565b60006020820190508181036000830152614c9381614c57565b9050919050565b7f45524332303a206d696e7420746f20746865207a65726f206164647265737300600082015250565b6000614cd0601f83613bac565b9150614cdb82614c9a565b602082019050919050565b60006020820190508181036000830152614cff81614cc3565b9050919050565b7f45524332303a207472616e736665722066726f6d20746865207a65726f20616460008201527f6472657373000000000000000000000000000000000000000000000000000000602082015250565b6000614d62602583613bac565b9150614d6d82614d06565b604082019050919050565b60006020820190508181036000830152614d9181614d55565b9050919050565b7f45524332303a207472616e7366657220746f20746865207a65726f206164647260008201527f6573730000000000000000000000000000000000000000000000000000000000602082015250565b6000614df4602383613bac565b9150614dff82614d98565b604082019050919050565b60006020820190508181036000830152614e2381614de7565b9050919050565b7f45524332303a207472616e7366657220616d6f756e742065786365656473206260008201527f616c616e63650000000000000000000000000000000000000000000000000000602082015250565b6000614e86602683613bac565b9150614e9182614e2a565b604082019050919050565b60006020820190508181036000830152614eb581614e79565b9050919050565b7f45524332303a206275726e2066726f6d20746865207a65726f2061646472657360008201527f7300000000000000000000000000000000000000000000000000000000000000602082015250565b6000614f18602183613bac565b9150614f2382614ebc565b604082019050919050565b60006020820190508181036000830152614f4781614f0b565b9050919050565b7f45524332303a206275726e20616d6f756e7420657863656564732062616c616e60008201527f6365000000000000000000000000000000000000000000000000000000000000602082015250565b6000614faa602283613bac565b9150614fb582614f4e565b604082019050919050565b60006020820190508181036000830152614fd981614f9d565b9050919050565b7f596f752063616e206d696e74206f6e6c79206f6e636520657665727920646179600082015250565b6000615016602083613bac565b915061502182614fe0565b602082019050919050565b6000602082019050818103600083015261504581615009565b9050919050565b7f54686520616d6f756e7420657863656564206d6178206461696c79206d696e74600082015250565b6000615082602083613bac565b915061508d8261504c565b602082019050919050565b600060208201905081810360008301526150b181615075565b9050919050565b7f416363657373436f6e74726f6c3a206163636f756e7420000000000000000000600082015250565b60006150ee601783614b90565b91506150f9826150b8565b601782019050919050565b600061510f82613ba1565b6151198185614b90565b9350615129818560208601613bbd565b80840191505092915050565b7f206973206d697373696e6720726f6c6520000000000000000000000000000000600082015250565b600061516b601183614b90565b915061517682615135565b601182019050919050565b600061518c826150e1565b91506151988285615104565b91506151a38261515e565b91506151af8284615104565b91508190509392505050565b7f4e487b7100000000000000000000000000000000000000000000000000000000600052604160045260246000fd5b7f4e487b7100000000000000000000000000000000000000000000000000000000600052603260045260246000fd5b600061522482613cba565b91506000821415615238576152376140c7565b5b600182039050919050565b7f537472696e67733a20686578206c656e67746820696e73756666696369656e74600082015250565b6000615279602083613bac565b915061528482615243565b602082019050919050565b600060208201905081810360008301526152a88161526c565b905091905056fea2646970667358221220175243302261d4ff759d599a1479480b63d7de8af508d561e3b03fa36ff7bd2764736f6c63430008090033",
  "immutableReferences": {},
  "source": "// SPDX-License-Identifier: MIT\r\npragma solidity ^0.8.0;\r\n\r\n/// @title A title that should describe the contract/interface\r\n\r\n/// @author Cristian Gerani (@cgerabit) and Geferman Pernia (@gefermanpernia)\r\n/// @notice Explain to an end user what this does\r\n/// @dev Explain to a developer any extra details\r\n/// @param _param1 Explain to a developer what this is\r\n/// @param _param2 Explain to a developer what this is\r\n\r\nimport \"./abstract/EcoSystem.sol\";\r\nimport \"./abstract/EterAccessControl.sol\";\r\nimport \"./abstract/Liquidity.sol\";\r\nimport \"./abstract/Moderator.sol\";\r\nimport \"./abstract/Staking.sol\";\r\nimport \"./abstract/Event.sol\";\r\nimport \"./abstract/ContentCreator.sol\";\r\nimport \"@openzeppelin/contracts/token/ERC20/ERC20.sol\";\r\n\r\ncontract ETER is\r\n    ERC20,\r\n    EterAccessControl,\r\n    ContentCreator,\r\n    EcoSystem,\r\n    Moderator,\r\n    Liquidity,\r\n    Staking,\r\n    Event\r\n{\r\n    modifier notExceedMaximumSupply(uint256 _amount) {\r\n        uint256 nextSupply = totalMinted + _amount;\r\n        require(\r\n            nextSupply < MAX_SUPPLY,\r\n            \"The transaction exceed maximum supply\"\r\n        );\r\n        _;\r\n    }\r\n\r\n    uint256 public constant MAX_SUPPLY = 300000000 * _baseMultiplier;\r\n\r\n    uint256 public totalMinted = 0;\r\n\r\n    uint256 private constant _baseMultiplier = uint256(10)**18;\r\n\r\n    uint256 private constant MAX_TEAM_SUPPLY = 26700000 * _baseMultiplier;\r\n\r\n    uint256 private constant MAX_PRIVATE_SALE_SELL = 12000000 * _baseMultiplier;\r\n\r\n    uint256 public totalBurn = 0;\r\n\r\n    /// @notice Explain to an end user what this does\r\n    /// @dev Explain to a developer any extra details\r\n    constructor(address COO, address CEO) ERC20(\"ETER\",\"ETER\") {\r\n        //Mint team supply\r\n        _mint(msg.sender, MAX_TEAM_SUPPLY);\r\n        totalMinted += MAX_TEAM_SUPPLY;\r\n\r\n        //Mint private sell\r\n        _mint(msg.sender, MAX_PRIVATE_SALE_SELL);\r\n        totalMinted += MAX_PRIVATE_SALE_SELL;\r\n\r\n        _setupRole(DEFAULT_ADMIN_ROLE, msg.sender);\r\n        _setupRole(DEFAULT_ADMIN_ROLE, CEO);\r\n        _setupRole(DEFAULT_ADMIN_ROLE, COO);\r\n    }\r\n\r\n    function mintEcosystem(uint256 _amount)\r\n        public\r\n        hasEcosystemMinterRole\r\n        notExceedMaximumSupply(_amount)\r\n    {\r\n        require(msg.sender != address(0), \"cannot mint to zero address\");\r\n        incrementEcosystemSupply(_amount);\r\n        _mint(msg.sender, _amount);\r\n        totalMinted += _amount;\r\n    }\r\n\r\n    function mintLiquidity(uint256 _amount)\r\n        public\r\n        hasLiquidityMinterRole\r\n        notExceedLiquiditySupply(_amount)\r\n        notExceedMaximumSupply(_amount)\r\n    {\r\n        require(msg.sender != address(0), \"cannot mint to zero address\");\r\n        _mint(msg.sender, _amount);\r\n        totalMinted += _amount;\r\n        totalLiquidityMinted += _amount;\r\n    }\r\n\r\n    function mintModerator(uint256 _amount)\r\n        public\r\n        hasModeratorRole\r\n        notExceedMaximumSupply(_amount)\r\n    {\r\n        require(msg.sender != address(0), \"cannot mint to the zero address\");\r\n        _incrementModeratorSupply(_amount);\r\n        _mint(msg.sender, _amount);\r\n        totalMinted += _amount;\r\n    }\r\n\r\n    function mintStaking(uint256 _amount)\r\n        public\r\n        hasStakingRole\r\n        notExceedMaximumSupply(_amount)\r\n    {\r\n        require(msg.sender != address(0), \"cannot mint to the zero address\");\r\n        _increaseTotalStakingMinted(_amount);\r\n        _mint(msg.sender, _amount);\r\n        totalMinted += _amount;\r\n    }\r\n\r\n    function mintEvent(uint256 _amount)\r\n        public\r\n        hasEventMinterRole\r\n        notExceedMaximumSupply(_amount)\r\n    {\r\n        require(msg.sender != address(0), \"cannot mint to the zero address\");\r\n        _incrementEventSupply(_amount);\r\n        _mint(msg.sender, _amount);\r\n\t\ttotalMinted += _amount;\r\n    }\r\n\r\n    function mintContentCreator(uint256 _amount)\r\n        public\r\n        hasContentCreatorRole\r\n        notExceedMaximumSupply(_amount)\r\n    {\r\n        require(msg.sender != address(0), \"cannot mint to the zero address\");\r\n        increaseTotalContentCreatorMinted(_amount);\r\n        _mint(msg.sender, _amount);\r\n        totalMinted += _amount;\r\n    }\r\n\r\n    function burn(uint256 _amount) public hasBurnRole {\r\n        _burn(msg.sender, _amount);\r\n        totalBurn += _amount;\r\n        \r\n    }\r\n\r\n\tfunction _beforeTokenTransfer(address from,address  to,uint256 amount) \r\n\tinternal view override {\r\n\t   // if some user transfer his tokens to this contract will loss the funds so we prevent\r\n\t   require( to != address(this) );\r\n\t}\r\n    \r\n}\r\n",
  "sourcePath": "C:\\Users\\Crisla\\Documents\\Repos\\repos\\smart-contracts\\contracts\\Token.sol",
  "compiler": {
    "name": "solc",
    "version": "0.8.9+commit.e5eed63a.Emscripten.clang"
  },
  "schemaVersion": "3.4.3",
  "updatedAt": "2021-11-01T21:56:33.268Z",
  "devdoc": {
    "kind": "dev",
    "methods": {
      "allowance(address,address)": {
        "details": "See {IERC20-allowance}."
      },
      "approve(address,uint256)": {
        "details": "See {IERC20-approve}. Requirements: - `spender` cannot be the zero address."
      },
      "balanceOf(address)": {
        "details": "See {IERC20-balanceOf}."
      },
      "constructor": {
        "details": "Explain to a developer any extra details"
      },
      "decimals()": {
        "details": "Returns the number of decimals used to get its user representation. For example, if `decimals` equals `2`, a balance of `505` tokens should be displayed to a user as `5.05` (`505 / 10 ** 2`). Tokens usually opt for a value of 18, imitating the relationship between Ether and Wei. This is the value {ERC20} uses, unless this function is overridden; NOTE: This information is only used for _display_ purposes: it in no way affects any of the arithmetic of the contract, including {IERC20-balanceOf} and {IERC20-transfer}."
      },
      "decreaseAllowance(address,uint256)": {
        "details": "Atomically decreases the allowance granted to `spender` by the caller. This is an alternative to {approve} that can be used as a mitigation for problems described in {IERC20-approve}. Emits an {Approval} event indicating the updated allowance. Requirements: - `spender` cannot be the zero address. - `spender` must have allowance for the caller of at least `subtractedValue`."
      },
      "getRoleAdmin(bytes32)": {
        "details": "Returns the admin role that controls `role`. See {grantRole} and {revokeRole}. To change a role's admin, use {_setRoleAdmin}."
      },
      "grantRole(bytes32,address)": {
        "details": "Grants `role` to `account`. If `account` had not been already granted `role`, emits a {RoleGranted} event. Requirements: - the caller must have ``role``'s admin role."
      },
      "hasRole(bytes32,address)": {
        "details": "Returns `true` if `account` has been granted `role`."
      },
      "increaseAllowance(address,uint256)": {
        "details": "Atomically increases the allowance granted to `spender` by the caller. This is an alternative to {approve} that can be used as a mitigation for problems described in {IERC20-approve}. Emits an {Approval} event indicating the updated allowance. Requirements: - `spender` cannot be the zero address."
      },
      "name()": {
        "details": "Returns the name of the token."
      },
      "renounceRole(bytes32,address)": {
        "details": "Revokes `role` from the calling account. Roles are often managed via {grantRole} and {revokeRole}: this function's purpose is to provide a mechanism for accounts to lose their privileges if they are compromised (such as when a trusted device is misplaced). If the calling account had been granted `role`, emits a {RoleRevoked} event. Requirements: - the caller must be `account`."
      },
      "revokeRole(bytes32,address)": {
        "details": "Revokes `role` from `account`. If `account` had been granted `role`, emits a {RoleRevoked} event. Requirements: - the caller must have ``role``'s admin role."
      },
      "supportsInterface(bytes4)": {
        "details": "See {IERC165-supportsInterface}."
      },
      "symbol()": {
        "details": "Returns the symbol of the token, usually a shorter version of the name."
      },
      "totalSupply()": {
        "details": "See {IERC20-totalSupply}."
      },
      "transfer(address,uint256)": {
        "details": "See {IERC20-transfer}. Requirements: - `recipient` cannot be the zero address. - the caller must have a balance of at least `amount`."
      },
      "transferFrom(address,address,uint256)": {
        "details": "See {IERC20-transferFrom}. Emits an {Approval} event indicating the updated allowance. This is not required by the EIP. See the note at the beginning of {ERC20}. Requirements: - `sender` and `recipient` cannot be the zero address. - `sender` must have a balance of at least `amount`. - the caller must have allowance for ``sender``'s tokens of at least `amount`."
      }
    },
    "version": 1
  },
  "userdoc": {
    "kind": "user",
    "methods": {
      "constructor": {
        "notice": "Explain to an end user what this does"
      }
    },
    "version": 1
  }
}