{
  "contractName": "EterlandPresale",
  "abi": [
    {
      "inputs": [
        {
          "internalType": "uint256",
          "name": "presaleStart",
          "type": "uint256"
        },
        {
          "internalType": "uint256",
          "name": "presaleEnd",
          "type": "uint256"
        },
        {
          "internalType": "address",
          "name": "ceo",
          "type": "address"
        },
        {
          "internalType": "address",
          "name": "coo",
          "type": "address"
        },
        {
          "internalType": "address",
          "name": "cfo",
          "type": "address"
        },
        {
          "internalType": "address",
          "name": "inv1",
          "type": "address"
        },
        {
          "internalType": "address",
          "name": "inv2",
          "type": "address"
        }
      ],
      "stateMutability": "nonpayable",
      "type": "constructor"
    },
    {
      "anonymous": false,
      "inputs": [
        {
          "indexed": false,
          "internalType": "address",
          "name": "kitOwner",
          "type": "address"
        },
        {
          "indexed": false,
          "internalType": "uint8",
          "name": "kitId",
          "type": "uint8"
        },
        {
          "indexed": false,
          "internalType": "uint8",
          "name": "_amount",
          "type": "uint8"
        }
      ],
      "name": "BuyKit",
      "type": "event"
    },
    {
      "inputs": [
        {
          "internalType": "uint256",
          "name": "",
          "type": "uint256"
        }
      ],
      "name": "Kits",
      "outputs": [
        {
          "internalType": "uint256",
          "name": "price",
          "type": "uint256"
        },
        {
          "internalType": "uint256",
          "name": "supply",
          "type": "uint256"
        }
      ],
      "stateMutability": "view",
      "type": "function"
    },
    {
      "inputs": [],
      "name": "MAX_ITEMS_BY_USER",
      "outputs": [
        {
          "internalType": "uint256",
          "name": "",
          "type": "uint256"
        }
      ],
      "stateMutability": "view",
      "type": "function"
    },
    {
      "inputs": [
        {
          "internalType": "uint8",
          "name": "",
          "type": "uint8"
        },
        {
          "internalType": "address",
          "name": "",
          "type": "address"
        }
      ],
      "name": "Ownerkits",
      "outputs": [
        {
          "internalType": "uint8",
          "name": "",
          "type": "uint8"
        }
      ],
      "stateMutability": "view",
      "type": "function"
    },
    {
      "inputs": [],
      "name": "PRESALE_END_TIMESTAMP",
      "outputs": [
        {
          "internalType": "uint256",
          "name": "",
          "type": "uint256"
        }
      ],
      "stateMutability": "view",
      "type": "function"
    },
    {
      "inputs": [],
      "name": "PRESALE_START_TIMESTAMP",
      "outputs": [
        {
          "internalType": "uint256",
          "name": "",
          "type": "uint256"
        }
      ],
      "stateMutability": "view",
      "type": "function"
    },
    {
      "inputs": [],
      "name": "getCEO",
      "outputs": [
        {
          "internalType": "address",
          "name": "",
          "type": "address"
        }
      ],
      "stateMutability": "view",
      "type": "function"
    },
    {
      "inputs": [],
      "name": "getCFO",
      "outputs": [
        {
          "internalType": "address",
          "name": "",
          "type": "address"
        }
      ],
      "stateMutability": "view",
      "type": "function"
    },
    {
      "inputs": [],
      "name": "getCOO",
      "outputs": [
        {
          "internalType": "address",
          "name": "",
          "type": "address"
        }
      ],
      "stateMutability": "view",
      "type": "function"
    },
    {
      "inputs": [],
      "name": "getCTO",
      "outputs": [
        {
          "internalType": "address",
          "name": "",
          "type": "address"
        }
      ],
      "stateMutability": "view",
      "type": "function"
    },
    {
      "inputs": [],
      "name": "getEndTimestamp",
      "outputs": [
        {
          "internalType": "uint256",
          "name": "",
          "type": "uint256"
        }
      ],
      "stateMutability": "view",
      "type": "function"
    },
    {
      "inputs": [],
      "name": "getINV1",
      "outputs": [
        {
          "internalType": "address",
          "name": "",
          "type": "address"
        }
      ],
      "stateMutability": "view",
      "type": "function"
    },
    {
      "inputs": [],
      "name": "getINV2",
      "outputs": [
        {
          "internalType": "address",
          "name": "",
          "type": "address"
        }
      ],
      "stateMutability": "view",
      "type": "function"
    },
    {
      "inputs": [],
      "name": "getStartTimestamp",
      "outputs": [
        {
          "internalType": "uint256",
          "name": "",
          "type": "uint256"
        }
      ],
      "stateMutability": "view",
      "type": "function"
    },
    {
      "inputs": [
        {
          "internalType": "address",
          "name": "destination",
          "type": "address"
        }
      ],
      "name": "payContract",
      "outputs": [],
      "stateMutability": "nonpayable",
      "type": "function"
    },
    {
      "inputs": [
        {
          "internalType": "uint8",
          "name": "kitId",
          "type": "uint8"
        },
        {
          "internalType": "uint8",
          "name": "_amount",
          "type": "uint8"
        }
      ],
      "name": "buyItem",
      "outputs": [],
      "stateMutability": "payable",
      "type": "function"
    },
    {
      "inputs": [
        {
          "internalType": "uint256",
          "name": "kitId",
          "type": "uint256"
        }
      ],
      "name": "getKitPrice",
      "outputs": [
        {
          "internalType": "uint256",
          "name": "",
          "type": "uint256"
        }
      ],
      "stateMutability": "view",
      "type": "function"
    },
    {
      "inputs": [
        {
          "internalType": "uint8",
          "name": "kitId",
          "type": "uint8"
        }
      ],
      "name": "getSupply",
      "outputs": [
        {
          "internalType": "uint256",
          "name": "c",
          "type": "uint256"
        }
      ],
      "stateMutability": "view",
      "type": "function"
    },
    {
      "inputs": [
        {
          "internalType": "uint8",
          "name": "kitId",
          "type": "uint8"
        },
        {
          "internalType": "address",
          "name": "user",
          "type": "address"
        }
      ],
      "name": "getOwnerkit",
      "outputs": [
        {
          "internalType": "uint256",
          "name": "",
          "type": "uint256"
        }
      ],
      "stateMutability": "view",
      "type": "function"
    }
  ],
  "bytecode": "0x60806040523480156200001157600080fd5b50604051620022c2380380620022c2833981810160405281019062000037919062000535565b86868686868686856006819055508660078190555033600160006101000a81548173ffffffffffffffffffffffffffffffffffffffff021916908373ffffffffffffffffffffffffffffffffffffffff160217905550846000806101000a81548173ffffffffffffffffffffffffffffffffffffffff021916908373ffffffffffffffffffffffffffffffffffffffff16021790555083600260006101000a81548173ffffffffffffffffffffffffffffffffffffffff021916908373ffffffffffffffffffffffffffffffffffffffff16021790555082600360006101000a81548173ffffffffffffffffffffffffffffffffffffffff021916908373ffffffffffffffffffffffffffffffffffffffff16021790555081600460006101000a81548173ffffffffffffffffffffffffffffffffffffffff021916908373ffffffffffffffffffffffffffffffffffffffff16021790555080600560006101000a81548173ffffffffffffffffffffffffffffffffffffffff021916908373ffffffffffffffffffffffffffffffffffffffff16021790555050505050505050604051806040016040528067016345785d8a00008152602001601e815250600960008060ff1681526020019081526020016000206000820151816000015560208201518160010155905050604051806040016040528067024a32a033f080008152602001601e81525060096000600460ff168152602001908152602001600020600082015181600001556020820151816001015590505060405180604001604052806703782dace9d900008152602001601e81525060096000600260ff16815260200190815260200160002060008201518160000155602082015181600101559050506040518060400160405280671e40ea732a5a00008152602001601e81525060096000600660ff1681526020019081526020016000206000820151816000015560208201518160010155905050604051806040016040528067016345785d8a00008152602001601e81525060096000600860ff1681526020019081526020016000206000820151816000015560208201518160010155905050604051806040016040528067016345785d8a00008152602001601e81525060096000600a60ff1681526020019081526020016000206000820151816000015560208201518160010155905050604051806040016040528067016345785d8a00008152602001601e81525060096000600e60ff1681526020019081526020016000206000820151816000015560208201518160010155905050604051806040016040528067016345785d8a00008152602001601e81525060096000600c60ff1681526020019081526020016000206000820151816000015560208201518160010155905050604051806040016040528067016345785d8a00008152602001601e81525060096000601060ff168152602001908152602001600020600082015181600001556020820151816001015590505050505050505050620005e8565b600080fd5b6000819050919050565b620004aa8162000495565b8114620004b657600080fd5b50565b600081519050620004ca816200049f565b92915050565b600073ffffffffffffffffffffffffffffffffffffffff82169050919050565b6000620004fd82620004d0565b9050919050565b6200050f81620004f0565b81146200051b57600080fd5b50565b6000815190506200052f8162000504565b92915050565b600080600080600080600060e0888a03121562000557576200055662000490565b5b6000620005678a828b01620004b9565b97505060206200057a8a828b01620004b9565b96505060406200058d8a828b016200051e565b9550506060620005a08a828b016200051e565b9450506080620005b38a828b016200051e565b93505060a0620005c68a828b016200051e565b92505060c0620005d98a828b016200051e565b91505092959891949750929550565b611cca80620005f86000396000f3fe6080604052600436106101095760003560e01c8063c0820b1711610095578063cb7501d911610064578063cb7501d914610365578063d451f971146103a2578063dbd6de48146103df578063e5338dc814610408578063fc5fd6e41461043357610109565b8063c0820b17146102b6578063c0ff4579146102e1578063c6caab101461031e578063c8b0e68d1461033a57610109565b80636d511e58116100dc5780636d511e58146101cd57806374e94deb1461020a5780637b936ac2146102355780638b854a411461026057806399110d3c1461028b57610109565b80631f89f25e1461010e5780632fc180e7146101395780633cb8ca0614610177578063433fac85146101a2575b600080fd5b34801561011a57600080fd5b5061012361045e565b6040516101309190611619565b60405180910390f35b34801561014557600080fd5b50610160600480360381019061015b9190611665565b610468565b60405161016e929190611692565b60405180910390f35b34801561018357600080fd5b5061018c61048c565b6040516101999190611619565b60405180910390f35b3480156101ae57600080fd5b506101b7610492565b6040516101c491906116fc565b60405180910390f35b3480156101d957600080fd5b506101f460048036038101906101ef9190611750565b6104bc565b6040516102019190611619565b60405180910390f35b34801561021657600080fd5b5061021f6104df565b60405161022c9190611619565b60405180910390f35b34801561024157600080fd5b5061024a6104e9565b60405161025791906116fc565b60405180910390f35b34801561026c57600080fd5b50610275610513565b6040516102829190611619565b60405180910390f35b34801561029757600080fd5b506102a0610518565b6040516102ad9190611619565b60405180910390f35b3480156102c257600080fd5b506102cb61051e565b6040516102d891906116fc565b60405180910390f35b3480156102ed57600080fd5b50610308600480360381019061030391906117a9565b610548565b6040516103159190611619565b60405180910390f35b610338600480360381019061033391906117e9565b6105b9565b005b34801561034657600080fd5b5061034f610912565b60405161035c91906116fc565b60405180910390f35b34801561037157600080fd5b5061038c60048036038101906103879190611665565b61093b565b6040516103999190611619565b60405180910390f35b3480156103ae57600080fd5b506103c960048036038101906103c491906117a9565b61095b565b6040516103d69190611838565b60405180910390f35b3480156103eb57600080fd5b5061040660048036038101906104019190611853565b61098a565b005b34801561041457600080fd5b5061041d610cee565b60405161042a91906116fc565b60405180910390f35b34801561043f57600080fd5b50610448610d18565b60405161045591906116fc565b60405180910390f35b6000600754905090565b60096020528060005260406000206000915090508060000154908060010154905082565b60075481565b6000600160009054906101000a900473ffffffffffffffffffffffffffffffffffffffff16905090565b6000600960008360ff168152602001908152602001600020600101549050919050565b6000600654905090565b6000600360009054906101000a900473ffffffffffffffffffffffffffffffffffffffff16905090565b600581565b60065481565b6000600460009054906101000a900473ffffffffffffffffffffffffffffffffffffffff16905090565b6000600a60008460ff1660ff16815260200190815260200160002060008373ffffffffffffffffffffffffffffffffffffffff1673ffffffffffffffffffffffffffffffffffffffff16815260200190815260200160002060009054906101000a900460ff1660ff16905092915050565b6000429050600654811080156105d157506007548110155b610610576040517f08c379a0000000000000000000000000000000000000000000000000000000008152600401610607906118dd565b60405180910390fd5b8160ff16600960008560ff168152602001908152602001600020600101541161066e576040517f08c379a00000000000000000000000000000000000000000000000000000000081526004016106659061196f565b60405180910390fd5b60003490506000600960008660ff1681526020019081526020016000206000015490508360ff16816106a091906119be565b8210156106e2576040517f08c379a00000000000000000000000000000000000000000000000000000000081526004016106d990611a64565b60405180910390fd5b6000600a60008760ff1660ff16815260200190815260200160002060003373ffffffffffffffffffffffffffffffffffffffff1673ffffffffffffffffffffffffffffffffffffffff16815260200190815260200160002060009054906101000a900460ff1660ff169050600081600561075c9190611a84565b9050808660ff1611156107a4576040517f08c379a000000000000000000000000000000000000000000000000000000000815260040161079b90611b04565b60405180910390fd5b8560ff16836107b391906119be565b846107be9190611a84565b93506000841115610811573373ffffffffffffffffffffffffffffffffffffffff166108fc859081150290604051600060405180830381858888f1935050505015801561080f573d6000803e3d6000fd5b505b8560ff16600960008960ff168152602001908152602001600020600101600082825461083d9190611a84565b9250508190555085600a60008960ff1660ff16815260200190815260200160002060003373ffffffffffffffffffffffffffffffffffffffff1673ffffffffffffffffffffffffffffffffffffffff16815260200190815260200160002060008282829054906101000a900460ff166108b69190611b24565b92506101000a81548160ff021916908360ff1602179055507f16702d2fe3ff7fdd66336fcf65d2dfd560b60b8180a0b7b0513318a12ab7430833888860405161090193929190611b5b565b60405180910390a150505050505050565b60008060009054906101000a900473ffffffffffffffffffffffffffffffffffffffff16905090565b600060096000838152602001908152602001600020600001549050919050565b600a6020528160005260406000206020528060005260406000206000915091509054906101000a900460ff1681565b60008054906101000a900473ffffffffffffffffffffffffffffffffffffffff1673ffffffffffffffffffffffffffffffffffffffff163373ffffffffffffffffffffffffffffffffffffffff161480610a315750600160009054906101000a900473ffffffffffffffffffffffffffffffffffffffff1673ffffffffffffffffffffffffffffffffffffffff163373ffffffffffffffffffffffffffffffffffffffff16145b80610a895750600260009054906101000a900473ffffffffffffffffffffffffffffffffffffffff1673ffffffffffffffffffffffffffffffffffffffff163373ffffffffffffffffffffffffffffffffffffffff16145b80610ae15750600360009054906101000a900473ffffffffffffffffffffffffffffffffffffffff1673ffffffffffffffffffffffffffffffffffffffff163373ffffffffffffffffffffffffffffffffffffffff16145b80610b395750600460009054906101000a900473ffffffffffffffffffffffffffffffffffffffff1673ffffffffffffffffffffffffffffffffffffffff163373ffffffffffffffffffffffffffffffffffffffff16145b80610b915750600560009054906101000a900473ffffffffffffffffffffffffffffffffffffffff1673ffffffffffffffffffffffffffffffffffffffff163373ffffffffffffffffffffffffffffffffffffffff16145b610bd0576040517f08c379a0000000000000000000000000000000000000000000000000000000008152600401610bc790611bde565b60405180910390fd5b600073ffffffffffffffffffffffffffffffffffffffff168173ffffffffffffffffffffffffffffffffffffffff1614158015610c3957503073ffffffffffffffffffffffffffffffffffffffff168173ffffffffffffffffffffffffffffffffffffffff1614155b610c78576040517f08c379a0000000000000000000000000000000000000000000000000000000008152600401610c6f90611c4a565b60405180910390fd5b610c8181610d42565b6000610c8c82611188565b905060048160ff1610610cea578173ffffffffffffffffffffffffffffffffffffffff166108fc479081150290604051600060405180830381858888f19350505050158015610cdf573d6000803e3d6000fd5b50610ce982611411565b5b5050565b6000600560009054906101000a900473ffffffffffffffffffffffffffffffffffffffff16905090565b6000600260009054906101000a900473ffffffffffffffffffffffffffffffffffffffff16905090565b600260009054906101000a900473ffffffffffffffffffffffffffffffffffffffff1673ffffffffffffffffffffffffffffffffffffffff163373ffffffffffffffffffffffffffffffffffffffff161415610df8576001600860008373ffffffffffffffffffffffffffffffffffffffff1673ffffffffffffffffffffffffffffffffffffffff16815260200190815260200160002060000160026101000a81548160ff021916908315150217905550611185565b60008054906101000a900473ffffffffffffffffffffffffffffffffffffffff1673ffffffffffffffffffffffffffffffffffffffff163373ffffffffffffffffffffffffffffffffffffffff161415610eac576001600860008373ffffffffffffffffffffffffffffffffffffffff1673ffffffffffffffffffffffffffffffffffffffff16815260200190815260200160002060000160006101000a81548160ff021916908315150217905550611184565b600160009054906101000a900473ffffffffffffffffffffffffffffffffffffffff1673ffffffffffffffffffffffffffffffffffffffff163373ffffffffffffffffffffffffffffffffffffffff161415610f62576001600860008373ffffffffffffffffffffffffffffffffffffffff1673ffffffffffffffffffffffffffffffffffffffff16815260200190815260200160002060000160016101000a81548160ff021916908315150217905550611183565b600360009054906101000a900473ffffffffffffffffffffffffffffffffffffffff1673ffffffffffffffffffffffffffffffffffffffff163373ffffffffffffffffffffffffffffffffffffffff161415611018576001600860008373ffffffffffffffffffffffffffffffffffffffff1673ffffffffffffffffffffffffffffffffffffffff16815260200190815260200160002060000160036101000a81548160ff021916908315150217905550611182565b600460009054906101000a900473ffffffffffffffffffffffffffffffffffffffff1673ffffffffffffffffffffffffffffffffffffffff163373ffffffffffffffffffffffffffffffffffffffff1614156110ce576001600860008373ffffffffffffffffffffffffffffffffffffffff1673ffffffffffffffffffffffffffffffffffffffff16815260200190815260200160002060000160046101000a81548160ff021916908315150217905550611181565b600560009054906101000a900473ffffffffffffffffffffffffffffffffffffffff1673ffffffffffffffffffffffffffffffffffffffff163373ffffffffffffffffffffffffffffffffffffffff161415611180576001600860008373ffffffffffffffffffffffffffffffffffffffff1673ffffffffffffffffffffffffffffffffffffffff16815260200190815260200160002060000160056101000a81548160ff0219169083151502179055505b5b5b5b5b5b50565b600060011515600860008473ffffffffffffffffffffffffffffffffffffffff1673ffffffffffffffffffffffffffffffffffffffff16815260200190815260200160002060000160009054906101000a900460ff16151514156111f55780806111f190611c6a565b9150505b60011515600860008473ffffffffffffffffffffffffffffffffffffffff1673ffffffffffffffffffffffffffffffffffffffff16815260200190815260200160002060000160029054906101000a900460ff161515141561126057808061125c90611c6a565b9150505b60011515600860008473ffffffffffffffffffffffffffffffffffffffff1673ffffffffffffffffffffffffffffffffffffffff16815260200190815260200160002060000160019054906101000a900460ff16151514156112cb5780806112c790611c6a565b9150505b60011515600860008473ffffffffffffffffffffffffffffffffffffffff1673ffffffffffffffffffffffffffffffffffffffff16815260200190815260200160002060000160039054906101000a900460ff161515141561133657808061133290611c6a565b9150505b60011515600860008473ffffffffffffffffffffffffffffffffffffffff1673ffffffffffffffffffffffffffffffffffffffff16815260200190815260200160002060000160049054906101000a900460ff16151514156113a157808061139d90611c6a565b9150505b60011515600860008473ffffffffffffffffffffffffffffffffffffffff1673ffffffffffffffffffffffffffffffffffffffff16815260200190815260200160002060000160059054906101000a900460ff161515141561140c57808061140890611c6a565b9150505b919050565b600860008273ffffffffffffffffffffffffffffffffffffffff1673ffffffffffffffffffffffffffffffffffffffff16815260200190815260200160002060000160006101000a81549060ff0219169055600860008273ffffffffffffffffffffffffffffffffffffffff1673ffffffffffffffffffffffffffffffffffffffff16815260200190815260200160002060000160026101000a81549060ff0219169055600860008273ffffffffffffffffffffffffffffffffffffffff1673ffffffffffffffffffffffffffffffffffffffff16815260200190815260200160002060000160016101000a81549060ff0219169055600860008273ffffffffffffffffffffffffffffffffffffffff1673ffffffffffffffffffffffffffffffffffffffff16815260200190815260200160002060000160036101000a81549060ff0219169055600860008273ffffffffffffffffffffffffffffffffffffffff1673ffffffffffffffffffffffffffffffffffffffff16815260200190815260200160002060000160046101000a81549060ff0219169055600860008273ffffffffffffffffffffffffffffffffffffffff1673ffffffffffffffffffffffffffffffffffffffff16815260200190815260200160002060000160056101000a81549060ff021916905550565b6000819050919050565b61161381611600565b82525050565b600060208201905061162e600083018461160a565b92915050565b600080fd5b61164281611600565b811461164d57600080fd5b50565b60008135905061165f81611639565b92915050565b60006020828403121561167b5761167a611634565b5b600061168984828501611650565b91505092915050565b60006040820190506116a7600083018561160a565b6116b4602083018461160a565b9392505050565b600073ffffffffffffffffffffffffffffffffffffffff82169050919050565b60006116e6826116bb565b9050919050565b6116f6816116db565b82525050565b600060208201905061171160008301846116ed565b92915050565b600060ff82169050919050565b61172d81611717565b811461173857600080fd5b50565b60008135905061174a81611724565b92915050565b60006020828403121561176657611765611634565b5b60006117748482850161173b565b91505092915050565b611786816116db565b811461179157600080fd5b50565b6000813590506117a38161177d565b92915050565b600080604083850312156117c0576117bf611634565b5b60006117ce8582860161173b565b92505060206117df85828601611794565b9150509250929050565b60008060408385031215611800576117ff611634565b5b600061180e8582860161173b565b925050602061181f8582860161173b565b9150509250929050565b61183281611717565b82525050565b600060208201905061184d6000830184611829565b92915050565b60006020828403121561186957611868611634565b5b600061187784828501611794565b91505092915050565b600082825260208201905092915050565b7f70726573616c65206973206e6f7420696e70726f677265737300000000000000600082015250565b60006118c7601983611880565b91506118d282611891565b602082019050919050565b600060208201905081810360008301526118f6816118ba565b9050919050565b7f746865205f616d6f756e74206d757374206e6f7420626520677265617465722060008201527f7468616e2074686520737570706c790000000000000000000000000000000000602082015250565b6000611959602f83611880565b9150611964826118fd565b604082019050919050565b600060208201905081810360008301526119888161194c565b9050919050565b7f4e487b7100000000000000000000000000000000000000000000000000000000600052601160045260246000fd5b60006119c982611600565b91506119d483611600565b9250817fffffffffffffffffffffffffffffffffffffffffffffffffffffffffffffffff0483118215151615611a0d57611a0c61198f565b5b828202905092915050565b7f6e6f20656e6f75676874206d6f6e65792073656e646564000000000000000000600082015250565b6000611a4e601783611880565b9150611a5982611a18565b602082019050919050565b60006020820190508181036000830152611a7d81611a41565b9050919050565b6000611a8f82611600565b9150611a9a83611600565b925082821015611aad57611aac61198f565b5b828203905092915050565b7f6e6f7420656e6f756768742072656d61696e696e67206974656d730000000000600082015250565b6000611aee601b83611880565b9150611af982611ab8565b602082019050919050565b60006020820190508181036000830152611b1d81611ae1565b9050919050565b6000611b2f82611717565b9150611b3a83611717565b92508260ff03821115611b5057611b4f61198f565b5b828201905092915050565b6000606082019050611b7060008301866116ed565b611b7d6020830185611829565b611b8a6040830184611829565b949350505050565b7f6e6f7420656e6f75676874207065726d697373696f6e73000000000000000000600082015250565b6000611bc8601783611880565b9150611bd382611b92565b602082019050919050565b60006020820190508181036000830152611bf781611bbb565b9050919050565b7f496e76616c69642077616c6c6574000000000000000000000000000000000000600082015250565b6000611c34600e83611880565b9150611c3f82611bfe565b602082019050919050565b60006020820190508181036000830152611c6381611c27565b9050919050565b6000611c7582611717565b915060ff821415611c8957611c8861198f565b5b60018201905091905056fea264697066735822122028a6cf0086ea8e93f96093c8ae4589ee75fd3493297933f5339bdc0173f7a9b964736f6c63430008090033",
  "immutableReferences": {},
  "source": "// SPDX-License-Identifier: MIT\r\npragma solidity ^0.8.9;\r\n\r\n\r\nimport \"./Presale.sol\";\r\n\r\n/**\r\n * @title Eterland presale\r\n * @dev This contract will handle first eterland presale \r\n */\r\ncontract EterlandPresale is Presale {\r\n\t/**\r\n     * @dev Represent the keys for items in the presale\r\n     */\r\n    uint8 internal constant COMMON_KIT = 0;\r\n    uint8 internal constant RARE_KIT = 2;\r\n    uint8 internal constant UNCOMMON_KIT = 4;\r\n    uint8 internal constant UNKNOWN_DEPOSIT = 6;\r\n    uint8 internal constant LOST_MAP = 8;\r\n    uint8 internal constant GOLDEN_MAP_CHEST = 10;\r\n    uint8 internal constant WOOD_MAP_CHEST = 12;\r\n    uint8 internal constant GOLDEN_DEPOSIT_CHEST = 14;\r\n    uint8 internal constant DEPOSIT_WOOD_CHEST = 16;\r\n\r\n    struct Kit {\r\n        uint256 price;\r\n        uint256 supply;\r\n    }\r\n\r\n\t/**\r\n     * @dev Stores item price and supply\r\n     */\r\n    mapping(uint256 => Kit) public Kits;\r\n\r\n\t/**\r\n     * @dev Stores owner for the items\r\n     */\r\n    mapping(uint8 => mapping(address => uint8)) public Ownerkits;\r\n\r\n\t/**\r\n     * @dev Represent max items of same type for every address\r\n     */\r\n    uint256 public constant MAX_ITEMS_BY_USER = 5;\r\n\r\n\t/**\r\n     * @dev Event fired when a item is sold\r\n     */\r\n    event BuyKit(address kitOwner, uint8 kitId, uint8 _amount); \r\n\r\n\t\r\n\t/**\r\n     * @dev Set team members, kit prices,supply and presale date\r\n     */\r\n    constructor(uint256 presaleStart , uint256 presaleEnd, address ceo, address coo,address cfo,address inv1,address inv2) \r\n    Presale(presaleStart,presaleEnd,ceo,coo,cfo,inv1,inv2) {\r\n        \r\n\t\t/** only test purposes,in the mainet prices and supply may be different**/\r\n        Kits[COMMON_KIT] = Kit(100000000000000000, 30);\r\n        Kits[UNCOMMON_KIT] = Kit(165000000000000000, 30);\r\n        Kits[RARE_KIT] = Kit(250000000000000000, 30);\r\n        Kits[UNKNOWN_DEPOSIT] = Kit(2180000000000000000, 30);\r\n        Kits[LOST_MAP] = Kit(100000000000000000, 30);\r\n        Kits[GOLDEN_MAP_CHEST] = Kit(100000000000000000, 30);\r\n        Kits[GOLDEN_DEPOSIT_CHEST] = Kit(100000000000000000, 30);\r\n        Kits[WOOD_MAP_CHEST] = Kit(100000000000000000, 30);\r\n        Kits[DEPOSIT_WOOD_CHEST] = Kit(100000000000000000, 30);\r\n    }\r\n\r\n\t/**\r\n     * @dev use this function to buy item from the presale\r\n     */\r\n    function buyItem(uint8 kitId, uint8 _amount) public presaleInProgress payable {\r\n        require(Kits[kitId].supply > _amount, \"the _amount must not be greater than the supply\");\r\n        uint256 value = msg.value;\r\n        uint256 kitPrice = Kits[kitId].price;\r\n        require(value >= kitPrice * _amount, \"no enought money sended\");\r\n        uint256 itemsWithUser = Ownerkits[kitId][msg.sender];\r\n\r\n        uint256 remainingItems = MAX_ITEMS_BY_USER - itemsWithUser;\r\n\r\n\r\n        require(_amount <= remainingItems ,\"not enought remaining items\");\r\n\r\n        value -= kitPrice * _amount;\r\n\r\n        if (value > 0) {\r\n\r\n            payable(msg.sender).transfer(value);\r\n\t\t\t\r\n        }\r\n\r\n        Kits[kitId].supply -= _amount;\r\n        Ownerkits[kitId][msg.sender] += _amount;\r\n\r\n        emit BuyKit(msg.sender, kitId, _amount);\r\n    }\r\n\t/**\r\n     * @dev getter for kit price\r\n     */\r\n    function getKitPrice(uint256 kitId) external view returns (uint256) {\r\n        return Kits[kitId].price;\r\n    }\r\n\t/**\r\n     * @dev getter for remaining kit supply\r\n     */\r\n    function getSupply(uint8 kitId) external view returns (uint256 c) {\r\n\t\tc = Kits[kitId].supply;\r\n    }\r\n\r\n\t/**\r\n     * @dev get count of kits that the address owns\r\n     */\r\n    function getOwnerkit(uint8 kitId, address user)\r\n        external\r\n        view\r\n        returns (uint256)\r\n    {\r\n        return Ownerkits[kitId][user];\r\n    }\r\n}\r\n",
  "sourcePath": "C:\\Users\\Crisla\\Documents\\Repos\\repos\\eterland-public-smart-contracts\\contracts\\EterlandPresale.sol",
  "compiler": {
    "name": "solc",
    "version": "0.8.9+commit.e5eed63a.Emscripten.clang"
  },
  "schemaVersion": "3.4.3",
  "updatedAt": "2021-11-12T13:15:54.077Z",
  "devdoc": {
    "details": "This contract will handle first eterland presale ",
    "events": {
      "BuyKit(address,uint8,uint8)": {
        "details": "Event fired when a item is sold"
      }
    },
    "kind": "dev",
    "methods": {
      "buyItem(uint8,uint8)": {
        "details": "use this function to buy item from the presale"
      },
      "constructor": {
        "details": "Set team members, kit prices,supply and presale date"
      },
      "getEndTimestamp()": {
        "details": "Getter for presale end timestamp"
      },
      "getKitPrice(uint256)": {
        "details": "getter for kit price"
      },
      "getOwnerkit(uint8,address)": {
        "details": "get count of kits that the address owns"
      },
      "getStartTimestamp()": {
        "details": "Getter for presale start timestamp"
      },
      "getSupply(uint8)": {
        "details": "getter for remaining kit supply"
      },
      "payContract(address)": {
        "details": "Update votes count and release coins to the wallet with 4 votes"
      }
    },
    "stateVariables": {
      "COMMON_KIT": {
        "details": "Represent the keys for items in the presale"
      },
      "Kits": {
        "details": "Stores item price and supply"
      },
      "MAX_ITEMS_BY_USER": {
        "details": "Represent max items of same type for every address"
      },
      "Ownerkits": {
        "details": "Stores owner for the items"
      }
    },
    "title": "Eterland presale",
    "version": 1
  },
  "userdoc": {
    "kind": "user",
    "methods": {},
    "version": 1
  }
}