{
  "contractName": "EterlandPresale",
  "abi": [
    {
      "inputs": [
        {
          "internalType": "uint256",
          "name": "maxSupply",
          "type": "uint256"
        },
        {
          "internalType": "uint256",
          "name": "presaleStart",
          "type": "uint256"
        },
        {
          "internalType": "uint256",
          "name": "presaleEnd",
          "type": "uint256"
        },
        {
          "internalType": "address",
          "name": "ceo",
          "type": "address"
        },
        {
          "internalType": "address",
          "name": "coo",
          "type": "address"
        }
      ],
      "stateMutability": "nonpayable",
      "type": "constructor"
    },
    {
      "anonymous": false,
      "inputs": [
        {
          "indexed": false,
          "internalType": "address",
          "name": "kitOwner",
          "type": "address"
        },
        {
          "indexed": false,
          "internalType": "uint8",
          "name": "kitId",
          "type": "uint8"
        },
        {
          "indexed": false,
          "internalType": "uint8",
          "name": "_amount",
          "type": "uint8"
        }
      ],
      "name": "BuyKit",
      "type": "event"
    },
    {
      "inputs": [
        {
          "internalType": "uint256",
          "name": "",
          "type": "uint256"
        }
      ],
      "name": "Kits",
      "outputs": [
        {
          "internalType": "uint256",
          "name": "price",
          "type": "uint256"
        },
        {
          "internalType": "uint256",
          "name": "supply",
          "type": "uint256"
        }
      ],
      "stateMutability": "view",
      "type": "function"
    },
    {
      "inputs": [],
      "name": "MAX_ITEMS_BY_USER",
      "outputs": [
        {
          "internalType": "uint256",
          "name": "",
          "type": "uint256"
        }
      ],
      "stateMutability": "view",
      "type": "function"
    },
    {
      "inputs": [
        {
          "internalType": "uint8",
          "name": "",
          "type": "uint8"
        },
        {
          "internalType": "address",
          "name": "",
          "type": "address"
        }
      ],
      "name": "Ownerkits",
      "outputs": [
        {
          "internalType": "uint8",
          "name": "",
          "type": "uint8"
        }
      ],
      "stateMutability": "view",
      "type": "function"
    },
    {
      "inputs": [],
      "name": "PRESALE_END_TIMESTAMP",
      "outputs": [
        {
          "internalType": "uint256",
          "name": "",
          "type": "uint256"
        }
      ],
      "stateMutability": "view",
      "type": "function"
    },
    {
      "inputs": [],
      "name": "PRESALE_START_TIMESTAMP",
      "outputs": [
        {
          "internalType": "uint256",
          "name": "",
          "type": "uint256"
        }
      ],
      "stateMutability": "view",
      "type": "function"
    },
    {
      "inputs": [],
      "name": "getCEO",
      "outputs": [
        {
          "internalType": "address",
          "name": "",
          "type": "address"
        }
      ],
      "stateMutability": "view",
      "type": "function"
    },
    {
      "inputs": [],
      "name": "getCOO",
      "outputs": [
        {
          "internalType": "address",
          "name": "",
          "type": "address"
        }
      ],
      "stateMutability": "view",
      "type": "function"
    },
    {
      "inputs": [],
      "name": "getCTO",
      "outputs": [
        {
          "internalType": "address",
          "name": "",
          "type": "address"
        }
      ],
      "stateMutability": "view",
      "type": "function"
    },
    {
      "inputs": [],
      "name": "getEndTimestamp",
      "outputs": [
        {
          "internalType": "uint256",
          "name": "",
          "type": "uint256"
        }
      ],
      "stateMutability": "view",
      "type": "function"
    },
    {
      "inputs": [],
      "name": "getStartTimestamp",
      "outputs": [
        {
          "internalType": "uint256",
          "name": "",
          "type": "uint256"
        }
      ],
      "stateMutability": "view",
      "type": "function"
    },
    {
      "inputs": [
        {
          "internalType": "address",
          "name": "destination",
          "type": "address"
        }
      ],
      "name": "payContract",
      "outputs": [],
      "stateMutability": "nonpayable",
      "type": "function"
    },
    {
      "inputs": [
        {
          "internalType": "uint8",
          "name": "kitId",
          "type": "uint8"
        },
        {
          "internalType": "uint8",
          "name": "_amount",
          "type": "uint8"
        }
      ],
      "name": "buyItem",
      "outputs": [],
      "stateMutability": "payable",
      "type": "function"
    },
    {
      "inputs": [
        {
          "internalType": "uint256",
          "name": "kitId",
          "type": "uint256"
        }
      ],
      "name": "getKitPrice",
      "outputs": [
        {
          "internalType": "uint256",
          "name": "",
          "type": "uint256"
        }
      ],
      "stateMutability": "view",
      "type": "function"
    },
    {
      "inputs": [
        {
          "internalType": "uint8",
          "name": "kitId",
          "type": "uint8"
        }
      ],
      "name": "getSupply",
      "outputs": [
        {
          "internalType": "uint256",
          "name": "c",
          "type": "uint256"
        }
      ],
      "stateMutability": "view",
      "type": "function"
    },
    {
      "inputs": [
        {
          "internalType": "uint8",
          "name": "kitId",
          "type": "uint8"
        },
        {
          "internalType": "address",
          "name": "user",
          "type": "address"
        }
      ],
      "name": "getOwnerkit",
      "outputs": [
        {
          "internalType": "uint256",
          "name": "",
          "type": "uint256"
        }
      ],
      "stateMutability": "view",
      "type": "function"
    },
    {
      "inputs": [],
      "name": "getBalance",
      "outputs": [
        {
          "internalType": "uint256",
          "name": "",
          "type": "uint256"
        }
      ],
      "stateMutability": "view",
      "type": "function"
    }
  ],
  "bytecode": "0x60806040526361a6204b60035563619292106004553480156200002157600080fd5b506040516200197738038062001977833981810160405281019062000047919062000471565b83838383826003819055508360048190555033600160006101000a81548173ffffffffffffffffffffffffffffffffffffffff021916908373ffffffffffffffffffffffffffffffffffffffff160217905550816000806101000a81548173ffffffffffffffffffffffffffffffffffffffff021916908373ffffffffffffffffffffffffffffffffffffffff16021790555080600260006101000a81548173ffffffffffffffffffffffffffffffffffffffff021916908373ffffffffffffffffffffffffffffffffffffffff16021790555050505050604051806040016040528067016345785d8a0000815260200186815250600660008060ff1681526020019081526020016000206000820151816000015560208201518160010155905050604051806040016040528067024a32a033f0800081526020018681525060066000600460ff168152602001908152602001600020600082015181600001556020820151816001015590505060405180604001604052806703782dace9d9000081526020018681525060066000600260ff16815260200190815260200160002060008201518160000155602082015181600101559050506040518060400160405280671e40ea732a5a000081526020018681525060066000600660ff1681526020019081526020016000206000820151816000015560208201518160010155905050604051806040016040528067016345785d8a000081526020018681525060066000600860ff1681526020019081526020016000206000820151816000015560208201518160010155905050604051806040016040528067016345785d8a000081526020018681525060066000600a60ff1681526020019081526020016000206000820151816000015560208201518160010155905050604051806040016040528067016345785d8a000081526020018681525060066000600e60ff1681526020019081526020016000206000820151816000015560208201518160010155905050604051806040016040528067016345785d8a000081526020018681525060066000600c60ff1681526020019081526020016000206000820151816000015560208201518160010155905050604051806040016040528067016345785d8a000081526020018681525060066000601060ff16815260200190815260200160002060008201518160000155602082015181600101559050505050505050620004f9565b600080fd5b6000819050919050565b620003e681620003d1565b8114620003f257600080fd5b50565b6000815190506200040681620003db565b92915050565b600073ffffffffffffffffffffffffffffffffffffffff82169050919050565b600062000439826200040c565b9050919050565b6200044b816200042c565b81146200045757600080fd5b50565b6000815190506200046b8162000440565b92915050565b600080600080600060a0868803121562000490576200048f620003cc565b5b6000620004a088828901620003f5565b9550506020620004b388828901620003f5565b9450506040620004c688828901620003f5565b9350506060620004d9888289016200045a565b9250506080620004ec888289016200045a565b9150509295509295909350565b61146e80620005096000396000f3fe6080604052600436106100f35760003560e01c806399110d3c1161008a578063cb7501d911610059578063cb7501d914610324578063d451f97114610361578063dbd6de481461039e578063fc5fd6e4146103c7576100f3565b806399110d3c14610275578063c0ff4579146102a0578063c6caab10146102dd578063c8b0e68d146102f9576100f3565b8063433fac85116100c6578063433fac85146101b75780636d511e58146101e257806374e94deb1461021f5780638b854a411461024a576100f3565b806312065fe0146100f85780631f89f25e146101235780632fc180e71461014e5780633cb8ca061461018c575b600080fd5b34801561010457600080fd5b5061010d6103f2565b60405161011a9190610e29565b60405180910390f35b34801561012f57600080fd5b506101386103fa565b6040516101459190610e29565b60405180910390f35b34801561015a57600080fd5b5061017560048036038101906101709190610e75565b610404565b604051610183929190610ea2565b60405180910390f35b34801561019857600080fd5b506101a1610428565b6040516101ae9190610e29565b60405180910390f35b3480156101c357600080fd5b506101cc61042e565b6040516101d99190610f0c565b60405180910390f35b3480156101ee57600080fd5b5061020960048036038101906102049190610f60565b610458565b6040516102169190610e29565b60405180910390f35b34801561022b57600080fd5b5061023461047b565b6040516102419190610e29565b60405180910390f35b34801561025657600080fd5b5061025f610485565b60405161026c9190610e29565b60405180910390f35b34801561028157600080fd5b5061028a61048a565b6040516102979190610e29565b60405180910390f35b3480156102ac57600080fd5b506102c760048036038101906102c29190610fb9565b610490565b6040516102d49190610e29565b60405180910390f35b6102f760048036038101906102f29190610ff9565b610501565b005b34801561030557600080fd5b5061030e61085a565b60405161031b9190610f0c565b60405180910390f35b34801561033057600080fd5b5061034b60048036038101906103469190610e75565b610883565b6040516103589190610e29565b60405180910390f35b34801561036d57600080fd5b5061038860048036038101906103839190610fb9565b6108a3565b6040516103959190611048565b60405180910390f35b3480156103aa57600080fd5b506103c560048036038101906103c09190611063565b6108d2565b005b3480156103d357600080fd5b506103dc610a7d565b6040516103e99190610f0c565b60405180910390f35b600047905090565b6000600454905090565b60066020528060005260406000206000915090508060000154908060010154905082565b60045481565b6000600160009054906101000a900473ffffffffffffffffffffffffffffffffffffffff16905090565b6000600660008360ff168152602001908152602001600020600101549050919050565b6000600354905090565b600581565b60035481565b6000600760008460ff1660ff16815260200190815260200160002060008373ffffffffffffffffffffffffffffffffffffffff1673ffffffffffffffffffffffffffffffffffffffff16815260200190815260200160002060009054906101000a900460ff1660ff16905092915050565b60004290506003548110801561051957506004548110155b610558576040517f08c379a000000000000000000000000000000000000000000000000000000000815260040161054f906110ed565b60405180910390fd5b8160ff16600660008560ff16815260200190815260200160002060010154116105b6576040517f08c379a00000000000000000000000000000000000000000000000000000000081526004016105ad9061117f565b60405180910390fd5b60003490506000600660008660ff1681526020019081526020016000206000015490508360ff16816105e891906111ce565b82101561062a576040517f08c379a000000000000000000000000000000000000000000000000000000000815260040161062190611274565b60405180910390fd5b6000600760008760ff1660ff16815260200190815260200160002060003373ffffffffffffffffffffffffffffffffffffffff1673ffffffffffffffffffffffffffffffffffffffff16815260200190815260200160002060009054906101000a900460ff1660ff16905060008160056106a49190611294565b9050808660ff1611156106ec576040517f08c379a00000000000000000000000000000000000000000000000000000000081526004016106e390611314565b60405180910390fd5b8560ff16836106fb91906111ce565b846107069190611294565b93506000841115610759573373ffffffffffffffffffffffffffffffffffffffff166108fc859081150290604051600060405180830381858888f19350505050158015610757573d6000803e3d6000fd5b505b8560ff16600660008960ff16815260200190815260200160002060010160008282546107859190611294565b9250508190555085600760008960ff1660ff16815260200190815260200160002060003373ffffffffffffffffffffffffffffffffffffffff1673ffffffffffffffffffffffffffffffffffffffff16815260200190815260200160002060008282829054906101000a900460ff166107fe9190611334565b92506101000a81548160ff021916908360ff1602179055507f16702d2fe3ff7fdd66336fcf65d2dfd560b60b8180a0b7b0513318a12ab743083388886040516108499392919061136b565b60405180910390a150505050505050565b60008060009054906101000a900473ffffffffffffffffffffffffffffffffffffffff16905090565b600060066000838152602001908152602001600020600001549050919050565b60076020528160005260406000206020528060005260406000206000915091509054906101000a900460ff1681565b60008054906101000a900473ffffffffffffffffffffffffffffffffffffffff1673ffffffffffffffffffffffffffffffffffffffff163373ffffffffffffffffffffffffffffffffffffffff1614806109795750600160009054906101000a900473ffffffffffffffffffffffffffffffffffffffff1673ffffffffffffffffffffffffffffffffffffffff163373ffffffffffffffffffffffffffffffffffffffff16145b806109d15750600260009054906101000a900473ffffffffffffffffffffffffffffffffffffffff1673ffffffffffffffffffffffffffffffffffffffff163373ffffffffffffffffffffffffffffffffffffffff16145b610a10576040517f08c379a0000000000000000000000000000000000000000000000000000000008152600401610a07906113ee565b60405180910390fd5b610a1981610aa7565b6000610a2482610cc8565b905060028160ff1610610a79578173ffffffffffffffffffffffffffffffffffffffff166108fc479081150290604051600060405180830381858888f19350505050158015610a77573d6000803e3d6000fd5b505b5050565b6000600260009054906101000a900473ffffffffffffffffffffffffffffffffffffffff16905090565b600260009054906101000a900473ffffffffffffffffffffffffffffffffffffffff1673ffffffffffffffffffffffffffffffffffffffff163373ffffffffffffffffffffffffffffffffffffffff161415610b5d576001600560008373ffffffffffffffffffffffffffffffffffffffff1673ffffffffffffffffffffffffffffffffffffffff16815260200190815260200160002060000160026101000a81548160ff021916908315150217905550610cc5565b60008054906101000a900473ffffffffffffffffffffffffffffffffffffffff1673ffffffffffffffffffffffffffffffffffffffff163373ffffffffffffffffffffffffffffffffffffffff161415610c11576001600560008373ffffffffffffffffffffffffffffffffffffffff1673ffffffffffffffffffffffffffffffffffffffff16815260200190815260200160002060000160006101000a81548160ff021916908315150217905550610cc4565b600160009054906101000a900473ffffffffffffffffffffffffffffffffffffffff1673ffffffffffffffffffffffffffffffffffffffff163373ffffffffffffffffffffffffffffffffffffffff161415610cc3576001600560008373ffffffffffffffffffffffffffffffffffffffff1673ffffffffffffffffffffffffffffffffffffffff16815260200190815260200160002060000160016101000a81548160ff0219169083151502179055505b5b5b50565b600060011515600560008473ffffffffffffffffffffffffffffffffffffffff1673ffffffffffffffffffffffffffffffffffffffff16815260200190815260200160002060000160009054906101000a900460ff1615151415610d35578080610d319061140e565b9150505b60011515600560008473ffffffffffffffffffffffffffffffffffffffff1673ffffffffffffffffffffffffffffffffffffffff16815260200190815260200160002060000160029054906101000a900460ff1615151415610da0578080610d9c9061140e565b9150505b60011515600560008473ffffffffffffffffffffffffffffffffffffffff1673ffffffffffffffffffffffffffffffffffffffff16815260200190815260200160002060000160019054906101000a900460ff1615151415610e0b578080610e079061140e565b9150505b919050565b6000819050919050565b610e2381610e10565b82525050565b6000602082019050610e3e6000830184610e1a565b92915050565b600080fd5b610e5281610e10565b8114610e5d57600080fd5b50565b600081359050610e6f81610e49565b92915050565b600060208284031215610e8b57610e8a610e44565b5b6000610e9984828501610e60565b91505092915050565b6000604082019050610eb76000830185610e1a565b610ec46020830184610e1a565b9392505050565b600073ffffffffffffffffffffffffffffffffffffffff82169050919050565b6000610ef682610ecb565b9050919050565b610f0681610eeb565b82525050565b6000602082019050610f216000830184610efd565b92915050565b600060ff82169050919050565b610f3d81610f27565b8114610f4857600080fd5b50565b600081359050610f5a81610f34565b92915050565b600060208284031215610f7657610f75610e44565b5b6000610f8484828501610f4b565b91505092915050565b610f9681610eeb565b8114610fa157600080fd5b50565b600081359050610fb381610f8d565b92915050565b60008060408385031215610fd057610fcf610e44565b5b6000610fde85828601610f4b565b9250506020610fef85828601610fa4565b9150509250929050565b600080604083850312156110105761100f610e44565b5b600061101e85828601610f4b565b925050602061102f85828601610f4b565b9150509250929050565b61104281610f27565b82525050565b600060208201905061105d6000830184611039565b92915050565b60006020828403121561107957611078610e44565b5b600061108784828501610fa4565b91505092915050565b600082825260208201905092915050565b7f70726573616c65206973206e6f7420696e70726f677265737300000000000000600082015250565b60006110d7601983611090565b91506110e2826110a1565b602082019050919050565b60006020820190508181036000830152611106816110ca565b9050919050565b7f746865207175616e74697479206d757374206e6f74206265206772656174657260008201527f207468616e2074686520737570706c7900000000000000000000000000000000602082015250565b6000611169603083611090565b91506111748261110d565b604082019050919050565b600060208201905081810360008301526111988161115c565b9050919050565b7f4e487b7100000000000000000000000000000000000000000000000000000000600052601160045260246000fd5b60006111d982610e10565b91506111e483610e10565b9250817fffffffffffffffffffffffffffffffffffffffffffffffffffffffffffffffff048311821515161561121d5761121c61119f565b5b828202905092915050565b7f6e6f20656e6f75676874206d6f6e65792073656e646564000000000000000000600082015250565b600061125e601783611090565b915061126982611228565b602082019050919050565b6000602082019050818103600083015261128d81611251565b9050919050565b600061129f82610e10565b91506112aa83610e10565b9250828210156112bd576112bc61119f565b5b828203905092915050565b7f6e6f7420656e6f756768742072656d61696e696e67206974656d730000000000600082015250565b60006112fe601b83611090565b9150611309826112c8565b602082019050919050565b6000602082019050818103600083015261132d816112f1565b9050919050565b600061133f82610f27565b915061134a83610f27565b92508260ff038211156113605761135f61119f565b5b828201905092915050565b60006060820190506113806000830186610efd565b61138d6020830185611039565b61139a6040830184611039565b949350505050565b7f6e6f7420656e6f75676874207065726d697373696f6e73000000000000000000600082015250565b60006113d8601783611090565b91506113e3826113a2565b602082019050919050565b60006020820190508181036000830152611407816113cb565b9050919050565b600061141982610f27565b915060ff82141561142d5761142c61119f565b5b60018201905091905056fea2646970667358221220d86b09092c11fc927502066731c3c8cd86f43d624cc348959240683446377abb64736f6c63430008090033",
  "immutableReferences": {},
  "source": "// SPDX-License-Identifier: MIT\r\npragma solidity ^0.8.0;\r\n\r\n/// @title A title that should describe the contract/interface\r\n\r\n/// @author Cristian Gerani (@cgerabit) and Geferman Pernia (@gefermanpernia)\r\n/// @notice Explain to an end user what this does\r\n/// @dev Explain to a developer any extra details\r\n/// @param _param1 Explain to a developer what this is\r\n/// @param _param2 Explain to a developer what this is\r\n/// @param _param2 Explain to a developer what this is\r\n/// @param _param2 Explain to a developer what this is\r\n/// @param _param2 Explain to a developer what this is\r\nimport \"./abstract/Presale.sol\";\r\n\r\ncontract EterlandPresale is Presale {\r\n    // ITEMS TO BUY IN THE PRESALE\r\n    uint8 internal constant COMMON_KIT = 0;\r\n    uint8 internal constant RARE_KIT = 2;\r\n    uint8 internal constant UNCOMMON_KIT = 4;\r\n    uint8 internal constant UNKNOWN_DEPOSIT = 6;\r\n    uint8 internal constant LOST_MAP = 8;\r\n    uint8 internal constant GOLDEN_MAP_CHEST = 10;\r\n    uint8 internal constant WOOD_MAP_CHEST = 12;\r\n    uint8 internal constant GOLDEN_DEPOSIT_CHEST = 14;\r\n    uint8 internal constant DEPOSIT_WOOD_CHEST = 16;\r\n\r\n    struct Kit {\r\n        uint256 price;\r\n        uint256 supply;\r\n    }\r\n\r\n    mapping(uint256 => Kit) public Kits;\r\n    mapping(uint8 => mapping(address => uint8)) public Ownerkits;\r\n\r\n    uint256 public constant MAX_ITEMS_BY_USER = 5;\r\n\r\n    event BuyKit(address kitOwner, uint8 kitId, uint8 _amount); \r\n\r\n    constructor(uint256 maxSupply, uint256 presaleStart , uint256 presaleEnd, address ceo, address coo) \r\n    Presale(presaleStart,presaleEnd,ceo,coo) {\r\n        \r\n        Kits[COMMON_KIT] = Kit(100000000000000000, maxSupply);\r\n        Kits[UNCOMMON_KIT] = Kit(165000000000000000, maxSupply);\r\n        Kits[RARE_KIT] = Kit(250000000000000000, maxSupply);\r\n        Kits[UNKNOWN_DEPOSIT] = Kit(2180000000000000000, maxSupply);\r\n        Kits[LOST_MAP] = Kit(100000000000000000, maxSupply);\r\n        Kits[GOLDEN_MAP_CHEST] = Kit(100000000000000000, maxSupply);\r\n        Kits[GOLDEN_DEPOSIT_CHEST] = Kit(100000000000000000, maxSupply);\r\n        Kits[WOOD_MAP_CHEST] = Kit(100000000000000000, maxSupply);\r\n        Kits[DEPOSIT_WOOD_CHEST] = Kit(100000000000000000, maxSupply);\r\n    }\r\n\r\n    function buyItem(uint8 kitId, uint8 _amount) public presaleInProgress payable {\r\n\t\t\r\n        require(Kits[kitId].supply > _amount, \"the _amount must not be greater than the supply\");\r\n        uint256 value = msg.value;\r\n        uint256 kitPrice = Kits[kitId].price;\r\n        require(value >= kitPrice * _amount, \"no enought money sended\");\r\n        uint256 itemsWithUser = Ownerkits[kitId][msg.sender];\r\n\r\n        uint256 remainingItems = MAX_ITEMS_BY_USER - itemsWithUser;\r\n\r\n\r\n        require(_amount <= remainingItems ,\"not enought remaining items\");\r\n\r\n        value -= kitPrice * _amount;\r\n\r\n        if (value > 0) {\r\n\r\n            payable(msg.sender).transfer(value);\r\n\t\t\t\r\n        }\r\n\r\n        Kits[kitId].supply -= _amount;\r\n        Ownerkits[kitId][msg.sender] += _amount;\r\n\r\n        emit BuyKit(msg.sender, kitId, _amount);\r\n    }\r\n\r\n    function getKitPrice(uint256 kitId) external view returns (uint256) {\r\n        return Kits[kitId].price;\r\n    }\r\n\r\n    function getSupply(uint8 kitId) external view returns (uint256 c) {\r\n\t\tc = Kits[kitId].supply;\r\n    }\r\n\r\n    function getOwnerkit(uint8 kitId, address user)\r\n        external\r\n        view\r\n        returns (uint256)\r\n    {\r\n        return Ownerkits[kitId][user];\r\n    }\r\n\r\n    function getBalance() public view returns (uint256) {\r\n        return address(this).balance;\r\n    }\r\n}\r\n",
  "sourcePath": "C:\\Users\\Crisla\\Documents\\Repos\\repos\\smart-contracts\\contracts\\EterlandPresale.sol",
  "compiler": {
    "name": "solc",
    "version": "0.8.9+commit.e5eed63a.Emscripten.clang"
  },
  "schemaVersion": "3.4.3",
  "updatedAt": "2021-11-01T21:56:33.235Z",
  "devdoc": {
    "kind": "dev",
    "methods": {},
    "version": 1
  },
  "userdoc": {
    "kind": "user",
    "methods": {},
    "version": 1
  }
}