{
  "contractName": "GameItem",
  "abi": [
    {
      "inputs": [],
      "stateMutability": "nonpayable",
      "type": "constructor"
    },
    {
      "anonymous": false,
      "inputs": [
        {
          "indexed": true,
          "internalType": "address",
          "name": "owner",
          "type": "address"
        },
        {
          "indexed": true,
          "internalType": "address",
          "name": "approved",
          "type": "address"
        },
        {
          "indexed": true,
          "internalType": "uint256",
          "name": "tokenId",
          "type": "uint256"
        }
      ],
      "name": "Approval",
      "type": "event"
    },
    {
      "anonymous": false,
      "inputs": [
        {
          "indexed": true,
          "internalType": "address",
          "name": "owner",
          "type": "address"
        },
        {
          "indexed": true,
          "internalType": "address",
          "name": "operator",
          "type": "address"
        },
        {
          "indexed": false,
          "internalType": "bool",
          "name": "approved",
          "type": "bool"
        }
      ],
      "name": "ApprovalForAll",
      "type": "event"
    },
    {
      "anonymous": false,
      "inputs": [
        {
          "indexed": true,
          "internalType": "address",
          "name": "from",
          "type": "address"
        },
        {
          "indexed": true,
          "internalType": "address",
          "name": "to",
          "type": "address"
        },
        {
          "indexed": true,
          "internalType": "uint256",
          "name": "tokenId",
          "type": "uint256"
        }
      ],
      "name": "Transfer",
      "type": "event"
    },
    {
      "inputs": [
        {
          "internalType": "address",
          "name": "to",
          "type": "address"
        },
        {
          "internalType": "uint256",
          "name": "tokenId",
          "type": "uint256"
        }
      ],
      "name": "approve",
      "outputs": [],
      "stateMutability": "nonpayable",
      "type": "function"
    },
    {
      "inputs": [
        {
          "internalType": "address",
          "name": "owner",
          "type": "address"
        }
      ],
      "name": "balanceOf",
      "outputs": [
        {
          "internalType": "uint256",
          "name": "",
          "type": "uint256"
        }
      ],
      "stateMutability": "view",
      "type": "function"
    },
    {
      "inputs": [
        {
          "internalType": "uint256",
          "name": "tokenId",
          "type": "uint256"
        }
      ],
      "name": "getApproved",
      "outputs": [
        {
          "internalType": "address",
          "name": "",
          "type": "address"
        }
      ],
      "stateMutability": "view",
      "type": "function"
    },
    {
      "inputs": [
        {
          "internalType": "address",
          "name": "owner",
          "type": "address"
        },
        {
          "internalType": "address",
          "name": "operator",
          "type": "address"
        }
      ],
      "name": "isApprovedForAll",
      "outputs": [
        {
          "internalType": "bool",
          "name": "",
          "type": "bool"
        }
      ],
      "stateMutability": "view",
      "type": "function"
    },
    {
      "inputs": [],
      "name": "name",
      "outputs": [
        {
          "internalType": "string",
          "name": "",
          "type": "string"
        }
      ],
      "stateMutability": "view",
      "type": "function"
    },
    {
      "inputs": [
        {
          "internalType": "uint256",
          "name": "tokenId",
          "type": "uint256"
        }
      ],
      "name": "ownerOf",
      "outputs": [
        {
          "internalType": "address",
          "name": "",
          "type": "address"
        }
      ],
      "stateMutability": "view",
      "type": "function"
    },
    {
      "inputs": [
        {
          "internalType": "address",
          "name": "from",
          "type": "address"
        },
        {
          "internalType": "address",
          "name": "to",
          "type": "address"
        },
        {
          "internalType": "uint256",
          "name": "tokenId",
          "type": "uint256"
        }
      ],
      "name": "safeTransferFrom",
      "outputs": [],
      "stateMutability": "nonpayable",
      "type": "function"
    },
    {
      "inputs": [
        {
          "internalType": "address",
          "name": "from",
          "type": "address"
        },
        {
          "internalType": "address",
          "name": "to",
          "type": "address"
        },
        {
          "internalType": "uint256",
          "name": "tokenId",
          "type": "uint256"
        },
        {
          "internalType": "bytes",
          "name": "_data",
          "type": "bytes"
        }
      ],
      "name": "safeTransferFrom",
      "outputs": [],
      "stateMutability": "nonpayable",
      "type": "function"
    },
    {
      "inputs": [
        {
          "internalType": "address",
          "name": "operator",
          "type": "address"
        },
        {
          "internalType": "bool",
          "name": "approved",
          "type": "bool"
        }
      ],
      "name": "setApprovalForAll",
      "outputs": [],
      "stateMutability": "nonpayable",
      "type": "function"
    },
    {
      "inputs": [
        {
          "internalType": "bytes4",
          "name": "interfaceId",
          "type": "bytes4"
        }
      ],
      "name": "supportsInterface",
      "outputs": [
        {
          "internalType": "bool",
          "name": "",
          "type": "bool"
        }
      ],
      "stateMutability": "view",
      "type": "function"
    },
    {
      "inputs": [],
      "name": "symbol",
      "outputs": [
        {
          "internalType": "string",
          "name": "",
          "type": "string"
        }
      ],
      "stateMutability": "view",
      "type": "function"
    },
    {
      "inputs": [
        {
          "internalType": "uint256",
          "name": "tokenId",
          "type": "uint256"
        }
      ],
      "name": "tokenURI",
      "outputs": [
        {
          "internalType": "string",
          "name": "",
          "type": "string"
        }
      ],
      "stateMutability": "view",
      "type": "function"
    },
    {
      "inputs": [
        {
          "internalType": "address",
          "name": "from",
          "type": "address"
        },
        {
          "internalType": "address",
          "name": "to",
          "type": "address"
        },
        {
          "internalType": "uint256",
          "name": "tokenId",
          "type": "uint256"
        }
      ],
      "name": "transferFrom",
      "outputs": [],
      "stateMutability": "nonpayable",
      "type": "function"
    },
    {
      "inputs": [
        {
          "internalType": "address",
          "name": "player",
          "type": "address"
        },
        {
          "internalType": "string",
          "name": "tokenURI",
          "type": "string"
        }
      ],
      "name": "awardItem",
      "outputs": [
        {
          "internalType": "uint256",
          "name": "",
          "type": "uint256"
        }
      ],
      "stateMutability": "nonpayable",
      "type": "function"
    }
  ],
  "bytecode": "0x60806040523480156200001157600080fd5b506040518060400160405280600881526020017f47616d654974656d0000000000000000000000000000000000000000000000008152506040518060400160405280600381526020017f49544d0000000000000000000000000000000000000000000000000000000000815250816000908051906020019062000096929190620000b8565b508060019080519060200190620000af929190620000b8565b505050620001cd565b828054620000c69062000197565b90600052602060002090601f016020900481019282620000ea576000855562000136565b82601f106200010557805160ff191683800117855562000136565b8280016001018555821562000136579182015b828111156200013557825182559160200191906001019062000118565b5b50905062000145919062000149565b5090565b5b80821115620001645760008160009055506001016200014a565b5090565b7f4e487b7100000000000000000000000000000000000000000000000000000000600052602260045260246000fd5b60006002820490506001821680620001b057607f821691505b60208210811415620001c757620001c662000168565b5b50919050565b61280c80620001dd6000396000f3fe608060405234801561001057600080fd5b50600436106100ea5760003560e01c806370a082311161008c578063b88d4fde11610066578063b88d4fde1461025b578063c87b56dd14610277578063cf378343146102a7578063e985e9c5146102d7576100ea565b806370a08231146101f157806395d89b4114610221578063a22cb4651461023f576100ea565b8063095ea7b3116100c8578063095ea7b31461016d57806323b872dd1461018957806342842e0e146101a55780636352211e146101c1576100ea565b806301ffc9a7146100ef57806306fdde031461011f578063081812fc1461013d575b600080fd5b61010960048036038101906101049190611692565b610307565b60405161011691906116da565b60405180910390f35b6101276103e9565b604051610134919061178e565b60405180910390f35b610157600480360381019061015291906117e6565b61047b565b6040516101649190611854565b60405180910390f35b6101876004803603810190610182919061189b565b610500565b005b6101a3600480360381019061019e91906118db565b610618565b005b6101bf60048036038101906101ba91906118db565b610678565b005b6101db60048036038101906101d691906117e6565b610698565b6040516101e89190611854565b60405180910390f35b61020b6004803603810190610206919061192e565b61074a565b604051610218919061196a565b60405180910390f35b610229610802565b604051610236919061178e565b60405180910390f35b610259600480360381019061025491906119b1565b610894565b005b61027560048036038101906102709190611b26565b610a15565b005b610291600480360381019061028c91906117e6565b610a77565b60405161029e919061178e565b60405180910390f35b6102c160048036038101906102bc9190611c4a565b610b1e565b6040516102ce919061196a565b60405180910390f35b6102f160048036038101906102ec9190611ca6565b610b4c565b6040516102fe91906116da565b60405180910390f35b60007f80ac58cd000000000000000000000000000000000000000000000000000000007bffffffffffffffffffffffffffffffffffffffffffffffffffffffff1916827bffffffffffffffffffffffffffffffffffffffffffffffffffffffff191614806103d257507f5b5e139f000000000000000000000000000000000000000000000000000000007bffffffffffffffffffffffffffffffffffffffffffffffffffffffff1916827bffffffffffffffffffffffffffffffffffffffffffffffffffffffff1916145b806103e257506103e182610be0565b5b9050919050565b6060600080546103f890611d15565b80601f016020809104026020016040519081016040528092919081815260200182805461042490611d15565b80156104715780601f1061044657610100808354040283529160200191610471565b820191906000526020600020905b81548152906001019060200180831161045457829003601f168201915b5050505050905090565b600061048682610c4a565b6104c5576040517f08c379a00000000000000000000000000000000000000000000000000000000081526004016104bc90611db9565b60405180910390fd5b6004600083815260200190815260200160002060009054906101000a900473ffffffffffffffffffffffffffffffffffffffff169050919050565b600061050b82610698565b90508073ffffffffffffffffffffffffffffffffffffffff168373ffffffffffffffffffffffffffffffffffffffff16141561057c576040517f08c379a000000000000000000000000000000000000000000000000000000000815260040161057390611e4b565b60405180910390fd5b8073ffffffffffffffffffffffffffffffffffffffff1661059b610cb6565b73ffffffffffffffffffffffffffffffffffffffff1614806105ca57506105c9816105c4610cb6565b610b4c565b5b610609576040517f08c379a000000000000000000000000000000000000000000000000000000000815260040161060090611edd565b60405180910390fd5b6106138383610cbe565b505050565b610629610623610cb6565b82610d77565b610668576040517f08c379a000000000000000000000000000000000000000000000000000000000815260040161065f90611f6f565b60405180910390fd5b610673838383610e55565b505050565b61069383838360405180602001604052806000815250610a15565b505050565b6000806002600084815260200190815260200160002060009054906101000a900473ffffffffffffffffffffffffffffffffffffffff169050600073ffffffffffffffffffffffffffffffffffffffff168173ffffffffffffffffffffffffffffffffffffffff161415610741576040517f08c379a000000000000000000000000000000000000000000000000000000000815260040161073890612001565b60405180910390fd5b80915050919050565b60008073ffffffffffffffffffffffffffffffffffffffff168273ffffffffffffffffffffffffffffffffffffffff1614156107bb576040517f08c379a00000000000000000000000000000000000000000000000000000000081526004016107b290612093565b60405180910390fd5b600360008373ffffffffffffffffffffffffffffffffffffffff1673ffffffffffffffffffffffffffffffffffffffff168152602001908152602001600020549050919050565b60606001805461081190611d15565b80601f016020809104026020016040519081016040528092919081815260200182805461083d90611d15565b801561088a5780601f1061085f5761010080835404028352916020019161088a565b820191906000526020600020905b81548152906001019060200180831161086d57829003601f168201915b5050505050905090565b61089c610cb6565b73ffffffffffffffffffffffffffffffffffffffff168273ffffffffffffffffffffffffffffffffffffffff16141561090a576040517f08c379a0000000000000000000000000000000000000000000000000000000008152600401610901906120ff565b60405180910390fd5b8060056000610917610cb6565b73ffffffffffffffffffffffffffffffffffffffff1673ffffffffffffffffffffffffffffffffffffffff16815260200190815260200160002060008473ffffffffffffffffffffffffffffffffffffffff1673ffffffffffffffffffffffffffffffffffffffff16815260200190815260200160002060006101000a81548160ff0219169083151502179055508173ffffffffffffffffffffffffffffffffffffffff166109c4610cb6565b73ffffffffffffffffffffffffffffffffffffffff167f17307eab39ab6107e8899845ad3d59bd9653f200f220920489ca2b5937696c3183604051610a0991906116da565b60405180910390a35050565b610a26610a20610cb6565b83610d77565b610a65576040517f08c379a0000000000000000000000000000000000000000000000000000000008152600401610a5c90611f6f565b60405180910390fd5b610a71848484846110b1565b50505050565b6060610a8282610c4a565b610ac1576040517f08c379a0000000000000000000000000000000000000000000000000000000008152600401610ab890612191565b60405180910390fd5b6000610acb61110d565b90506000815111610aeb5760405180602001604052806000815250610b16565b80610af584611124565b604051602001610b069291906121ed565b6040516020818303038152906040525b915050919050565b6000610b2a6006611285565b6000610b36600661129b565b9050610b4284826112a9565b8091505092915050565b6000600560008473ffffffffffffffffffffffffffffffffffffffff1673ffffffffffffffffffffffffffffffffffffffff16815260200190815260200160002060008373ffffffffffffffffffffffffffffffffffffffff1673ffffffffffffffffffffffffffffffffffffffff16815260200190815260200160002060009054906101000a900460ff16905092915050565b60007f01ffc9a7000000000000000000000000000000000000000000000000000000007bffffffffffffffffffffffffffffffffffffffffffffffffffffffff1916827bffffffffffffffffffffffffffffffffffffffffffffffffffffffff1916149050919050565b60008073ffffffffffffffffffffffffffffffffffffffff166002600084815260200190815260200160002060009054906101000a900473ffffffffffffffffffffffffffffffffffffffff1673ffffffffffffffffffffffffffffffffffffffff1614159050919050565b600033905090565b816004600083815260200190815260200160002060006101000a81548173ffffffffffffffffffffffffffffffffffffffff021916908373ffffffffffffffffffffffffffffffffffffffff160217905550808273ffffffffffffffffffffffffffffffffffffffff16610d3183610698565b73ffffffffffffffffffffffffffffffffffffffff167f8c5be1e5ebec7d5bd14f71427d1e84f3dd0314c0f7b2291e5b200ac8c7c3b92560405160405180910390a45050565b6000610d8282610c4a565b610dc1576040517f08c379a0000000000000000000000000000000000000000000000000000000008152600401610db890612283565b60405180910390fd5b6000610dcc83610698565b90508073ffffffffffffffffffffffffffffffffffffffff168473ffffffffffffffffffffffffffffffffffffffff161480610e3b57508373ffffffffffffffffffffffffffffffffffffffff16610e238461047b565b73ffffffffffffffffffffffffffffffffffffffff16145b80610e4c5750610e4b8185610b4c565b5b91505092915050565b8273ffffffffffffffffffffffffffffffffffffffff16610e7582610698565b73ffffffffffffffffffffffffffffffffffffffff1614610ecb576040517f08c379a0000000000000000000000000000000000000000000000000000000008152600401610ec290612315565b60405180910390fd5b600073ffffffffffffffffffffffffffffffffffffffff168273ffffffffffffffffffffffffffffffffffffffff161415610f3b576040517f08c379a0000000000000000000000000000000000000000000000000000000008152600401610f32906123a7565b60405180910390fd5b610f46838383611477565b610f51600082610cbe565b6001600360008573ffffffffffffffffffffffffffffffffffffffff1673ffffffffffffffffffffffffffffffffffffffff1681526020019081526020016000206000828254610fa191906123f6565b925050819055506001600360008473ffffffffffffffffffffffffffffffffffffffff1673ffffffffffffffffffffffffffffffffffffffff1681526020019081526020016000206000828254610ff8919061242a565b92505081905550816002600083815260200190815260200160002060006101000a81548173ffffffffffffffffffffffffffffffffffffffff021916908373ffffffffffffffffffffffffffffffffffffffff160217905550808273ffffffffffffffffffffffffffffffffffffffff168473ffffffffffffffffffffffffffffffffffffffff167fddf252ad1be2c89b69c2b068fc378daa952ba7f163c4a11628f55a4df523b3ef60405160405180910390a4505050565b6110bc848484610e55565b6110c88484848461147c565b611107576040517f08c379a00000000000000000000000000000000000000000000000000000000081526004016110fe906124f2565b60405180910390fd5b50505050565b606060405180602001604052806000815250905090565b6060600082141561116c576040518060400160405280600181526020017f30000000000000000000000000000000000000000000000000000000000000008152509050611280565b600082905060005b6000821461119e57808061118790612512565b915050600a82611197919061258a565b9150611174565b60008167ffffffffffffffff8111156111ba576111b96119fb565b5b6040519080825280601f01601f1916602001820160405280156111ec5781602001600182028036833780820191505090505b5090505b600085146112795760018261120591906123f6565b9150600a8561121491906125bb565b6030611220919061242a565b60f81b818381518110611236576112356125ec565b5b60200101907effffffffffffffffffffffffffffffffffffffffffffffffffffffffffffff1916908160001a905350600a85611272919061258a565b94506111f0565b8093505050505b919050565b6001816000016000828254019250508190555050565b600081600001549050919050565b600073ffffffffffffffffffffffffffffffffffffffff168273ffffffffffffffffffffffffffffffffffffffff161415611319576040517f08c379a000000000000000000000000000000000000000000000000000000000815260040161131090612667565b60405180910390fd5b61132281610c4a565b15611362576040517f08c379a0000000000000000000000000000000000000000000000000000000008152600401611359906126d3565b60405180910390fd5b61136e60008383611477565b6001600360008473ffffffffffffffffffffffffffffffffffffffff1673ffffffffffffffffffffffffffffffffffffffff16815260200190815260200160002060008282546113be919061242a565b92505081905550816002600083815260200190815260200160002060006101000a81548173ffffffffffffffffffffffffffffffffffffffff021916908373ffffffffffffffffffffffffffffffffffffffff160217905550808273ffffffffffffffffffffffffffffffffffffffff16600073ffffffffffffffffffffffffffffffffffffffff167fddf252ad1be2c89b69c2b068fc378daa952ba7f163c4a11628f55a4df523b3ef60405160405180910390a45050565b505050565b600061149d8473ffffffffffffffffffffffffffffffffffffffff16611613565b15611606578373ffffffffffffffffffffffffffffffffffffffff1663150b7a026114c6610cb6565b8786866040518563ffffffff1660e01b81526004016114e89493929190612748565b602060405180830381600087803b15801561150257600080fd5b505af192505050801561153357506040513d601f19601f8201168201806040525081019061153091906127a9565b60015b6115b6573d8060008114611563576040519150601f19603f3d011682016040523d82523d6000602084013e611568565b606091505b506000815114156115ae576040517f08c379a00000000000000000000000000000000000000000000000000000000081526004016115a5906124f2565b60405180910390fd5b805181602001fd5b63150b7a0260e01b7bffffffffffffffffffffffffffffffffffffffffffffffffffffffff1916817bffffffffffffffffffffffffffffffffffffffffffffffffffffffff19161491505061160b565b600190505b949350505050565b600080823b905060008111915050919050565b6000604051905090565b600080fd5b600080fd5b60007fffffffff0000000000000000000000000000000000000000000000000000000082169050919050565b61166f8161163a565b811461167a57600080fd5b50565b60008135905061168c81611666565b92915050565b6000602082840312156116a8576116a7611630565b5b60006116b68482850161167d565b91505092915050565b60008115159050919050565b6116d4816116bf565b82525050565b60006020820190506116ef60008301846116cb565b92915050565b600081519050919050565b600082825260208201905092915050565b60005b8381101561172f578082015181840152602081019050611714565b8381111561173e576000848401525b50505050565b6000601f19601f8301169050919050565b6000611760826116f5565b61176a8185611700565b935061177a818560208601611711565b61178381611744565b840191505092915050565b600060208201905081810360008301526117a88184611755565b905092915050565b6000819050919050565b6117c3816117b0565b81146117ce57600080fd5b50565b6000813590506117e0816117ba565b92915050565b6000602082840312156117fc576117fb611630565b5b600061180a848285016117d1565b91505092915050565b600073ffffffffffffffffffffffffffffffffffffffff82169050919050565b600061183e82611813565b9050919050565b61184e81611833565b82525050565b60006020820190506118696000830184611845565b92915050565b61187881611833565b811461188357600080fd5b50565b6000813590506118958161186f565b92915050565b600080604083850312156118b2576118b1611630565b5b60006118c085828601611886565b92505060206118d1858286016117d1565b9150509250929050565b6000806000606084860312156118f4576118f3611630565b5b600061190286828701611886565b935050602061191386828701611886565b9250506040611924868287016117d1565b9150509250925092565b60006020828403121561194457611943611630565b5b600061195284828501611886565b91505092915050565b611964816117b0565b82525050565b600060208201905061197f600083018461195b565b92915050565b61198e816116bf565b811461199957600080fd5b50565b6000813590506119ab81611985565b92915050565b600080604083850312156119c8576119c7611630565b5b60006119d685828601611886565b92505060206119e78582860161199c565b9150509250929050565b600080fd5b600080fd5b7f4e487b7100000000000000000000000000000000000000000000000000000000600052604160045260246000fd5b611a3382611744565b810181811067ffffffffffffffff82111715611a5257611a516119fb565b5b80604052505050565b6000611a65611626565b9050611a718282611a2a565b919050565b600067ffffffffffffffff821115611a9157611a906119fb565b5b611a9a82611744565b9050602081019050919050565b82818337600083830152505050565b6000611ac9611ac484611a76565b611a5b565b905082815260208101848484011115611ae557611ae46119f6565b5b611af0848285611aa7565b509392505050565b600082601f830112611b0d57611b0c6119f1565b5b8135611b1d848260208601611ab6565b91505092915050565b60008060008060808587031215611b4057611b3f611630565b5b6000611b4e87828801611886565b9450506020611b5f87828801611886565b9350506040611b70878288016117d1565b925050606085013567ffffffffffffffff811115611b9157611b90611635565b5b611b9d87828801611af8565b91505092959194509250565b600067ffffffffffffffff821115611bc457611bc36119fb565b5b611bcd82611744565b9050602081019050919050565b6000611bed611be884611ba9565b611a5b565b905082815260208101848484011115611c0957611c086119f6565b5b611c14848285611aa7565b509392505050565b600082601f830112611c3157611c306119f1565b5b8135611c41848260208601611bda565b91505092915050565b60008060408385031215611c6157611c60611630565b5b6000611c6f85828601611886565b925050602083013567ffffffffffffffff811115611c9057611c8f611635565b5b611c9c85828601611c1c565b9150509250929050565b60008060408385031215611cbd57611cbc611630565b5b6000611ccb85828601611886565b9250506020611cdc85828601611886565b9150509250929050565b7f4e487b7100000000000000000000000000000000000000000000000000000000600052602260045260246000fd5b60006002820490506001821680611d2d57607f821691505b60208210811415611d4157611d40611ce6565b5b50919050565b7f4552433732313a20617070726f76656420717565727920666f72206e6f6e657860008201527f697374656e7420746f6b656e0000000000000000000000000000000000000000602082015250565b6000611da3602c83611700565b9150611dae82611d47565b604082019050919050565b60006020820190508181036000830152611dd281611d96565b9050919050565b7f4552433732313a20617070726f76616c20746f2063757272656e74206f776e6560008201527f7200000000000000000000000000000000000000000000000000000000000000602082015250565b6000611e35602183611700565b9150611e4082611dd9565b604082019050919050565b60006020820190508181036000830152611e6481611e28565b9050919050565b7f4552433732313a20617070726f76652063616c6c6572206973206e6f74206f7760008201527f6e6572206e6f7220617070726f76656420666f7220616c6c0000000000000000602082015250565b6000611ec7603883611700565b9150611ed282611e6b565b604082019050919050565b60006020820190508181036000830152611ef681611eba565b9050919050565b7f4552433732313a207472616e736665722063616c6c6572206973206e6f74206f60008201527f776e6572206e6f7220617070726f766564000000000000000000000000000000602082015250565b6000611f59603183611700565b9150611f6482611efd565b604082019050919050565b60006020820190508181036000830152611f8881611f4c565b9050919050565b7f4552433732313a206f776e657220717565727920666f72206e6f6e657869737460008201527f656e7420746f6b656e0000000000000000000000000000000000000000000000602082015250565b6000611feb602983611700565b9150611ff682611f8f565b604082019050919050565b6000602082019050818103600083015261201a81611fde565b9050919050565b7f4552433732313a2062616c616e636520717565727920666f7220746865207a6560008201527f726f206164647265737300000000000000000000000000000000000000000000602082015250565b600061207d602a83611700565b915061208882612021565b604082019050919050565b600060208201905081810360008301526120ac81612070565b9050919050565b7f4552433732313a20617070726f766520746f2063616c6c657200000000000000600082015250565b60006120e9601983611700565b91506120f4826120b3565b602082019050919050565b60006020820190508181036000830152612118816120dc565b9050919050565b7f4552433732314d657461646174613a2055524920717565727920666f72206e6f60008201527f6e6578697374656e7420746f6b656e0000000000000000000000000000000000602082015250565b600061217b602f83611700565b91506121868261211f565b604082019050919050565b600060208201905081810360008301526121aa8161216e565b9050919050565b600081905092915050565b60006121c7826116f5565b6121d181856121b1565b93506121e1818560208601611711565b80840191505092915050565b60006121f982856121bc565b915061220582846121bc565b91508190509392505050565b7f4552433732313a206f70657261746f7220717565727920666f72206e6f6e657860008201527f697374656e7420746f6b656e0000000000000000000000000000000000000000602082015250565b600061226d602c83611700565b915061227882612211565b604082019050919050565b6000602082019050818103600083015261229c81612260565b9050919050565b7f4552433732313a207472616e73666572206f6620746f6b656e2074686174206960008201527f73206e6f74206f776e0000000000000000000000000000000000000000000000602082015250565b60006122ff602983611700565b915061230a826122a3565b604082019050919050565b6000602082019050818103600083015261232e816122f2565b9050919050565b7f4552433732313a207472616e7366657220746f20746865207a65726f2061646460008201527f7265737300000000000000000000000000000000000000000000000000000000602082015250565b6000612391602483611700565b915061239c82612335565b604082019050919050565b600060208201905081810360008301526123c081612384565b9050919050565b7f4e487b7100000000000000000000000000000000000000000000000000000000600052601160045260246000fd5b6000612401826117b0565b915061240c836117b0565b92508282101561241f5761241e6123c7565b5b828203905092915050565b6000612435826117b0565b9150612440836117b0565b9250827fffffffffffffffffffffffffffffffffffffffffffffffffffffffffffffffff03821115612475576124746123c7565b5b828201905092915050565b7f4552433732313a207472616e7366657220746f206e6f6e20455243373231526560008201527f63656976657220696d706c656d656e7465720000000000000000000000000000602082015250565b60006124dc603283611700565b91506124e782612480565b604082019050919050565b6000602082019050818103600083015261250b816124cf565b9050919050565b600061251d826117b0565b91507fffffffffffffffffffffffffffffffffffffffffffffffffffffffffffffffff8214156125505761254f6123c7565b5b600182019050919050565b7f4e487b7100000000000000000000000000000000000000000000000000000000600052601260045260246000fd5b6000612595826117b0565b91506125a0836117b0565b9250826125b0576125af61255b565b5b828204905092915050565b60006125c6826117b0565b91506125d1836117b0565b9250826125e1576125e061255b565b5b828206905092915050565b7f4e487b7100000000000000000000000000000000000000000000000000000000600052603260045260246000fd5b7f4552433732313a206d696e7420746f20746865207a65726f2061646472657373600082015250565b6000612651602083611700565b915061265c8261261b565b602082019050919050565b6000602082019050818103600083015261268081612644565b9050919050565b7f4552433732313a20746f6b656e20616c7265616479206d696e74656400000000600082015250565b60006126bd601c83611700565b91506126c882612687565b602082019050919050565b600060208201905081810360008301526126ec816126b0565b9050919050565b600081519050919050565b600082825260208201905092915050565b600061271a826126f3565b61272481856126fe565b9350612734818560208601611711565b61273d81611744565b840191505092915050565b600060808201905061275d6000830187611845565b61276a6020830186611845565b612777604083018561195b565b8181036060830152612789818461270f565b905095945050505050565b6000815190506127a381611666565b92915050565b6000602082840312156127bf576127be611630565b5b60006127cd84828501612794565b9150509291505056fea2646970667358221220dfd17d21366ea4b18443d89fd5cecc185b8c7ad22907fd5bdb870df8ef5ab50464736f6c63430008090033",
  "immutableReferences": {},
  "source": "// SPDX-License-Identifier: MIT\r\npragma solidity ^0.8.0;\r\n\r\n/// @title A title that should describe the contract/interface\r\n/// @author Cristian Gerani (@cgerabit) and Geferman Pernia (@gefermanpernia)\r\n/// @notice Explain to an end user what this does\r\n/// @dev Explain to a developer any extra details\r\n/// @param _param1 Explain to a developer what this is\r\n/// @param _param2 Explain to a developer what this is\r\n\r\nimport \"@openzeppelin/contracts/token/ERC721/ERC721.sol\";\r\nimport \"@openzeppelin/contracts/utils/Counters.sol\";\r\n\r\ncontract GameItem is ERC721 {\r\n    using Counters for Counters.Counter;\r\n    Counters.Counter private _tokenIds;\r\n\r\n    constructor() ERC721(\"GameItem\", \"ITM\") {\r\n        // _setupRole(DEFAULT_ADMIN_ROLE, _msgSender());\r\n        // _setupRole(MINTER_ROLE, _msgSender());\r\n        // _setupRole(BURNER_ROLE, _msgSender());\r\n    }\r\n\r\n    function awardItem(address player, string memory tokenURI)\r\n        public\r\n        returns (uint256)\r\n    {\r\n        _tokenIds.increment();\r\n\r\n        uint256 newItemId = _tokenIds.current();\r\n        _mint(player, newItemId);\r\n        // _setTokenURI(newItemId, tokenURI);\r\n\r\n        return newItemId;\r\n    }\r\n}\r\n\r\n// contract DragonsERC721 is AccessControl, ERC721  {\r\n//     using Counters for Counters.Counter;\r\n//     Counters.Counter private _tokenIdTracker;\r\n//     mapping(uint256 => bool) private _burnedDragon;\r\n\r\n//     // Events\r\n//     event NewDragon(address player, uint256 dragonId);\r\n\r\n//     event Burn(address indexed _called, uint256 _dragonId);\r\n\r\n//     event Restore(address indexed _called, uint256 _dragonId, bool burnStatus);\r\n\r\n//     // Access Control Roles\r\n//     bytes32 public constant MINTER_ROLE = keccak256(\"MINTER_ROLE\");\r\n//     bytes32 public constant BURNER_ROLE = keccak256(\"BURNER_ROLE\");\r\n\r\n//     constructor() ERC721(\"Dragonary Dragons\", \"DRAGON\") {\r\n//         _setupRole(DEFAULT_ADMIN_ROLE, _msgSender());\r\n\r\n//         _setupRole(MINTER_ROLE, _msgSender());\r\n\r\n//         _setupRole(BURNER_ROLE, _msgSender());\r\n//     }\r\n\r\n//     function mintDragon(address player) public returns (uint256) {\r\n//         require(\r\n//             hasRole(MINTER_ROLE, _msgSender()),\r\n//             \"DragonsERC721: must have minter role to mint\"\r\n//         );\r\n\r\n//         _tokenIdTracker.increment();\r\n\r\n//         uint256 newDragon = _tokenIdTracker.current();\r\n\r\n//         _mint(player, newDragon);\r\n\r\n//         emit NewDragon(player, newDragon);\r\n\r\n//         return newDragon;\r\n//     }\r\n\r\n//     // Soft burn to avoid delete completely the dragon\r\n//     function softBurnDragon(uint256 dragonId) public returns (bool) {\r\n//         require(\r\n//             hasRole(BURNER_ROLE, _msgSender()),\r\n//             \"DragonsERC721: must have burner role\"\r\n//         );\r\n//         require(_exists(dragonId), \"DragonsERC721: Dragon didn't exist\");\r\n\r\n//         _burnedDragon[dragonId] = true;\r\n\r\n//         emit Burn(_msgSender(), dragonId);\r\n\r\n//         return true;\r\n//     }\r\n\r\n//     function isBurned(uint256 dragonId) public view virtual returns (bool) {\r\n//         return _burnedDragon[dragonId];\r\n//     }\r\n\r\n//     /*\r\n//      *  Use only if some issues with the server game happens\r\n//      *  ONLY ADMIN CAN CALL THIS FUNCTION\r\n//      */\r\n//     function restoreDragon(uint256 dragonId, bool burnStatus)\r\n//         public\r\n//         returns (bool)\r\n//     {\r\n//         require(\r\n//             hasRole(DEFAULT_ADMIN_ROLE, _msgSender()),\r\n//             \"DragonsERC721: must have admin role\"\r\n//         );\r\n//         require(_exists(dragonId), \"DragonsERC721: Dragon didn't exist\");\r\n\r\n//         _burnedDragon[dragonId] = burnStatus;\r\n\r\n//         emit Restore(_msgSender(), dragonId, burnStatus);\r\n\r\n//         return true;\r\n//     }\r\n\r\n//     function _beforeTokenTransfer(\r\n//         address from,\r\n//         address to,\r\n//         uint256 tokenId\r\n//     ) internal virtual override(ERC721) {\r\n//         require(\r\n//             _burnedDragon[tokenId] == false,\r\n//             \"DragonsERC721: Dragon is burned\"\r\n//         );\r\n//     }\r\n// }\r\n",
  "sourcePath": "C:\\Users\\Crisla\\Documents\\Repos\\repos\\smart-contracts\\contracts\\EterlandWorld.sol",
  "compiler": {
    "name": "solc",
    "version": "0.8.9+commit.e5eed63a.Emscripten.clang"
  },
  "schemaVersion": "3.4.3",
  "updatedAt": "2021-10-30T08:27:38.496Z",
  "devdoc": {
    "kind": "dev",
    "methods": {
      "approve(address,uint256)": {
        "details": "See {IERC721-approve}."
      },
      "balanceOf(address)": {
        "details": "See {IERC721-balanceOf}."
      },
      "getApproved(uint256)": {
        "details": "See {IERC721-getApproved}."
      },
      "isApprovedForAll(address,address)": {
        "details": "See {IERC721-isApprovedForAll}."
      },
      "name()": {
        "details": "See {IERC721Metadata-name}."
      },
      "ownerOf(uint256)": {
        "details": "See {IERC721-ownerOf}."
      },
      "safeTransferFrom(address,address,uint256)": {
        "details": "See {IERC721-safeTransferFrom}."
      },
      "safeTransferFrom(address,address,uint256,bytes)": {
        "details": "See {IERC721-safeTransferFrom}."
      },
      "setApprovalForAll(address,bool)": {
        "details": "See {IERC721-setApprovalForAll}."
      },
      "supportsInterface(bytes4)": {
        "details": "See {IERC165-supportsInterface}."
      },
      "symbol()": {
        "details": "See {IERC721Metadata-symbol}."
      },
      "tokenURI(uint256)": {
        "details": "See {IERC721Metadata-tokenURI}."
      },
      "transferFrom(address,address,uint256)": {
        "details": "See {IERC721-transferFrom}."
      }
    },
    "version": 1
  },
  "userdoc": {
    "kind": "user",
    "methods": {},
    "version": 1
  }
}