{
  "contractName": "Pausable",
  "abi": [
    {
      "anonymous": false,
      "inputs": [
        {
          "indexed": true,
          "internalType": "address",
          "name": "previousOwner",
          "type": "address"
        },
        {
          "indexed": true,
          "internalType": "address",
          "name": "newOwner",
          "type": "address"
        }
      ],
      "name": "OwnershipTransferred",
      "type": "event"
    },
    {
      "anonymous": false,
      "inputs": [],
      "name": "Pause",
      "type": "event"
    },
    {
      "anonymous": false,
      "inputs": [],
      "name": "Unpause",
      "type": "event"
    },
    {
      "inputs": [],
      "name": "owner",
      "outputs": [
        {
          "internalType": "address",
          "name": "",
          "type": "address"
        }
      ],
      "stateMutability": "view",
      "type": "function"
    },
    {
      "inputs": [],
      "name": "paused",
      "outputs": [
        {
          "internalType": "bool",
          "name": "",
          "type": "bool"
        }
      ],
      "stateMutability": "view",
      "type": "function"
    },
    {
      "inputs": [],
      "name": "renounceOwnership",
      "outputs": [],
      "stateMutability": "nonpayable",
      "type": "function"
    },
    {
      "inputs": [
        {
          "internalType": "address",
          "name": "newOwner",
          "type": "address"
        }
      ],
      "name": "transferOwnership",
      "outputs": [],
      "stateMutability": "nonpayable",
      "type": "function"
    },
    {
      "inputs": [],
      "name": "pause",
      "outputs": [
        {
          "internalType": "bool",
          "name": "",
          "type": "bool"
        }
      ],
      "stateMutability": "nonpayable",
      "type": "function"
    },
    {
      "inputs": [],
      "name": "unpause",
      "outputs": [
        {
          "internalType": "bool",
          "name": "",
          "type": "bool"
        }
      ],
      "stateMutability": "nonpayable",
      "type": "function"
    }
  ],
  "bytecode": "0x608060405260008060146101000a81548160ff02191690831515021790555034801561002a57600080fd5b5061004761003c61004c60201b60201c565b61005460201b60201c565b610118565b600033905090565b60008060009054906101000a900473ffffffffffffffffffffffffffffffffffffffff169050816000806101000a81548173ffffffffffffffffffffffffffffffffffffffff021916908373ffffffffffffffffffffffffffffffffffffffff1602179055508173ffffffffffffffffffffffffffffffffffffffff168173ffffffffffffffffffffffffffffffffffffffff167f8be0079c531659141344cd1fd0a4f28419497f9722a3daafe3b4186f6b6457e060405160405180910390a35050565b610807806101276000396000f3fe608060405234801561001057600080fd5b50600436106100625760003560e01c80633f4ba83a146100675780635c975abb14610085578063715018a6146100a35780638456cb59146100ad5780638da5cb5b146100cb578063f2fde38b146100e9575b600080fd5b61006f610105565b60405161007c91906105ed565b60405180910390f35b61008d6101e9565b60405161009a91906105ed565b60405180910390f35b6100ab6101fc565b005b6100b56102ff565b6040516100c291906105ed565b60405180910390f35b6100d36103e5565b6040516100e09190610649565b60405180910390f35b61010360048036038101906100fe9190610695565b61040e565b005b600061010f610506565b73ffffffffffffffffffffffffffffffffffffffff1661012d6103e5565b73ffffffffffffffffffffffffffffffffffffffff1614610183576040517f08c379a000000000000000000000000000000000000000000000000000000000815260040161017a9061071f565b60405180910390fd5b600060149054906101000a900460ff1661019c57600080fd5b60008060146101000a81548160ff0219169083151502179055507f7805862f689e2f13df9f062ff482ad3ad112aca9e0847911ed832e158c525b3360405160405180910390a16001905090565b600060149054906101000a900460ff1681565b610204610506565b73ffffffffffffffffffffffffffffffffffffffff166102226103e5565b73ffffffffffffffffffffffffffffffffffffffff1614610278576040517f08c379a000000000000000000000000000000000000000000000000000000000815260040161026f9061071f565b60405180910390fd5b600073ffffffffffffffffffffffffffffffffffffffff1660008054906101000a900473ffffffffffffffffffffffffffffffffffffffff1673ffffffffffffffffffffffffffffffffffffffff167f8be0079c531659141344cd1fd0a4f28419497f9722a3daafe3b4186f6b6457e060405160405180910390a36102fd600061050e565b565b6000610309610506565b73ffffffffffffffffffffffffffffffffffffffff166103276103e5565b73ffffffffffffffffffffffffffffffffffffffff161461037d576040517f08c379a00000000000000000000000000000000000000000000000000000000081526004016103749061071f565b60405180910390fd5b600060149054906101000a900460ff161561039757600080fd5b6001600060146101000a81548160ff0219169083151502179055507f6985a02210a168e66602d3235cb6db0e70f92b3ba4d376a33c0f3d9434bff62560405160405180910390a16001905090565b60008060009054906101000a900473ffffffffffffffffffffffffffffffffffffffff16905090565b610416610506565b73ffffffffffffffffffffffffffffffffffffffff166104346103e5565b73ffffffffffffffffffffffffffffffffffffffff161461048a576040517f08c379a00000000000000000000000000000000000000000000000000000000081526004016104819061071f565b60405180910390fd5b600073ffffffffffffffffffffffffffffffffffffffff168173ffffffffffffffffffffffffffffffffffffffff1614156104fa576040517f08c379a00000000000000000000000000000000000000000000000000000000081526004016104f1906107b1565b60405180910390fd5b6105038161050e565b50565b600033905090565b60008060009054906101000a900473ffffffffffffffffffffffffffffffffffffffff169050816000806101000a81548173ffffffffffffffffffffffffffffffffffffffff021916908373ffffffffffffffffffffffffffffffffffffffff1602179055508173ffffffffffffffffffffffffffffffffffffffff168173ffffffffffffffffffffffffffffffffffffffff167f8be0079c531659141344cd1fd0a4f28419497f9722a3daafe3b4186f6b6457e060405160405180910390a35050565b60008115159050919050565b6105e7816105d2565b82525050565b600060208201905061060260008301846105de565b92915050565b600073ffffffffffffffffffffffffffffffffffffffff82169050919050565b600061063382610608565b9050919050565b61064381610628565b82525050565b600060208201905061065e600083018461063a565b92915050565b600080fd5b61067281610628565b811461067d57600080fd5b50565b60008135905061068f81610669565b92915050565b6000602082840312156106ab576106aa610664565b5b60006106b984828501610680565b91505092915050565b600082825260208201905092915050565b7f4f776e61626c653a2063616c6c6572206973206e6f7420746865206f776e6572600082015250565b60006107096020836106c2565b9150610714826106d3565b602082019050919050565b60006020820190508181036000830152610738816106fc565b9050919050565b7f4f776e61626c653a206e6577206f776e657220697320746865207a65726f206160008201527f6464726573730000000000000000000000000000000000000000000000000000602082015250565b600061079b6026836106c2565b91506107a68261073f565b604082019050919050565b600060208201905081810360008301526107ca8161078e565b905091905056fea264697066735822122056980324c59e667b6a7e8b601d9af51b23207cedb617095f76104cb62eb0c6b164736f6c63430008090033",
  "immutableReferences": {},
  "source": "// SPDX-License-Identifier: MIT\r\n\r\npragma solidity ^0.8.9;\r\n\r\nimport './Ownable.sol';\r\n\r\ncontract Pausable is Ownable {\r\n  event Pause();\r\n  event Unpause();\r\n\r\n  bool public paused = false;\r\n\r\n\r\n  /**\r\n  * @dev modifier to allow actions only when the contract IS paused\r\n  */\r\n  modifier whenNotPaused() {\r\n    require (!paused);\r\n    _;\r\n  }\r\n\r\n  /**\r\n  * @dev modifier to allow actions only when the contract IS NOT paused\r\n  */\r\n  modifier whenPaused {\r\n    require (paused) ;\r\n    _;\r\n  }\r\n\r\n  /**\r\n  * @dev called by the owner to pause, triggers stopped state\r\n  */\r\n  function pause() onlyOwner public whenNotPaused returns (bool) {\r\n    paused = true;\r\n    emit Pause();\r\n    return true;\r\n  }\r\n\r\n  /**\r\n  * @dev called by the owner to unpause, returns to normal state\r\n  */\r\n  function unpause() onlyOwner public whenPaused returns (bool) {\r\n    paused = false;\r\n    emit Unpause();\r\n    return true;\r\n  }\r\n}",
  "sourcePath": "C:\\Users\\Crisla\\Documents\\Repos\\repos\\smart-contracts\\utils\\BEP\\Pausable.sol",
  "compiler": {
    "name": "solc",
    "version": "0.8.9+commit.e5eed63a.Emscripten.clang"
  },
  "schemaVersion": "3.4.3",
  "updatedAt": "2021-10-29T08:37:12.085Z",
  "devdoc": {
    "kind": "dev",
    "methods": {
      "owner()": {
        "details": "Returns the address of the current owner."
      },
      "pause()": {
        "details": "called by the owner to pause, triggers stopped state"
      },
      "renounceOwnership()": {
        "details": "Leaves the contract without owner. It will not be possible to call `onlyOwner` functions anymore. Can only be called by the current owner. NOTE: Renouncing ownership will leave the contract without an owner, thereby removing any functionality that is only available to the owner."
      },
      "transferOwnership(address)": {
        "details": "Transfers ownership of the contract to a new account (`newOwner`). Can only be called by the current owner."
      },
      "unpause()": {
        "details": "called by the owner to unpause, returns to normal state"
      }
    },
    "version": 1
  },
  "userdoc": {
    "kind": "user",
    "methods": {},
    "version": 1
  }
}