{
  "contractName": "TeamVesting",
  "abi": [
    {
      "inputs": [
        {
          "internalType": "address",
          "name": "to",
          "type": "address"
        }
      ],
      "stateMutability": "nonpayable",
      "type": "constructor"
    },
    {
      "anonymous": false,
      "inputs": [
        {
          "indexed": false,
          "internalType": "address",
          "name": "token",
          "type": "address"
        },
        {
          "indexed": false,
          "internalType": "uint256",
          "name": "amount",
          "type": "uint256"
        }
      ],
      "name": "TokensReleased",
      "type": "event"
    },
    {
      "inputs": [],
      "name": "beneficiary",
      "outputs": [
        {
          "internalType": "address",
          "name": "",
          "type": "address"
        }
      ],
      "stateMutability": "view",
      "type": "function"
    },
    {
      "inputs": [],
      "name": "duration",
      "outputs": [
        {
          "internalType": "uint256",
          "name": "",
          "type": "uint256"
        }
      ],
      "stateMutability": "view",
      "type": "function"
    },
    {
      "inputs": [
        {
          "internalType": "address",
          "name": "token",
          "type": "address"
        }
      ],
      "name": "release",
      "outputs": [],
      "stateMutability": "nonpayable",
      "type": "function"
    },
    {
      "inputs": [
        {
          "internalType": "address",
          "name": "token",
          "type": "address"
        }
      ],
      "name": "released",
      "outputs": [
        {
          "internalType": "uint256",
          "name": "",
          "type": "uint256"
        }
      ],
      "stateMutability": "view",
      "type": "function"
    },
    {
      "inputs": [],
      "name": "start",
      "outputs": [
        {
          "internalType": "uint256",
          "name": "",
          "type": "uint256"
        }
      ],
      "stateMutability": "view",
      "type": "function"
    },
    {
      "inputs": [
        {
          "internalType": "address",
          "name": "token",
          "type": "address"
        },
        {
          "internalType": "uint256",
          "name": "timestamp",
          "type": "uint256"
        }
      ],
      "name": "vestedAmount",
      "outputs": [
        {
          "internalType": "uint256",
          "name": "",
          "type": "uint256"
        }
      ],
      "stateMutability": "view",
      "type": "function"
    },
    {
      "inputs": [
        {
          "internalType": "address",
          "name": "token",
          "type": "address"
        }
      ],
      "name": "getHistoricalBalance",
      "outputs": [
        {
          "internalType": "uint256",
          "name": "",
          "type": "uint256"
        }
      ],
      "stateMutability": "view",
      "type": "function"
    }
  ],
  "bytecode": "0x60e06040523480156200001157600080fd5b506040516200106a3803806200106a8339818101604052810190620000379190620001a1565b806305a39a80600073ffffffffffffffffffffffffffffffffffffffff168273ffffffffffffffffffffffffffffffffffffffff161415620000b0576040517f08c379a0000000000000000000000000000000000000000000000000000000008152600401620000a7906200025a565b60405180910390fd5b8173ffffffffffffffffffffffffffffffffffffffff1660808173ffffffffffffffffffffffffffffffffffffffff16815250504260a081815250508060c0818152505050503073ffffffffffffffffffffffffffffffffffffffff168173ffffffffffffffffffffffffffffffffffffffff1614156200013057600080fd5b506200027c565b600080fd5b600073ffffffffffffffffffffffffffffffffffffffff82169050919050565b600062000169826200013c565b9050919050565b6200017b816200015c565b81146200018757600080fd5b50565b6000815190506200019b8162000170565b92915050565b600060208284031215620001ba57620001b962000137565b5b6000620001ca848285016200018a565b91505092915050565b600082825260208201905092915050565b7f455243323056657374696e6757616c6c65743a2062656e65666963696172792060008201527f6973207a65726f20616464726573730000000000000000000000000000000000602082015250565b600062000242602f83620001d3565b91506200024f82620001e4565b604082019050919050565b60006020820190508181036000830152620002758162000233565b9050919050565b60805160a05160c051610dbe620002ac600039600061018c01526000610386015260006103040152610dbe6000f3fe608060405234801561001057600080fd5b506004361061007d5760003560e01c806338af3eed1161005b57806338af3eed146100ec5780635be038a21461010a5780639852595c1461013a578063be9a65551461016a5761007d565b80630fb5a6b41461008257806317cf5391146100a057806319165587146100d0575b600080fd5b61008a610188565b604051610097919061075b565b60405180910390f35b6100ba60048036038101906100b59190610805565b6101b0565b6040516100c7919061075b565b60405180910390f35b6100ea60048036038101906100e59190610845565b61023b565b005b6100f4610300565b6040516101019190610881565b60405180910390f35b610124600480360381019061011f9190610845565b610328565b604051610131919061075b565b60405180910390f35b610154600480360381019061014f9190610845565b61033a565b604051610161919061075b565b60405180910390f35b610172610382565b60405161017f919061075b565b60405180910390f35b60007f0000000000000000000000000000000000000000000000000000000000000000905090565b60006101ba610382565b8210156101ca5760009050610235565b6101d2610188565b6101da610382565b6101e491906108cb565b82106101fa576101f3836103aa565b9050610235565b610202610188565b61020a610382565b836102159190610921565b61021e856103aa565b6102289190610955565b61023291906109de565b90505b92915050565b60006102468261033a565b61025083426101b0565b61025a9190610921565b9050806000808473ffffffffffffffffffffffffffffffffffffffff1673ffffffffffffffffffffffffffffffffffffffff16815260200190815260200160002060008282546102aa91906108cb565b925050819055507fc7798891864187665ac6dd119286e44ec13f014527aeeb2b8eb3fd413df9317982826040516102e2929190610a0f565b60405180910390a16102fc826102f6610300565b8361044f565b5050565b60007f0000000000000000000000000000000000000000000000000000000000000000905090565b6000610333826103aa565b9050919050565b60008060008373ffffffffffffffffffffffffffffffffffffffff1673ffffffffffffffffffffffffffffffffffffffff168152602001908152602001600020549050919050565b60007f0000000000000000000000000000000000000000000000000000000000000000905090565b60006103b58261033a565b8273ffffffffffffffffffffffffffffffffffffffff166370a08231306040518263ffffffff1660e01b81526004016103ee9190610881565b60206040518083038186803b15801561040657600080fd5b505afa15801561041a573d6000803e3d6000fd5b505050506040513d601f19601f8201168201806040525081019061043e9190610a4d565b61044891906108cb565b9050919050565b6104d08363a9059cbb60e01b848460405160240161046e929190610a0f565b604051602081830303815290604052907bffffffffffffffffffffffffffffffffffffffffffffffffffffffff19166020820180517bffffffffffffffffffffffffffffffffffffffffffffffffffffffff83818316178352505050506104d5565b505050565b6000610537826040518060400160405280602081526020017f5361666545524332303a206c6f772d6c6576656c2063616c6c206661696c65648152508573ffffffffffffffffffffffffffffffffffffffff1661059c9092919063ffffffff16565b905060008151111561059757808060200190518101906105579190610ab2565b610596576040517f08c379a000000000000000000000000000000000000000000000000000000000815260040161058d90610b62565b60405180910390fd5b5b505050565b60606105ab84846000856105b4565b90509392505050565b6060824710156105f9576040517f08c379a00000000000000000000000000000000000000000000000000000000081526004016105f090610bf4565b60405180910390fd5b610602856106c8565b610641576040517f08c379a000000000000000000000000000000000000000000000000000000000815260040161063890610c60565b60405180910390fd5b6000808673ffffffffffffffffffffffffffffffffffffffff16858760405161066a9190610cfa565b60006040518083038185875af1925050503d80600081146106a7576040519150601f19603f3d011682016040523d82523d6000602084013e6106ac565b606091505b50915091506106bc8282866106db565b92505050949350505050565b600080823b905060008111915050919050565b606083156106eb5782905061073b565b6000835111156106fe5782518084602001fd5b816040517f08c379a00000000000000000000000000000000000000000000000000000000081526004016107329190610d66565b60405180910390fd5b9392505050565b6000819050919050565b61075581610742565b82525050565b6000602082019050610770600083018461074c565b92915050565b600080fd5b600073ffffffffffffffffffffffffffffffffffffffff82169050919050565b60006107a68261077b565b9050919050565b6107b68161079b565b81146107c157600080fd5b50565b6000813590506107d3816107ad565b92915050565b6107e281610742565b81146107ed57600080fd5b50565b6000813590506107ff816107d9565b92915050565b6000806040838503121561081c5761081b610776565b5b600061082a858286016107c4565b925050602061083b858286016107f0565b9150509250929050565b60006020828403121561085b5761085a610776565b5b6000610869848285016107c4565b91505092915050565b61087b8161079b565b82525050565b60006020820190506108966000830184610872565b92915050565b7f4e487b7100000000000000000000000000000000000000000000000000000000600052601160045260246000fd5b60006108d682610742565b91506108e183610742565b9250827fffffffffffffffffffffffffffffffffffffffffffffffffffffffffffffffff038211156109165761091561089c565b5b828201905092915050565b600061092c82610742565b915061093783610742565b92508282101561094a5761094961089c565b5b828203905092915050565b600061096082610742565b915061096b83610742565b9250817fffffffffffffffffffffffffffffffffffffffffffffffffffffffffffffffff04831182151516156109a4576109a361089c565b5b828202905092915050565b7f4e487b7100000000000000000000000000000000000000000000000000000000600052601260045260246000fd5b60006109e982610742565b91506109f483610742565b925082610a0457610a036109af565b5b828204905092915050565b6000604082019050610a246000830185610872565b610a31602083018461074c565b9392505050565b600081519050610a47816107d9565b92915050565b600060208284031215610a6357610a62610776565b5b6000610a7184828501610a38565b91505092915050565b60008115159050919050565b610a8f81610a7a565b8114610a9a57600080fd5b50565b600081519050610aac81610a86565b92915050565b600060208284031215610ac857610ac7610776565b5b6000610ad684828501610a9d565b91505092915050565b600082825260208201905092915050565b7f5361666545524332303a204552433230206f7065726174696f6e20646964206e60008201527f6f74207375636365656400000000000000000000000000000000000000000000602082015250565b6000610b4c602a83610adf565b9150610b5782610af0565b604082019050919050565b60006020820190508181036000830152610b7b81610b3f565b9050919050565b7f416464726573733a20696e73756666696369656e742062616c616e636520666f60008201527f722063616c6c0000000000000000000000000000000000000000000000000000602082015250565b6000610bde602683610adf565b9150610be982610b82565b604082019050919050565b60006020820190508181036000830152610c0d81610bd1565b9050919050565b7f416464726573733a2063616c6c20746f206e6f6e2d636f6e7472616374000000600082015250565b6000610c4a601d83610adf565b9150610c5582610c14565b602082019050919050565b60006020820190508181036000830152610c7981610c3d565b9050919050565b600081519050919050565b600081905092915050565b60005b83811015610cb4578082015181840152602081019050610c99565b83811115610cc3576000848401525b50505050565b6000610cd482610c80565b610cde8185610c8b565b9350610cee818560208601610c96565b80840191505092915050565b6000610d068284610cc9565b915081905092915050565b600081519050919050565b6000601f19601f8301169050919050565b6000610d3882610d11565b610d428185610adf565b9350610d52818560208601610c96565b610d5b81610d1c565b840191505092915050565b60006020820190508181036000830152610d808184610d2d565b90509291505056fea264697066735822122016f3212ee3f9aa0f02d8a66fa725be00869d75b96920489b0810ce2377fe6c6764736f6c63430008090033",
  "immutableReferences": {
    "2990": [
      {
        "length": 32,
        "start": 772
      }
    ],
    "2992": [
      {
        "length": 32,
        "start": 902
      }
    ],
    "2994": [
      {
        "length": 32,
        "start": 396
      }
    ]
  },
  "source": "// SPDX-License-Identifier: MIT\r\npragma solidity 0.8.9;\r\n\r\nimport \"./ERC20VestingWallet.sol\";  \r\n\r\n/**\r\n * @title TeamVesting\r\n * @dev Handle 3 year vesting for ERC20 tokens. \r\n */ \r\ncontract TeamVesting is ERC20VestingWallet{\r\n\r\n\tconstructor(address to) ERC20VestingWallet(to, 365 days * 3){\r\n\t\trequire(to != address(this));\r\n\t}\r\n\t/**\r\n\t  @dev Getter for historical balance \r\n\t */\r\n\tfunction getHistoricalBalance(address token) public view returns (uint256){\r\n\t\treturn _historicalBalance(token);\r\n\t}\r\n\r\n}",
  "sourcePath": "C:\\Users\\Crisla\\Documents\\Repos\\repos\\eterland-public-smart-contracts\\contracts\\TeamVesting.sol",
  "compiler": {
    "name": "solc",
    "version": "0.8.9+commit.e5eed63a.Emscripten.clang"
  },
  "schemaVersion": "3.4.3",
  "updatedAt": "2021-11-12T13:15:54.122Z",
  "devdoc": {
    "details": "Handle 3 year vesting for ERC20 tokens. ",
    "kind": "dev",
    "methods": {
      "beneficiary()": {
        "details": "Getter for the beneficiary address."
      },
      "duration()": {
        "details": "Getter for the vesting duration."
      },
      "getHistoricalBalance(address)": {
        "details": "Getter for historical balance "
      },
      "release(address)": {
        "details": "Release the tokens that have already vested. Emits a {TokensReleased} event."
      },
      "released(address)": {
        "details": "Amont of token already released"
      },
      "start()": {
        "details": "Getter for the start timestamp."
      },
      "vestedAmount(address,uint256)": {
        "details": "Calculates the amount that has already vested. Default implementation is a linear vesting curve."
      }
    },
    "title": "TeamVesting",
    "version": 1
  },
  "userdoc": {
    "kind": "user",
    "methods": {},
    "version": 1
  }
}