{
  "contractName": "Vesting",
  "abi": [
    {
      "inputs": [
        {
          "internalType": "address",
          "name": "beneficiaryAddress",
          "type": "address"
        }
      ],
      "stateMutability": "nonpayable",
      "type": "constructor"
    },
    {
      "anonymous": false,
      "inputs": [
        {
          "indexed": false,
          "internalType": "address",
          "name": "token",
          "type": "address"
        },
        {
          "indexed": false,
          "internalType": "uint256",
          "name": "amount",
          "type": "uint256"
        }
      ],
      "name": "TokensReleased",
      "type": "event"
    },
    {
      "inputs": [],
      "name": "beneficiary",
      "outputs": [
        {
          "internalType": "address",
          "name": "",
          "type": "address"
        }
      ],
      "stateMutability": "view",
      "type": "function"
    },
    {
      "inputs": [],
      "name": "start",
      "outputs": [
        {
          "internalType": "uint256",
          "name": "",
          "type": "uint256"
        }
      ],
      "stateMutability": "view",
      "type": "function"
    },
    {
      "inputs": [],
      "name": "duration",
      "outputs": [
        {
          "internalType": "uint256",
          "name": "",
          "type": "uint256"
        }
      ],
      "stateMutability": "view",
      "type": "function"
    },
    {
      "inputs": [
        {
          "internalType": "address",
          "name": "token",
          "type": "address"
        }
      ],
      "name": "released",
      "outputs": [
        {
          "internalType": "uint256",
          "name": "",
          "type": "uint256"
        }
      ],
      "stateMutability": "view",
      "type": "function"
    },
    {
      "inputs": [
        {
          "internalType": "address",
          "name": "token",
          "type": "address"
        }
      ],
      "name": "release",
      "outputs": [],
      "stateMutability": "nonpayable",
      "type": "function"
    },
    {
      "inputs": [
        {
          "internalType": "address",
          "name": "token",
          "type": "address"
        },
        {
          "internalType": "uint256",
          "name": "timestamp",
          "type": "uint256"
        }
      ],
      "name": "vestedAmount",
      "outputs": [
        {
          "internalType": "uint256",
          "name": "",
          "type": "uint256"
        }
      ],
      "stateMutability": "view",
      "type": "function"
    }
  ],
  "bytecode": "0x60e06040523480156200001157600080fd5b5060405162000fcf38038062000fcf833981810160405281019062000037919062000163565b600073ffffffffffffffffffffffffffffffffffffffff168173ffffffffffffffffffffffffffffffffffffffff161415620000aa576040517f08c379a0000000000000000000000000000000000000000000000000000000008152600401620000a1906200021c565b60405180910390fd5b8073ffffffffffffffffffffffffffffffffffffffff1660808173ffffffffffffffffffffffffffffffffffffffff16815250504260a081815250506301e1338060c08181525050506200023e565b600080fd5b600073ffffffffffffffffffffffffffffffffffffffff82169050919050565b60006200012b82620000fe565b9050919050565b6200013d816200011e565b81146200014957600080fd5b50565b6000815190506200015d8162000132565b92915050565b6000602082840312156200017c576200017b620000f9565b5b60006200018c848285016200014c565b91505092915050565b600082825260208201905092915050565b7f455243323056657374696e6757616c6c65743a2062656e65666963696172792060008201527f6973207a65726f20616464726573730000000000000000000000000000000000602082015250565b600062000204602f8362000195565b91506200021182620001a6565b604082019050919050565b600060208201905081810360008301526200023781620001f5565b9050919050565b60805160a05160c051610d616200026e600039600061014101526000610329015260006102b90152610d616000f3fe608060405234801561001057600080fd5b50600436106100625760003560e01c80630fb5a6b41461006757806317cf53911461008557806319165587146100b557806338af3eed146100d15780639852595c146100ef578063be9a65551461011f575b600080fd5b61006f61013d565b60405161007c91906106fe565b60405180910390f35b61009f600480360381019061009a91906107a8565b610165565b6040516100ac91906106fe565b60405180910390f35b6100cf60048036038101906100ca91906107e8565b6101f0565b005b6100d96102b5565b6040516100e69190610824565b60405180910390f35b610109600480360381019061010491906107e8565b6102dd565b60405161011691906106fe565b60405180910390f35b610127610325565b60405161013491906106fe565b60405180910390f35b60007f0000000000000000000000000000000000000000000000000000000000000000905090565b600061016f610325565b82101561017f57600090506101ea565b61018761013d565b61018f610325565b610199919061086e565b82106101af576101a88361034d565b90506101ea565b6101b761013d565b6101bf610325565b836101ca91906108c4565b6101d38561034d565b6101dd91906108f8565b6101e79190610981565b90505b92915050565b60006101fb826102dd565b6102058342610165565b61020f91906108c4565b9050806000808473ffffffffffffffffffffffffffffffffffffffff1673ffffffffffffffffffffffffffffffffffffffff168152602001908152602001600020600082825461025f919061086e565b925050819055507fc7798891864187665ac6dd119286e44ec13f014527aeeb2b8eb3fd413df9317982826040516102979291906109b2565b60405180910390a16102b1826102ab6102b5565b836103f2565b5050565b60007f0000000000000000000000000000000000000000000000000000000000000000905090565b60008060008373ffffffffffffffffffffffffffffffffffffffff1673ffffffffffffffffffffffffffffffffffffffff168152602001908152602001600020549050919050565b60007f0000000000000000000000000000000000000000000000000000000000000000905090565b6000610358826102dd565b8273ffffffffffffffffffffffffffffffffffffffff166370a08231306040518263ffffffff1660e01b81526004016103919190610824565b60206040518083038186803b1580156103a957600080fd5b505afa1580156103bd573d6000803e3d6000fd5b505050506040513d601f19601f820116820180604052508101906103e191906109f0565b6103eb919061086e565b9050919050565b6104738363a9059cbb60e01b84846040516024016104119291906109b2565b604051602081830303815290604052907bffffffffffffffffffffffffffffffffffffffffffffffffffffffff19166020820180517bffffffffffffffffffffffffffffffffffffffffffffffffffffffff8381831617835250505050610478565b505050565b60006104da826040518060400160405280602081526020017f5361666545524332303a206c6f772d6c6576656c2063616c6c206661696c65648152508573ffffffffffffffffffffffffffffffffffffffff1661053f9092919063ffffffff16565b905060008151111561053a57808060200190518101906104fa9190610a55565b610539576040517f08c379a000000000000000000000000000000000000000000000000000000000815260040161053090610b05565b60405180910390fd5b5b505050565b606061054e8484600085610557565b90509392505050565b60608247101561059c576040517f08c379a000000000000000000000000000000000000000000000000000000000815260040161059390610b97565b60405180910390fd5b6105a58561066b565b6105e4576040517f08c379a00000000000000000000000000000000000000000000000000000000081526004016105db90610c03565b60405180910390fd5b6000808673ffffffffffffffffffffffffffffffffffffffff16858760405161060d9190610c9d565b60006040518083038185875af1925050503d806000811461064a576040519150601f19603f3d011682016040523d82523d6000602084013e61064f565b606091505b509150915061065f82828661067e565b92505050949350505050565b600080823b905060008111915050919050565b6060831561068e578290506106de565b6000835111156106a15782518084602001fd5b816040517f08c379a00000000000000000000000000000000000000000000000000000000081526004016106d59190610d09565b60405180910390fd5b9392505050565b6000819050919050565b6106f8816106e5565b82525050565b600060208201905061071360008301846106ef565b92915050565b600080fd5b600073ffffffffffffffffffffffffffffffffffffffff82169050919050565b60006107498261071e565b9050919050565b6107598161073e565b811461076457600080fd5b50565b60008135905061077681610750565b92915050565b610785816106e5565b811461079057600080fd5b50565b6000813590506107a28161077c565b92915050565b600080604083850312156107bf576107be610719565b5b60006107cd85828601610767565b92505060206107de85828601610793565b9150509250929050565b6000602082840312156107fe576107fd610719565b5b600061080c84828501610767565b91505092915050565b61081e8161073e565b82525050565b60006020820190506108396000830184610815565b92915050565b7f4e487b7100000000000000000000000000000000000000000000000000000000600052601160045260246000fd5b6000610879826106e5565b9150610884836106e5565b9250827fffffffffffffffffffffffffffffffffffffffffffffffffffffffffffffffff038211156108b9576108b861083f565b5b828201905092915050565b60006108cf826106e5565b91506108da836106e5565b9250828210156108ed576108ec61083f565b5b828203905092915050565b6000610903826106e5565b915061090e836106e5565b9250817fffffffffffffffffffffffffffffffffffffffffffffffffffffffffffffffff04831182151516156109475761094661083f565b5b828202905092915050565b7f4e487b7100000000000000000000000000000000000000000000000000000000600052601260045260246000fd5b600061098c826106e5565b9150610997836106e5565b9250826109a7576109a6610952565b5b828204905092915050565b60006040820190506109c76000830185610815565b6109d460208301846106ef565b9392505050565b6000815190506109ea8161077c565b92915050565b600060208284031215610a0657610a05610719565b5b6000610a14848285016109db565b91505092915050565b60008115159050919050565b610a3281610a1d565b8114610a3d57600080fd5b50565b600081519050610a4f81610a29565b92915050565b600060208284031215610a6b57610a6a610719565b5b6000610a7984828501610a40565b91505092915050565b600082825260208201905092915050565b7f5361666545524332303a204552433230206f7065726174696f6e20646964206e60008201527f6f74207375636365656400000000000000000000000000000000000000000000602082015250565b6000610aef602a83610a82565b9150610afa82610a93565b604082019050919050565b60006020820190508181036000830152610b1e81610ae2565b9050919050565b7f416464726573733a20696e73756666696369656e742062616c616e636520666f60008201527f722063616c6c0000000000000000000000000000000000000000000000000000602082015250565b6000610b81602683610a82565b9150610b8c82610b25565b604082019050919050565b60006020820190508181036000830152610bb081610b74565b9050919050565b7f416464726573733a2063616c6c20746f206e6f6e2d636f6e7472616374000000600082015250565b6000610bed601d83610a82565b9150610bf882610bb7565b602082019050919050565b60006020820190508181036000830152610c1c81610be0565b9050919050565b600081519050919050565b600081905092915050565b60005b83811015610c57578082015181840152602081019050610c3c565b83811115610c66576000848401525b50505050565b6000610c7782610c23565b610c818185610c2e565b9350610c91818560208601610c39565b80840191505092915050565b6000610ca98284610c6c565b915081905092915050565b600081519050919050565b6000601f19601f8301169050919050565b6000610cdb82610cb4565b610ce58185610a82565b9350610cf5818560208601610c39565b610cfe81610cbf565b840191505092915050565b60006020820190508181036000830152610d238184610cd0565b90509291505056fea26469706673582212207eba512ed26574ec17372ff28cf2de40cd9a025822b36eb86b2e626fc2a27ac764736f6c63430008090033",
  "immutableReferences": {
    "3888": [
      {
        "length": 32,
        "start": 697
      }
    ],
    "3890": [
      {
        "length": 32,
        "start": 809
      }
    ],
    "3892": [
      {
        "length": 32,
        "start": 321
      }
    ]
  },
  "source": "// SPDX-License-Identifier: MIT\r\n\r\npragma solidity ^0.8.9;\r\n\r\nimport \"@openzeppelin/contracts/utils/Context.sol\";\r\nimport \"@openzeppelin/contracts/token/ERC20/IERC20.sol\";\r\nimport \"@openzeppelin/contracts/token/ERC20/utils/SafeERC20.sol\";\r\n/**\r\n * @title ERC20VestingWallet\r\n * @dev This contract handles the vesting of ERC20 tokens for a given beneficiary. Custody of multiple tokens can be\r\n * given to this contract, which will release the token to the beneficiary following a given vesting schedule. The\r\n * vesting schedule is customizable through the {vestedAmount} function.\r\n *\r\n * Any token transferred to this contract will follow the vesting schedule as if they were locked from the beginning.\r\n * Consequently, if the vesting has already started, any amount of tokens sent to this contract will (at least partly)\r\n * be immediately releasable.\r\n */\r\ncontract Vesting is Context {\r\n\r\n    event TokensReleased(address token, uint256 amount);\r\n\r\n    mapping(address => uint256) private _released;\r\n    address private immutable _beneficiary;\r\n    uint256 private immutable _start;\r\n    uint256 private immutable _duration;\r\n\r\n    modifier onlyDestinatary() {\r\n        require(beneficiary() == _msgSender(), \r\n\t\t\"ERC20VestingWallet: access restricted to beneficiary\");\r\n        _;\r\n    }\r\n\r\n    /**\r\n     * @dev Set the beneficiary, start timestamp and vesting duration of the vesting wallet.\r\n     */\r\n    constructor(\r\n        address beneficiaryAddress\r\n    ) {\r\n        require(beneficiaryAddress != address(0),\r\n\t\t \"ERC20VestingWallet: beneficiary is zero address\");\r\n        _beneficiary = beneficiaryAddress;\r\n        _start = block.timestamp;\r\n        // Mainnet Value\r\n        // _duration = 10 years;\r\n        // Test Value\r\n        _duration = 365 days;\r\n    }\r\n\r\n    /**\r\n     * @dev Getter for the beneficiary address.\r\n     */\r\n    function beneficiary() public view virtual returns (address) {\r\n        return _beneficiary;\r\n    }\r\n\r\n    /**\r\n     * @dev Getter for the start timestamp.\r\n     */\r\n    function start() public view virtual returns (uint256) {\r\n        return _start;\r\n    }\r\n\r\n    /**\r\n     * @dev Getter for the vesting duration.\r\n     */\r\n    function duration() public view virtual returns (uint256) {\r\n        return _duration;\r\n    }\r\n\r\n    /**\r\n     * @dev Amont of token already released\r\n     */\r\n    function released(address token) public view returns (uint256) {\r\n        return _released[token];\r\n    }\r\n\r\n    /**\r\n     * @dev Release the tokens that have already vested.\r\n     *\r\n     * Emits a {TokensReleased} event.\r\n     */\r\n    function release(address token) public virtual {\r\n        uint256 releasable = vestedAmount(token, block.timestamp) - released(token);\r\n        _released[token] += releasable;\r\n        emit TokensReleased(token, releasable);\r\n        SafeERC20.safeTransfer(IERC20(token), beneficiary(), releasable);\r\n    }\r\n\r\n    /**\r\n     * @dev Calculates the amount that has already vested. Default implementation is a linear vesting curve.\r\n     */\r\n    function vestedAmount(address token, uint256 timestamp) public view virtual returns (uint256) {\r\n        if (timestamp < start()) {\r\n            return 0;\r\n        } else if (timestamp >= start() + duration()) {\r\n            return _historicalBalance(token);\r\n        } else {\r\n            return  (_historicalBalance(token) * (timestamp - start())) / duration();\r\n        }\r\n    }\r\n\r\n    /**\r\n     * @dev Calculates the historical balance (current balance + already released balance).\r\n     */\r\n    function _historicalBalance(address token) internal view virtual returns (uint256) {\r\n        return IERC20(token).balanceOf(address(this)) + released(token);\r\n    }\r\n}",
  "sourcePath": "C:\\Users\\Crisla\\Documents\\Repos\\repos\\smart-contracts\\contracts\\Vesting.sol",
  "compiler": {
    "name": "solc",
    "version": "0.8.9+commit.e5eed63a.Emscripten.clang"
  },
  "schemaVersion": "3.4.3",
  "updatedAt": "2021-11-01T21:56:33.280Z",
  "devdoc": {
    "details": "This contract handles the vesting of ERC20 tokens for a given beneficiary. Custody of multiple tokens can be given to this contract, which will release the token to the beneficiary following a given vesting schedule. The vesting schedule is customizable through the {vestedAmount} function. Any token transferred to this contract will follow the vesting schedule as if they were locked from the beginning. Consequently, if the vesting has already started, any amount of tokens sent to this contract will (at least partly) be immediately releasable.",
    "kind": "dev",
    "methods": {
      "beneficiary()": {
        "details": "Getter for the beneficiary address."
      },
      "constructor": {
        "details": "Set the beneficiary, start timestamp and vesting duration of the vesting wallet."
      },
      "duration()": {
        "details": "Getter for the vesting duration."
      },
      "release(address)": {
        "details": "Release the tokens that have already vested. Emits a {TokensReleased} event."
      },
      "released(address)": {
        "details": "Amont of token already released"
      },
      "start()": {
        "details": "Getter for the start timestamp."
      },
      "vestedAmount(address,uint256)": {
        "details": "Calculates the amount that has already vested. Default implementation is a linear vesting curve."
      }
    },
    "title": "ERC20VestingWallet",
    "version": 1
  },
  "userdoc": {
    "kind": "user",
    "methods": {},
    "version": 1
  }
}